{
  "abi": [
    {
      "anonymous": false,
      "inputs": [
        {
          "indexed": true,
          "internalType": "uint256",
          "name": "predictionId",
          "type": "uint256"
        },
        {
          "indexed": false,
          "internalType": "bool",
          "name": "bet",
          "type": "bool"
        },
        {
          "indexed": false,
          "internalType": "uint256",
          "name": "likelihood",
          "type": "uint256"
        }
      ],
      "name": "PredictionBetCreated",
      "type": "event"
    },
    {
      "anonymous": false,
      "inputs": [
        {
          "indexed": false,
          "internalType": "uint256",
          "name": "predictionId",
          "type": "uint256"
        },
        {
          "indexed": false,
          "internalType": "string",
          "name": "prediction",
          "type": "string"
        }
      ],
      "name": "PredictionCreated",
      "type": "event"
    },
    {
      "inputs": [
        {
          "internalType": "uint256",
          "name": "_pollId",
          "type": "uint256"
        },
        {
          "internalType": "uint256",
          "name": "_proposalId",
          "type": "uint256"
        },
        {
          "internalType": "uint256",
          "name": "_predictionId",
          "type": "uint256"
        }
      ],
      "name": "getPredictionBets",
      "outputs": [
        {
          "components": [
            {
              "internalType": "uint256",
              "name": "pollId",
              "type": "uint256"
            },
            {
              "internalType": "uint256",
              "name": "proposalId",
              "type": "uint256"
            },
            {
              "internalType": "uint256",
              "name": "predictionId",
              "type": "uint256"
            },
            {
              "internalType": "bool",
              "name": "bet",
              "type": "bool"
            },
            {
              "internalType": "uint256",
              "name": "likelihood",
              "type": "uint256"
            },
            {
              "internalType": "enum PollStructs.PollPhase",
              "name": "phase",
              "type": "uint8"
            }
          ],
          "internalType": "struct PredictionBets.PredictionBet[]",
          "name": "",
          "type": "tuple[]"
        }
      ],
      "stateMutability": "view",
      "type": "function"
    },
    {
      "inputs": [
        {
          "internalType": "uint256",
          "name": "_pollId",
          "type": "uint256"
        },
        {
          "internalType": "uint256",
          "name": "_proposalId",
          "type": "uint256"
        },
        {
          "internalType": "uint256",
          "name": "_predictionId",
          "type": "uint256"
        },
        {
          "internalType": "uint256",
          "name": "_likelihood",
          "type": "uint256"
        },
        {
          "internalType": "bool",
          "name": "_bet",
          "type": "bool"
        }
      ],
      "name": "placePredictionBet",
      "outputs": [],
      "stateMutability": "nonpayable",
      "type": "function"
    },
    {
      "inputs": [
        {
          "internalType": "uint256",
          "name": "",
          "type": "uint256"
        }
      ],
      "name": "polls",
      "outputs": [
        {
          "internalType": "string",
          "name": "title",
          "type": "string"
        },
        {
          "internalType": "string",
          "name": "tag",
          "type": "string"
        },
        {
          "internalType": "uint256",
          "name": "group",
          "type": "uint256"
        },
        {
          "internalType": "uint256",
          "name": "pollStartDate",
          "type": "uint256"
        },
        {
          "internalType": "uint256",
          "name": "proposalEndDate",
          "type": "uint256"
        },
        {
          "internalType": "uint256",
          "name": "votingStartDate",
          "type": "uint256"
        },
        {
          "internalType": "uint256",
          "name": "delegateEndDate",
          "type": "uint256"
        },
        {
          "internalType": "uint256",
          "name": "endDate",
          "type": "uint256"
        },
        {
          "internalType": "uint256",
          "name": "pollId",
          "type": "uint256"
        },
        {
          "internalType": "uint256",
          "name": "proposalCount",
          "type": "uint256"
        },
        {
          "internalType": "enum PollStructs.PollPhase",
          "name": "phase",
          "type": "uint8"
        }
      ],
      "stateMutability": "view",
      "type": "function"
    },
    {
      "inputs": [
        {
          "internalType": "uint256",
          "name": "",
          "type": "uint256"
        },
        {
          "internalType": "uint256",
          "name": "",
          "type": "uint256"
        }
      ],
      "name": "predictionBets",
      "outputs": [
        {
          "internalType": "uint256",
          "name": "pollId",
          "type": "uint256"
        },
        {
          "internalType": "uint256",
          "name": "proposalId",
          "type": "uint256"
        },
        {
          "internalType": "uint256",
          "name": "predictionId",
          "type": "uint256"
        },
        {
          "internalType": "bool",
          "name": "bet",
          "type": "bool"
        },
        {
          "internalType": "uint256",
          "name": "likelihood",
          "type": "uint256"
        },
        {
          "internalType": "enum PollStructs.PollPhase",
          "name": "phase",
          "type": "uint8"
        }
      ],
      "stateMutability": "view",
      "type": "function"
    },
    {
      "inputs": [
        {
          "internalType": "uint256",
          "name": "",
          "type": "uint256"
        },
        {
          "internalType": "uint256",
          "name": "",
          "type": "uint256"
        }
      ],
      "name": "predictions",
      "outputs": [
        {
          "internalType": "uint256",
          "name": "pollId",
          "type": "uint256"
        },
        {
          "internalType": "uint256",
          "name": "proposalId",
          "type": "uint256"
        },
        {
          "internalType": "uint256",
          "name": "predictionId",
          "type": "uint256"
        },
        {
          "internalType": "string",
          "name": "prediction",
          "type": "string"
        },
        {
          "internalType": "uint256",
          "name": "yesBets",
          "type": "uint256"
        },
        {
          "internalType": "uint256",
          "name": "noBets",
          "type": "uint256"
        },
        {
          "internalType": "enum PollStructs.PollPhase",
          "name": "phase",
          "type": "uint8"
        }
      ],
      "stateMutability": "view",
      "type": "function"
    },
    {
      "inputs": [
        {
          "internalType": "uint256",
          "name": "",
          "type": "uint256"
        },
        {
          "internalType": "uint256",
          "name": "",
          "type": "uint256"
        }
      ],
      "name": "proposals",
      "outputs": [
        {
          "internalType": "string",
          "name": "description",
          "type": "string"
        },
        {
          "internalType": "uint256",
          "name": "voteCount",
          "type": "uint256"
        },
        {
          "internalType": "uint256",
          "name": "proposalId",
          "type": "uint256"
        },
        {
          "internalType": "uint256",
          "name": "predictionCount",
          "type": "uint256"
        },
        {
          "internalType": "enum PollStructs.PollPhase",
          "name": "phase",
          "type": "uint8"
        }
      ],
      "stateMutability": "view",
      "type": "function"
    }
  ],
  "bytecode": {
    "object": "0x608060405234801561001057600080fd5b50610e11806100206000396000f3fe608060405234801561001057600080fd5b50600436106100625760003560e01c8063025ae4e2146100675780633128fcb61461009657806344f0bb77146100b6578063ac2f0074146100db578063c20572af14610105578063c2cfee271461011a575b600080fd5b61007a610075366004610a65565b61013e565b60405161008d9796959493929190610b05565b60405180910390f35b6100a96100a4366004610b51565b61022a565b60405161008d9190610b7d565b6100c96100c4366004610a65565b610406565b60405161008d96959493929190610c03565b6100ee6100e9366004610c40565b610461565b60405161008d9b9a99989796959493929190610c59565b610118610113366004610cd4565b6105cb565b005b61012d610128366004610a65565b610806565b60405161008d959493929190610d26565b6002602052816000526040600020818154811061015a57600080fd5b90600052602060002090600702016000915091505080600001549080600101549080600201549080600301805461019090610d64565b80601f01602080910402602001604051908101604052809291908181526020018280546101bc90610d64565b80156102095780601f106101de57610100808354040283529160200191610209565b820191906000526020600020905b8154815290600101906020018083116101ec57829003601f168201915b50505050600483015460058401546006909401549293909290915060ff1687565b606083838361023a8383836108e5565b600087815260016020526040812054905b8181116103c557600089815260016020526040902080548991908390811061027557610275610d9e565b906000526020600020906005020160020154036103bd57600088815260026020526040812054905b8181116103ba5760008a815260026020526040902080548a9190839081106102c7576102c7610d9e565b906000526020600020906007020160020154036103b257600089815260036020908152604080832080548251818502810185019093528083529193909284015b828210156103a35760008481526020908190206040805160c081018252600686029092018054835260018101549383019390935260028301549082015260038083015460ff9081161515606084015260048401546080840152600584015492939260a085019291169081111561037f5761037f610acd565b600381111561039057610390610acd565b8152505081526020019060010190610307565b505050509750505050506103fc565b60010161029d565b50505b60010161024b565b5060408051600080825260208201909252906103f7565b6103e4610a1d565b8152602001906001900390816103dc5790505b509450505b5050509392505050565b6003602052816000526040600020818154811061042257600080fd5b60009182526020909120600690910201805460018201546002830154600384015460048501546005909501549396509194509260ff9182169290911686565b60006020819052908152604090208054819061047c90610d64565b80601f01602080910402602001604051908101604052809291908181526020018280546104a890610d64565b80156104f55780601f106104ca576101008083540402835291602001916104f5565b820191906000526020600020905b8154815290600101906020018083116104d857829003601f168201915b50505050509080600101805461050a90610d64565b80601f016020809104026020016040519081016040528092919081815260200182805461053690610d64565b80156105835780601f1061055857610100808354040283529160200191610583565b820191906000526020600020905b81548152906001019060200180831161056657829003601f168201915b50505060028401546003850154600486015460058701546006880154600789015460088a015460098b0154600a909b0154999a96999598509396509194909391929160ff168b565b8484846105d98383836108e5565b6000851161062e5760405162461bcd60e51b815260206004820152601f60248201527f56616c7565206e6565647320746f20626520686967686572207468616e20300060448201526064015b60405180910390fd5b60006002600089815260026020526040902061064b60018a610db4565b8154811061065b5761065b610d9e565b600091825260209091206006600790920201015460ff16600381111561068357610683610acd565b149050806106df5760405162461bcd60e51b8152602060048201526024808201527f596f752063616e206e6f7420706c61636520612062657420617420746869732060448201526374696d6560e01b6064820152608401610625565b600360006106ee60018a610db4565b81526020019081526020016000206040518060c001604052808b81526020018a8152602001898152602001871515815260200188815260200160038081111561073957610739610acd565b90528154600181810184556000938452602093849020835160069093020191825592820151818401556040820151600282015560608201516003808301805492151560ff199384161790556080840151600484015560a08401516005840180549596949591949093919091169184908111156107b7576107b7610acd565b021790555050604080518715158152602081018990528992507fefbf97b6b2de004cd3e8b4af6b867bf332de6df57c2447d9b5c5a00abaec5d1f910160405180910390a2505050505050505050565b6001602052816000526040600020818154811061082257600080fd5b90600052602060002090600502016000915091505080600001805461084690610d64565b80601f016020809104026020016040519081016040528092919081815260200182805461087290610d64565b80156108bf5780601f10610894576101008083540402835291602001916108bf565b820191906000526020600020905b8154815290600101906020018083116108a257829003601f168201915b505050506001830154600284015460038501546004909501549394919390925060ff1685565b6108f0838383610941565b61093c5760405162461bcd60e51b815260206004820152601960248201527f50726564696374696f6e20646f6573206e6f74206578697374000000000000006044820152606401610625565b505050565b600083815260016020526040812054815b818111610a0f57600086815260016020526040902080548691908390811061097c5761097c610d9e565b90600052602060002090600502016002015403610a0757600085815260026020526040812054905b8181116109fa5760008781526002602052604090208054879190839081106109ce576109ce610d9e565b906000526020600020906007020160020154036109f2576001945050505050610a16565b6001016109a4565b5060009350505050610a16565b600101610952565b5060009150505b9392505050565b6040518060c001604052806000815260200160008152602001600081526020016000151581526020016000815260200160006003811115610a6057610a60610acd565b905290565b60008060408385031215610a7857600080fd5b50508035926020909101359150565b6000815180845260005b81811015610aad57602081850181015186830182015201610a91565b506000602082860101526020601f19601f83011685010191505092915050565b634e487b7160e01b600052602160045260246000fd5b60048110610b0157634e487b7160e01b600052602160045260246000fd5b9052565b87815286602082015285604082015260e060608201526000610b2a60e0830187610a87565b90508460808301528360a0830152610b4560c0830184610ae3565b98975050505050505050565b600080600060608486031215610b6657600080fd5b505081359360208301359350604090920135919050565b602080825282518282018190526000919060409081850190868401855b82811015610bf657815180518552868101518786015285810151868601526060808201511515908601526080808201519086015260a09081015190610be181870183610ae3565b505060c0939093019290850190600101610b9a565b5091979650505050505050565b600060c0820190508782528660208301528560408301528415156060830152836080830152610c3560a0830184610ae3565b979650505050505050565b600060208284031215610c5257600080fd5b5035919050565b6000610160808352610c6d8184018f610a87565b90508281036020840152610c81818e610a87565b9150508a60408301528960608301528860808301528760a08301528660c08301528560e08301528461010083015283610120830152610cc4610140830184610ae3565b9c9b505050505050505050505050565b600080600080600060a08688031215610cec57600080fd5b8535945060208601359350604086013592506060860135915060808601358015158114610d1857600080fd5b809150509295509295909350565b60a081526000610d3960a0830188610a87565b9050856020830152846040830152836060830152610d5a6080830184610ae3565b9695505050505050565b600181811c90821680610d7857607f821691505b602082108103610d9857634e487b7160e01b600052602260045260246000fd5b50919050565b634e487b7160e01b600052603260045260246000fd5b81810381811115610dd557634e487b7160e01b600052601160045260246000fd5b9291505056fea2646970667358221220e770023b620913178d350cb8303aebc018d24e9f98b50b0bd8e88ec90116ae2d64736f6c63430008170033",
    "linkReferences": {}
  },
  "methodIdentifiers": {
    "getPredictionBets(uint256,uint256,uint256)": "3128fcb6",
    "placePredictionBet(uint256,uint256,uint256,uint256,bool)": "c20572af",
    "polls(uint256)": "ac2f0074",
    "predictionBets(uint256,uint256)": "44f0bb77",
    "predictions(uint256,uint256)": "025ae4e2",
    "proposals(uint256,uint256)": "c2cfee27"
  },
  "id": 21
}