{
  "abi": [
    {
      "anonymous": false,
      "inputs": [
        {
          "indexed": true,
          "internalType": "uint256",
          "name": "predictionId",
          "type": "uint256"
        },
        {
          "indexed": false,
          "internalType": "bool",
          "name": "bet",
          "type": "bool"
        },
        {
          "indexed": false,
          "internalType": "uint256",
          "name": "likelihood",
          "type": "uint256"
        }
      ],
      "name": "PredictionBetCreated",
      "type": "event"
    },
    {
      "anonymous": false,
      "inputs": [
        {
          "indexed": false,
          "internalType": "uint256",
          "name": "pollId",
          "type": "uint256"
        },
        {
          "indexed": false,
          "internalType": "uint256",
          "name": "proposalId",
          "type": "uint256"
        },
        {
          "indexed": false,
          "internalType": "uint256",
          "name": "predictionId",
          "type": "uint256"
        },
        {
          "indexed": false,
          "internalType": "string",
          "name": "prediction",
          "type": "string"
        }
      ],
      "name": "PredictionCreated",
      "type": "event"
    },
    {
      "inputs": [
        {
          "internalType": "uint256",
          "name": "_pollId",
          "type": "uint256"
        },
        {
          "internalType": "uint256",
          "name": "_proposalId",
          "type": "uint256"
        },
        {
          "internalType": "uint256",
          "name": "_predictionId",
          "type": "uint256"
        }
      ],
      "name": "getPredictionBets",
      "outputs": [
        {
          "components": [
            {
              "internalType": "uint256",
              "name": "pollId",
              "type": "uint256"
            },
            {
              "internalType": "uint256",
              "name": "proposalId",
              "type": "uint256"
            },
            {
              "internalType": "uint256",
              "name": "predictionId",
              "type": "uint256"
            },
            {
              "internalType": "bool",
              "name": "bet",
              "type": "bool"
            },
            {
              "internalType": "uint256",
              "name": "likelihood",
              "type": "uint256"
            },
            {
              "internalType": "enum PollStructs.PollPhase",
              "name": "phase",
              "type": "uint8"
            }
          ],
          "internalType": "struct PredictionBetStructs.PredictionBet[]",
          "name": "",
          "type": "tuple[]"
        }
      ],
      "stateMutability": "view",
      "type": "function"
    },
    {
      "inputs": [
        {
          "internalType": "uint256",
          "name": "_pollId",
          "type": "uint256"
        },
        {
          "internalType": "uint256",
          "name": "_proposalId",
          "type": "uint256"
        },
        {
          "internalType": "uint256",
          "name": "_predictionId",
          "type": "uint256"
        },
        {
          "internalType": "uint256",
          "name": "_likelihood",
          "type": "uint256"
        },
        {
          "internalType": "bool",
          "name": "_bet",
          "type": "bool"
        }
      ],
      "name": "placePredictionBet",
      "outputs": [],
      "stateMutability": "nonpayable",
      "type": "function"
    },
    {
      "inputs": [],
      "name": "pollCount",
      "outputs": [
        {
          "internalType": "uint256",
          "name": "",
          "type": "uint256"
        }
      ],
      "stateMutability": "view",
      "type": "function"
    },
    {
      "inputs": [
        {
          "internalType": "uint256",
          "name": "",
          "type": "uint256"
        }
      ],
      "name": "polls",
      "outputs": [
        {
          "internalType": "string",
          "name": "title",
          "type": "string"
        },
        {
          "internalType": "string",
          "name": "tag",
          "type": "string"
        },
        {
          "internalType": "uint256",
          "name": "group",
          "type": "uint256"
        },
        {
          "internalType": "uint256",
          "name": "pollStartDate",
          "type": "uint256"
        },
        {
          "internalType": "uint256",
          "name": "proposalEndDate",
          "type": "uint256"
        },
        {
          "internalType": "uint256",
          "name": "votingStartDate",
          "type": "uint256"
        },
        {
          "internalType": "uint256",
          "name": "delegateEndDate",
          "type": "uint256"
        },
        {
          "internalType": "uint256",
          "name": "endDate",
          "type": "uint256"
        },
        {
          "internalType": "uint256",
          "name": "pollId",
          "type": "uint256"
        },
        {
          "internalType": "uint256",
          "name": "proposalCount",
          "type": "uint256"
        },
        {
          "internalType": "enum PollStructs.PollPhase",
          "name": "phase",
          "type": "uint8"
        }
      ],
      "stateMutability": "view",
      "type": "function"
    },
    {
      "inputs": [
        {
          "internalType": "uint256",
          "name": "",
          "type": "uint256"
        },
        {
          "internalType": "uint256",
          "name": "",
          "type": "uint256"
        }
      ],
      "name": "predictionBets",
      "outputs": [
        {
          "internalType": "uint256",
          "name": "pollId",
          "type": "uint256"
        },
        {
          "internalType": "uint256",
          "name": "proposalId",
          "type": "uint256"
        },
        {
          "internalType": "uint256",
          "name": "predictionId",
          "type": "uint256"
        },
        {
          "internalType": "bool",
          "name": "bet",
          "type": "bool"
        },
        {
          "internalType": "uint256",
          "name": "likelihood",
          "type": "uint256"
        },
        {
          "internalType": "enum PollStructs.PollPhase",
          "name": "phase",
          "type": "uint8"
        }
      ],
      "stateMutability": "view",
      "type": "function"
    },
    {
      "inputs": [
        {
          "internalType": "uint256",
          "name": "",
          "type": "uint256"
        },
        {
          "internalType": "uint256",
          "name": "",
          "type": "uint256"
        }
      ],
      "name": "predictions",
      "outputs": [
        {
          "internalType": "uint256",
          "name": "pollId",
          "type": "uint256"
        },
        {
          "internalType": "uint256",
          "name": "proposalId",
          "type": "uint256"
        },
        {
          "internalType": "uint256",
          "name": "predictionId",
          "type": "uint256"
        },
        {
          "internalType": "string",
          "name": "prediction",
          "type": "string"
        },
        {
          "internalType": "enum PollStructs.PollPhase",
          "name": "phase",
          "type": "uint8"
        }
      ],
      "stateMutability": "view",
      "type": "function"
    },
    {
      "inputs": [
        {
          "internalType": "uint256",
          "name": "",
          "type": "uint256"
        },
        {
          "internalType": "uint256",
          "name": "",
          "type": "uint256"
        }
      ],
      "name": "proposals",
      "outputs": [
        {
          "internalType": "string",
          "name": "description",
          "type": "string"
        },
        {
          "internalType": "uint256",
          "name": "voteCount",
          "type": "uint256"
        },
        {
          "internalType": "uint256",
          "name": "proposalId",
          "type": "uint256"
        },
        {
          "internalType": "uint256",
          "name": "predictionCount",
          "type": "uint256"
        },
        {
          "internalType": "enum PollStructs.PollPhase",
          "name": "phase",
          "type": "uint8"
        }
      ],
      "stateMutability": "view",
      "type": "function"
    }
  ],
  "bytecode": {
    "object": "0x608060405234801561001057600080fd5b50610e88806100206000396000f3fe608060405234801561001057600080fd5b506004361061007d5760003560e01c80639207891d1161005b5780639207891d146100f4578063ac2f00741461010b578063c20572af14610135578063c2cfee271461014a57600080fd5b8063025ae4e2146100825780633128fcb6146100af57806344f0bb77146100cf575b600080fd5b610095610090366004610af4565b61016e565b6040516100a6959493929190610b94565b60405180910390f35b6100c26100bd366004610bd2565b61024c565b6040516100a69190610bfe565b6100e26100dd366004610af4565b6104bf565b6040516100a696959493929190610c84565b6100fd60015481565b6040519081526020016100a6565b61011e610119366004610cc1565b61051a565b6040516100a69b9a99989796959493929190610cda565b610148610143366004610d55565b610684565b005b61015d610158366004610af4565b61088f565b6040516100a6959493929190610da7565b6003602052816000526040600020818154811061018a57600080fd5b9060005260206000209060050201600091509150508060000154908060010154908060020154908060030180546101c090610ddb565b80601f01602080910402602001604051908101604052809291908181526020018280546101ec90610ddb565b80156102395780601f1061020e57610100808354040283529160200191610239565b820191906000526020600020905b81548152906001019060200180831161021c57829003601f168201915b5050506004909301549192505060ff1685565b606083838361025c83838361096e565b600087815260026020526040812054905b8181116103e757600089815260026020526040902080548991908390811061029757610297610e15565b906000526020600020906005020160020154036103df57600088815260036020526040812054905b8181116103dc5760008a815260036020526040902080548a9190839081106102e9576102e9610e15565b906000526020600020906005020160020154036103d457600089815260046020908152604080832080548251818502810185019093528083529193909284015b828210156103c55760008481526020908190206040805160c081018252600686029092018054835260018101549383019390935260028301549082015260038083015460ff9081161515606084015260048401546080840152600584015492939260a08501929116908111156103a1576103a1610b5c565b60038111156103b2576103b2610b5c565b8152505081526020019060010190610329565b505050509750505050506104b5565b6001016102bf565b50505b60010161026d565b50600086815260046020908152604080832080548251818502810185019093528083529193909284015b828210156104ad5760008481526020908190206040805160c081018252600686029092018054835260018101549383019390935260028301549082015260038083015460ff9081161515606084015260048401546080840152600584015492939260a085019291169081111561048957610489610b5c565b600381111561049a5761049a610b5c565b8152505081526020019060010190610411565b505050509450505b5050509392505050565b600460205281600052604060002081815481106104db57600080fd5b60009182526020909120600690910201805460018201546002830154600384015460048501546005909501549396509194509260ff9182169290911686565b60006020819052908152604090208054819061053590610ddb565b80601f016020809104026020016040519081016040528092919081815260200182805461056190610ddb565b80156105ae5780601f10610583576101008083540402835291602001916105ae565b820191906000526020600020905b81548152906001019060200180831161059157829003601f168201915b5050505050908060010180546105c390610ddb565b80601f01602080910402602001604051908101604052809291908181526020018280546105ef90610ddb565b801561063c5780601f106106115761010080835404028352916020019161063c565b820191906000526020600020905b81548152906001019060200180831161061f57829003601f168201915b50505060028401546003850154600486015460058701546006880154600789015460088a015460098b0154600a909b0154999a96999598509396509194909391929160ff168b565b84848461069283838361096e565b600085116106e75760405162461bcd60e51b815260206004820152601f60248201527f56616c7565206e6565647320746f20626520686967686572207468616e20300060448201526064015b60405180910390fd5b60006002600089815260036020526040902061070460018a610e2b565b8154811061071457610714610e15565b600091825260209091206004600590920201015460ff16600381111561073c5761073c610b5c565b149050806107985760405162461bcd60e51b8152602060048201526024808201527f596f752063616e206e6f7420706c61636520612062657420617420746869732060448201526374696d6560e01b60648201526084016106de565b6000878152600460208181526040808420815160c0810183528e81528084018e81529281018d81528b151560608301908152608083018e8152600360a08501818152865460018082018955978c5298909a2085516006909902019788559551878601559151600287015551858501805491151560ff19928316179055905195850195909555945160058401805494959194909391169190849081111561084057610840610b5c565b021790555050604080518715158152602081018990528992507fefbf97b6b2de004cd3e8b4af6b867bf332de6df57c2447d9b5c5a00abaec5d1f910160405180910390a2505050505050505050565b600260205281600052604060002081815481106108ab57600080fd5b9060005260206000209060050201600091509150508060000180546108cf90610ddb565b80601f01602080910402602001604051908101604052809291908181526020018280546108fb90610ddb565b80156109485780601f1061091d57610100808354040283529160200191610948565b820191906000526020600020905b81548152906001019060200180831161092b57829003601f168201915b505050506001830154600284015460038501546004909501549394919390925060ff1685565b6109798383836109d5565b6109d05760405162461bcd60e51b815260206004820152602260248201527f57726f6e6720706f6c6c2c2070726f706f73616c206f7220707265646963746960448201526137b760f11b60648201526084016106de565b505050565b600154600090815b818111610ae657600081815260208190526040902060080154869003610ade57600086815260026020526040812054905b81811015610ad1576000888152600260205260409020805488919083908110610a3957610a39610e15565b90600052602060002090600502016002015403610ac957600087815260036020526040812054905b81811015610aba576000898152600360205260409020805489919083908110610a8c57610a8c610e15565b90600052602060002090600502016002015403610ab25760019650505050505050610aed565b600101610a61565b50600095505050505050610aed565b600101610a0e565b5060009350505050610aed565b6001016109dd565b5060009150505b9392505050565b60008060408385031215610b0757600080fd5b50508035926020909101359150565b6000815180845260005b81811015610b3c57602081850181015186830182015201610b20565b506000602082860101526020601f19601f83011685010191505092915050565b634e487b7160e01b600052602160045260246000fd5b60048110610b9057634e487b7160e01b600052602160045260246000fd5b9052565b85815284602082015283604082015260a060608201526000610bb960a0830185610b16565b9050610bc86080830184610b72565b9695505050505050565b600080600060608486031215610be757600080fd5b505081359360208301359350604090920135919050565b602080825282518282018190526000919060409081850190868401855b82811015610c7757815180518552868101518786015285810151868601526060808201511515908601526080808201519086015260a09081015190610c6281870183610b72565b505060c0939093019290850190600101610c1b565b5091979650505050505050565b600060c0820190508782528660208301528560408301528415156060830152836080830152610cb660a0830184610b72565b979650505050505050565b600060208284031215610cd357600080fd5b5035919050565b6000610160808352610cee8184018f610b16565b90508281036020840152610d02818e610b16565b9150508a60408301528960608301528860808301528760a08301528660c08301528560e08301528461010083015283610120830152610d45610140830184610b72565b9c9b505050505050505050505050565b600080600080600060a08688031215610d6d57600080fd5b8535945060208601359350604086013592506060860135915060808601358015158114610d9957600080fd5b809150509295509295909350565b60a081526000610dba60a0830188610b16565b9050856020830152846040830152836060830152610bc86080830184610b72565b600181811c90821680610def57607f821691505b602082108103610e0f57634e487b7160e01b600052602260045260246000fd5b50919050565b634e487b7160e01b600052603260045260246000fd5b81810381811115610e4c57634e487b7160e01b600052601160045260246000fd5b9291505056fea2646970667358221220d60a1145466ae6592028ad26e502be186ee6a32a10f172f2a778cee133ef1e6a64736f6c63430008170033",
    "linkReferences": {}
  },
  "methodIdentifiers": {
    "getPredictionBets(uint256,uint256,uint256)": "3128fcb6",
    "placePredictionBet(uint256,uint256,uint256,uint256,bool)": "c20572af",
    "pollCount()": "9207891d",
    "polls(uint256)": "ac2f0074",
    "predictionBets(uint256,uint256)": "44f0bb77",
    "predictions(uint256,uint256)": "025ae4e2",
    "proposals(uint256,uint256)": "c2cfee27"
  },
  "id": 22
}