{
  "abi": [
    {
      "anonymous": false,
      "inputs": [
        {
          "indexed": true,
          "internalType": "uint256",
          "name": "predictionId",
          "type": "uint256"
        },
        {
          "indexed": false,
          "internalType": "bool",
          "name": "bet",
          "type": "bool"
        },
        {
          "indexed": false,
          "internalType": "uint256",
          "name": "likelihood",
          "type": "uint256"
        }
      ],
      "name": "PredictionBetCreated",
      "type": "event"
    },
    {
      "anonymous": false,
      "inputs": [
        {
          "indexed": false,
          "internalType": "uint256",
          "name": "predictionId",
          "type": "uint256"
        },
        {
          "indexed": false,
          "internalType": "string",
          "name": "prediction",
          "type": "string"
        }
      ],
      "name": "PredictionCreated",
      "type": "event"
    },
    {
      "inputs": [
        {
          "internalType": "uint256",
          "name": "_pollId",
          "type": "uint256"
        },
        {
          "internalType": "uint256",
          "name": "_proposalId",
          "type": "uint256"
        },
        {
          "internalType": "uint256",
          "name": "_predictionId",
          "type": "uint256"
        }
      ],
      "name": "getPredictionBets",
      "outputs": [
        {
          "components": [
            {
              "internalType": "uint256",
              "name": "pollId",
              "type": "uint256"
            },
            {
              "internalType": "uint256",
              "name": "proposalId",
              "type": "uint256"
            },
            {
              "internalType": "uint256",
              "name": "predictionId",
              "type": "uint256"
            },
            {
              "internalType": "bool",
              "name": "bet",
              "type": "bool"
            },
            {
              "internalType": "uint256",
              "name": "likelihood",
              "type": "uint256"
            },
            {
              "internalType": "enum PollStructs.PollPhase",
              "name": "phase",
              "type": "uint8"
            }
          ],
          "internalType": "struct PredictionBetStructs.PredictionBet[]",
          "name": "",
          "type": "tuple[]"
        }
      ],
      "stateMutability": "view",
      "type": "function"
    },
    {
      "inputs": [
        {
          "internalType": "uint256",
          "name": "_pollId",
          "type": "uint256"
        },
        {
          "internalType": "uint256",
          "name": "_proposalId",
          "type": "uint256"
        },
        {
          "internalType": "uint256",
          "name": "_predictionId",
          "type": "uint256"
        },
        {
          "internalType": "uint256",
          "name": "_likelihood",
          "type": "uint256"
        },
        {
          "internalType": "bool",
          "name": "_bet",
          "type": "bool"
        }
      ],
      "name": "placePredictionBet",
      "outputs": [],
      "stateMutability": "nonpayable",
      "type": "function"
    },
    {
      "inputs": [],
      "name": "pollCount",
      "outputs": [
        {
          "internalType": "uint256",
          "name": "",
          "type": "uint256"
        }
      ],
      "stateMutability": "view",
      "type": "function"
    },
    {
      "inputs": [
        {
          "internalType": "uint256",
          "name": "",
          "type": "uint256"
        }
      ],
      "name": "polls",
      "outputs": [
        {
          "internalType": "string",
          "name": "title",
          "type": "string"
        },
        {
          "internalType": "string",
          "name": "tag",
          "type": "string"
        },
        {
          "internalType": "uint256",
          "name": "group",
          "type": "uint256"
        },
        {
          "internalType": "uint256",
          "name": "pollStartDate",
          "type": "uint256"
        },
        {
          "internalType": "uint256",
          "name": "proposalEndDate",
          "type": "uint256"
        },
        {
          "internalType": "uint256",
          "name": "votingStartDate",
          "type": "uint256"
        },
        {
          "internalType": "uint256",
          "name": "delegateEndDate",
          "type": "uint256"
        },
        {
          "internalType": "uint256",
          "name": "endDate",
          "type": "uint256"
        },
        {
          "internalType": "uint256",
          "name": "pollId",
          "type": "uint256"
        },
        {
          "internalType": "uint256",
          "name": "proposalCount",
          "type": "uint256"
        },
        {
          "internalType": "enum PollStructs.PollPhase",
          "name": "phase",
          "type": "uint8"
        }
      ],
      "stateMutability": "view",
      "type": "function"
    },
    {
      "inputs": [
        {
          "internalType": "uint256",
          "name": "",
          "type": "uint256"
        },
        {
          "internalType": "uint256",
          "name": "",
          "type": "uint256"
        }
      ],
      "name": "predictionBets",
      "outputs": [
        {
          "internalType": "uint256",
          "name": "pollId",
          "type": "uint256"
        },
        {
          "internalType": "uint256",
          "name": "proposalId",
          "type": "uint256"
        },
        {
          "internalType": "uint256",
          "name": "predictionId",
          "type": "uint256"
        },
        {
          "internalType": "bool",
          "name": "bet",
          "type": "bool"
        },
        {
          "internalType": "uint256",
          "name": "likelihood",
          "type": "uint256"
        },
        {
          "internalType": "enum PollStructs.PollPhase",
          "name": "phase",
          "type": "uint8"
        }
      ],
      "stateMutability": "view",
      "type": "function"
    },
    {
      "inputs": [
        {
          "internalType": "uint256",
          "name": "",
          "type": "uint256"
        },
        {
          "internalType": "uint256",
          "name": "",
          "type": "uint256"
        }
      ],
      "name": "predictions",
      "outputs": [
        {
          "internalType": "uint256",
          "name": "pollId",
          "type": "uint256"
        },
        {
          "internalType": "uint256",
          "name": "proposalId",
          "type": "uint256"
        },
        {
          "internalType": "uint256",
          "name": "predictionId",
          "type": "uint256"
        },
        {
          "internalType": "string",
          "name": "prediction",
          "type": "string"
        },
        {
          "internalType": "enum PollStructs.PollPhase",
          "name": "phase",
          "type": "uint8"
        }
      ],
      "stateMutability": "view",
      "type": "function"
    },
    {
      "inputs": [
        {
          "internalType": "uint256",
          "name": "",
          "type": "uint256"
        },
        {
          "internalType": "uint256",
          "name": "",
          "type": "uint256"
        }
      ],
      "name": "proposals",
      "outputs": [
        {
          "internalType": "string",
          "name": "description",
          "type": "string"
        },
        {
          "internalType": "uint256",
          "name": "voteCount",
          "type": "uint256"
        },
        {
          "internalType": "uint256",
          "name": "proposalId",
          "type": "uint256"
        },
        {
          "internalType": "uint256",
          "name": "predictionCount",
          "type": "uint256"
        },
        {
          "internalType": "enum PollStructs.PollPhase",
          "name": "phase",
          "type": "uint8"
        }
      ],
      "stateMutability": "view",
      "type": "function"
    },
    {
      "inputs": [
        {
          "internalType": "uint256",
          "name": "_pollId",
          "type": "uint256"
        },
        {
          "internalType": "uint256",
          "name": "_proposalId",
          "type": "uint256"
        },
        {
          "internalType": "uint256",
          "name": "_predictionId",
          "type": "uint256"
        }
      ],
      "name": "requirePollPropPredToExist",
      "outputs": [
        {
          "internalType": "bool",
          "name": "exists",
          "type": "bool"
        }
      ],
      "stateMutability": "view",
      "type": "function"
    }
  ],
  "bytecode": {
    "object": "0x608060405234801561001057600080fd5b50610eb6806100206000396000f3fe608060405234801561001057600080fd5b50600436106100885760003560e01c8063ac2f00741161005b578063ac2f007414610116578063c20572af14610140578063c2cfee2714610155578063fad036de1461017957600080fd5b8063025ae4e21461008d5780633128fcb6146100ba57806344f0bb77146100da5780639207891d146100ff575b600080fd5b6100a061009b366004610b22565b61019c565b6040516100b1959493929190610bc2565b60405180910390f35b6100cd6100c8366004610c00565b61027a565b6040516100b19190610c2c565b6100ed6100e8366004610b22565b6104ed565b6040516100b196959493929190610cb2565b61010860015481565b6040519081526020016100b1565b610129610124366004610cef565b610548565b6040516100b19b9a99989796959493929190610d08565b61015361014e366004610d83565b6106b2565b005b610168610163366004610b22565b6108bd565b6040516100b1959493929190610dd5565b61018c610187366004610c00565b61099c565b60405190151581526020016100b1565b600360205281600052604060002081815481106101b857600080fd5b9060005260206000209060050201600091509150508060000154908060010154908060020154908060030180546101ee90610e09565b80601f016020809104026020016040519081016040528092919081815260200182805461021a90610e09565b80156102675780601f1061023c57610100808354040283529160200191610267565b820191906000526020600020905b81548152906001019060200180831161024a57829003601f168201915b5050506004909301549192505060ff1685565b606083838361028a838383610abb565b600087815260026020526040812054905b8181116104155760008981526002602052604090208054899190839081106102c5576102c5610e43565b9060005260206000209060050201600201540361040d57600088815260036020526040812054905b81811161040a5760008a815260036020526040902080548a91908390811061031757610317610e43565b9060005260206000209060050201600201540361040257600089815260046020908152604080832080548251818502810185019093528083529193909284015b828210156103f35760008481526020908190206040805160c081018252600686029092018054835260018101549383019390935260028301549082015260038083015460ff9081161515606084015260048401546080840152600584015492939260a08501929116908111156103cf576103cf610b8a565b60038111156103e0576103e0610b8a565b8152505081526020019060010190610357565b505050509750505050506104e3565b6001016102ed565b50505b60010161029b565b50600086815260046020908152604080832080548251818502810185019093528083529193909284015b828210156104db5760008481526020908190206040805160c081018252600686029092018054835260018101549383019390935260028301549082015260038083015460ff9081161515606084015260048401546080840152600584015492939260a08501929116908111156104b7576104b7610b8a565b60038111156104c8576104c8610b8a565b815250508152602001906001019061043f565b505050509450505b5050509392505050565b6004602052816000526040600020818154811061050957600080fd5b60009182526020909120600690910201805460018201546002830154600384015460048501546005909501549396509194509260ff9182169290911686565b60006020819052908152604090208054819061056390610e09565b80601f016020809104026020016040519081016040528092919081815260200182805461058f90610e09565b80156105dc5780601f106105b1576101008083540402835291602001916105dc565b820191906000526020600020905b8154815290600101906020018083116105bf57829003601f168201915b5050505050908060010180546105f190610e09565b80601f016020809104026020016040519081016040528092919081815260200182805461061d90610e09565b801561066a5780601f1061063f5761010080835404028352916020019161066a565b820191906000526020600020905b81548152906001019060200180831161064d57829003601f168201915b50505060028401546003850154600486015460058701546006880154600789015460088a015460098b0154600a909b0154999a96999598509396509194909391929160ff168b565b8484846106c0838383610abb565b600085116107155760405162461bcd60e51b815260206004820152601f60248201527f56616c7565206e6565647320746f20626520686967686572207468616e20300060448201526064015b60405180910390fd5b60006002600089815260036020526040902061073260018a610e59565b8154811061074257610742610e43565b600091825260209091206004600590920201015460ff16600381111561076a5761076a610b8a565b149050806107c65760405162461bcd60e51b8152602060048201526024808201527f596f752063616e206e6f7420706c61636520612062657420617420746869732060448201526374696d6560e01b606482015260840161070c565b6000878152600460208181526040808420815160c0810183528e81528084018e81529281018d81528b151560608301908152608083018e8152600360a08501818152865460018082018955978c5298909a2085516006909902019788559551878601559151600287015551858501805491151560ff19928316179055905195850195909555945160058401805494959194909391169190849081111561086e5761086e610b8a565b021790555050604080518715158152602081018990528992507fefbf97b6b2de004cd3e8b4af6b867bf332de6df57c2447d9b5c5a00abaec5d1f910160405180910390a2505050505050505050565b600260205281600052604060002081815481106108d957600080fd5b9060005260206000209060050201600091509150508060000180546108fd90610e09565b80601f016020809104026020016040519081016040528092919081815260200182805461092990610e09565b80156109765780601f1061094b57610100808354040283529160200191610976565b820191906000526020600020905b81548152906001019060200180831161095957829003601f168201915b505050506001830154600284015460038501546004909501549394919390925060ff1685565b600154600090815b818111610aad57600081815260208190526040902060080154869003610aa557600086815260026020526040812054905b81811015610a98576000888152600260205260409020805488919083908110610a0057610a00610e43565b90600052602060002090600502016002015403610a9057600087815260036020526040812054905b81811015610a81576000898152600360205260409020805489919083908110610a5357610a53610e43565b90600052602060002090600502016002015403610a795760019650505050505050610ab4565b600101610a28565b50600095505050505050610ab4565b6001016109d5565b5060009350505050610ab4565b6001016109a4565b5060009150505b9392505050565b610ac683838361099c565b610b1d5760405162461bcd60e51b815260206004820152602260248201527f57726f6e6720706f6c6c2c2070726f706f73616c206f7220707265646963746960448201526137b760f11b606482015260840161070c565b505050565b60008060408385031215610b3557600080fd5b50508035926020909101359150565b6000815180845260005b81811015610b6a57602081850181015186830182015201610b4e565b506000602082860101526020601f19601f83011685010191505092915050565b634e487b7160e01b600052602160045260246000fd5b60048110610bbe57634e487b7160e01b600052602160045260246000fd5b9052565b85815284602082015283604082015260a060608201526000610be760a0830185610b44565b9050610bf66080830184610ba0565b9695505050505050565b600080600060608486031215610c1557600080fd5b505081359360208301359350604090920135919050565b602080825282518282018190526000919060409081850190868401855b82811015610ca557815180518552868101518786015285810151868601526060808201511515908601526080808201519086015260a09081015190610c9081870183610ba0565b505060c0939093019290850190600101610c49565b5091979650505050505050565b600060c0820190508782528660208301528560408301528415156060830152836080830152610ce460a0830184610ba0565b979650505050505050565b600060208284031215610d0157600080fd5b5035919050565b6000610160808352610d1c8184018f610b44565b90508281036020840152610d30818e610b44565b9150508a60408301528960608301528860808301528760a08301528660c08301528560e08301528461010083015283610120830152610d73610140830184610ba0565b9c9b505050505050505050505050565b600080600080600060a08688031215610d9b57600080fd5b8535945060208601359350604086013592506060860135915060808601358015158114610dc757600080fd5b809150509295509295909350565b60a081526000610de860a0830188610b44565b9050856020830152846040830152836060830152610bf66080830184610ba0565b600181811c90821680610e1d57607f821691505b602082108103610e3d57634e487b7160e01b600052602260045260246000fd5b50919050565b634e487b7160e01b600052603260045260246000fd5b81810381811115610e7a57634e487b7160e01b600052601160045260246000fd5b9291505056fea2646970667358221220dbc99ab14ed824674cc419ba7fc2451cca0a1069e7176b612b97e3fd8b2cb06864736f6c63430008170033",
    "linkReferences": {}
  },
  "methodIdentifiers": {
    "getPredictionBets(uint256,uint256,uint256)": "3128fcb6",
    "placePredictionBet(uint256,uint256,uint256,uint256,bool)": "c20572af",
    "pollCount()": "9207891d",
    "polls(uint256)": "ac2f0074",
    "predictionBets(uint256,uint256)": "44f0bb77",
    "predictions(uint256,uint256)": "025ae4e2",
    "proposals(uint256,uint256)": "c2cfee27",
    "requirePollPropPredToExist(uint256,uint256,uint256)": "fad036de"
  },
  "id": 22
}