{
  "abi": [
    {
      "anonymous": false,
      "inputs": [
        {
          "indexed": true,
          "internalType": "address",
          "name": "delegate",
          "type": "address"
        },
        {
          "indexed": true,
          "internalType": "uint256",
          "name": "groupId",
          "type": "uint256"
        }
      ],
      "name": "DelegateResignation",
      "type": "event"
    },
    {
      "anonymous": false,
      "inputs": [
        {
          "indexed": true,
          "internalType": "address",
          "name": "from",
          "type": "address"
        },
        {
          "indexed": true,
          "internalType": "address",
          "name": "by",
          "type": "address"
        },
        {
          "indexed": true,
          "internalType": "uint256",
          "name": "groupId",
          "type": "uint256"
        },
        {
          "indexed": false,
          "internalType": "uint256",
          "name": "delegatedVotes",
          "type": "uint256"
        }
      ],
      "name": "DelegationRemoved",
      "type": "event"
    },
    {
      "anonymous": false,
      "inputs": [
        {
          "indexed": true,
          "internalType": "address",
          "name": "delegate",
          "type": "address"
        },
        {
          "indexed": true,
          "internalType": "uint256",
          "name": "groupId",
          "type": "uint256"
        },
        {
          "indexed": false,
          "internalType": "uint256",
          "name": "delegatedVotes",
          "type": "uint256"
        },
        {
          "indexed": false,
          "internalType": "address[]",
          "name": "delegationsFrom",
          "type": "address[]"
        },
        {
          "indexed": false,
          "internalType": "uint256",
          "name": "groupDelegateId",
          "type": "uint256"
        }
      ],
      "name": "NewDelegate",
      "type": "event"
    },
    {
      "anonymous": false,
      "inputs": [
        {
          "indexed": true,
          "internalType": "address",
          "name": "from",
          "type": "address"
        },
        {
          "indexed": true,
          "internalType": "address",
          "name": "to",
          "type": "address"
        },
        {
          "indexed": true,
          "internalType": "uint256",
          "name": "groupId",
          "type": "uint256"
        },
        {
          "indexed": false,
          "internalType": "uint256",
          "name": "delegatedVotes",
          "type": "uint256"
        },
        {
          "indexed": false,
          "internalType": "address[]",
          "name": "delegationsFrom",
          "type": "address[]"
        }
      ],
      "name": "NewDelegation",
      "type": "event"
    },
    {
      "anonymous": false,
      "inputs": [
        {
          "indexed": true,
          "internalType": "uint256",
          "name": "_group",
          "type": "uint256"
        }
      ],
      "name": "PermissionGivenToVote",
      "type": "event"
    },
    {
      "anonymous": false,
      "inputs": [
        {
          "indexed": true,
          "internalType": "uint256",
          "name": "_group",
          "type": "uint256"
        }
      ],
      "name": "PermissionToVoteRemoved",
      "type": "event"
    },
    {
      "anonymous": false,
      "inputs": [
        {
          "indexed": false,
          "internalType": "uint256",
          "name": "pollId",
          "type": "uint256"
        },
        {
          "indexed": false,
          "internalType": "string",
          "name": "title",
          "type": "string"
        }
      ],
      "name": "PollCreated",
      "type": "event"
    },
    {
      "anonymous": false,
      "inputs": [
        {
          "indexed": false,
          "internalType": "uint256",
          "name": "predictionId",
          "type": "uint256"
        },
        {
          "indexed": false,
          "internalType": "string",
          "name": "prediction",
          "type": "string"
        }
      ],
      "name": "PredictionCreated",
      "type": "event"
    },
    {
      "anonymous": false,
      "inputs": [
        {
          "indexed": true,
          "internalType": "uint256",
          "name": "pollId",
          "type": "uint256"
        },
        {
          "indexed": false,
          "internalType": "uint256",
          "name": "proposalId",
          "type": "uint256"
        },
        {
          "indexed": false,
          "internalType": "string",
          "name": "description",
          "type": "string"
        }
      ],
      "name": "ProposalAdded",
      "type": "event"
    },
    {
      "anonymous": false,
      "inputs": [
        {
          "indexed": true,
          "internalType": "uint256",
          "name": "pollId",
          "type": "uint256"
        },
        {
          "indexed": true,
          "internalType": "address",
          "name": "voter",
          "type": "address"
        },
        {
          "indexed": false,
          "internalType": "uint256",
          "name": "votesForProposal",
          "type": "uint256"
        }
      ],
      "name": "VoteSubmitted",
      "type": "event"
    },
    {
      "inputs": [
        {
          "internalType": "uint256",
          "name": "_pollId",
          "type": "uint256"
        },
        {
          "internalType": "string",
          "name": "_description",
          "type": "string"
        }
      ],
      "name": "addProposal",
      "outputs": [],
      "stateMutability": "nonpayable",
      "type": "function"
    },
    {
      "inputs": [
        {
          "internalType": "uint256",
          "name": "_groupId",
          "type": "uint256"
        }
      ],
      "name": "becomeDelegate",
      "outputs": [],
      "stateMutability": "nonpayable",
      "type": "function"
    },
    {
      "inputs": [],
      "name": "checkAllRights",
      "outputs": [
        {
          "internalType": "uint256[]",
          "name": "groups",
          "type": "uint256[]"
        }
      ],
      "stateMutability": "view",
      "type": "function"
    },
    {
      "inputs": [
        {
          "internalType": "uint256",
          "name": "_group",
          "type": "uint256"
        }
      ],
      "name": "checkRightsInGroup",
      "outputs": [
        {
          "internalType": "bool",
          "name": "hasRight",
          "type": "bool"
        }
      ],
      "stateMutability": "view",
      "type": "function"
    },
    {
      "inputs": [
        {
          "internalType": "string",
          "name": "_title",
          "type": "string"
        },
        {
          "internalType": "string",
          "name": "_tag",
          "type": "string"
        },
        {
          "internalType": "uint256",
          "name": "_group",
          "type": "uint256"
        },
        {
          "internalType": "uint256",
          "name": "_pollStartDate",
          "type": "uint256"
        },
        {
          "internalType": "uint256",
          "name": "_proposalEndDate",
          "type": "uint256"
        },
        {
          "internalType": "uint256",
          "name": "_votingStartDate",
          "type": "uint256"
        },
        {
          "internalType": "uint256",
          "name": "_delegateEndDate",
          "type": "uint256"
        },
        {
          "internalType": "uint256",
          "name": "_endDate",
          "type": "uint256"
        }
      ],
      "name": "createPoll",
      "outputs": [],
      "stateMutability": "nonpayable",
      "type": "function"
    },
    {
      "inputs": [
        {
          "internalType": "uint256",
          "name": "_pollId",
          "type": "uint256"
        },
        {
          "internalType": "uint256",
          "name": "_proposalId",
          "type": "uint256"
        },
        {
          "internalType": "string",
          "name": "_prediction",
          "type": "string"
        }
      ],
      "name": "createPrediction",
      "outputs": [],
      "stateMutability": "nonpayable",
      "type": "function"
    },
    {
      "inputs": [
        {
          "internalType": "uint256",
          "name": "_groupId",
          "type": "uint256"
        },
        {
          "internalType": "address",
          "name": "_delegateTo",
          "type": "address"
        }
      ],
      "name": "delegate",
      "outputs": [],
      "stateMutability": "nonpayable",
      "type": "function"
    },
    {
      "inputs": [
        {
          "internalType": "uint256",
          "name": "_pollId",
          "type": "uint256"
        }
      ],
      "name": "getPollResults",
      "outputs": [
        {
          "internalType": "string[]",
          "name": "",
          "type": "string[]"
        },
        {
          "internalType": "uint256[]",
          "name": "",
          "type": "uint256[]"
        }
      ],
      "stateMutability": "view",
      "type": "function"
    },
    {
      "inputs": [
        {
          "internalType": "uint256",
          "name": "_pollId",
          "type": "uint256"
        },
        {
          "internalType": "uint256",
          "name": "_proposalId",
          "type": "uint256"
        },
        {
          "internalType": "uint256",
          "name": "_predictionId",
          "type": "uint256"
        }
      ],
      "name": "getPredictionBets",
      "outputs": [
        {
          "components": [
            {
              "internalType": "uint256",
              "name": "pollId",
              "type": "uint256"
            },
            {
              "internalType": "uint256",
              "name": "proposalId",
              "type": "uint256"
            },
            {
              "internalType": "uint256",
              "name": "predictionId",
              "type": "uint256"
            },
            {
              "internalType": "bool",
              "name": "bet",
              "type": "bool"
            },
            {
              "internalType": "uint256",
              "name": "likelihood",
              "type": "uint256"
            }
          ],
          "internalType": "struct ReduceBytes.PredictionBet[]",
          "name": "",
          "type": "tuple[]"
        }
      ],
      "stateMutability": "view",
      "type": "function"
    },
    {
      "inputs": [
        {
          "internalType": "uint256",
          "name": "_pollId",
          "type": "uint256"
        },
        {
          "internalType": "uint256",
          "name": "_proposalId",
          "type": "uint256"
        }
      ],
      "name": "getPredictions",
      "outputs": [
        {
          "components": [
            {
              "internalType": "uint256",
              "name": "pollId",
              "type": "uint256"
            },
            {
              "internalType": "uint256",
              "name": "proposalId",
              "type": "uint256"
            },
            {
              "internalType": "uint256",
              "name": "predictionId",
              "type": "uint256"
            },
            {
              "internalType": "string",
              "name": "prediction",
              "type": "string"
            },
            {
              "internalType": "uint256",
              "name": "yesBets",
              "type": "uint256"
            },
            {
              "internalType": "uint256",
              "name": "noBets",
              "type": "uint256"
            },
            {
              "internalType": "enum PollStructs.PollPhase",
              "name": "phase",
              "type": "uint8"
            }
          ],
          "internalType": "struct Predictions.Prediction[]",
          "name": "",
          "type": "tuple[]"
        }
      ],
      "stateMutability": "view",
      "type": "function"
    },
    {
      "inputs": [
        {
          "internalType": "uint256",
          "name": "_pollId",
          "type": "uint256"
        }
      ],
      "name": "getProposals",
      "outputs": [
        {
          "components": [
            {
              "internalType": "string",
              "name": "description",
              "type": "string"
            },
            {
              "internalType": "uint256",
              "name": "voteCount",
              "type": "uint256"
            },
            {
              "internalType": "uint256",
              "name": "proposalId",
              "type": "uint256"
            },
            {
              "internalType": "uint256",
              "name": "predictionCount",
              "type": "uint256"
            },
            {
              "internalType": "enum PollStructs.PollPhase",
              "name": "phase",
              "type": "uint8"
            }
          ],
          "internalType": "struct Polls.Proposal[]",
          "name": "",
          "type": "tuple[]"
        }
      ],
      "stateMutability": "view",
      "type": "function"
    },
    {
      "inputs": [
        {
          "internalType": "uint256",
          "name": "_group",
          "type": "uint256"
        }
      ],
      "name": "giveRightToVote",
      "outputs": [],
      "stateMutability": "payable",
      "type": "function"
    },
    {
      "inputs": [
        {
          "internalType": "uint256",
          "name": "",
          "type": "uint256"
        },
        {
          "internalType": "uint256",
          "name": "",
          "type": "uint256"
        }
      ],
      "name": "groupDelegates",
      "outputs": [
        {
          "internalType": "address",
          "name": "delegate",
          "type": "address"
        },
        {
          "internalType": "uint256",
          "name": "groupId",
          "type": "uint256"
        },
        {
          "internalType": "uint256",
          "name": "delegatedVotes",
          "type": "uint256"
        },
        {
          "internalType": "uint256",
          "name": "groupDelegateId",
          "type": "uint256"
        }
      ],
      "stateMutability": "view",
      "type": "function"
    },
    {
      "inputs": [
        {
          "internalType": "uint256",
          "name": "_groupId",
          "type": "uint256"
        }
      ],
      "name": "hasDelegatedInGroup",
      "outputs": [
        {
          "internalType": "bool",
          "name": "",
          "type": "bool"
        }
      ],
      "stateMutability": "view",
      "type": "function"
    },
    {
      "inputs": [
        {
          "internalType": "uint256",
          "name": "_groupId",
          "type": "uint256"
        },
        {
          "internalType": "address",
          "name": "_delegate",
          "type": "address"
        }
      ],
      "name": "hasDelegatedToDelegateInGroup",
      "outputs": [
        {
          "internalType": "bool",
          "name": "",
          "type": "bool"
        }
      ],
      "stateMutability": "view",
      "type": "function"
    },
    {
      "inputs": [
        {
          "internalType": "uint256",
          "name": "_pollId",
          "type": "uint256"
        },
        {
          "internalType": "uint256",
          "name": "_proposalId",
          "type": "uint256"
        },
        {
          "internalType": "uint256",
          "name": "_predictionId",
          "type": "uint256"
        },
        {
          "internalType": "uint256",
          "name": "_likelihood",
          "type": "uint256"
        },
        {
          "internalType": "bool",
          "name": "_bet",
          "type": "bool"
        }
      ],
      "name": "placePredictionBet",
      "outputs": [],
      "stateMutability": "nonpayable",
      "type": "function"
    },
    {
      "inputs": [],
      "name": "pollCount",
      "outputs": [
        {
          "internalType": "uint256",
          "name": "",
          "type": "uint256"
        }
      ],
      "stateMutability": "view",
      "type": "function"
    },
    {
      "inputs": [
        {
          "internalType": "uint256",
          "name": "",
          "type": "uint256"
        }
      ],
      "name": "polls",
      "outputs": [
        {
          "internalType": "string",
          "name": "title",
          "type": "string"
        },
        {
          "internalType": "string",
          "name": "tag",
          "type": "string"
        },
        {
          "internalType": "uint256",
          "name": "group",
          "type": "uint256"
        },
        {
          "internalType": "uint256",
          "name": "pollStartDate",
          "type": "uint256"
        },
        {
          "internalType": "uint256",
          "name": "proposalEndDate",
          "type": "uint256"
        },
        {
          "internalType": "uint256",
          "name": "votingStartDate",
          "type": "uint256"
        },
        {
          "internalType": "uint256",
          "name": "delegateEndDate",
          "type": "uint256"
        },
        {
          "internalType": "uint256",
          "name": "endDate",
          "type": "uint256"
        },
        {
          "internalType": "uint256",
          "name": "pollId",
          "type": "uint256"
        },
        {
          "internalType": "uint256",
          "name": "proposalCount",
          "type": "uint256"
        },
        {
          "internalType": "enum PollStructs.PollPhase",
          "name": "phase",
          "type": "uint8"
        }
      ],
      "stateMutability": "view",
      "type": "function"
    },
    {
      "inputs": [
        {
          "internalType": "uint256",
          "name": "",
          "type": "uint256"
        },
        {
          "internalType": "uint256",
          "name": "",
          "type": "uint256"
        }
      ],
      "name": "predictionBets",
      "outputs": [
        {
          "internalType": "uint256",
          "name": "pollId",
          "type": "uint256"
        },
        {
          "internalType": "uint256",
          "name": "proposalId",
          "type": "uint256"
        },
        {
          "internalType": "uint256",
          "name": "predictionId",
          "type": "uint256"
        },
        {
          "internalType": "bool",
          "name": "bet",
          "type": "bool"
        },
        {
          "internalType": "uint256",
          "name": "likelihood",
          "type": "uint256"
        }
      ],
      "stateMutability": "view",
      "type": "function"
    },
    {
      "inputs": [
        {
          "internalType": "uint256",
          "name": "",
          "type": "uint256"
        },
        {
          "internalType": "uint256",
          "name": "",
          "type": "uint256"
        }
      ],
      "name": "predictions",
      "outputs": [
        {
          "internalType": "uint256",
          "name": "pollId",
          "type": "uint256"
        },
        {
          "internalType": "uint256",
          "name": "proposalId",
          "type": "uint256"
        },
        {
          "internalType": "uint256",
          "name": "predictionId",
          "type": "uint256"
        },
        {
          "internalType": "string",
          "name": "prediction",
          "type": "string"
        },
        {
          "internalType": "uint256",
          "name": "yesBets",
          "type": "uint256"
        },
        {
          "internalType": "uint256",
          "name": "noBets",
          "type": "uint256"
        },
        {
          "internalType": "enum PollStructs.PollPhase",
          "name": "phase",
          "type": "uint8"
        }
      ],
      "stateMutability": "view",
      "type": "function"
    },
    {
      "inputs": [
        {
          "internalType": "uint256",
          "name": "",
          "type": "uint256"
        },
        {
          "internalType": "uint256",
          "name": "",
          "type": "uint256"
        }
      ],
      "name": "proposals",
      "outputs": [
        {
          "internalType": "string",
          "name": "description",
          "type": "string"
        },
        {
          "internalType": "uint256",
          "name": "voteCount",
          "type": "uint256"
        },
        {
          "internalType": "uint256",
          "name": "proposalId",
          "type": "uint256"
        },
        {
          "internalType": "uint256",
          "name": "predictionCount",
          "type": "uint256"
        },
        {
          "internalType": "enum PollStructs.PollPhase",
          "name": "phase",
          "type": "uint8"
        }
      ],
      "stateMutability": "view",
      "type": "function"
    },
    {
      "inputs": [
        {
          "internalType": "address",
          "name": "_delegate",
          "type": "address"
        },
        {
          "internalType": "uint256",
          "name": "_groupId",
          "type": "uint256"
        }
      ],
      "name": "removeDelegation",
      "outputs": [],
      "stateMutability": "nonpayable",
      "type": "function"
    },
    {
      "inputs": [
        {
          "internalType": "uint256",
          "name": "_group",
          "type": "uint256"
        }
      ],
      "name": "removeRightToVote",
      "outputs": [],
      "stateMutability": "payable",
      "type": "function"
    },
    {
      "inputs": [
        {
          "internalType": "uint256",
          "name": "_groupId",
          "type": "uint256"
        }
      ],
      "name": "resignAsDelegate",
      "outputs": [],
      "stateMutability": "nonpayable",
      "type": "function"
    },
    {
      "inputs": [
        {
          "internalType": "uint256",
          "name": "_pollId",
          "type": "uint256"
        },
        {
          "internalType": "uint256",
          "name": "_proposalId",
          "type": "uint256"
        }
      ],
      "name": "vote",
      "outputs": [],
      "stateMutability": "nonpayable",
      "type": "function"
    }
  ],
  "bytecode": {
    "object": "0x60806040526008805460ff1916905534801561001a57600080fd5b50613fe38061002a6000396000f3fe6080604052600436106101665760003560e01c8063a00c1f7e116100d1578063bc23bd511161008a578063d588748911610064578063d5887489146104d6578063de219672146104f6578063e424938c14610516578063fd6c914e1461053657600080fd5b8063bc23bd5114610472578063c20572af14610485578063c2cfee27146104a557600080fd5b8063a00c1f7e1461035f578063ac2f00741461037f578063ac8ec2f9146103b6578063ae828f3c14610400578063b0333e0d14610422578063b384abef1461045257600080fd5b806333b4097b1161012357806333b4097b14610263578063395e013914610291578063422ee52a146102b157806344f0bb77146102c45780639207891d1461030e5780639bec02b11461033257600080fd5b8063025ae4e21461016b5780630457bea8146101a7578063051097ef146101c957806308bbb824146101e95780632c72fdfc146102095780633128fcb614610236575b600080fd5b34801561017757600080fd5b5061018b6101863660046134db565b610556565b60405161019e979695949392919061357b565b60405180910390f35b3480156101b357600080fd5b506101c76101c23660046135c7565b610642565b005b3480156101d557600080fd5b506101c76101e4366004613629565b610963565b3480156101f557600080fd5b506101c7610204366004613691565b610b41565b34801561021557600080fd5b506102296102243660046135c7565b610f26565b60405161019e91906136bd565b34801561024257600080fd5b50610256610251366004613760565b61107a565b60405161019e919061378c565b34801561026f57600080fd5b5061028361027e3660046135c7565b611249565b60405161019e929190613838565b34801561029d57600080fd5b506101c76102ac3660046135c7565b6114cc565b6101c76102bf3660046135c7565b61166b565b3480156102d057600080fd5b506102e46102df3660046134db565b611892565b6040805195865260208601949094529284019190915215156060830152608082015260a00161019e565b34801561031a57600080fd5b5061032460055481565b60405190815260200161019e565b34801561033e57600080fd5b5061035261034d3660046134db565b6118e3565b60405161019e91906138af565b34801561036b57600080fd5b506101c761037a36600461395a565b611bff565b34801561038b57600080fd5b5061039f61039a3660046135c7565b611dde565b60405161019e9b9a999897969594939291906139fb565b3480156103c257600080fd5b506103d66103d13660046134db565b611f48565b604080516001600160a01b039095168552602085019390935291830152606082015260800161019e565b34801561040c57600080fd5b50610415611f98565b60405161019e9190613a76565b34801561042e57600080fd5b5061044261043d3660046135c7565b611ffa565b604051901515815260200161019e565b34801561045e57600080fd5b506101c761046d3660046134db565b61209d565b6101c76104803660046135c7565b61247e565b34801561049157600080fd5b506101c76104a0366004613a89565b61252f565b3480156104b157600080fd5b506104c56104c03660046134db565b6125d7565b60405161019e959493929190613adb565b3480156104e257600080fd5b506104426104f1366004613691565b6126b6565b34801561050257600080fd5b506104426105113660046135c7565b6127e0565b34801561052257600080fd5b506101c7610531366004613b2f565b61284f565b34801561054257600080fd5b506101c7610551366004613bf3565b612b2d565b6009602052816000526040600020818154811061057257600080fd5b9060005260206000209060070201600091509150508060000154908060010154908060020154908060030180546105a890613c1d565b80601f01602080910402602001604051908101604052809291908181526020018280546105d490613c1d565b80156106215780601f106105f657610100808354040283529160200191610621565b820191906000526020600020905b81548152906001019060200180831161060457829003601f168201915b50505050600483015460058401546006909401549293909290915060ff1687565b606061064e8233612e6a565b6106b15760405162461bcd60e51b815260206004820152602960248201527f596f7520617265206e6f7420612064656c656761746520696e2072657175657360448201526807465642067726f75760bc1b60648201526084015b60405180910390fd5b600082815260016020526040812054905b818110156108085760008481526001602052604090208054339190839081106106ed576106ed613c57565b60009182526020909120600590910201546001600160a01b03160361080057600084815260016020526040902080548290811061072c5761072c613c57565b906000526020600020906005020160030180548060200260200160405190810160405280929190818152602001828054801561079157602002820191906000526020600020905b81546001600160a01b03168152600190910190602001808311610773575b505050505092506001600085815260200190815260200160002081815481106107bc576107bc613c57565b60009182526020822060059091020180546001600160a01b03191681556001810182905560028101829055906107f56003830182613443565b600482016000905550505b6001016106c2565b5060005b8251811015610930576003600084838151811061082b5761082b613c57565b60200260200101516001600160a01b03166001600160a01b0316815260200190815260200160002080549050915060005b8281101561092757846003600086858151811061087b5761087b613c57565b60200260200101516001600160a01b03166001600160a01b0316815260200190815260200160002082815481106108b4576108b4613c57565b90600052602060002001540361091f57600360008584815181106108da576108da613c57565b60200260200101516001600160a01b03166001600160a01b03168152602001908152602001600020818154811061091357610913613c57565b60009182526020822001555b60010161085c565b5060010161080c565b50604051839033907f4a49253305f0d63099f6b61a9d355ce9fd607a6b536918966a9b09cd46b4da8b90600090a3505050565b6000806000858152600460205260409020600a015460ff16600381111561098c5761098c613543565b149050806109e85760405162461bcd60e51b8152602060048201526024808201527f596f752063616e206e6f7420706c6163652070726f706f73616c207269676874604482015263206e6f7760e01b60648201526084016106a8565b6109f184612ee1565b6000848152600460205260408120600901805491610a0e83613c83565b90915550506000848152600460209081526040808320600901546006835292819020815160c0601f88018590049094028101840190925260a0820186815290928291908890889081908501838280828437600092018290525093855250505060208201819052604082018590526060820152608001600190528154600181018355600092835260209092208151919260050201908190610aae9082613cec565b5060208201518160010155604082015181600201556060820151816003015560808201518160040160006101000a81548160ff02191690836003811115610af757610af7613543565b02179055505050847fbb878f2a2e892d9a3562cba951f66485d18cf663715d59785bd1eafe3697a8c3828686604051610b3293929190613dac565b60405180910390a25050505050565b610b4b8282612e6a565b610bb45760405162461bcd60e51b815260206004820152603460248201527f5468652061646472657373206973206e6f7420612064656c656761746520696e604482015273020746865207370656369666965642067726f75760641b60648201526084016106a8565b610bbd82612f3b565b610c265760405162461bcd60e51b815260206004820152603460248201527f596f752063616e206f6e6c792064656c656761746520696e2067726f757073206044820152733cb7ba9030b93290309036b2b6b132b91037b31760611b60648201526084016106a8565b610c2f82611ffa565b15610c915760405162461bcd60e51b815260206004820152602c60248201527f596f75206861766520616e206163746976652064656c65676174696f6e20696e60448201526b103a3434b99033b937bab81760a11b60648201526084016106a8565b336001600160a01b03821603610ce95760405162461bcd60e51b815260206004820181905260248201527f596f752063616e206e6f742064656c656761746520746f20796f757273656c6660448201526064016106a8565b33600090815260036020908152604080832080546001818101835591855283852001869055858452909152812054606090825b81811015610ed057600086815260016020526040902080546001600160a01b038716919083908110610d5057610d50613c57565b60009182526020909120600590910201546001600160a01b031603610ec8576000868152600160205260409020805482908110610d8f57610d8f613c57565b600091825260208220600260059092020101805491610dad83613c83565b90915550506000868152600160205260409020805482908110610dd257610dd2613c57565b600091825260208083206003600590930201919091018054600181810183559184528284200180546001600160a01b03191633179055888352905260409020805482908110610e2357610e23613c57565b9060005260206000209060050201600201549350600160008781526020019081526020016000208181548110610e5b57610e5b613c57565b9060005260206000209060050201600301805480602002602001604051908101604052809291908181526020018280548015610ec057602002820191906000526020600020905b81546001600160a01b03168152600190910190602001808311610ea2575b505050505092505b600101610d1c565b5084846001600160a01b0316336001600160a01b03167f666c49d8439089d417a99690492068a6e44b8f5ee919a4e15f72d0185e6034408686604051610f17929190613e1c565b60405180910390a45050505050565b6060610f3182612ee1565b600082815260066020908152604080832080548251818502810185019093528083529193909284015b8282101561106f57838290600052602060002090600502016040518060a0016040529081600082018054610f8d90613c1d565b80601f0160208091040260200160405190810160405280929190818152602001828054610fb990613c1d565b80156110065780601f10610fdb57610100808354040283529160200191611006565b820191906000526020600020905b815481529060010190602001808311610fe957829003601f168201915b505050918352505060018201546020820152600282015460408201526003808301546060830152600483015460809092019160ff169081111561104b5761104b613543565b600381111561105c5761105c613543565b8152505081526020019060010190610f5a565b505050509050919050565b606083838361108a838383612fa1565b600087815260066020526040812054905b8181116111dc5760008981526006602052604090208054899190839081106110c5576110c5613c57565b906000526020600020906005020160020154036111d457600088815260096020526040812054905b8181116111d15760008a815260096020526040902080548a91908390811061111757611117613c57565b906000526020600020906007020160020154036111c9576000898152600a6020908152604080832080548251818502810185019093528083529193909284015b828210156111ba5760008481526020908190206040805160a081018252600586029092018054835260018082015484860152600282015492840192909252600381015460ff16151560608401526004015460808301529083529092019101611157565b5050505097505050505061123f565b6001016110ed565b50505b60010161109b565b50604080516000808252602082019092529061123a565b6112276040518060a00160405280600081526020016000815260200160008152602001600015158152602001600081525090565b8152602001906001900390816111f35790505b509450505b5050509392505050565b60608061125583612ee1565b600083815260066020908152604080832080548251818502810185019093528083529192909190849084015b8282101561139657838290600052602060002090600502016040518060a00160405290816000820180546112b490613c1d565b80601f01602080910402602001604051908101604052809291908181526020018280546112e090613c1d565b801561132d5780601f106113025761010080835404028352916020019161132d565b820191906000526020600020905b81548152906001019060200180831161131057829003601f168201915b505050918352505060018201546020820152600282015460408201526003808301546060830152600483015460809092019160ff169081111561137257611372613543565b600381111561138357611383613543565b8152505081526020019060010190611281565b5050505090506000815167ffffffffffffffff8111156113b8576113b8613b19565b6040519080825280602002602001820160405280156113eb57816020015b60608152602001906001900390816113d65790505b5090506000825167ffffffffffffffff81111561140a5761140a613b19565b604051908082528060200260200182016040528015611433578160200160208202803683370190505b50905060005b83518110156114c05783818151811061145457611454613c57565b60200260200101516000015183828151811061147257611472613c57565b602002602001018190525083818151811061148f5761148f613c57565b6020026020010151602001518282815181106114ad576114ad613c57565b6020908102919091010152600101611439565b50909590945092505050565b6114d68133612e6a565b156115385760405162461bcd60e51b815260206004820152602c60248201527f596f752061726520616c726561647920612064656c656761746520696e20737060448201526b06563696669632067726f75760a41b60648201526084016106a8565b600081815260026020526040812080549161155283613c83565b90915550506040805160a081018252338152602080820184815260008385018181528551828152808501875260608601908152878352600280865287842054608088015288845260018087529784208054808a01825590855293869020875160059095020180546001600160a01b0319166001600160a01b03909516949094178455935196830196909655519181019190915592518051929384939092611600926003850192910190613461565b50608082015181600401555050806020015181600001516001600160a01b03167fb5977a248b20510642da018e687e9ba90beb459651acf6b82b232aeab1aac86e83604001518460600151856080015160405161165f93929190613e3d565b60405180910390a35050565b61167481612ffd565b156116d35760405162461bcd60e51b815260206004820152602960248201527f43616e27742066696e642067726f757020796f752061726520747279696e6720604482015268746f2072656d6f766560b81b60648201526084016106a8565b3360009081526020818152604080832060010180548251818502810185019093528083526117359383018282801561172a57602002820191906000526020600020905b815481526020019060010190808311611716575b5050505050836130a1565b33600090815260208190526040902060010154909150811061178e5760405162461bcd60e51b81526020600482015260126024820152711a5b99195e081bdd5d081bd988189bdd5b9960721b60448201526064016106a8565b805b3360009081526020819052604090206001908101546117af9190613e66565b811015611829573360009081526020819052604090206001908101906117d6908390613e79565b815481106117e6576117e6613c57565b600091825260208083209091015433835290829052604090912060010180548390811061181557611815613c57565b600091825260209091200155600101611790565b5033600090815260208190526040902060010180548061184b5761184b613e8c565b60019003818190600052602060002001600090559055817f90da14bd9eb8fde3e05a9aafa41174e865f627f0d3fea95c160853f866913cd760405160405180910390a25050565b600a60205281600052604060002081815481106118ae57600080fd5b6000918252602090912060059091020180546001820154600283015460038401546004909401549295509093509160ff169085565b6000828152600660205260408120546060915b818111611a9e57600085815260066020526040902080548591908390811061192057611920613c57565b90600052602060002090600502016002015403611a9657600084815260096020908152604080832080548251818502810185019093528083529193909284015b82821015611a8957838290600052602060002090600702016040518060e00160405290816000820154815260200160018201548152602001600282015481526020016003820180546119b190613c1d565b80601f01602080910402602001604051908101604052809291908181526020018280546119dd90613c1d565b8015611a2a5780601f106119ff57610100808354040283529160200191611a2a565b820191906000526020600020905b815481529060010190602001808311611a0d57829003601f168201915b50505091835250506004820154602082015260058201546040820152600682015460609091019060ff166003811115611a6557611a65613543565b6003811115611a7657611a76613543565b8152505081526020019060010190611960565b5050505092505050611bf9565b6001016118f6565b50600083815260096020908152604080832080548251818502810185019093528083529193909284015b82821015611bf157838290600052602060002090600702016040518060e0016040529081600082015481526020016001820154815260200160028201548152602001600382018054611b1990613c1d565b80601f0160208091040260200160405190810160405280929190818152602001828054611b4590613c1d565b8015611b925780601f10611b6757610100808354040283529160200191611b92565b820191906000526020600020905b815481529060010190602001808311611b7557829003601f168201915b50505091835250506004820154602082015260058201546040820152600682015460609091019060ff166003811115611bcd57611bcd613543565b6003811115611bde57611bde613543565b8152505081526020019060010190611ac8565b505050509150505b92915050565b60058054906000611c0f83613c83565b9091555050604080516101806020601f8d01819004028201810190925261016081018b81526000928291908e908e9081908501838280828437600092019190915250505090825250604080516020601f8d018190048102820181019092528b815291810191908c908c90819084018382808284376000920182905250938552505050602082018a905260408201899052606082018890526080820187905260a0820186905260c0820185905260055460e083015261010082018190526101209091015261010081015181516040519293507f65d5ac2bf1bca69566bef1affdfca5bb37b9577fc0b3af4c7c4638225e67b39c92611d0d929190613ea2565b60405180910390a1600554600090815260046020526040902081518291908190611d379082613cec565b5060208201516001820190611d4c9082613cec565b5060408201518160020155606082015181600301556080820151816004015560a0820151816005015560c0820151816006015560e082015181600701556101008201518160080155610120820151816009015561014082015181600a0160006101000a81548160ff02191690836003811115611dca57611dca613543565b021790555050505050505050505050505050565b600460205260009081526040902080548190611df990613c1d565b80601f0160208091040260200160405190810160405280929190818152602001828054611e2590613c1d565b8015611e725780601f10611e4757610100808354040283529160200191611e72565b820191906000526020600020905b815481529060010190602001808311611e5557829003601f168201915b505050505090806001018054611e8790613c1d565b80601f0160208091040260200160405190810160405280929190818152602001828054611eb390613c1d565b8015611f005780601f10611ed557610100808354040283529160200191611f00565b820191906000526020600020905b815481529060010190602001808311611ee357829003601f168201915b50505060028401546003850154600486015460058701546006880154600789015460088a015460098b0154600a909b0154999a96999598509396509194909391929160ff168b565b60016020528160005260406000208181548110611f6457600080fd5b600091825260209091206005909102018054600182015460028301546004909301546001600160a01b039092169450925084565b3360009081526020818152604091829020600101805483518184028101840190945280845260609392830182828015611ff057602002820191906000526020600020905b815481526020019060010190808311611fdc575b5050505050905090565b3360009081526003602090815260408083208054825181850281018501909352808352849383018282801561204e57602002820191906000526020600020905b81548152602001906001019080831161203a575b5050505050905060005b8151811015612093578382828151811061207457612074613c57565b60200260200101510361208b575060019392505050565b600101612058565b5060009392505050565b600082815260046020526040812060020154906120b984612ee1565b6120c284613112565b61211d5760405162461bcd60e51b815260206004820152602660248201527f5468652075736572206973206e6f742061206d656d626572206f6620706f6c6c60448201526502067726f75760d41b60648201526084016106a8565b612126846131bf565b156121735760405162461bcd60e51b815260206004820152601a60248201527f566f74652068617320616c7265616479206265656e206361737400000000000060448201526064016106a8565b60008311801561219457506000848152600460205260409020600901548311155b6121e05760405162461bcd60e51b815260206004820152601760248201527f50726f706f73616c20646f6573206e6f7420657869737400000000000000000060448201526064016106a8565b6121e982613273565b1561224f5760405162461bcd60e51b815260206004820152603060248201527f596f7520686176652064656c65676174656420796f757220766f746520696e2060448201526f3a3432903837b636399033b937bab81760811b60648201526084016106a8565b6000848152600660209081526040808320858452600190925282205490915b818110156122f557600085815260016020526040902080543391908390811061229957612299613c57565b60009182526020909120600590910201546001600160a01b0316036122ed5760008581526001602052604090208054829081106122d8576122d8613c57565b90600052602060002090600502016002015493505b60010161226e565b5081546000805b8281101561241a578785828154811061231757612317613c57565b9060005260206000209060050201600201540361241257612339866001613e79565b85828154811061234b5761234b613c57565b9060005260206000209060050201600101600082825461236b9190613e79565b9250508190555084818154811061238457612384613c57565b6000918252602080832060016005909302018201548c84526007825260408085208054948501815585529190932090910180546001600160a01b031916339081179091559051919350908a907fa5876137634fc61be6a6224d5f4a2d0926145388c51a133c03cc00f7b66e0e3c906123ff9086815260200190565b60405180910390a3505050505050505050565b6001016122fc565b5060405162461bcd60e51b815260206004820152603260248201527f5468657265206973206e6f20737563682070726f706f73616c20666f7220746860448201527119481cdc1958da599a5959081c1bdb1b125960721b60648201526084016106a8565b61248781612ffd565b6124df5760405162461bcd60e51b8152602060048201526024808201527f5065726d697373696f6e20697320616c726561647920676976656e20696e20676044820152630726f75760e41b60648201526084016106a8565b3360009081526020818152604080832060019081018054918201815584529183209091018390555182917f8aa97af2947aac0dc42394954c6dd127eba5cecbc5a03fae31e5cc07d6738fe591a250565b84848461253d838383612fa1565b600a600061254c600189613e66565b815260208082019290925260409081016000908120825160a0810184529b8c528b84019a8b52918b0198895295151560608b0190815260808b019788528154600180820184559288529290962099516005909202909901908155965197870197909755505091516002840155905160038301805460ff19169115159190911790555160049091015550565b600660205281600052604060002081815481106125f357600080fd5b90600052602060002090600502016000915091505080600001805461261790613c1d565b80601f016020809104026020016040519081016040528092919081815260200182805461264390613c1d565b80156126905780601f1061266557610100808354040283529160200191612690565b820191906000526020600020905b81548152906001019060200180831161267357829003601f168201915b505050506001830154600284015460038501546004909501549394919390925060ff1685565b600082815260016020526040812054815b818110156127d557600085815260016020526040902080546001600160a01b0386169190839081106126fb576126fb613c57565b60009182526020909120600590910201546001600160a01b0316036127cd57600085815260016020526040902080548290811061273a5761273a613c57565b6000918252602082206003600590920201015492505b828110156127cb57600086815260016020526040902080543391908490811061277b5761277b613c57565b9060005260206000209060050201600301828154811061279d5761279d613c57565b6000918252602090912001546001600160a01b0316036127c35760019350505050611bf9565b600101612750565b505b6001016126c7565b506000949350505050565b6000805b336000908152602081905260409020600101548110156128465733600090815260208190526040902060010180548491908390811061282557612825613c57565b90600052602060002001540361283e5750600192915050565b6001016127e4565b50600092915050565b60006001600085815260066020526040902061286c600186613e66565b8154811061287c5761287c613c57565b600091825260209091206004600590920201015460ff1660038111156128a4576128a4613543565b149050806129095760405162461bcd60e51b815260206004820152602c60248201527f596f752063616e206e6f742063726561746520612070726564696374696f6e2060448201526b617420746869732074696d6560a01b60648201526084016106a8565b6000848152600660205260408120612922600186613e66565b8154811061293257612932613c57565b9060005260206000209060050201905061294c858561330c565b61295557600080fd5b60038101805490600061296783613c83565b909155505060038101546000868152600660205260409020829061298c600188613e66565b8154811061299c5761299c613c57565b60009182526020909120600590910201806129b78382613ebb565b50600182810154828201556002808401549083015560038084015481840155600480850154908401805460ff90921693909260ff19909216918490811115612a0157612a01613543565b0217905550905050600960008681526020019081526020016000206040518060e00160405280888152602001878152602001838152602001868152602001600081526020016000815260200160026003811115612a6057612a60613543565b90528154600181810184556000938452602093849020835160079093020191825592820151928101929092556040810151600283015560608101519091906003820190612aad9082613cec565b506080820151600482015560a0820151600582015560c082015160068201805460ff19166001836003811115612ae557612ae5613543565b021790555050507f611b851c586fb53b9aae86344db19e0e0dd8f785abd9117602396d3bccb37c418185604051612b1d929190613ea2565b60405180910390a1505050505050565b612b3781836126b6565b612ba95760405162461bcd60e51b815260206004820152603e60248201527f596f752068617665206e6f742064656c65676174656420746f2074686520737060448201527f656369666965642064656c656761746520696e20746869732067726f7570000060648201526084016106a8565b600081815260016020526040812054815b81811015612d9057600084815260016020526040902080546001600160a01b038716919083908110612bee57612bee613c57565b60009182526020909120600590910201546001600160a01b031603612d88576000848152600160205260409020805482908110612c2d57612c2d613c57565b600091825260208220600260059092020101805491612c4b83613f96565b90915550506000848152600160205260409020805482908110612c7057612c70613c57565b906000526020600020906005020160020154925060005b6000858152600160205260409020805483908110612ca757612ca7613c57565b906000526020600020906005020160030180549050811015612d86576000858152600160205260409020805433919084908110612ce657612ce6613c57565b90600052602060002090600502016003018281548110612d0857612d08613c57565b6000918252602090912001546001600160a01b031603612d7e576000858152600160205260409020805483908110612d4257612d42613c57565b90600052602060002090600502016003018181548110612d6457612d64613c57565b600091825260209091200180546001600160a01b03191690555b600101612c87565b505b600101612bba565b505033600090815260036020526040812054905b81811015612e1557336000908152600360205260409020805485919083908110612dd057612dd0613c57565b906000526020600020015403612e0d57336000908152600360205260409020805482908110612e0157612e01613c57565b60009182526020822001555b600101612da4565b5082336001600160a01b0316856001600160a01b03167ffe78e1dedca6af8797c8c45500588ea289add8b4b886f1d9b8d3824796274e3685604051612e5c91815260200190565b60405180910390a450505050565b600082815260016020526040812054815b818110156127d557600085815260016020526040902080546001600160a01b038616919083908110612eaf57612eaf613c57565b60009182526020909120600590910201546001600160a01b031603612ed957600192505050611bf9565b600101612e7b565b600081118015612ef357506005548111155b612f385760405162461bcd60e51b8152602060048201526016602482015275141bdb1b08125108191bd95cc81b9bdd08195e1a5cdd60521b60448201526064016106a8565b50565b33600090815260208190526040812060010154815b8181101561209357336000908152602081905260409020600101805485919083908110612f7f57612f7f613c57565b906000526020600020015403612f99575060019392505050565b600101612f50565b612fac838383613371565b612ff85760405162461bcd60e51b815260206004820152601960248201527f50726564696374696f6e20646f6573206e6f742065786973740000000000000060448201526064016106a8565b505050565b336000908152602081815260408083206001018054825181850281018501909352808352849383018282801561305257602002820191906000526020600020905b81548152602001906001019080831161303e575b5050505050905060005b8151811015613097578382828151811061307857613078613c57565b60200260200101510361308f575060009392505050565b60010161305c565b5060019392505050565b6000805b83518110156130dd57828482815181106130c1576130c1613c57565b6020026020010151036130d5579050611bf9565b6001016130a5565b5060405162461bcd60e51b8152602060048201526009602482015268139bdd08119bdd5b9960ba1b60448201526064016106a8565b336000908152602081815260408083206001018054825181850281018501909352808352849383018282801561316757602002820191906000526020600020905b815481526020019060010190808311613153575b5050505050905060005b81518110156120935760008481526004602052604090206002015482518390839081106131a0576131a0613c57565b6020026020010151036131b7575060019392505050565b600101613171565b60008181526007602090815260408083208054825181850281018501909352808352849383018282801561321c57602002820191906000526020600020905b81546001600160a01b031681526001909101906020018083116131fe575b5050505050905060005b815181101561209357336001600160a01b031682828151811061324b5761324b613c57565b60200260200101516001600160a01b03160361326b575060019392505050565b600101613226565b336000908152600360209081526040808320805482518185028101850190935280835284938301828280156132c757602002820191906000526020600020905b8154815260200190600101908083116132b3575b5050505050905060005b815181101561209357838282815181106132ed576132ed613c57565b602002602001015103613304575060019392505050565b6001016132d1565b600082815260066020526040812054815b8181116127d557600085815260066020526040902080548591908390811061334757613347613c57565b9060005260206000209060050201600201540361336957600192505050611bf9565b60010161331d565b600083815260066020526040812054815b8181116134355760008681526006602052604090208054869190839081106133ac576133ac613c57565b9060005260206000209060050201600201540361342d57600085815260096020526040812054905b81811161342a5760008781526009602052604090208054879190839081106133fe576133fe613c57565b9060005260206000209060070201600201540361342257600194505050505061343c565b6001016133d4565b50505b600101613382565b5060009150505b9392505050565b5080546000825590600052602060002090810190612f3891906134c6565b8280548282559060005260206000209081019282156134b6579160200282015b828111156134b657825182546001600160a01b0319166001600160a01b03909116178255602090920191600190910190613481565b506134c29291506134c6565b5090565b5b808211156134c257600081556001016134c7565b600080604083850312156134ee57600080fd5b50508035926020909101359150565b6000815180845260005b8181101561352357602081850181015186830182015201613507565b506000602082860101526020601f19601f83011685010191505092915050565b634e487b7160e01b600052602160045260246000fd5b6004811061357757634e487b7160e01b600052602160045260246000fd5b9052565b87815286602082015285604082015260e0606082015260006135a060e08301876134fd565b90508460808301528360a08301526135bb60c0830184613559565b98975050505050505050565b6000602082840312156135d957600080fd5b5035919050565b60008083601f8401126135f257600080fd5b50813567ffffffffffffffff81111561360a57600080fd5b60208301915083602082850101111561362257600080fd5b9250929050565b60008060006040848603121561363e57600080fd5b83359250602084013567ffffffffffffffff81111561365c57600080fd5b613668868287016135e0565b9497909650939450505050565b80356001600160a01b038116811461368c57600080fd5b919050565b600080604083850312156136a457600080fd5b823591506136b460208401613675565b90509250929050565b600060208083018184528085518083526040925060408601915060408160051b87010184880160005b8381101561375257603f19898403018552815160a0815181865261370c828701826134fd565b915050888201518986015287820151888601526060808301518187015250608080830151925061373e81870184613559565b5095880195935050908601906001016136e6565b509098975050505050505050565b60008060006060848603121561377557600080fd5b505081359360208301359350604090920135919050565b602080825282518282018190526000919060409081850190868401855b828110156137ef57815180518552868101518786015285810151868601526060808201511515908601526080908101519085015260a090930192908501906001016137a9565b5091979650505050505050565b60008151808452602080850194506020840160005b8381101561382d57815187529582019590820190600101613811565b509495945050505050565b6000604082016040835280855180835260608501915060608160051b8601019250602080880160005b8381101561388f57605f1988870301855261387d8683516134fd565b95509382019390820190600101613861565b505050505082810360208401526138a681856137fc565b95945050505050565b600060208083018184528085518083526040925060408601915060408160051b87010184880160005b8381101561375257603f19898403018552815160e081518552888201518986015287820151888601526060808301518282880152613918838801826134fd565b92505050608080830151818701525060a080830151818701525060c080830151925061394681870184613559565b5095880195935050908601906001016138d8565b6000806000806000806000806000806101008b8d03121561397a57600080fd5b8a3567ffffffffffffffff8082111561399257600080fd5b61399e8e838f016135e0565b909c509a5060208d01359150808211156139b757600080fd5b506139c48d828e016135e0565b9b9e9a9d509b60408101359a60608201359a506080820135995060a0820135985060c0820135975060e09091013595509350505050565b6000610160808352613a0f8184018f6134fd565b90508281036020840152613a23818e6134fd565b9150508a60408301528960608301528860808301528760a08301528660c08301528560e08301528461010083015283610120830152613a66610140830184613559565b9c9b505050505050505050505050565b60208152600061343c60208301846137fc565b600080600080600060a08688031215613aa157600080fd5b8535945060208601359350604086013592506060860135915060808601358015158114613acd57600080fd5b809150509295509295909350565b60a081526000613aee60a08301886134fd565b9050856020830152846040830152836060830152613b0f6080830184613559565b9695505050505050565b634e487b7160e01b600052604160045260246000fd5b600080600060608486031215613b4457600080fd5b8335925060208401359150604084013567ffffffffffffffff80821115613b6a57600080fd5b818601915086601f830112613b7e57600080fd5b813581811115613b9057613b90613b19565b604051601f8201601f19908116603f01168101908382118183101715613bb857613bb8613b19565b81604052828152896020848701011115613bd157600080fd5b8260208601602083013760006020848301015280955050505050509250925092565b60008060408385031215613c0657600080fd5b613c0f83613675565b946020939093013593505050565b600181811c90821680613c3157607f821691505b602082108103613c5157634e487b7160e01b600052602260045260246000fd5b50919050565b634e487b7160e01b600052603260045260246000fd5b634e487b7160e01b600052601160045260246000fd5b600060018201613c9557613c95613c6d565b5060010190565b601f821115612ff8576000816000526020600020601f850160051c81016020861015613cc55750805b601f850160051c820191505b81811015613ce457828155600101613cd1565b505050505050565b815167ffffffffffffffff811115613d0657613d06613b19565b613d1a81613d148454613c1d565b84613c9c565b602080601f831160018114613d4f5760008415613d375750858301515b600019600386901b1c1916600185901b178555613ce4565b600085815260208120601f198616915b82811015613d7e57888601518255948401946001909101908401613d5f565b5085821015613d9c5787850151600019600388901b60f8161c191681555b5050505050600190811b01905550565b83815260406020820152816040820152818360608301376000818301606090810191909152601f909201601f1916010192915050565b60008151808452602080850194506020840160005b8381101561382d5781516001600160a01b031687529582019590820190600101613df7565b828152604060208201526000613e356040830184613de2565b949350505050565b838152606060208201526000613e566060830185613de2565b9050826040830152949350505050565b81810381811115611bf957611bf9613c6d565b80820180821115611bf957611bf9613c6d565b634e487b7160e01b600052603160045260246000fd5b828152604060208201526000613e3560408301846134fd565b818103613ec6575050565b613ed08254613c1d565b67ffffffffffffffff811115613ee857613ee8613b19565b613ef681613d148454613c1d565b6000601f821160018114613f2a5760008315613f125750848201545b600019600385901b1c1916600184901b178455613f8f565b600085815260209020601f19841690600086815260209020845b83811015613f645782860154825560019586019590910190602001613f44565b5085831015613f825781850154600019600388901b60f8161c191681555b50505060018360011b0184555b5050505050565b600081613fa557613fa5613c6d565b50600019019056fea2646970667358221220ebf14ccb72bb93f3d73f003048260284bc9da1f2134951e6848931d904c0490264736f6c63430008170033",
    "linkReferences": {}
  },
  "methodIdentifiers": {
    "addProposal(uint256,string)": "051097ef",
    "becomeDelegate(uint256)": "395e0139",
    "checkAllRights()": "ae828f3c",
    "checkRightsInGroup(uint256)": "de219672",
    "createPoll(string,string,uint256,uint256,uint256,uint256,uint256,uint256)": "a00c1f7e",
    "createPrediction(uint256,uint256,string)": "e424938c",
    "delegate(uint256,address)": "08bbb824",
    "getPollResults(uint256)": "33b4097b",
    "getPredictionBets(uint256,uint256,uint256)": "3128fcb6",
    "getPredictions(uint256,uint256)": "9bec02b1",
    "getProposals(uint256)": "2c72fdfc",
    "giveRightToVote(uint256)": "bc23bd51",
    "groupDelegates(uint256,uint256)": "ac8ec2f9",
    "hasDelegatedInGroup(uint256)": "b0333e0d",
    "hasDelegatedToDelegateInGroup(uint256,address)": "d5887489",
    "placePredictionBet(uint256,uint256,uint256,uint256,bool)": "c20572af",
    "pollCount()": "9207891d",
    "polls(uint256)": "ac2f0074",
    "predictionBets(uint256,uint256)": "44f0bb77",
    "predictions(uint256,uint256)": "025ae4e2",
    "proposals(uint256,uint256)": "c2cfee27",
    "removeDelegation(address,uint256)": "fd6c914e",
    "removeRightToVote(uint256)": "422ee52a",
    "resignAsDelegate(uint256)": "0457bea8",
    "vote(uint256,uint256)": "b384abef"
  },
  "id": 22
}