{"abi":[{"type":"function","name":"pollCount","inputs":[],"outputs":[{"name":"","type":"uint256","internalType":"uint256"}],"stateMutability":"view"},{"type":"function","name":"polls","inputs":[{"name":"","type":"uint256","internalType":"uint256"}],"outputs":[{"name":"title","type":"string","internalType":"string"},{"name":"tag","type":"string","internalType":"string"},{"name":"group","type":"uint256","internalType":"uint256"},{"name":"pollStartDate","type":"uint256","internalType":"uint256"},{"name":"proposalEndDate","type":"uint256","internalType":"uint256"},{"name":"votingStartDate","type":"uint256","internalType":"uint256"},{"name":"delegateEndDate","type":"uint256","internalType":"uint256"},{"name":"endDate","type":"uint256","internalType":"uint256"},{"name":"pollId","type":"uint256","internalType":"uint256"},{"name":"proposalCount","type":"uint256","internalType":"uint256"},{"name":"phase","type":"uint8","internalType":"enum PollStructs.PollPhase"}],"stateMutability":"view"}],"bytecode":{"object":"0x608060405234801561001057600080fd5b5061034c806100206000396000f3fe608060405234801561001057600080fd5b50600436106100365760003560e01c80639207891d1461003b578063ac2f007414610057575b600080fd5b61004460015481565b6040519081526020015b60405180910390f35b61006a6100653660046101eb565b610081565b60405161004e9b9a9998979695949392919061024a565b60006020819052908152604090208054819061009c906102dc565b80601f01602080910402602001604051908101604052809291908181526020018280546100c8906102dc565b80156101155780601f106100ea57610100808354040283529160200191610115565b820191906000526020600020905b8154815290600101906020018083116100f857829003601f168201915b50505050509080600101805461012a906102dc565b80601f0160208091040260200160405190810160405280929190818152602001828054610156906102dc565b80156101a35780601f10610178576101008083540402835291602001916101a3565b820191906000526020600020905b81548152906001019060200180831161018657829003601f168201915b50505060028401546003850154600486015460058701546006880154600789015460088a015460098b0154600a909b0154999a96999598509396509194909391929160ff168b565b6000602082840312156101fd57600080fd5b5035919050565b6000815180845260005b8181101561022a5760208185018101518683018201520161020e565b506000602082860101526020601f19601f83011685010191505092915050565b600061016080835261025e8184018f610204565b90508281036020840152610272818e610204565b9150508a60408301528960608301528860808301528760a08301528660c08301528560e08301528461010083015283610120830152600483106102c557634e487b7160e01b600052602160045260246000fd5b826101408301529c9b505050505050505050505050565b600181811c908216806102f057607f821691505b60208210810361031057634e487b7160e01b600052602260045260246000fd5b5091905056fea264697066735822122007697a8a30e9bfeca6b6f0ba2d58267225d5bd735d3451586eb71b117c0d378864736f6c63430008170033","linkReferences":{}},"methodIdentifiers":{"pollCount()":"9207891d","polls(uint256)":"ac2f0074"},"id":19}