{
  "abi": [
    {
      "inputs": [
        {
          "internalType": "uint256",
          "name": "",
          "type": "uint256"
        }
      ],
      "name": "polls",
      "outputs": [
        {
          "internalType": "string",
          "name": "title",
          "type": "string"
        },
        {
          "internalType": "string",
          "name": "tag",
          "type": "string"
        },
        {
          "internalType": "uint256",
          "name": "group",
          "type": "uint256"
        },
        {
          "internalType": "uint256",
          "name": "pollStartDate",
          "type": "uint256"
        },
        {
          "internalType": "uint256",
          "name": "proposalEndDate",
          "type": "uint256"
        },
        {
          "internalType": "uint256",
          "name": "votingStartDate",
          "type": "uint256"
        },
        {
          "internalType": "uint256",
          "name": "delegateEndDate",
          "type": "uint256"
        },
        {
          "internalType": "uint256",
          "name": "endDate",
          "type": "uint256"
        },
        {
          "internalType": "uint256",
          "name": "pollId",
          "type": "uint256"
        },
        {
          "internalType": "uint256",
          "name": "proposalCount",
          "type": "uint256"
        },
        {
          "internalType": "enum PollStructs.PollPhase",
          "name": "phase",
          "type": "uint8"
        }
      ],
      "stateMutability": "view",
      "type": "function"
    }
  ],
  "bytecode": {
    "object": "0x608060405234801561001057600080fd5b5061032e806100206000396000f3fe608060405234801561001057600080fd5b506004361061002b5760003560e01c8063ac2f007414610030575b600080fd5b61004361003e3660046101cd565b610063565b60405161005a9b9a9998979695949392919061022c565b60405180910390f35b60006020819052908152604090208054819061007e906102be565b80601f01602080910402602001604051908101604052809291908181526020018280546100aa906102be565b80156100f75780601f106100cc576101008083540402835291602001916100f7565b820191906000526020600020905b8154815290600101906020018083116100da57829003601f168201915b50505050509080600101805461010c906102be565b80601f0160208091040260200160405190810160405280929190818152602001828054610138906102be565b80156101855780601f1061015a57610100808354040283529160200191610185565b820191906000526020600020905b81548152906001019060200180831161016857829003601f168201915b50505060028401546003850154600486015460058701546006880154600789015460088a015460098b0154600a909b0154999a96999598509396509194909391929160ff168b565b6000602082840312156101df57600080fd5b5035919050565b6000815180845260005b8181101561020c576020818501810151868301820152016101f0565b506000602082860101526020601f19601f83011685010191505092915050565b60006101608083526102408184018f6101e6565b90508281036020840152610254818e6101e6565b9150508a60408301528960608301528860808301528760a08301528660c08301528560e08301528461010083015283610120830152600483106102a757634e487b7160e01b600052602160045260246000fd5b826101408301529c9b505050505050505050505050565b600181811c908216806102d257607f821691505b6020821081036102f257634e487b7160e01b600052602260045260246000fd5b5091905056fea26469706673582212204247e58e7b9fa999b01580a4e508bcdc3230384958639ff6555166eb1d6d620864736f6c63430008170033",
    "linkReferences": {}
  },
  "methodIdentifiers": {
    "polls(uint256)": "ac2f0074"
  },
  "id": 19
}