{
  "abi": [
    {
      "anonymous": false,
      "inputs": [
        {
          "indexed": false,
          "internalType": "address",
          "name": "delegate",
          "type": "address"
        },
        {
          "indexed": false,
          "internalType": "uint256",
          "name": "groupId",
          "type": "uint256"
        }
      ],
      "name": "DelegateResignation",
      "type": "event"
    },
    {
      "anonymous": false,
      "inputs": [
        {
          "indexed": false,
          "internalType": "address",
          "name": "from",
          "type": "address"
        },
        {
          "indexed": false,
          "internalType": "address",
          "name": "by",
          "type": "address"
        },
        {
          "indexed": false,
          "internalType": "uint256",
          "name": "groupId",
          "type": "uint256"
        },
        {
          "indexed": false,
          "internalType": "uint256",
          "name": "delegatedVotes",
          "type": "uint256"
        }
      ],
      "name": "DelegationRemoved",
      "type": "event"
    },
    {
      "anonymous": false,
      "inputs": [
        {
          "indexed": false,
          "internalType": "address",
          "name": "delegate",
          "type": "address"
        },
        {
          "indexed": false,
          "internalType": "uint256",
          "name": "groupId",
          "type": "uint256"
        },
        {
          "indexed": false,
          "internalType": "uint256",
          "name": "delegatedVotes",
          "type": "uint256"
        },
        {
          "indexed": false,
          "internalType": "address[]",
          "name": "delegationsFrom",
          "type": "address[]"
        },
        {
          "indexed": false,
          "internalType": "uint256",
          "name": "groupDelegateId",
          "type": "uint256"
        }
      ],
      "name": "NewDelegate",
      "type": "event"
    },
    {
      "anonymous": false,
      "inputs": [
        {
          "indexed": false,
          "internalType": "address",
          "name": "from",
          "type": "address"
        },
        {
          "indexed": false,
          "internalType": "address",
          "name": "to",
          "type": "address"
        },
        {
          "indexed": false,
          "internalType": "uint256",
          "name": "groupId",
          "type": "uint256"
        },
        {
          "indexed": false,
          "internalType": "uint256",
          "name": "delegatedVotes",
          "type": "uint256"
        },
        {
          "indexed": false,
          "internalType": "address[]",
          "name": "delegationsFrom",
          "type": "address[]"
        }
      ],
      "name": "NewDelegation",
      "type": "event"
    },
    {
      "anonymous": false,
      "inputs": [
        {
          "indexed": false,
          "internalType": "uint256",
          "name": "pollId",
          "type": "uint256"
        },
        {
          "indexed": false,
          "internalType": "string",
          "name": "title",
          "type": "string"
        }
      ],
      "name": "PollCreated",
      "type": "event"
    },
    {
      "anonymous": false,
      "inputs": [
        {
          "indexed": false,
          "internalType": "string",
          "name": "description",
          "type": "string"
        },
        {
          "indexed": false,
          "internalType": "uint256",
          "name": "likelihood",
          "type": "uint256"
        }
      ],
      "name": "PredictionCreated",
      "type": "event"
    },
    {
      "anonymous": false,
      "inputs": [
        {
          "indexed": false,
          "internalType": "uint256",
          "name": "pollId",
          "type": "uint256"
        },
        {
          "indexed": false,
          "internalType": "uint256",
          "name": "proposalId",
          "type": "uint256"
        },
        {
          "indexed": false,
          "internalType": "string",
          "name": "description",
          "type": "string"
        },
        {
          "indexed": false,
          "internalType": "uint256",
          "name": "proposalCount",
          "type": "uint256"
        }
      ],
      "name": "ProposalAdded",
      "type": "event"
    },
    {
      "anonymous": false,
      "inputs": [
        {
          "indexed": true,
          "internalType": "uint256",
          "name": "pollId",
          "type": "uint256"
        },
        {
          "indexed": true,
          "internalType": "address",
          "name": "voter",
          "type": "address"
        },
        {
          "indexed": false,
          "internalType": "bytes32",
          "name": "hashedVote",
          "type": "bytes32"
        },
        {
          "indexed": false,
          "internalType": "uint256",
          "name": "votesForProposal",
          "type": "uint256"
        }
      ],
      "name": "VoteSubmitted",
      "type": "event"
    },
    {
      "inputs": [
        {
          "internalType": "uint256",
          "name": "_pollId",
          "type": "uint256"
        },
        {
          "internalType": "string",
          "name": "_description",
          "type": "string"
        }
      ],
      "name": "addProposal",
      "outputs": [],
      "stateMutability": "nonpayable",
      "type": "function"
    },
    {
      "inputs": [
        {
          "internalType": "uint256",
          "name": "_groupId",
          "type": "uint256"
        }
      ],
      "name": "becomeDelegate",
      "outputs": [],
      "stateMutability": "nonpayable",
      "type": "function"
    },
    {
      "inputs": [],
      "name": "checkAllRights",
      "outputs": [
        {
          "internalType": "uint256[]",
          "name": "groups",
          "type": "uint256[]"
        }
      ],
      "stateMutability": "view",
      "type": "function"
    },
    {
      "inputs": [
        {
          "internalType": "uint256",
          "name": "_group",
          "type": "uint256"
        }
      ],
      "name": "checkRightsInGroup",
      "outputs": [
        {
          "internalType": "bool",
          "name": "hasRight",
          "type": "bool"
        }
      ],
      "stateMutability": "view",
      "type": "function"
    },
    {
      "inputs": [
        {
          "internalType": "string",
          "name": "_title",
          "type": "string"
        },
        {
          "internalType": "string",
          "name": "_tag",
          "type": "string"
        },
        {
          "internalType": "uint256",
          "name": "_group",
          "type": "uint256"
        },
        {
          "internalType": "uint256",
          "name": "_pollStartDate",
          "type": "uint256"
        },
        {
          "internalType": "uint256",
          "name": "_proposalEndDate",
          "type": "uint256"
        },
        {
          "internalType": "uint256",
          "name": "_votingStartDate",
          "type": "uint256"
        },
        {
          "internalType": "uint256",
          "name": "_delegateEndDate",
          "type": "uint256"
        },
        {
          "internalType": "uint256",
          "name": "_endDate",
          "type": "uint256"
        }
      ],
      "name": "createPoll",
      "outputs": [],
      "stateMutability": "nonpayable",
      "type": "function"
    },
    {
      "inputs": [
        {
          "internalType": "uint256",
          "name": "_proposalId",
          "type": "uint256"
        },
        {
          "internalType": "string",
          "name": "_description",
          "type": "string"
        },
        {
          "internalType": "uint256",
          "name": "_likelihood",
          "type": "uint256"
        },
        {
          "internalType": "uint256",
          "name": "_pollId",
          "type": "uint256"
        }
      ],
      "name": "createPrediction",
      "outputs": [],
      "stateMutability": "nonpayable",
      "type": "function"
    },
    {
      "inputs": [
        {
          "internalType": "uint256",
          "name": "_groupId",
          "type": "uint256"
        },
        {
          "internalType": "address",
          "name": "_delegateTo",
          "type": "address"
        }
      ],
      "name": "delegate",
      "outputs": [],
      "stateMutability": "nonpayable",
      "type": "function"
    },
    {
      "inputs": [
        {
          "internalType": "uint256",
          "name": "_proposalId",
          "type": "uint256"
        }
      ],
      "name": "getPredictions",
      "outputs": [
        {
          "components": [
            {
              "internalType": "uint256",
              "name": "predictionId",
              "type": "uint256"
            },
            {
              "internalType": "string",
              "name": "description",
              "type": "string"
            },
            {
              "internalType": "uint256",
              "name": "likelihood",
              "type": "uint256"
            },
            {
              "internalType": "uint256",
              "name": "yesBets",
              "type": "uint256"
            },
            {
              "internalType": "uint256",
              "name": "noBets",
              "type": "uint256"
            }
          ],
          "internalType": "struct Predictions.Prediction[]",
          "name": "",
          "type": "tuple[]"
        }
      ],
      "stateMutability": "view",
      "type": "function"
    },
    {
      "inputs": [
        {
          "internalType": "uint256",
          "name": "_pollId",
          "type": "uint256"
        }
      ],
      "name": "getProposals",
      "outputs": [
        {
          "components": [
            {
              "internalType": "string",
              "name": "description",
              "type": "string"
            },
            {
              "internalType": "uint256",
              "name": "voteCount",
              "type": "uint256"
            },
            {
              "internalType": "uint256",
              "name": "proposalId",
              "type": "uint256"
            },
            {
              "internalType": "uint256",
              "name": "predictionCount",
              "type": "uint256"
            }
          ],
          "internalType": "struct Polls.Proposal[]",
          "name": "",
          "type": "tuple[]"
        }
      ],
      "stateMutability": "view",
      "type": "function"
    },
    {
      "inputs": [
        {
          "internalType": "uint256",
          "name": "_group",
          "type": "uint256"
        }
      ],
      "name": "giveRightToVote",
      "outputs": [],
      "stateMutability": "payable",
      "type": "function"
    },
    {
      "inputs": [
        {
          "internalType": "uint256",
          "name": "",
          "type": "uint256"
        },
        {
          "internalType": "uint256",
          "name": "",
          "type": "uint256"
        }
      ],
      "name": "groupDelegates",
      "outputs": [
        {
          "internalType": "address",
          "name": "delegate",
          "type": "address"
        },
        {
          "internalType": "uint256",
          "name": "groupId",
          "type": "uint256"
        },
        {
          "internalType": "uint256",
          "name": "delegatedVotes",
          "type": "uint256"
        },
        {
          "internalType": "uint256",
          "name": "groupDelegateId",
          "type": "uint256"
        }
      ],
      "stateMutability": "view",
      "type": "function"
    },
    {
      "inputs": [
        {
          "internalType": "uint256",
          "name": "_groupId",
          "type": "uint256"
        }
      ],
      "name": "hasDelegatedInGroup",
      "outputs": [
        {
          "internalType": "bool",
          "name": "",
          "type": "bool"
        }
      ],
      "stateMutability": "view",
      "type": "function"
    },
    {
      "inputs": [
        {
          "internalType": "uint256",
          "name": "_groupId",
          "type": "uint256"
        },
        {
          "internalType": "address",
          "name": "_delegate",
          "type": "address"
        }
      ],
      "name": "hasDelegatedToDelegateInGroup",
      "outputs": [
        {
          "internalType": "bool",
          "name": "",
          "type": "bool"
        }
      ],
      "stateMutability": "view",
      "type": "function"
    },
    {
      "inputs": [
        {
          "internalType": "uint256",
          "name": "_proposalId",
          "type": "uint256"
        },
        {
          "internalType": "uint256",
          "name": "_yesBets",
          "type": "uint256"
        },
        {
          "internalType": "uint256",
          "name": "_noBets",
          "type": "uint256"
        },
        {
          "internalType": "uint256",
          "name": "_predictionId",
          "type": "uint256"
        }
      ],
      "name": "placePredictionBet",
      "outputs": [],
      "stateMutability": "nonpayable",
      "type": "function"
    },
    {
      "inputs": [],
      "name": "pollCount",
      "outputs": [
        {
          "internalType": "uint256",
          "name": "",
          "type": "uint256"
        }
      ],
      "stateMutability": "view",
      "type": "function"
    },
    {
      "inputs": [
        {
          "internalType": "uint256",
          "name": "",
          "type": "uint256"
        }
      ],
      "name": "polls",
      "outputs": [
        {
          "internalType": "string",
          "name": "title",
          "type": "string"
        },
        {
          "internalType": "string",
          "name": "tag",
          "type": "string"
        },
        {
          "internalType": "uint256",
          "name": "group",
          "type": "uint256"
        },
        {
          "internalType": "uint256",
          "name": "pollStartDate",
          "type": "uint256"
        },
        {
          "internalType": "uint256",
          "name": "proposalEndDate",
          "type": "uint256"
        },
        {
          "internalType": "uint256",
          "name": "votingStartDate",
          "type": "uint256"
        },
        {
          "internalType": "uint256",
          "name": "delegateEndDate",
          "type": "uint256"
        },
        {
          "internalType": "uint256",
          "name": "endDate",
          "type": "uint256"
        },
        {
          "internalType": "uint256",
          "name": "pollId",
          "type": "uint256"
        },
        {
          "internalType": "uint256",
          "name": "proposalCount",
          "type": "uint256"
        }
      ],
      "stateMutability": "view",
      "type": "function"
    },
    {
      "inputs": [
        {
          "internalType": "uint256",
          "name": "",
          "type": "uint256"
        },
        {
          "internalType": "uint256",
          "name": "",
          "type": "uint256"
        }
      ],
      "name": "predictions",
      "outputs": [
        {
          "internalType": "uint256",
          "name": "predictionId",
          "type": "uint256"
        },
        {
          "internalType": "string",
          "name": "description",
          "type": "string"
        },
        {
          "internalType": "uint256",
          "name": "likelihood",
          "type": "uint256"
        },
        {
          "internalType": "uint256",
          "name": "yesBets",
          "type": "uint256"
        },
        {
          "internalType": "uint256",
          "name": "noBets",
          "type": "uint256"
        }
      ],
      "stateMutability": "view",
      "type": "function"
    },
    {
      "inputs": [
        {
          "internalType": "uint256",
          "name": "",
          "type": "uint256"
        },
        {
          "internalType": "uint256",
          "name": "",
          "type": "uint256"
        }
      ],
      "name": "proposals",
      "outputs": [
        {
          "internalType": "string",
          "name": "description",
          "type": "string"
        },
        {
          "internalType": "uint256",
          "name": "voteCount",
          "type": "uint256"
        },
        {
          "internalType": "uint256",
          "name": "proposalId",
          "type": "uint256"
        },
        {
          "internalType": "uint256",
          "name": "predictionCount",
          "type": "uint256"
        }
      ],
      "stateMutability": "view",
      "type": "function"
    },
    {
      "inputs": [
        {
          "internalType": "address",
          "name": "_delegate",
          "type": "address"
        },
        {
          "internalType": "uint256",
          "name": "_groupId",
          "type": "uint256"
        }
      ],
      "name": "removeDelegation",
      "outputs": [],
      "stateMutability": "nonpayable",
      "type": "function"
    },
    {
      "inputs": [
        {
          "internalType": "uint256",
          "name": "_group",
          "type": "uint256"
        }
      ],
      "name": "removeRightToVote",
      "outputs": [],
      "stateMutability": "payable",
      "type": "function"
    },
    {
      "inputs": [
        {
          "internalType": "uint256",
          "name": "_pollId",
          "type": "uint256"
        },
        {
          "internalType": "uint256",
          "name": "_proposalId",
          "type": "uint256"
        }
      ],
      "name": "requireProposalToExist",
      "outputs": [
        {
          "internalType": "bool",
          "name": "",
          "type": "bool"
        }
      ],
      "stateMutability": "view",
      "type": "function"
    },
    {
      "inputs": [
        {
          "internalType": "uint256",
          "name": "_groupId",
          "type": "uint256"
        }
      ],
      "name": "resignAsDelegate",
      "outputs": [],
      "stateMutability": "nonpayable",
      "type": "function"
    },
    {
      "inputs": [
        {
          "internalType": "uint256",
          "name": "_pollId",
          "type": "uint256"
        },
        {
          "internalType": "uint256",
          "name": "_proposalId",
          "type": "uint256"
        },
        {
          "internalType": "bytes32",
          "name": "_hashedVote",
          "type": "bytes32"
        }
      ],
      "name": "vote",
      "outputs": [],
      "stateMutability": "nonpayable",
      "type": "function"
    }
  ],
  "bytecode": {
    "object": "0x608060408190526008805460ff191690556200001b906200006d565b604051809103906000f08015801562000038573d6000803e3d6000fd5b50600a80546001600160a01b0319166001600160a01b03929092169190911790553480156200006657600080fd5b506200007b565b61284980620032ad83390190565b613222806200008b6000396000f3fe6080604052600436106101405760003560e01c8063ac8ec2f9116100b6578063d278d5f41161006f578063d278d5f4146103f8578063d588748914610418578063d9e1299814610438578063de21967214610458578063f1813d5114610478578063fd6c914e146104a557600080fd5b8063ac8ec2f9146102db578063ae828f3c14610325578063b0333e0d14610347578063bc23bd5114610377578063c2cfee27146103a8578063c7934029146103d857600080fd5b8063395e013911610108578063395e01391461020e578063422ee52a1461022e5780638c881eeb146102415780639207891d14610261578063a00c1f7e14610285578063ac2f0074146102a557600080fd5b8063025ae4e2146101455780630457bea81461017f578063051097ef146101a157806308bbb824146101c15780632c72fdfc146101e1575b600080fd5b34801561015157600080fd5b5061016561016036600461289e565b6104c5565b604051610176959493929190612906565b60405180910390f35b34801561018b57600080fd5b5061019f61019a36600461293c565b6105a0565b005b3480156101ad57600080fd5b5061019f6101bc3660046129f8565b610861565b3480156101cd57600080fd5b5061019f6101dc366004612a5b565b610943565b3480156101ed57600080fd5b506102016101fc36600461293c565b610d1e565b6040516101769190612a87565b34801561021a57600080fd5b5061019f61022936600461293c565b610e3f565b61019f61023c36600461293c565b610f67565b34801561024d57600080fd5b5061019f61025c366004612b14565b6110f9565b34801561026d57600080fd5b5061027760055481565b604051908152602001610176565b34801561029157600080fd5b5061019f6102a0366004612b40565b6114e2565b3480156102b157600080fd5b506102c56102c036600461293c565b611620565b6040516101769a99989796959493929190612bd9565b3480156102e757600080fd5b506102fb6102f636600461289e565b61177c565b604080516001600160a01b0390951685526020850193909352918301526060820152608001610176565b34801561033157600080fd5b5061033a6117cc565b6040516101769190612c43565b34801561035357600080fd5b5061036761036236600461293c565b61182e565b6040519015158152602001610176565b61019f61038536600461293c565b336000908152602081815260408220600190810180549182018155835291200155565b3480156103b457600080fd5b506103c86103c336600461289e565b6118d1565b6040516101769493929190612c87565b3480156103e457600080fd5b5061019f6103f3366004612cb6565b6119a6565b34801561040457600080fd5b5061019f610413366004612ce8565b611c09565b34801561042457600080fd5b50610367610433366004612a5b565b611d8b565b34801561044457600080fd5b5061036761045336600461289e565b611eb7565b34801561046457600080fd5b5061036761047336600461293c565b611f26565b34801561048457600080fd5b5061049861049336600461293c565b611f95565b6040516101769190612d3f565b3480156104b157600080fd5b5061019f6104c0366004612dc8565b6120b6565b600960205281600052604060002081815481106104e157600080fd5b90600052602060002090600502016000915091505080600001549080600101805461050b90612df2565b80601f016020809104026020016040519081016040528092919081815260200182805461053790612df2565b80156105845780601f1061055957610100808354040283529160200191610584565b820191906000526020600020905b81548152906001019060200180831161056757829003601f168201915b5050505050908060020154908060030154908060040154905085565b6000818152600160205260408120546060915b818110156106f95760008481526001602052604090208054339190839081106105de576105de612e2c565b60009182526020909120600590910201546001600160a01b0316036106f157600084815260016020526040902080548290811061061d5761061d612e2c565b906000526020600020906005020160030180548060200260200160405190810160405280929190818152602001828054801561068257602002820191906000526020600020905b81546001600160a01b03168152600190910190602001808311610664575b505050505092506001600085815260200190815260200160002081815481106106ad576106ad612e2c565b60009182526020822060059091020180546001600160a01b03191681556001810182905560028101829055906106e66003830182612806565b600482016000905550505b6001016105b3565b5060005b8251811015610821576003600084838151811061071c5761071c612e2c565b60200260200101516001600160a01b03166001600160a01b0316815260200190815260200160002080549050915060005b8281101561081857846003600086858151811061076c5761076c612e2c565b60200260200101516001600160a01b03166001600160a01b0316815260200190815260200160002082815481106107a5576107a5612e2c565b90600052602060002001540361081057600360008584815181106107cb576107cb612e2c565b60200260200101516001600160a01b03166001600160a01b03168152602001908152602001600020818154811061080457610804612e2c565b60009182526020822001555b60010161074d565b506001016106fd565b5060408051338152602081018590527f4a49253305f0d63099f6b61a9d355ce9fd607a6b536918966a9b09cd46b4da8b91015b60405180910390a1505050565b61086a826123f5565b600082815260046020526040812060090180549161088783612e58565b90915550506000828152600460208181526040808420600901546006835281852082516080810184528781528085018790529283018290526060830186905280546001810182559086529290942081519193929092029091019081906108ed9082612ec2565b5060208201518160010155604082015181600201556060820151816003015550507fb5e5904b61959e54061d93444b308b28d00329073ebeec8b8e1d82370d2efd3a838284846040516108549493929190612f82565b61094d828261244f565b6109bb5760405162461bcd60e51b815260206004820152603460248201527f5468652061646472657373206973206e6f7420612064656c656761746520696e604482015273020746865207370656369666965642067726f75760641b60648201526084015b60405180910390fd5b6109c4826124c6565b610a2d5760405162461bcd60e51b815260206004820152603460248201527f596f752063616e206f6e6c792064656c656761746520696e2067726f757073206044820152733cb7ba9030b93290309036b2b6b132b91037b31760611b60648201526084016109b2565b610a368261182e565b15610a985760405162461bcd60e51b815260206004820152602c60248201527f596f75206861766520616e206163746976652064656c65676174696f6e20696e60448201526b103a3434b99033b937bab81760a11b60648201526084016109b2565b336001600160a01b03821603610af05760405162461bcd60e51b815260206004820181905260248201527f596f752063616e206e6f742064656c656761746520746f20796f757273656c6660448201526064016109b2565b33600090815260036020908152604080832080546001818101835591855283852001869055858452909152812054606090825b81811015610cd757600086815260016020526040902080546001600160a01b038716919083908110610b5757610b57612e2c565b60009182526020909120600590910201546001600160a01b031603610ccf576000868152600160205260409020805482908110610b9657610b96612e2c565b600091825260208220600260059092020101805491610bb483612e58565b90915550506000868152600160205260409020805482908110610bd957610bd9612e2c565b600091825260208083206003600590930201919091018054600181810183559184528284200180546001600160a01b03191633179055888352905260409020805482908110610c2a57610c2a612e2c565b9060005260206000209060050201600201549350600160008781526020019081526020016000208181548110610c6257610c62612e2c565b9060005260206000209060050201600301805480602002602001604051908101604052809291908181526020018280548015610cc757602002820191906000526020600020905b81546001600160a01b03168152600190910190602001808311610ca9575b505050505092505b600101610b23565b507f666c49d8439089d417a99690492068a6e44b8f5ee919a4e15f72d0185e6034403385878686604051610d0f959493929190612ff7565b60405180910390a15050505050565b6060610d29826123f5565b600082815260066020908152604080832080548251818502810185019093528083529193909284015b82821015610e345783829060005260206000209060040201604051806080016040529081600082018054610d8590612df2565b80601f0160208091040260200160405190810160405280929190818152602001828054610db190612df2565b8015610dfe5780601f10610dd357610100808354040283529160200191610dfe565b820191906000526020600020905b815481529060010190602001808311610de157829003601f168201915b50505050508152602001600182015481526020016002820154815260200160038201548152505081526020019060010190610d52565b505050509050919050565b6000818152600260205260408120805491610e5983612e58565b90915550506040805160a081018252338152602080820184815260008385018181528551828152808501875260608601908152878352600280865287842054608088015288845260018087529784208054808a01825590855293869020875160059095020180546001600160a01b0319166001600160a01b03909516949094178455935196830196909655519181019190915592518051929384939092610f07926003850192910190612824565b506080918201516004909101558151602083015160408085015160608601519486015191517fb5977a248b20510642da018e687e9ba90beb459651acf6b82b232aeab1aac86e95610f5b959493909161303c565b60405180910390a15050565b336000908152602081815260408083206001018054825181850281018501909352808352610fc993830182828015610fbe57602002820191906000526020600020905b815481526020019060010190808311610faa575b50505050508361252c565b3360009081526020819052604090206001015490915081106110225760405162461bcd60e51b81526020600482015260126024820152711a5b99195e081bdd5d081bd988189bdd5b9960721b60448201526064016109b2565b805b336000908152602081905260409020600190810154611043919061307b565b8110156110bd5733600090815260208190526040902060019081019061106a90839061308e565b8154811061107a5761107a612e2c565b60009182526020808320909101543383529082905260409091206001018054839081106110a9576110a9612e2c565b600091825260209091200155600101611024565b503360009081526020819052604090206001018054806110df576110df6130a1565b600190038181906000526020600020016000905590555050565b60008381526004602052604081206002015490611115856123f5565b61111e8561259d565b6111795760405162461bcd60e51b815260206004820152602660248201527f5468652075736572206973206e6f742061206d656d626572206f6620706f6c6c60448201526502067726f75760d41b60648201526084016109b2565b6111828561264a565b156111cf5760405162461bcd60e51b815260206004820152601a60248201527f566f74652068617320616c7265616479206265656e206361737400000000000060448201526064016109b2565b6000841180156111f057506000858152600460205260409020600901548411155b61123c5760405162461bcd60e51b815260206004820152601760248201527f50726f706f73616c20646f6573206e6f7420657869737400000000000000000060448201526064016109b2565b611245826126fe565b156112ab5760405162461bcd60e51b815260206004820152603060248201527f596f7520686176652064656c65676174656420796f757220766f746520696e2060448201526f3a3432903837b636399033b937bab81760811b60648201526084016109b2565b6000858152600660205260408120905b6000848152600160205260409020548110156113505760008481526001602052604090208054339190839081106112f4576112f4612e2c565b60009182526020909120600590910201546001600160a01b03160361134857600084815260016020526040902080548290811061133357611333612e2c565b90600052602060002090600502016002015492505b6001016112bb565b5080546000805b8281101561147e578784828154811061137257611372612e2c565b906000526020600020906004020160020154036114765761139485600161308e565b8482815481106113a6576113a6612e2c565b906000526020600020906004020160010160008282546113c6919061308e565b925050819055508381815481106113df576113df612e2c565b6000918252602080832060016004909302018201548c84526007825260408085208054948501815585529190932090910180546001600160a01b031916339081179091559051919350908a907f17136284dc4f3c70a7b8fb485be479ba00d7a14578bc2abec6817acb9ae11e8490611463908b908790918252602082015260400190565b60405180910390a3505050505050505050565b600101611357565b5060405162461bcd60e51b815260206004820152603260248201527f5468657265206973206e6f20737563682070726f706f73616c20666f7220746860448201527119481cdc1958da599a5959081c1bdb1b125960721b60648201526084016109b2565b600580549060006114f283612e58565b919050555060006040518061014001604052808a815260200189815260200188815260200187815260200186815260200185815260200184815260200183815260200160055481526020016000815250905080600460006005548152602001908152602001600020600082015181600001908161156f9190612ec2565b50602082015160018201906115849082612ec2565b5060408201518160020155606082015181600301556080820151816004015560a0820151816005015560c0820151816006015560e08201518160070155610100820151816008015561012082015181600901559050507f65d5ac2bf1bca69566bef1affdfca5bb37b9577fc0b3af4c7c4638225e67b39c6005548a60405161160d9291906130b7565b60405180910390a1505050505050505050565b60046020526000908152604090208054819061163b90612df2565b80601f016020809104026020016040519081016040528092919081815260200182805461166790612df2565b80156116b45780601f10611689576101008083540402835291602001916116b4565b820191906000526020600020905b81548152906001019060200180831161169757829003601f168201915b5050505050908060010180546116c990612df2565b80601f01602080910402602001604051908101604052809291908181526020018280546116f590612df2565b80156117425780601f1061171757610100808354040283529160200191611742565b820191906000526020600020905b81548152906001019060200180831161172557829003601f168201915b505050505090806002015490806003015490806004015490806005015490806006015490806007015490806008015490806009015490508a565b6001602052816000526040600020818154811061179857600080fd5b600091825260209091206005909102018054600182015460028301546004909301546001600160a01b039092169450925084565b336000908152602081815260409182902060010180548351818402810184019094528084526060939283018282801561182457602002820191906000526020600020905b815481526020019060010190808311611810575b5050505050905090565b3360009081526003602090815260408083208054825181850281018501909352808352849383018282801561188257602002820191906000526020600020905b81548152602001906001019080831161186e575b5050505050905060005b81518110156118c757838282815181106118a8576118a8612e2c565b6020026020010151036118bf575060019392505050565b60010161188c565b5060009392505050565b600660205281600052604060002081815481106118ed57600080fd5b90600052602060002090600402016000915091505080600001805461191190612df2565b80601f016020809104026020016040519081016040528092919081815260200182805461193d90612df2565b801561198a5780601f1061195f5761010080835404028352916020019161198a565b820191906000526020600020905b81548152906001019060200180831161196d57829003601f168201915b5050505050908060010154908060020154908060030154905084565b60085460ff16156119f25760405162461bcd60e51b8152602060048201526016602482015275141c99591a58dd1a5bdb881a5cc8199a5b9a5cda195960521b60448201526064016109b2565b6119fc8482612797565b611a485760405162461bcd60e51b815260206004820152601960248201527f50726564696374696f6e20646f6573206e6f742065786973740000000000000060448201526064016109b2565b6001831180611a575750600182115b15611a965760405162461bcd60e51b815260206004820152600f60248201526e496e707574206d757374206265203160881b60448201526064016109b2565b82158015611aa2575081155b15611ae25760405162461bcd60e51b815260206004820152601060248201526f141b19585cd9481c1b1858d94818995d60821b60448201526064016109b2565b826001148015611af25750816001145b15611b365760405162461bcd60e51b8152602060048201526014602482015273506c656173652062657420796573206f72206e6f60601b60448201526064016109b2565b826001148015611b44575081155b15611b9f5760008481526009602052604090208390611b6460018461307b565b81548110611b7457611b74612e2c565b90600052602060002090600502016003016000828254611b94919061308e565b90915550611c039050565b82158015611bad5750816001145b15611c035760008481526009602052604090208290611bcd60018461307b565b81548110611bdd57611bdd612e2c565b90600052602060002090600502016004016000828254611bfd919061308e565b90915550505b50505050565b6000818152600660205260408120611c2260018761307b565b81548110611c3257611c32612e2c565b90600052602060002090600402019050806003016000815480929190611c5790612e58565b9091555050600381015460008381526006602052604090208290611c7c60018961307b565b81548110611c8c57611c8c612e2c565b6000918252602090912060049091020180611ca783826130d8565b50600182810154828201556002808401549083015560039283015492909101919091556000878152600960209081526040808320815160a0810183528681528084018b81529281018a9052606081018590526080810185905281548087018355918552929093208251600590940201928355519092820190611d299082612ec2565b5060408201518160020155606082015181600301556080820151816004015550507f6b1105203d8e6d2caf951e27056e8653fe207d2133f2a399b8c713723a528f468585604051611d7b9291906131b3565b60405180910390a1505050505050565b600082815260016020526040812054815b81811015611eaa57600085815260016020526040902080546001600160a01b038616919083908110611dd057611dd0612e2c565b60009182526020909120600590910201546001600160a01b031603611ea2576000858152600160205260409020805482908110611e0f57611e0f612e2c565b6000918252602082206003600590920201015492505b82811015611ea0576000868152600160205260409020805433919084908110611e5057611e50612e2c565b90600052602060002090600502016003018281548110611e7257611e72612e2c565b6000918252602090912001546001600160a01b031603611e985760019350505050611eb1565b600101611e25565b505b600101611d9c565b5060009150505b92915050565b6000805b60008481526006602052604090205481116118c7576000848152600660205260409020805484919083908110611ef357611ef3612e2c565b90600052602060002090600402016002015403611f14576001915050611eb1565b80611f1e81612e58565b915050611ebb565b6000805b33600090815260208190526040902060010154811015611f8c57336000908152602081905260409020600101805484919083908110611f6b57611f6b612e2c565b906000526020600020015403611f845750600192915050565b600101611f2a565b50600092915050565b606060096000838152602001908152602001600020805480602002602001604051908101604052809291908181526020016000905b82821015610e3457838290600052602060002090600502016040518060a00160405290816000820154815260200160018201805461200790612df2565b80601f016020809104026020016040519081016040528092919081815260200182805461203390612df2565b80156120805780601f1061205557610100808354040283529160200191612080565b820191906000526020600020905b81548152906001019060200180831161206357829003601f168201915b50505050508152602001600282015481526020016003820154815260200160048201548152505081526020019060010190611fca565b6120c08183611d8b565b6121325760405162461bcd60e51b815260206004820152603e60248201527f596f752068617665206e6f742064656c65676174656420746f2074686520737060448201527f656369666965642064656c656761746520696e20746869732067726f7570000060648201526084016109b2565b600081815260016020526040812054815b8181101561231957600084815260016020526040902080546001600160a01b03871691908390811061217757612177612e2c565b60009182526020909120600590910201546001600160a01b0316036123115760008481526001602052604090208054829081106121b6576121b6612e2c565b6000918252602082206002600590920201018054916121d4836131d5565b909155505060008481526001602052604090208054829081106121f9576121f9612e2c565b906000526020600020906005020160020154925060005b600085815260016020526040902080548390811061223057612230612e2c565b90600052602060002090600502016003018054905081101561230f57600085815260016020526040902080543391908490811061226f5761226f612e2c565b9060005260206000209060050201600301828154811061229157612291612e2c565b6000918252602090912001546001600160a01b0316036123075760008581526001602052604090208054839081106122cb576122cb612e2c565b906000526020600020906005020160030181815481106122ed576122ed612e2c565b600091825260209091200180546001600160a01b03191690555b600101612210565b505b600101612143565b505033600090815260036020526040812054905b8181101561239e5733600090815260036020526040902080548591908390811061235957612359612e2c565b9060005260206000200154036123965733600090815260036020526040902080548290811061238a5761238a612e2c565b60009182526020822001555b60010161232d565b50604080516001600160a01b0386168152336020820152908101849052606081018390527ffe78e1dedca6af8797c8c45500588ea289add8b4b886f1d9b8d3824796274e369060800160405180910390a150505050565b60008111801561240757506005548111155b61244c5760405162461bcd60e51b8152602060048201526016602482015275141bdb1b08125108191bd95cc81b9bdd08195e1a5cdd60521b60448201526064016109b2565b50565b600082815260016020526040812054815b81811015611eaa57600085815260016020526040902080546001600160a01b03861691908390811061249457612494612e2c565b60009182526020909120600590910201546001600160a01b0316036124be57600192505050611eb1565b600101612460565b33600090815260208190526040812060010154815b818110156118c75733600090815260208190526040902060010180548591908390811061250a5761250a612e2c565b906000526020600020015403612524575060019392505050565b6001016124db565b6000805b8351811015612568578284828151811061254c5761254c612e2c565b602002602001015103612560579050611eb1565b600101612530565b5060405162461bcd60e51b8152602060048201526009602482015268139bdd08119bdd5b9960ba1b60448201526064016109b2565b33600090815260208181526040808320600101805482518185028101850190935280835284938301828280156125f257602002820191906000526020600020905b8154815260200190600101908083116125de575b5050505050905060005b81518110156118c757600084815260046020526040902060020154825183908390811061262b5761262b612e2c565b602002602001015103612642575060019392505050565b6001016125fc565b6000818152600760209081526040808320805482518185028101850190935280835284938301828280156126a757602002820191906000526020600020905b81546001600160a01b03168152600190910190602001808311612689575b5050505050905060005b81518110156118c757336001600160a01b03168282815181106126d6576126d6612e2c565b60200260200101516001600160a01b0316036126f6575060019392505050565b6001016126b1565b3360009081526003602090815260408083208054825181850281018501909352808352849383018282801561275257602002820191906000526020600020905b81548152602001906001019080831161273e575b5050505050905060005b81518110156118c7578382828151811061277857612778612e2c565b60200260200101510361278f575060019392505050565b60010161275c565b6000805b60008481526009602052604090205481116118c75760008481526009602052604090208054849190839081106127d3576127d3612e2c565b906000526020600020906005020160000154036127f4576001915050611eb1565b806127fe81612e58565b91505061279b565b508054600082559060005260206000209081019061244c9190612889565b828054828255906000526020600020908101928215612879579160200282015b8281111561287957825182546001600160a01b0319166001600160a01b03909116178255602090920191600190910190612844565b50612885929150612889565b5090565b5b80821115612885576000815560010161288a565b600080604083850312156128b157600080fd5b50508035926020909101359150565b6000815180845260005b818110156128e6576020818501810151868301820152016128ca565b506000602082860101526020601f19601f83011685010191505092915050565b85815260a06020820152600061291f60a08301876128c0565b604083019590955250606081019290925260809091015292915050565b60006020828403121561294e57600080fd5b5035919050565b634e487b7160e01b600052604160045260246000fd5b600082601f83011261297c57600080fd5b813567ffffffffffffffff8082111561299757612997612955565b604051601f8301601f19908116603f011681019082821181831017156129bf576129bf612955565b816040528381528660208588010111156129d857600080fd5b836020870160208301376000602085830101528094505050505092915050565b60008060408385031215612a0b57600080fd5b82359150602083013567ffffffffffffffff811115612a2957600080fd5b612a358582860161296b565b9150509250929050565b80356001600160a01b0381168114612a5657600080fd5b919050565b60008060408385031215612a6e57600080fd5b82359150612a7e60208401612a3f565b90509250929050565b600060208083018184528085518083526040925060408601915060408160051b87010184880160005b83811015612b0657603f19898403018552815160808151818652612ad6828701826128c0565b838b0151878c0152898401518a880152606093840151939096019290925250509386019390860190600101612ab0565b509098975050505050505050565b600080600060608486031215612b2957600080fd5b505081359360208301359350604090920135919050565b600080600080600080600080610100898b031215612b5d57600080fd5b883567ffffffffffffffff80821115612b7557600080fd5b612b818c838d0161296b565b995060208b0135915080821115612b9757600080fd5b50612ba48b828c0161296b565b989b989a505050506040870135966060810135966080820135965060a0820135955060c0820135945060e09091013592509050565b6000610140808352612bed8184018e6128c0565b90508281036020840152612c01818d6128c0565b604084019b909b5250506060810197909752608087019590955260a086019390935260c085019190915260e08401526101008301526101209091015292915050565b6020808252825182820181905260009190848201906040850190845b81811015612c7b57835183529284019291840191600101612c5f565b50909695505050505050565b608081526000612c9a60808301876128c0565b6020830195909552506040810192909252606090910152919050565b60008060008060808587031215612ccc57600080fd5b5050823594602084013594506040840135936060013592509050565b60008060008060808587031215612cfe57600080fd5b84359350602085013567ffffffffffffffff811115612d1c57600080fd5b612d288782880161296b565b949794965050505060408301359260600135919050565b600060208083018184528085518083526040925060408601915060408160051b87010184880160005b83811015612b0657603f19898403018552815160a08151855288820151818a870152612d96828701826128c0565b838a0151878b015260608085015190880152608093840151939096019290925250509386019390860190600101612d68565b60008060408385031215612ddb57600080fd5b612de483612a3f565b946020939093013593505050565b600181811c90821680612e0657607f821691505b602082108103612e2657634e487b7160e01b600052602260045260246000fd5b50919050565b634e487b7160e01b600052603260045260246000fd5b634e487b7160e01b600052601160045260246000fd5b600060018201612e6a57612e6a612e42565b5060010190565b601f821115612ebd576000816000526020600020601f850160051c81016020861015612e9a5750805b601f850160051c820191505b81811015612eb957828155600101612ea6565b5050505b505050565b815167ffffffffffffffff811115612edc57612edc612955565b612ef081612eea8454612df2565b84612e71565b602080601f831160018114612f255760008415612f0d5750858301515b600019600386901b1c1916600185901b178555612eb9565b600085815260208120601f198616915b82811015612f5457888601518255948401946001909101908401612f35565b5085821015612f725787850151600019600388901b60f8161c191681555b5050505050600190811b01905550565b848152836020820152608060408201526000612fa160808301856128c0565b905082606083015295945050505050565b60008151808452602080850194506020840160005b83811015612fec5781516001600160a01b031687529582019590820190600101612fc7565b509495945050505050565b6001600160a01b03868116825285166020820152604081018490526060810183905260a06080820181905260009061303190830184612fb2565b979650505050505050565b60018060a01b038616815284602082015283604082015260a06060820152600061306960a0830185612fb2565b90508260808301529695505050505050565b81810381811115611eb157611eb1612e42565b80820180821115611eb157611eb1612e42565b634e487b7160e01b600052603160045260246000fd5b8281526040602082015260006130d060408301846128c0565b949350505050565b8181036130e3575050565b6130ed8254612df2565b67ffffffffffffffff81111561310557613105612955565b61311381612eea8454612df2565b6000601f821160018114613147576000831561312f5750848201545b600019600385901b1c1916600184901b1784556131ac565b600085815260209020601f19841690600086815260209020845b838110156131815782860154825560019586019590910190602001613161565b508583101561319f5781850154600019600388901b60f8161c191681555b50505060018360011b0184555b5050505050565b6040815260006131c660408301856128c0565b90508260208301529392505050565b6000816131e4576131e4612e42565b50600019019056fea2646970667358221220edc3c923a61687f4b7c7265114224a62907561d4f10a7c2cd4539339de90d92a64736f6c63430008170033608060405234801561001057600080fd5b50612829806100206000396000f3fe6080604052600436106101095760003560e01c8063ac2f007411610095578063bc23bd5111610064578063bc23bd511461030f578063c2cfee2714610340578063d588748914610370578063de21967214610390578063fd6c914e146103b057600080fd5b8063ac2f00741461023d578063ac8ec2f914610273578063ae828f3c146102bd578063b0333e0d146102df57600080fd5b8063395e0139116100dc578063395e0139146101a6578063422ee52a146101c65780638c881eeb146101d95780639207891d146101f9578063a00c1f7e1461021d57600080fd5b80630457bea81461010e578063051097ef1461013057806308bbb824146101505780632c72fdfc14610170575b600080fd5b34801561011a57600080fd5b5061012e6101293660046120ea565b6103d0565b005b34801561013c57600080fd5b5061012e61014b3660046121a6565b610691565b34801561015c57600080fd5b5061012e61016b366004612209565b610773565b34801561017c57600080fd5b5061019061018b3660046120ea565b610b4e565b60405161019d919061227b565b60405180910390f35b3480156101b257600080fd5b5061012e6101c13660046120ea565b610c6f565b61012e6101d43660046120ea565b610d97565b3480156101e557600080fd5b5061012e6101f4366004612308565b610f29565b34801561020557600080fd5b5061020f60055481565b60405190815260200161019d565b34801561022957600080fd5b5061012e610238366004612334565b611312565b34801561024957600080fd5b5061025d6102583660046120ea565b611450565b60405161019d9a999897969594939291906123cd565b34801561027f57600080fd5b5061029361028e366004612437565b6115ac565b604080516001600160a01b039095168552602085019390935291830152606082015260800161019d565b3480156102c957600080fd5b506102d26115fc565b60405161019d9190612459565b3480156102eb57600080fd5b506102ff6102fa3660046120ea565b61165e565b604051901515815260200161019d565b61012e61031d3660046120ea565b336000908152602081815260408220600190810180549182018155835291200155565b34801561034c57600080fd5b5061036061035b366004612437565b611701565b60405161019d949392919061249d565b34801561037c57600080fd5b506102ff61038b366004612209565b6117d6565b34801561039c57600080fd5b506102ff6103ab3660046120ea565b611902565b3480156103bc57600080fd5b5061012e6103cb3660046124cc565b611971565b6000818152600160205260408120546060915b8181101561052957600084815260016020526040902080543391908390811061040e5761040e6124f6565b60009182526020909120600590910201546001600160a01b03160361052157600084815260016020526040902080548290811061044d5761044d6124f6565b90600052602060002090600502016003018054806020026020016040519081016040528092919081815260200182805480156104b257602002820191906000526020600020905b81546001600160a01b03168152600190910190602001808311610494575b505050505092506001600085815260200190815260200160002081815481106104dd576104dd6124f6565b60009182526020822060059091020180546001600160a01b03191681556001810182905560028101829055906105166003830182612052565b600482016000905550505b6001016103e3565b5060005b8251811015610651576003600084838151811061054c5761054c6124f6565b60200260200101516001600160a01b03166001600160a01b0316815260200190815260200160002080549050915060005b8281101561064857846003600086858151811061059c5761059c6124f6565b60200260200101516001600160a01b03166001600160a01b0316815260200190815260200160002082815481106105d5576105d56124f6565b90600052602060002001540361064057600360008584815181106105fb576105fb6124f6565b60200260200101516001600160a01b03166001600160a01b031681526020019081526020016000208181548110610634576106346124f6565b60009182526020822001555b60010161057d565b5060010161052d565b5060408051338152602081018590527f4a49253305f0d63099f6b61a9d355ce9fd607a6b536918966a9b09cd46b4da8b91015b60405180910390a1505050565b61069a82611cb0565b60008281526004602052604081206009018054916106b783612522565b909155505060008281526004602081815260408084206009015460068352818520825160808101845287815280850187905292830182905260608301869052805460018101825590865292909420815191939290920290910190819061071d90826125c6565b5060208201518160010155604082015181600201556060820151816003015550507fb5e5904b61959e54061d93444b308b28d00329073ebeec8b8e1d82370d2efd3a838284846040516106849493929190612686565b61077d8282611d0a565b6107eb5760405162461bcd60e51b815260206004820152603460248201527f5468652061646472657373206973206e6f7420612064656c656761746520696e604482015273020746865207370656369666965642067726f75760641b60648201526084015b60405180910390fd5b6107f482611d81565b61085d5760405162461bcd60e51b815260206004820152603460248201527f596f752063616e206f6e6c792064656c656761746520696e2067726f757073206044820152733cb7ba9030b93290309036b2b6b132b91037b31760611b60648201526084016107e2565b6108668261165e565b156108c85760405162461bcd60e51b815260206004820152602c60248201527f596f75206861766520616e206163746976652064656c65676174696f6e20696e60448201526b103a3434b99033b937bab81760a11b60648201526084016107e2565b336001600160a01b038216036109205760405162461bcd60e51b815260206004820181905260248201527f596f752063616e206e6f742064656c656761746520746f20796f757273656c6660448201526064016107e2565b33600090815260036020908152604080832080546001818101835591855283852001869055858452909152812054606090825b81811015610b0757600086815260016020526040902080546001600160a01b038716919083908110610987576109876124f6565b60009182526020909120600590910201546001600160a01b031603610aff5760008681526001602052604090208054829081106109c6576109c66124f6565b6000918252602082206002600590920201018054916109e483612522565b90915550506000868152600160205260409020805482908110610a0957610a096124f6565b600091825260208083206003600590930201919091018054600181810183559184528284200180546001600160a01b03191633179055888352905260409020805482908110610a5a57610a5a6124f6565b9060005260206000209060050201600201549350600160008781526020019081526020016000208181548110610a9257610a926124f6565b9060005260206000209060050201600301805480602002602001604051908101604052809291908181526020018280548015610af757602002820191906000526020600020905b81546001600160a01b03168152600190910190602001808311610ad9575b505050505092505b600101610953565b507f666c49d8439089d417a99690492068a6e44b8f5ee919a4e15f72d0185e6034403385878686604051610b3f9594939291906126fb565b60405180910390a15050505050565b6060610b5982611cb0565b600082815260066020908152604080832080548251818502810185019093528083529193909284015b82821015610c645783829060005260206000209060040201604051806080016040529081600082018054610bb59061253b565b80601f0160208091040260200160405190810160405280929190818152602001828054610be19061253b565b8015610c2e5780601f10610c0357610100808354040283529160200191610c2e565b820191906000526020600020905b815481529060010190602001808311610c1157829003601f168201915b50505050508152602001600182015481526020016002820154815260200160038201548152505081526020019060010190610b82565b505050509050919050565b6000818152600260205260408120805491610c8983612522565b90915550506040805160a081018252338152602080820184815260008385018181528551828152808501875260608601908152878352600280865287842054608088015288845260018087529784208054808a01825590855293869020875160059095020180546001600160a01b0319166001600160a01b03909516949094178455935196830196909655519181019190915592518051929384939092610d37926003850192910190612070565b506080918201516004909101558151602083015160408085015160608601519486015191517fb5977a248b20510642da018e687e9ba90beb459651acf6b82b232aeab1aac86e95610d8b9594939091612740565b60405180910390a15050565b336000908152602081815260408083206001018054825181850281018501909352808352610df993830182828015610dee57602002820191906000526020600020905b815481526020019060010190808311610dda575b505050505083611de7565b336000908152602081905260409020600101549091508110610e525760405162461bcd60e51b81526020600482015260126024820152711a5b99195e081bdd5d081bd988189bdd5b9960721b60448201526064016107e2565b805b336000908152602081905260409020600190810154610e73919061277f565b811015610eed57336000908152602081905260409020600190810190610e9a908390612792565b81548110610eaa57610eaa6124f6565b6000918252602080832090910154338352908290526040909120600101805483908110610ed957610ed96124f6565b600091825260209091200155600101610e54565b50336000908152602081905260409020600101805480610f0f57610f0f6127a5565b600190038181906000526020600020016000905590555050565b60008381526004602052604081206002015490610f4585611cb0565b610f4e85611e58565b610fa95760405162461bcd60e51b815260206004820152602660248201527f5468652075736572206973206e6f742061206d656d626572206f6620706f6c6c60448201526502067726f75760d41b60648201526084016107e2565b610fb285611f05565b15610fff5760405162461bcd60e51b815260206004820152601a60248201527f566f74652068617320616c7265616479206265656e206361737400000000000060448201526064016107e2565b60008411801561102057506000858152600460205260409020600901548411155b61106c5760405162461bcd60e51b815260206004820152601760248201527f50726f706f73616c20646f6573206e6f7420657869737400000000000000000060448201526064016107e2565b61107582611fb9565b156110db5760405162461bcd60e51b815260206004820152603060248201527f596f7520686176652064656c65676174656420796f757220766f746520696e2060448201526f3a3432903837b636399033b937bab81760811b60648201526084016107e2565b6000858152600660205260408120905b600084815260016020526040902054811015611180576000848152600160205260409020805433919083908110611124576111246124f6565b60009182526020909120600590910201546001600160a01b031603611178576000848152600160205260409020805482908110611163576111636124f6565b90600052602060002090600502016002015492505b6001016110eb565b5080546000805b828110156112ae57878482815481106111a2576111a26124f6565b906000526020600020906004020160020154036112a6576111c4856001612792565b8482815481106111d6576111d66124f6565b906000526020600020906004020160010160008282546111f69190612792565b9250508190555083818154811061120f5761120f6124f6565b6000918252602080832060016004909302018201548c84526007825260408085208054948501815585529190932090910180546001600160a01b031916339081179091559051919350908a907f17136284dc4f3c70a7b8fb485be479ba00d7a14578bc2abec6817acb9ae11e8490611293908b908790918252602082015260400190565b60405180910390a3505050505050505050565b600101611187565b5060405162461bcd60e51b815260206004820152603260248201527f5468657265206973206e6f20737563682070726f706f73616c20666f7220746860448201527119481cdc1958da599a5959081c1bdb1b125960721b60648201526084016107e2565b6005805490600061132283612522565b919050555060006040518061014001604052808a815260200189815260200188815260200187815260200186815260200185815260200184815260200183815260200160055481526020016000815250905080600460006005548152602001908152602001600020600082015181600001908161139f91906125c6565b50602082015160018201906113b490826125c6565b5060408201518160020155606082015181600301556080820151816004015560a0820151816005015560c0820151816006015560e08201518160070155610100820151816008015561012082015181600901559050507f65d5ac2bf1bca69566bef1affdfca5bb37b9577fc0b3af4c7c4638225e67b39c6005548a60405161143d9291906127bb565b60405180910390a1505050505050505050565b60046020526000908152604090208054819061146b9061253b565b80601f01602080910402602001604051908101604052809291908181526020018280546114979061253b565b80156114e45780601f106114b9576101008083540402835291602001916114e4565b820191906000526020600020905b8154815290600101906020018083116114c757829003601f168201915b5050505050908060010180546114f99061253b565b80601f01602080910402602001604051908101604052809291908181526020018280546115259061253b565b80156115725780601f1061154757610100808354040283529160200191611572565b820191906000526020600020905b81548152906001019060200180831161155557829003601f168201915b505050505090806002015490806003015490806004015490806005015490806006015490806007015490806008015490806009015490508a565b600160205281600052604060002081815481106115c857600080fd5b600091825260209091206005909102018054600182015460028301546004909301546001600160a01b039092169450925084565b336000908152602081815260409182902060010180548351818402810184019094528084526060939283018282801561165457602002820191906000526020600020905b815481526020019060010190808311611640575b5050505050905090565b336000908152600360209081526040808320805482518185028101850190935280835284938301828280156116b257602002820191906000526020600020905b81548152602001906001019080831161169e575b5050505050905060005b81518110156116f757838282815181106116d8576116d86124f6565b6020026020010151036116ef575060019392505050565b6001016116bc565b5060009392505050565b6006602052816000526040600020818154811061171d57600080fd5b9060005260206000209060040201600091509150508060000180546117419061253b565b80601f016020809104026020016040519081016040528092919081815260200182805461176d9061253b565b80156117ba5780601f1061178f576101008083540402835291602001916117ba565b820191906000526020600020905b81548152906001019060200180831161179d57829003601f168201915b5050505050908060010154908060020154908060030154905084565b600082815260016020526040812054815b818110156118f557600085815260016020526040902080546001600160a01b03861691908390811061181b5761181b6124f6565b60009182526020909120600590910201546001600160a01b0316036118ed57600085815260016020526040902080548290811061185a5761185a6124f6565b6000918252602082206003600590920201015492505b828110156118eb57600086815260016020526040902080543391908490811061189b5761189b6124f6565b906000526020600020906005020160030182815481106118bd576118bd6124f6565b6000918252602090912001546001600160a01b0316036118e357600193505050506118fc565b600101611870565b505b6001016117e7565b5060009150505b92915050565b6000805b3360009081526020819052604090206001015481101561196857336000908152602081905260409020600101805484919083908110611947576119476124f6565b9060005260206000200154036119605750600192915050565b600101611906565b50600092915050565b61197b81836117d6565b6119ed5760405162461bcd60e51b815260206004820152603e60248201527f596f752068617665206e6f742064656c65676174656420746f2074686520737060448201527f656369666965642064656c656761746520696e20746869732067726f7570000060648201526084016107e2565b600081815260016020526040812054815b81811015611bd457600084815260016020526040902080546001600160a01b038716919083908110611a3257611a326124f6565b60009182526020909120600590910201546001600160a01b031603611bcc576000848152600160205260409020805482908110611a7157611a716124f6565b600091825260208220600260059092020101805491611a8f836127dc565b90915550506000848152600160205260409020805482908110611ab457611ab46124f6565b906000526020600020906005020160020154925060005b6000858152600160205260409020805483908110611aeb57611aeb6124f6565b906000526020600020906005020160030180549050811015611bca576000858152600160205260409020805433919084908110611b2a57611b2a6124f6565b90600052602060002090600502016003018281548110611b4c57611b4c6124f6565b6000918252602090912001546001600160a01b031603611bc2576000858152600160205260409020805483908110611b8657611b866124f6565b90600052602060002090600502016003018181548110611ba857611ba86124f6565b600091825260209091200180546001600160a01b03191690555b600101611acb565b505b6001016119fe565b505033600090815260036020526040812054905b81811015611c5957336000908152600360205260409020805485919083908110611c1457611c146124f6565b906000526020600020015403611c5157336000908152600360205260409020805482908110611c4557611c456124f6565b60009182526020822001555b600101611be8565b50604080516001600160a01b0386168152336020820152908101849052606081018390527ffe78e1dedca6af8797c8c45500588ea289add8b4b886f1d9b8d3824796274e369060800160405180910390a150505050565b600081118015611cc257506005548111155b611d075760405162461bcd60e51b8152602060048201526016602482015275141bdb1b08125108191bd95cc81b9bdd08195e1a5cdd60521b60448201526064016107e2565b50565b600082815260016020526040812054815b818110156118f557600085815260016020526040902080546001600160a01b038616919083908110611d4f57611d4f6124f6565b60009182526020909120600590910201546001600160a01b031603611d79576001925050506118fc565b600101611d1b565b33600090815260208190526040812060010154815b818110156116f757336000908152602081905260409020600101805485919083908110611dc557611dc56124f6565b906000526020600020015403611ddf575060019392505050565b600101611d96565b6000805b8351811015611e235782848281518110611e0757611e076124f6565b602002602001015103611e1b5790506118fc565b600101611deb565b5060405162461bcd60e51b8152602060048201526009602482015268139bdd08119bdd5b9960ba1b60448201526064016107e2565b3360009081526020818152604080832060010180548251818502810185019093528083528493830182828015611ead57602002820191906000526020600020905b815481526020019060010190808311611e99575b5050505050905060005b81518110156116f7576000848152600460205260409020600201548251839083908110611ee657611ee66124f6565b602002602001015103611efd575060019392505050565b600101611eb7565b600081815260076020908152604080832080548251818502810185019093528083528493830182828015611f6257602002820191906000526020600020905b81546001600160a01b03168152600190910190602001808311611f44575b5050505050905060005b81518110156116f757336001600160a01b0316828281518110611f9157611f916124f6565b60200260200101516001600160a01b031603611fb1575060019392505050565b600101611f6c565b3360009081526003602090815260408083208054825181850281018501909352808352849383018282801561200d57602002820191906000526020600020905b815481526020019060010190808311611ff9575b5050505050905060005b81518110156116f75783828281518110612033576120336124f6565b60200260200101510361204a575060019392505050565b600101612017565b5080546000825590600052602060002090810190611d0791906120d5565b8280548282559060005260206000209081019282156120c5579160200282015b828111156120c557825182546001600160a01b0319166001600160a01b03909116178255602090920191600190910190612090565b506120d19291506120d5565b5090565b5b808211156120d157600081556001016120d6565b6000602082840312156120fc57600080fd5b5035919050565b634e487b7160e01b600052604160045260246000fd5b600082601f83011261212a57600080fd5b813567ffffffffffffffff8082111561214557612145612103565b604051601f8301601f19908116603f0116810190828211818310171561216d5761216d612103565b8160405283815286602085880101111561218657600080fd5b836020870160208301376000602085830101528094505050505092915050565b600080604083850312156121b957600080fd5b82359150602083013567ffffffffffffffff8111156121d757600080fd5b6121e385828601612119565b9150509250929050565b80356001600160a01b038116811461220457600080fd5b919050565b6000806040838503121561221c57600080fd5b8235915061222c602084016121ed565b90509250929050565b6000815180845260005b8181101561225b5760208185018101518683018201520161223f565b506000602082860101526020601f19601f83011685010191505092915050565b600060208083018184528085518083526040925060408601915060408160051b87010184880160005b838110156122fa57603f198984030185528151608081518186526122ca82870182612235565b838b0151878c0152898401518a8801526060938401519390960192909252505093860193908601906001016122a4565b509098975050505050505050565b60008060006060848603121561231d57600080fd5b505081359360208301359350604090920135919050565b600080600080600080600080610100898b03121561235157600080fd5b883567ffffffffffffffff8082111561236957600080fd5b6123758c838d01612119565b995060208b013591508082111561238b57600080fd5b506123988b828c01612119565b989b989a505050506040870135966060810135966080820135965060a0820135955060c0820135945060e09091013592509050565b60006101408083526123e18184018e612235565b905082810360208401526123f5818d612235565b604084019b909b5250506060810197909752608087019590955260a086019390935260c085019190915260e08401526101008301526101209091015292915050565b6000806040838503121561244a57600080fd5b50508035926020909101359150565b6020808252825182820181905260009190848201906040850190845b8181101561249157835183529284019291840191600101612475565b50909695505050505050565b6080815260006124b06080830187612235565b6020830195909552506040810192909252606090910152919050565b600080604083850312156124df57600080fd5b6124e8836121ed565b946020939093013593505050565b634e487b7160e01b600052603260045260246000fd5b634e487b7160e01b600052601160045260246000fd5b6000600182016125345761253461250c565b5060010190565b600181811c9082168061254f57607f821691505b60208210810361256f57634e487b7160e01b600052602260045260246000fd5b50919050565b601f8211156125c1576000816000526020600020601f850160051c8101602086101561259e5750805b601f850160051c820191505b818110156125bd578281556001016125aa565b5050505b505050565b815167ffffffffffffffff8111156125e0576125e0612103565b6125f4816125ee845461253b565b84612575565b602080601f83116001811461262957600084156126115750858301515b600019600386901b1c1916600185901b1785556125bd565b600085815260208120601f198616915b8281101561265857888601518255948401946001909101908401612639565b50858210156126765787850151600019600388901b60f8161c191681555b5050505050600190811b01905550565b8481528360208201526080604082015260006126a56080830185612235565b905082606083015295945050505050565b60008151808452602080850194506020840160005b838110156126f05781516001600160a01b0316875295820195908201906001016126cb565b509495945050505050565b6001600160a01b03868116825285166020820152604081018490526060810183905260a060808201819052600090612735908301846126b6565b979650505050505050565b60018060a01b038616815284602082015283604082015260a06060820152600061276d60a08301856126b6565b90508260808301529695505050505050565b818103818111156118fc576118fc61250c565b808201808211156118fc576118fc61250c565b634e487b7160e01b600052603160045260246000fd5b8281526040602082015260006127d46040830184612235565b949350505050565b6000816127eb576127eb61250c565b50600019019056fea264697066735822122068fc8ee034ce289865dceaef15f24f6cccbf98089f04ea19521a6489d3e721b464736f6c63430008170033",
    "linkReferences": {}
  },
  "methodIdentifiers": {
    "addProposal(uint256,string)": "051097ef",
    "becomeDelegate(uint256)": "395e0139",
    "checkAllRights()": "ae828f3c",
    "checkRightsInGroup(uint256)": "de219672",
    "createPoll(string,string,uint256,uint256,uint256,uint256,uint256,uint256)": "a00c1f7e",
    "createPrediction(uint256,string,uint256,uint256)": "d278d5f4",
    "delegate(uint256,address)": "08bbb824",
    "getPredictions(uint256)": "f1813d51",
    "getProposals(uint256)": "2c72fdfc",
    "giveRightToVote(uint256)": "bc23bd51",
    "groupDelegates(uint256,uint256)": "ac8ec2f9",
    "hasDelegatedInGroup(uint256)": "b0333e0d",
    "hasDelegatedToDelegateInGroup(uint256,address)": "d5887489",
    "placePredictionBet(uint256,uint256,uint256,uint256)": "c7934029",
    "pollCount()": "9207891d",
    "polls(uint256)": "ac2f0074",
    "predictions(uint256,uint256)": "025ae4e2",
    "proposals(uint256,uint256)": "c2cfee27",
    "removeDelegation(address,uint256)": "fd6c914e",
    "removeRightToVote(uint256)": "422ee52a",
    "requireProposalToExist(uint256,uint256)": "d9e12998",
    "resignAsDelegate(uint256)": "0457bea8",
    "vote(uint256,uint256,bytes32)": "8c881eeb"
  },
  "id": 21
}