{
  "abi": [
    {
      "anonymous": false,
      "inputs": [
        {
          "indexed": false,
          "internalType": "address",
          "name": "delegate",
          "type": "address"
        },
        {
          "indexed": false,
          "internalType": "uint256",
          "name": "groupId",
          "type": "uint256"
        }
      ],
      "name": "DelegateResignation",
      "type": "event"
    },
    {
      "anonymous": false,
      "inputs": [
        {
          "indexed": false,
          "internalType": "address",
          "name": "from",
          "type": "address"
        },
        {
          "indexed": false,
          "internalType": "address",
          "name": "by",
          "type": "address"
        },
        {
          "indexed": false,
          "internalType": "uint256",
          "name": "groupId",
          "type": "uint256"
        },
        {
          "indexed": false,
          "internalType": "uint256",
          "name": "delegatedVotes",
          "type": "uint256"
        }
      ],
      "name": "DelegationRemoved",
      "type": "event"
    },
    {
      "anonymous": false,
      "inputs": [
        {
          "indexed": false,
          "internalType": "address",
          "name": "delegate",
          "type": "address"
        },
        {
          "indexed": false,
          "internalType": "uint256",
          "name": "groupId",
          "type": "uint256"
        },
        {
          "indexed": false,
          "internalType": "uint256",
          "name": "delegatedVotes",
          "type": "uint256"
        },
        {
          "indexed": false,
          "internalType": "address[]",
          "name": "delegationsFrom",
          "type": "address[]"
        },
        {
          "indexed": false,
          "internalType": "uint256",
          "name": "groupDelegateId",
          "type": "uint256"
        }
      ],
      "name": "NewDelegate",
      "type": "event"
    },
    {
      "anonymous": false,
      "inputs": [
        {
          "indexed": false,
          "internalType": "address",
          "name": "from",
          "type": "address"
        },
        {
          "indexed": false,
          "internalType": "address",
          "name": "to",
          "type": "address"
        },
        {
          "indexed": false,
          "internalType": "uint256",
          "name": "groupId",
          "type": "uint256"
        },
        {
          "indexed": false,
          "internalType": "uint256",
          "name": "delegatedVotes",
          "type": "uint256"
        },
        {
          "indexed": false,
          "internalType": "address[]",
          "name": "delegationsFrom",
          "type": "address[]"
        }
      ],
      "name": "NewDelegation",
      "type": "event"
    },
    {
      "anonymous": false,
      "inputs": [
        {
          "indexed": false,
          "internalType": "uint256",
          "name": "pollId",
          "type": "uint256"
        },
        {
          "indexed": false,
          "internalType": "string",
          "name": "title",
          "type": "string"
        }
      ],
      "name": "PollCreated",
      "type": "event"
    },
    {
      "anonymous": false,
      "inputs": [
        {
          "indexed": false,
          "internalType": "string",
          "name": "description",
          "type": "string"
        },
        {
          "indexed": false,
          "internalType": "uint256",
          "name": "likelihood",
          "type": "uint256"
        }
      ],
      "name": "PredictionCreated",
      "type": "event"
    },
    {
      "anonymous": false,
      "inputs": [
        {
          "indexed": false,
          "internalType": "uint256",
          "name": "pollId",
          "type": "uint256"
        },
        {
          "indexed": false,
          "internalType": "uint256",
          "name": "proposalId",
          "type": "uint256"
        },
        {
          "indexed": false,
          "internalType": "string",
          "name": "description",
          "type": "string"
        },
        {
          "indexed": false,
          "internalType": "uint256",
          "name": "proposalCount",
          "type": "uint256"
        }
      ],
      "name": "ProposalAdded",
      "type": "event"
    },
    {
      "anonymous": false,
      "inputs": [
        {
          "indexed": true,
          "internalType": "uint256",
          "name": "pollId",
          "type": "uint256"
        },
        {
          "indexed": true,
          "internalType": "address",
          "name": "voter",
          "type": "address"
        },
        {
          "indexed": false,
          "internalType": "bytes32",
          "name": "hashedVote",
          "type": "bytes32"
        },
        {
          "indexed": false,
          "internalType": "uint256",
          "name": "votesForProposal",
          "type": "uint256"
        }
      ],
      "name": "VoteSubmitted",
      "type": "event"
    },
    {
      "inputs": [
        {
          "internalType": "uint256",
          "name": "_pollId",
          "type": "uint256"
        },
        {
          "internalType": "string",
          "name": "_description",
          "type": "string"
        }
      ],
      "name": "addProposal",
      "outputs": [],
      "stateMutability": "nonpayable",
      "type": "function"
    },
    {
      "inputs": [
        {
          "internalType": "uint256",
          "name": "_groupId",
          "type": "uint256"
        }
      ],
      "name": "becomeDelegate",
      "outputs": [],
      "stateMutability": "nonpayable",
      "type": "function"
    },
    {
      "inputs": [],
      "name": "checkAllRights",
      "outputs": [
        {
          "internalType": "uint256[]",
          "name": "groups",
          "type": "uint256[]"
        }
      ],
      "stateMutability": "view",
      "type": "function"
    },
    {
      "inputs": [
        {
          "internalType": "uint256",
          "name": "_group",
          "type": "uint256"
        }
      ],
      "name": "checkRightsInGroup",
      "outputs": [
        {
          "internalType": "bool",
          "name": "hasRight",
          "type": "bool"
        }
      ],
      "stateMutability": "view",
      "type": "function"
    },
    {
      "inputs": [
        {
          "internalType": "string",
          "name": "_title",
          "type": "string"
        },
        {
          "internalType": "string",
          "name": "_tag",
          "type": "string"
        },
        {
          "internalType": "uint256",
          "name": "_group",
          "type": "uint256"
        },
        {
          "internalType": "uint256",
          "name": "_pollStartDate",
          "type": "uint256"
        },
        {
          "internalType": "uint256",
          "name": "_proposalEndDate",
          "type": "uint256"
        },
        {
          "internalType": "uint256",
          "name": "_votingStartDate",
          "type": "uint256"
        },
        {
          "internalType": "uint256",
          "name": "_delegateEndDate",
          "type": "uint256"
        },
        {
          "internalType": "uint256",
          "name": "_endDate",
          "type": "uint256"
        }
      ],
      "name": "createPoll",
      "outputs": [],
      "stateMutability": "nonpayable",
      "type": "function"
    },
    {
      "inputs": [
        {
          "internalType": "uint256",
          "name": "_proposalId",
          "type": "uint256"
        },
        {
          "internalType": "string",
          "name": "_description",
          "type": "string"
        },
        {
          "internalType": "uint256",
          "name": "_likelihood",
          "type": "uint256"
        },
        {
          "internalType": "uint256",
          "name": "_pollId",
          "type": "uint256"
        }
      ],
      "name": "createPrediction",
      "outputs": [],
      "stateMutability": "nonpayable",
      "type": "function"
    },
    {
      "inputs": [
        {
          "internalType": "uint256",
          "name": "_groupId",
          "type": "uint256"
        },
        {
          "internalType": "address",
          "name": "_delegateTo",
          "type": "address"
        }
      ],
      "name": "delegate",
      "outputs": [],
      "stateMutability": "nonpayable",
      "type": "function"
    },
    {
      "inputs": [
        {
          "internalType": "uint256",
          "name": "_proposalId",
          "type": "uint256"
        }
      ],
      "name": "getPredictions",
      "outputs": [
        {
          "components": [
            {
              "internalType": "uint256",
              "name": "predictionId",
              "type": "uint256"
            },
            {
              "internalType": "string",
              "name": "description",
              "type": "string"
            },
            {
              "internalType": "uint256",
              "name": "likelihood",
              "type": "uint256"
            },
            {
              "internalType": "uint256",
              "name": "yesBets",
              "type": "uint256"
            },
            {
              "internalType": "uint256",
              "name": "noBets",
              "type": "uint256"
            }
          ],
          "internalType": "struct Predictions.Prediction[]",
          "name": "",
          "type": "tuple[]"
        }
      ],
      "stateMutability": "view",
      "type": "function"
    },
    {
      "inputs": [
        {
          "internalType": "uint256",
          "name": "_pollId",
          "type": "uint256"
        }
      ],
      "name": "getProposals",
      "outputs": [
        {
          "components": [
            {
              "internalType": "string",
              "name": "description",
              "type": "string"
            },
            {
              "internalType": "uint256",
              "name": "voteCount",
              "type": "uint256"
            },
            {
              "internalType": "uint256",
              "name": "proposalId",
              "type": "uint256"
            },
            {
              "internalType": "uint256",
              "name": "predictionCount",
              "type": "uint256"
            }
          ],
          "internalType": "struct Polls.Proposal[]",
          "name": "",
          "type": "tuple[]"
        }
      ],
      "stateMutability": "view",
      "type": "function"
    },
    {
      "inputs": [
        {
          "internalType": "uint256",
          "name": "_group",
          "type": "uint256"
        }
      ],
      "name": "giveRightToVote",
      "outputs": [],
      "stateMutability": "payable",
      "type": "function"
    },
    {
      "inputs": [
        {
          "internalType": "uint256",
          "name": "",
          "type": "uint256"
        },
        {
          "internalType": "uint256",
          "name": "",
          "type": "uint256"
        }
      ],
      "name": "groupDelegates",
      "outputs": [
        {
          "internalType": "address",
          "name": "delegate",
          "type": "address"
        },
        {
          "internalType": "uint256",
          "name": "groupId",
          "type": "uint256"
        },
        {
          "internalType": "uint256",
          "name": "delegatedVotes",
          "type": "uint256"
        },
        {
          "internalType": "uint256",
          "name": "groupDelegateId",
          "type": "uint256"
        }
      ],
      "stateMutability": "view",
      "type": "function"
    },
    {
      "inputs": [
        {
          "internalType": "uint256",
          "name": "_groupId",
          "type": "uint256"
        }
      ],
      "name": "hasDelegatedInGroup",
      "outputs": [
        {
          "internalType": "bool",
          "name": "",
          "type": "bool"
        }
      ],
      "stateMutability": "view",
      "type": "function"
    },
    {
      "inputs": [
        {
          "internalType": "uint256",
          "name": "_groupId",
          "type": "uint256"
        },
        {
          "internalType": "address",
          "name": "_delegate",
          "type": "address"
        }
      ],
      "name": "hasDelegatedToDelegateInGroup",
      "outputs": [
        {
          "internalType": "bool",
          "name": "",
          "type": "bool"
        }
      ],
      "stateMutability": "view",
      "type": "function"
    },
    {
      "inputs": [
        {
          "internalType": "uint256",
          "name": "_proposalId",
          "type": "uint256"
        },
        {
          "internalType": "uint256",
          "name": "_yesBets",
          "type": "uint256"
        },
        {
          "internalType": "uint256",
          "name": "_noBets",
          "type": "uint256"
        },
        {
          "internalType": "uint256",
          "name": "_predictionId",
          "type": "uint256"
        }
      ],
      "name": "placePredictionBet",
      "outputs": [],
      "stateMutability": "nonpayable",
      "type": "function"
    },
    {
      "inputs": [],
      "name": "pollCount",
      "outputs": [
        {
          "internalType": "uint256",
          "name": "",
          "type": "uint256"
        }
      ],
      "stateMutability": "view",
      "type": "function"
    },
    {
      "inputs": [
        {
          "internalType": "uint256",
          "name": "",
          "type": "uint256"
        }
      ],
      "name": "polls",
      "outputs": [
        {
          "internalType": "string",
          "name": "title",
          "type": "string"
        },
        {
          "internalType": "string",
          "name": "tag",
          "type": "string"
        },
        {
          "internalType": "uint256",
          "name": "group",
          "type": "uint256"
        },
        {
          "internalType": "uint256",
          "name": "pollStartDate",
          "type": "uint256"
        },
        {
          "internalType": "uint256",
          "name": "proposalEndDate",
          "type": "uint256"
        },
        {
          "internalType": "uint256",
          "name": "votingStartDate",
          "type": "uint256"
        },
        {
          "internalType": "uint256",
          "name": "delegateEndDate",
          "type": "uint256"
        },
        {
          "internalType": "uint256",
          "name": "endDate",
          "type": "uint256"
        },
        {
          "internalType": "uint256",
          "name": "pollId",
          "type": "uint256"
        },
        {
          "internalType": "uint256",
          "name": "proposalCount",
          "type": "uint256"
        }
      ],
      "stateMutability": "view",
      "type": "function"
    },
    {
      "inputs": [
        {
          "internalType": "uint256",
          "name": "",
          "type": "uint256"
        },
        {
          "internalType": "uint256",
          "name": "",
          "type": "uint256"
        }
      ],
      "name": "predictions",
      "outputs": [
        {
          "internalType": "uint256",
          "name": "predictionId",
          "type": "uint256"
        },
        {
          "internalType": "string",
          "name": "description",
          "type": "string"
        },
        {
          "internalType": "uint256",
          "name": "likelihood",
          "type": "uint256"
        },
        {
          "internalType": "uint256",
          "name": "yesBets",
          "type": "uint256"
        },
        {
          "internalType": "uint256",
          "name": "noBets",
          "type": "uint256"
        }
      ],
      "stateMutability": "view",
      "type": "function"
    },
    {
      "inputs": [
        {
          "internalType": "uint256",
          "name": "",
          "type": "uint256"
        },
        {
          "internalType": "uint256",
          "name": "",
          "type": "uint256"
        }
      ],
      "name": "proposals",
      "outputs": [
        {
          "internalType": "string",
          "name": "description",
          "type": "string"
        },
        {
          "internalType": "uint256",
          "name": "voteCount",
          "type": "uint256"
        },
        {
          "internalType": "uint256",
          "name": "proposalId",
          "type": "uint256"
        },
        {
          "internalType": "uint256",
          "name": "predictionCount",
          "type": "uint256"
        }
      ],
      "stateMutability": "view",
      "type": "function"
    },
    {
      "inputs": [
        {
          "internalType": "address",
          "name": "_delegate",
          "type": "address"
        },
        {
          "internalType": "uint256",
          "name": "_groupId",
          "type": "uint256"
        }
      ],
      "name": "removeDelegation",
      "outputs": [],
      "stateMutability": "nonpayable",
      "type": "function"
    },
    {
      "inputs": [
        {
          "internalType": "uint256",
          "name": "_group",
          "type": "uint256"
        }
      ],
      "name": "removeRightToVote",
      "outputs": [],
      "stateMutability": "payable",
      "type": "function"
    },
    {
      "inputs": [
        {
          "internalType": "uint256",
          "name": "_pollId",
          "type": "uint256"
        },
        {
          "internalType": "uint256",
          "name": "_proposalId",
          "type": "uint256"
        }
      ],
      "name": "requireProposalToExist",
      "outputs": [
        {
          "internalType": "bool",
          "name": "",
          "type": "bool"
        }
      ],
      "stateMutability": "view",
      "type": "function"
    },
    {
      "inputs": [
        {
          "internalType": "uint256",
          "name": "_groupId",
          "type": "uint256"
        }
      ],
      "name": "resignAsDelegate",
      "outputs": [],
      "stateMutability": "nonpayable",
      "type": "function"
    },
    {
      "inputs": [
        {
          "internalType": "uint256",
          "name": "_pollId",
          "type": "uint256"
        },
        {
          "internalType": "uint256",
          "name": "_proposalId",
          "type": "uint256"
        },
        {
          "internalType": "bytes32",
          "name": "_hashedVote",
          "type": "bytes32"
        }
      ],
      "name": "vote",
      "outputs": [],
      "stateMutability": "nonpayable",
      "type": "function"
    }
  ],
  "bytecode": {
    "object": "0x608060408190526008805460ff191690556200001b906200006d565b604051809103906000f08015801562000038573d6000803e3d6000fd5b50600a80546001600160a01b0319166001600160a01b03929092169190911790553480156200006657600080fd5b506200007b565b61283e80620032b283390190565b613227806200008b6000396000f3fe6080604052600436106101405760003560e01c8063ac8ec2f9116100b6578063d278d5f41161006f578063d278d5f4146103f8578063d588748914610418578063d9e1299814610438578063de21967214610458578063f1813d5114610478578063fd6c914e146104a557600080fd5b8063ac8ec2f9146102db578063ae828f3c14610325578063b0333e0d14610347578063bc23bd5114610377578063c2cfee27146103a8578063c7934029146103d857600080fd5b8063395e013911610108578063395e01391461020e578063422ee52a1461022e5780638c881eeb146102415780639207891d14610261578063a00c1f7e14610285578063ac2f0074146102a557600080fd5b8063025ae4e2146101455780630457bea81461017f578063051097ef146101a157806308bbb824146101c15780632c72fdfc146101e1575b600080fd5b34801561015157600080fd5b506101656101603660046128a3565b6104c5565b60405161017695949392919061290b565b60405180910390f35b34801561018b57600080fd5b5061019f61019a366004612941565b6105a0565b005b3480156101ad57600080fd5b5061019f6101bc3660046129fd565b61085d565b3480156101cd57600080fd5b5061019f6101dc366004612a60565b61094c565b3480156101ed57600080fd5b506102016101fc366004612941565b610d28565b6040516101769190612a8c565b34801561021a57600080fd5b5061019f610229366004612941565b610e49565b61019f61023c366004612941565b610f65565b34801561024d57600080fd5b5061019f61025c366004612b19565b6110f7565b34801561026d57600080fd5b5061027760055481565b604051908152602001610176565b34801561029157600080fd5b5061019f6102a0366004612b45565b6114e0565b3480156102b157600080fd5b506102c56102c0366004612941565b61161e565b6040516101769a99989796959493929190612bde565b3480156102e757600080fd5b506102fb6102f63660046128a3565b61177a565b604080516001600160a01b0390951685526020850193909352918301526060820152608001610176565b34801561033157600080fd5b5061033a6117ca565b6040516101769190612c48565b34801561035357600080fd5b50610367610362366004612941565b61182c565b6040519015158152602001610176565b61019f610385366004612941565b336000908152602081815260408220600190810180549182018155835291200155565b3480156103b457600080fd5b506103c86103c33660046128a3565b6118cf565b6040516101769493929190612c8c565b3480156103e457600080fd5b5061019f6103f3366004612cbb565b6119a4565b34801561040457600080fd5b5061019f610413366004612ced565b611c07565b34801561042457600080fd5b50610367610433366004612a60565b611d99565b34801561044457600080fd5b506103676104533660046128a3565b611ec5565b34801561046457600080fd5b50610367610473366004612941565b611f34565b34801561048457600080fd5b50610498610493366004612941565b611fa3565b6040516101769190612d44565b3480156104b157600080fd5b5061019f6104c0366004612dcd565b6120c4565b600960205281600052604060002081815481106104e157600080fd5b90600052602060002090600502016000915091505080600001549080600101805461050b90612df7565b80601f016020809104026020016040519081016040528092919081815260200182805461053790612df7565b80156105845780601f1061055957610100808354040283529160200191610584565b820191906000526020600020905b81548152906001019060200180831161056757829003601f168201915b5050505050908060020154908060030154908060040154905085565b606060005b6000838152600160205260409020548110156106f95760008381526001602052604090208054339190839081106105de576105de612e31565b60009182526020909120600590910201546001600160a01b0316036106f157600083815260016020526040902080548290811061061d5761061d612e31565b906000526020600020906005020160030180548060200260200160405190810160405280929190818152602001828054801561068257602002820191906000526020600020905b81546001600160a01b03168152600190910190602001808311610664575b505050505091506001600084815260200190815260200160002081815481106106ad576106ad612e31565b60009182526020822060059091020180546001600160a01b03191681556001810182905560028101829055906106e6600383018261280b565b600482016000905550505b6001016105a5565b5060005b815181101561081e5760005b6003600084848151811061071f5761071f612e31565b60200260200101516001600160a01b03166001600160a01b031681526020019081526020016000208054905081101561081557836003600085858151811061076957610769612e31565b60200260200101516001600160a01b03166001600160a01b0316815260200190815260200160002082815481106107a2576107a2612e31565b90600052602060002001540361080d57600360008484815181106107c8576107c8612e31565b60200260200101516001600160a01b03166001600160a01b03168152602001908152602001600020818154811061080157610801612e31565b60009182526020822001555b600101610709565b506001016106fd565b5060408051338152602081018490527f4a49253305f0d63099f6b61a9d355ce9fd607a6b536918966a9b09cd46b4da8b91015b60405180910390a15050565b610866826123fa565b600082815260046020526040812060090180549161088383612e5d565b90915550506000828152600460208181526040808420600901546006835281852082516080810184528781528085018790529283018290526060830186905280546001810182559086529290942081519193929092029091019081906108e99082612ec7565b5060208201518160010155604082015181600201556060820151816003015550507fb5e5904b61959e54061d93444b308b28d00329073ebeec8b8e1d82370d2efd3a8382848460405161093f9493929190612f87565b60405180910390a1505050565b6109568282612454565b6109c45760405162461bcd60e51b815260206004820152603460248201527f5468652061646472657373206973206e6f7420612064656c656761746520696e604482015273020746865207370656369666965642067726f75760641b60648201526084015b60405180910390fd5b6109cd826124cb565b610a365760405162461bcd60e51b815260206004820152603460248201527f596f752063616e206f6e6c792064656c656761746520696e2067726f757073206044820152733cb7ba9030b93290309036b2b6b132b91037b31760611b60648201526084016109bb565b610a3f8261182c565b15610aa15760405162461bcd60e51b815260206004820152602c60248201527f596f75206861766520616e206163746976652064656c65676174696f6e20696e60448201526b103a3434b99033b937bab81760a11b60648201526084016109bb565b336001600160a01b03821603610af95760405162461bcd60e51b815260206004820181905260248201527f596f752063616e206e6f742064656c656761746520746f20796f757273656c6660448201526064016109bb565b33600090815260036020908152604082208054600181018255908352908220018390556060815b600085815260016020526040902054811015610ce257600085815260016020526040902080546001600160a01b038616919083908110610b6257610b62612e31565b60009182526020909120600590910201546001600160a01b031603610cda576000858152600160205260409020805482908110610ba157610ba1612e31565b600091825260208220600260059092020101805491610bbf83612e5d565b90915550506000858152600160205260409020805482908110610be457610be4612e31565b600091825260208083206003600590930201919091018054600181810183559184528284200180546001600160a01b03191633179055878352905260409020805482908110610c3557610c35612e31565b9060005260206000209060050201600201549250600160008681526020019081526020016000208181548110610c6d57610c6d612e31565b9060005260206000209060050201600301805480602002602001604051908101604052809291908181526020018280548015610cd257602002820191906000526020600020905b81546001600160a01b03168152600190910190602001808311610cb4575b505050505091505b600101610b20565b507f666c49d8439089d417a99690492068a6e44b8f5ee919a4e15f72d0185e6034403384868585604051610d1a959493929190612ffc565b60405180910390a150505050565b6060610d33826123fa565b600082815260066020908152604080832080548251818502810185019093528083529193909284015b82821015610e3e5783829060005260206000209060040201604051806080016040529081600082018054610d8f90612df7565b80601f0160208091040260200160405190810160405280929190818152602001828054610dbb90612df7565b8015610e085780601f10610ddd57610100808354040283529160200191610e08565b820191906000526020600020905b815481529060010190602001808311610deb57829003601f168201915b50505050508152602001600182015481526020016002820154815260200160038201548152505081526020019060010190610d5c565b505050509050919050565b6000818152600260205260408120805491610e6383612e5d565b90915550506040805160a081018252338152602080820184815260008385018181528551828152808501875260608601908152878352600280865287842054608088015288845260018087529784208054808a01825590855293869020875160059095020180546001600160a01b0319166001600160a01b03909516949094178455935196830196909655519181019190915592518051929384939092610f11926003850192910190612829565b506080918201516004909101558151602083015160408085015160608601519486015191517fb5977a248b20510642da018e687e9ba90beb459651acf6b82b232aeab1aac86e956108519594939091613041565b336000908152602081815260408083206001018054825181850281018501909352808352610fc793830182828015610fbc57602002820191906000526020600020905b815481526020019060010190808311610fa8575b505050505083612531565b3360009081526020819052604090206001015490915081106110205760405162461bcd60e51b81526020600482015260126024820152711a5b99195e081bdd5d081bd988189bdd5b9960721b60448201526064016109bb565b805b3360009081526020819052604090206001908101546110419190613080565b8110156110bb57336000908152602081905260409020600190810190611068908390613093565b8154811061107857611078612e31565b60009182526020808320909101543383529082905260409091206001018054839081106110a7576110a7612e31565b600091825260209091200155600101611022565b503360009081526020819052604090206001018054806110dd576110dd6130a6565b600190038181906000526020600020016000905590555050565b60008381526004602052604081206002015490611113856123fa565b61111c856125a2565b6111775760405162461bcd60e51b815260206004820152602660248201527f5468652075736572206973206e6f742061206d656d626572206f6620706f6c6c60448201526502067726f75760d41b60648201526084016109bb565b6111808561264f565b156111cd5760405162461bcd60e51b815260206004820152601a60248201527f566f74652068617320616c7265616479206265656e206361737400000000000060448201526064016109bb565b6000841180156111ee57506000858152600460205260409020600901548411155b61123a5760405162461bcd60e51b815260206004820152601760248201527f50726f706f73616c20646f6573206e6f7420657869737400000000000000000060448201526064016109bb565b61124382612703565b156112a95760405162461bcd60e51b815260206004820152603060248201527f596f7520686176652064656c65676174656420796f757220766f746520696e2060448201526f3a3432903837b636399033b937bab81760811b60648201526084016109bb565b6000858152600660205260408120905b60008481526001602052604090205481101561134e5760008481526001602052604090208054339190839081106112f2576112f2612e31565b60009182526020909120600590910201546001600160a01b03160361134657600084815260016020526040902080548290811061133157611331612e31565b90600052602060002090600502016002015492505b6001016112b9565b5080546000805b8281101561147c578784828154811061137057611370612e31565b9060005260206000209060040201600201540361147457611392856001613093565b8482815481106113a4576113a4612e31565b906000526020600020906004020160010160008282546113c49190613093565b925050819055508381815481106113dd576113dd612e31565b6000918252602080832060016004909302018201548c84526007825260408085208054948501815585529190932090910180546001600160a01b031916339081179091559051919350908a907f17136284dc4f3c70a7b8fb485be479ba00d7a14578bc2abec6817acb9ae11e8490611461908b908790918252602082015260400190565b60405180910390a3505050505050505050565b600101611355565b5060405162461bcd60e51b815260206004820152603260248201527f5468657265206973206e6f20737563682070726f706f73616c20666f7220746860448201527119481cdc1958da599a5959081c1bdb1b125960721b60648201526084016109bb565b600580549060006114f083612e5d565b919050555060006040518061014001604052808a815260200189815260200188815260200187815260200186815260200185815260200184815260200183815260200160055481526020016000815250905080600460006005548152602001908152602001600020600082015181600001908161156d9190612ec7565b50602082015160018201906115829082612ec7565b5060408201518160020155606082015181600301556080820151816004015560a0820151816005015560c0820151816006015560e08201518160070155610100820151816008015561012082015181600901559050507f65d5ac2bf1bca69566bef1affdfca5bb37b9577fc0b3af4c7c4638225e67b39c6005548a60405161160b9291906130bc565b60405180910390a1505050505050505050565b60046020526000908152604090208054819061163990612df7565b80601f016020809104026020016040519081016040528092919081815260200182805461166590612df7565b80156116b25780601f10611687576101008083540402835291602001916116b2565b820191906000526020600020905b81548152906001019060200180831161169557829003601f168201915b5050505050908060010180546116c790612df7565b80601f01602080910402602001604051908101604052809291908181526020018280546116f390612df7565b80156117405780601f1061171557610100808354040283529160200191611740565b820191906000526020600020905b81548152906001019060200180831161172357829003601f168201915b505050505090806002015490806003015490806004015490806005015490806006015490806007015490806008015490806009015490508a565b6001602052816000526040600020818154811061179657600080fd5b600091825260209091206005909102018054600182015460028301546004909301546001600160a01b039092169450925084565b336000908152602081815260409182902060010180548351818402810184019094528084526060939283018282801561182257602002820191906000526020600020905b81548152602001906001019080831161180e575b5050505050905090565b3360009081526003602090815260408083208054825181850281018501909352808352849383018282801561188057602002820191906000526020600020905b81548152602001906001019080831161186c575b5050505050905060005b81518110156118c557838282815181106118a6576118a6612e31565b6020026020010151036118bd575060019392505050565b60010161188a565b5060009392505050565b600660205281600052604060002081815481106118eb57600080fd5b90600052602060002090600402016000915091505080600001805461190f90612df7565b80601f016020809104026020016040519081016040528092919081815260200182805461193b90612df7565b80156119885780601f1061195d57610100808354040283529160200191611988565b820191906000526020600020905b81548152906001019060200180831161196b57829003601f168201915b5050505050908060010154908060020154908060030154905084565b60085460ff16156119f05760405162461bcd60e51b8152602060048201526016602482015275141c99591a58dd1a5bdb881a5cc8199a5b9a5cda195960521b60448201526064016109bb565b6119fa848261279c565b611a465760405162461bcd60e51b815260206004820152601960248201527f50726564696374696f6e20646f6573206e6f742065786973740000000000000060448201526064016109bb565b6001831180611a555750600182115b15611a945760405162461bcd60e51b815260206004820152600f60248201526e496e707574206d757374206265203160881b60448201526064016109bb565b82158015611aa0575081155b15611ae05760405162461bcd60e51b815260206004820152601060248201526f141b19585cd9481c1b1858d94818995d60821b60448201526064016109bb565b826001148015611af05750816001145b15611b345760405162461bcd60e51b8152602060048201526014602482015273506c656173652062657420796573206f72206e6f60601b60448201526064016109bb565b826001148015611b42575081155b15611b9d5760008481526009602052604090208390611b62600184613080565b81548110611b7257611b72612e31565b90600052602060002090600502016003016000828254611b929190613093565b90915550611c019050565b82158015611bab5750816001145b15611c015760008481526009602052604090208290611bcb600184613080565b81548110611bdb57611bdb612e31565b90600052602060002090600502016004016000828254611bfb9190613093565b90915550505b50505050565b6000818152600660205260408120611c20600187613080565b81548110611c3057611c30612e31565b90600052602060002090600402019050611c4a8286611ec5565b611c5357600080fd5b600381018054906000611c6583612e5d565b9091555050600381015460008381526006602052604090208290611c8a600189613080565b81548110611c9a57611c9a612e31565b6000918252602090912060049091020180611cb583826130dd565b50600182810154828201556002808401549083015560039283015492909101919091556000878152600960209081526040808320815160a0810183528681528084018b81529281018a9052606081018590526080810185905281548087018355918552929093208251600590940201928355519092820190611d379082612ec7565b5060408201518160020155606082015181600301556080820151816004015550507f6b1105203d8e6d2caf951e27056e8653fe207d2133f2a399b8c713723a528f468585604051611d899291906131b8565b60405180910390a1505050505050565b6000805b600084815260016020526040902054811015611eb957600084815260016020526040902080546001600160a01b038516919083908110611ddf57611ddf612e31565b60009182526020909120600590910201546001600160a01b031603611eb15760005b6000858152600160205260409020805483908110611e2157611e21612e31565b906000526020600020906005020160030180549050811015611eaf576000858152600160205260409020805433919084908110611e6057611e60612e31565b90600052602060002090600502016003018281548110611e8257611e82612e31565b6000918252602090912001546001600160a01b031603611ea757600192505050611ebf565b600101611e01565b505b600101611d9d565b50600090505b92915050565b6000805b6000848152600660205260409020548111611eb9576000848152600660205260409020805484919083908110611f0157611f01612e31565b90600052602060002090600402016002015403611f22576001915050611ebf565b80611f2c81612e5d565b915050611ec9565b6000805b33600090815260208190526040902060010154811015611f9a57336000908152602081905260409020600101805484919083908110611f7957611f79612e31565b906000526020600020015403611f925750600192915050565b600101611f38565b50600092915050565b606060096000838152602001908152602001600020805480602002602001604051908101604052809291908181526020016000905b82821015610e3e57838290600052602060002090600502016040518060a00160405290816000820154815260200160018201805461201590612df7565b80601f016020809104026020016040519081016040528092919081815260200182805461204190612df7565b801561208e5780601f106120635761010080835404028352916020019161208e565b820191906000526020600020905b81548152906001019060200180831161207157829003601f168201915b50505050508152602001600282015481526020016003820154815260200160048201548152505081526020019060010190611fd8565b6120ce8183611d99565b6121405760405162461bcd60e51b815260206004820152603e60248201527f596f752068617665206e6f742064656c65676174656420746f2074686520737060448201527f656369666965642064656c656761746520696e20746869732067726f7570000060648201526084016109bb565b6000805b60008381526001602052604090205481101561232857600083815260016020526040902080546001600160a01b03861691908390811061218657612186612e31565b60009182526020909120600590910201546001600160a01b0316036123205760008381526001602052604090208054829081106121c5576121c5612e31565b6000918252602082206002600590920201018054916121e3836131da565b9091555050600083815260016020526040902080548290811061220857612208612e31565b906000526020600020906005020160020154915060005b600084815260016020526040902080548390811061223f5761223f612e31565b90600052602060002090600502016003018054905081101561231e57600084815260016020526040902080543391908490811061227e5761227e612e31565b906000526020600020906005020160030182815481106122a0576122a0612e31565b6000918252602090912001546001600160a01b0316036123165760008481526001602052604090208054839081106122da576122da612e31565b906000526020600020906005020160030181815481106122fc576122fc612e31565b600091825260209091200180546001600160a01b03191690555b60010161221f565b505b600101612144565b5060005b336000908152600360205260409020548110156123ac5733600090815260036020526040902080548491908390811061236757612367612e31565b9060005260206000200154036123a45733600090815260036020526040902080548290811061239857612398612e31565b60009182526020822001555b60010161232c565b50604080516001600160a01b0385168152336020820152908101839052606081018290527ffe78e1dedca6af8797c8c45500588ea289add8b4b886f1d9b8d3824796274e369060800161093f565b60008111801561240c57506005548111155b6124515760405162461bcd60e51b8152602060048201526016602482015275141bdb1b08125108191bd95cc81b9bdd08195e1a5cdd60521b60448201526064016109bb565b50565b6000805b600084815260016020526040902054811015611eb957600084815260016020526040902080546001600160a01b03851691908390811061249a5761249a612e31565b60009182526020909120600590910201546001600160a01b0316036124c3576001915050611ebf565b600101612458565b6000805b33600090815260208190526040902060010154811015611f9a5733600090815260208190526040902060010180548491908390811061251057612510612e31565b9060005260206000200154036125295750600192915050565b6001016124cf565b6000805b835181101561256d578284828151811061255157612551612e31565b602002602001015103612565579050611ebf565b600101612535565b5060405162461bcd60e51b8152602060048201526009602482015268139bdd08119bdd5b9960ba1b60448201526064016109bb565b33600090815260208181526040808320600101805482518185028101850190935280835284938301828280156125f757602002820191906000526020600020905b8154815260200190600101908083116125e3575b5050505050905060005b81518110156118c557600084815260046020526040902060020154825183908390811061263057612630612e31565b602002602001015103612647575060019392505050565b600101612601565b6000818152600760209081526040808320805482518185028101850190935280835284938301828280156126ac57602002820191906000526020600020905b81546001600160a01b0316815260019091019060200180831161268e575b5050505050905060005b81518110156118c557336001600160a01b03168282815181106126db576126db612e31565b60200260200101516001600160a01b0316036126fb575060019392505050565b6001016126b6565b3360009081526003602090815260408083208054825181850281018501909352808352849383018282801561275757602002820191906000526020600020905b815481526020019060010190808311612743575b5050505050905060005b81518110156118c5578382828151811061277d5761277d612e31565b602002602001015103612794575060019392505050565b600101612761565b6000805b6000848152600960205260409020548111611eb95760008481526009602052604090208054849190839081106127d8576127d8612e31565b906000526020600020906005020160000154036127f9576001915050611ebf565b8061280381612e5d565b9150506127a0565b5080546000825590600052602060002090810190612451919061288e565b82805482825590600052602060002090810192821561287e579160200282015b8281111561287e57825182546001600160a01b0319166001600160a01b03909116178255602090920191600190910190612849565b5061288a92915061288e565b5090565b5b8082111561288a576000815560010161288f565b600080604083850312156128b657600080fd5b50508035926020909101359150565b6000815180845260005b818110156128eb576020818501810151868301820152016128cf565b506000602082860101526020601f19601f83011685010191505092915050565b85815260a06020820152600061292460a08301876128c5565b604083019590955250606081019290925260809091015292915050565b60006020828403121561295357600080fd5b5035919050565b634e487b7160e01b600052604160045260246000fd5b600082601f83011261298157600080fd5b813567ffffffffffffffff8082111561299c5761299c61295a565b604051601f8301601f19908116603f011681019082821181831017156129c4576129c461295a565b816040528381528660208588010111156129dd57600080fd5b836020870160208301376000602085830101528094505050505092915050565b60008060408385031215612a1057600080fd5b82359150602083013567ffffffffffffffff811115612a2e57600080fd5b612a3a85828601612970565b9150509250929050565b80356001600160a01b0381168114612a5b57600080fd5b919050565b60008060408385031215612a7357600080fd5b82359150612a8360208401612a44565b90509250929050565b600060208083018184528085518083526040925060408601915060408160051b87010184880160005b83811015612b0b57603f19898403018552815160808151818652612adb828701826128c5565b838b0151878c0152898401518a880152606093840151939096019290925250509386019390860190600101612ab5565b509098975050505050505050565b600080600060608486031215612b2e57600080fd5b505081359360208301359350604090920135919050565b600080600080600080600080610100898b031215612b6257600080fd5b883567ffffffffffffffff80821115612b7a57600080fd5b612b868c838d01612970565b995060208b0135915080821115612b9c57600080fd5b50612ba98b828c01612970565b989b989a505050506040870135966060810135966080820135965060a0820135955060c0820135945060e09091013592509050565b6000610140808352612bf28184018e6128c5565b90508281036020840152612c06818d6128c5565b604084019b909b5250506060810197909752608087019590955260a086019390935260c085019190915260e08401526101008301526101209091015292915050565b6020808252825182820181905260009190848201906040850190845b81811015612c8057835183529284019291840191600101612c64565b50909695505050505050565b608081526000612c9f60808301876128c5565b6020830195909552506040810192909252606090910152919050565b60008060008060808587031215612cd157600080fd5b5050823594602084013594506040840135936060013592509050565b60008060008060808587031215612d0357600080fd5b84359350602085013567ffffffffffffffff811115612d2157600080fd5b612d2d87828801612970565b949794965050505060408301359260600135919050565b600060208083018184528085518083526040925060408601915060408160051b87010184880160005b83811015612b0b57603f19898403018552815160a08151855288820151818a870152612d9b828701826128c5565b838a0151878b015260608085015190880152608093840151939096019290925250509386019390860190600101612d6d565b60008060408385031215612de057600080fd5b612de983612a44565b946020939093013593505050565b600181811c90821680612e0b57607f821691505b602082108103612e2b57634e487b7160e01b600052602260045260246000fd5b50919050565b634e487b7160e01b600052603260045260246000fd5b634e487b7160e01b600052601160045260246000fd5b600060018201612e6f57612e6f612e47565b5060010190565b601f821115612ec2576000816000526020600020601f850160051c81016020861015612e9f5750805b601f850160051c820191505b81811015612ebe57828155600101612eab565b5050505b505050565b815167ffffffffffffffff811115612ee157612ee161295a565b612ef581612eef8454612df7565b84612e76565b602080601f831160018114612f2a5760008415612f125750858301515b600019600386901b1c1916600185901b178555612ebe565b600085815260208120601f198616915b82811015612f5957888601518255948401946001909101908401612f3a565b5085821015612f775787850151600019600388901b60f8161c191681555b5050505050600190811b01905550565b848152836020820152608060408201526000612fa660808301856128c5565b905082606083015295945050505050565b60008151808452602080850194506020840160005b83811015612ff15781516001600160a01b031687529582019590820190600101612fcc565b509495945050505050565b6001600160a01b03868116825285166020820152604081018490526060810183905260a06080820181905260009061303690830184612fb7565b979650505050505050565b60018060a01b038616815284602082015283604082015260a06060820152600061306e60a0830185612fb7565b90508260808301529695505050505050565b81810381811115611ebf57611ebf612e47565b80820180821115611ebf57611ebf612e47565b634e487b7160e01b600052603160045260246000fd5b8281526040602082015260006130d560408301846128c5565b949350505050565b8181036130e8575050565b6130f28254612df7565b67ffffffffffffffff81111561310a5761310a61295a565b61311881612eef8454612df7565b6000601f82116001811461314c57600083156131345750848201545b600019600385901b1c1916600184901b1784556131b1565b600085815260209020601f19841690600086815260209020845b838110156131865782860154825560019586019590910190602001613166565b50858310156131a45781850154600019600388901b60f8161c191681555b50505060018360011b0184555b5050505050565b6040815260006131cb60408301856128c5565b90508260208301529392505050565b6000816131e9576131e9612e47565b50600019019056fea26469706673582212203bdbb599d0e32c2f74208b67fb8c890b47e5f25c5f85147d6c33e2fd0c80537064736f6c63430008170033608060405234801561001057600080fd5b5061281e806100206000396000f3fe6080604052600436106101095760003560e01c8063ac2f007411610095578063bc23bd5111610064578063bc23bd511461030f578063c2cfee2714610340578063d588748914610370578063de21967214610390578063fd6c914e146103b057600080fd5b8063ac2f00741461023d578063ac8ec2f914610273578063ae828f3c146102bd578063b0333e0d146102df57600080fd5b8063395e0139116100dc578063395e0139146101a6578063422ee52a146101c65780638c881eeb146101d95780639207891d146101f9578063a00c1f7e1461021d57600080fd5b80630457bea81461010e578063051097ef1461013057806308bbb824146101505780632c72fdfc14610170575b600080fd5b34801561011a57600080fd5b5061012e6101293660046120df565b6103d0565b005b34801561013c57600080fd5b5061012e61014b36600461219b565b61068d565b34801561015c57600080fd5b5061012e61016b3660046121fe565b61077c565b34801561017c57600080fd5b5061019061018b3660046120df565b610b58565b60405161019d9190612270565b60405180910390f35b3480156101b257600080fd5b5061012e6101c13660046120df565b610c79565b61012e6101d43660046120df565b610d95565b3480156101e557600080fd5b5061012e6101f43660046122fd565b610f27565b34801561020557600080fd5b5061020f60055481565b60405190815260200161019d565b34801561022957600080fd5b5061012e610238366004612329565b611310565b34801561024957600080fd5b5061025d6102583660046120df565b61144e565b60405161019d9a999897969594939291906123c2565b34801561027f57600080fd5b5061029361028e36600461242c565b6115aa565b604080516001600160a01b039095168552602085019390935291830152606082015260800161019d565b3480156102c957600080fd5b506102d26115fa565b60405161019d919061244e565b3480156102eb57600080fd5b506102ff6102fa3660046120df565b61165c565b604051901515815260200161019d565b61012e61031d3660046120df565b336000908152602081815260408220600190810180549182018155835291200155565b34801561034c57600080fd5b5061036061035b36600461242c565b6116ff565b60405161019d9493929190612492565b34801561037c57600080fd5b506102ff61038b3660046121fe565b6117d4565b34801561039c57600080fd5b506102ff6103ab3660046120df565b611900565b3480156103bc57600080fd5b5061012e6103cb3660046124c1565b61196f565b606060005b60008381526001602052604090205481101561052957600083815260016020526040902080543391908390811061040e5761040e6124eb565b60009182526020909120600590910201546001600160a01b03160361052157600083815260016020526040902080548290811061044d5761044d6124eb565b90600052602060002090600502016003018054806020026020016040519081016040528092919081815260200182805480156104b257602002820191906000526020600020905b81546001600160a01b03168152600190910190602001808311610494575b505050505091506001600084815260200190815260200160002081815481106104dd576104dd6124eb565b60009182526020822060059091020180546001600160a01b03191681556001810182905560028101829055906105166003830182612047565b600482016000905550505b6001016103d5565b5060005b815181101561064e5760005b6003600084848151811061054f5761054f6124eb565b60200260200101516001600160a01b03166001600160a01b0316815260200190815260200160002080549050811015610645578360036000858581518110610599576105996124eb565b60200260200101516001600160a01b03166001600160a01b0316815260200190815260200160002082815481106105d2576105d26124eb565b90600052602060002001540361063d57600360008484815181106105f8576105f86124eb565b60200260200101516001600160a01b03166001600160a01b031681526020019081526020016000208181548110610631576106316124eb565b60009182526020822001555b600101610539565b5060010161052d565b5060408051338152602081018490527f4a49253305f0d63099f6b61a9d355ce9fd607a6b536918966a9b09cd46b4da8b91015b60405180910390a15050565b61069682611ca5565b60008281526004602052604081206009018054916106b383612517565b909155505060008281526004602081815260408084206009015460068352818520825160808101845287815280850187905292830182905260608301869052805460018101825590865292909420815191939290920290910190819061071990826125bb565b5060208201518160010155604082015181600201556060820151816003015550507fb5e5904b61959e54061d93444b308b28d00329073ebeec8b8e1d82370d2efd3a8382848460405161076f949392919061267b565b60405180910390a1505050565b6107868282611cff565b6107f45760405162461bcd60e51b815260206004820152603460248201527f5468652061646472657373206973206e6f7420612064656c656761746520696e604482015273020746865207370656369666965642067726f75760641b60648201526084015b60405180910390fd5b6107fd82611d76565b6108665760405162461bcd60e51b815260206004820152603460248201527f596f752063616e206f6e6c792064656c656761746520696e2067726f757073206044820152733cb7ba9030b93290309036b2b6b132b91037b31760611b60648201526084016107eb565b61086f8261165c565b156108d15760405162461bcd60e51b815260206004820152602c60248201527f596f75206861766520616e206163746976652064656c65676174696f6e20696e60448201526b103a3434b99033b937bab81760a11b60648201526084016107eb565b336001600160a01b038216036109295760405162461bcd60e51b815260206004820181905260248201527f596f752063616e206e6f742064656c656761746520746f20796f757273656c6660448201526064016107eb565b33600090815260036020908152604082208054600181018255908352908220018390556060815b600085815260016020526040902054811015610b1257600085815260016020526040902080546001600160a01b038616919083908110610992576109926124eb565b60009182526020909120600590910201546001600160a01b031603610b0a5760008581526001602052604090208054829081106109d1576109d16124eb565b6000918252602082206002600590920201018054916109ef83612517565b90915550506000858152600160205260409020805482908110610a1457610a146124eb565b600091825260208083206003600590930201919091018054600181810183559184528284200180546001600160a01b03191633179055878352905260409020805482908110610a6557610a656124eb565b9060005260206000209060050201600201549250600160008681526020019081526020016000208181548110610a9d57610a9d6124eb565b9060005260206000209060050201600301805480602002602001604051908101604052809291908181526020018280548015610b0257602002820191906000526020600020905b81546001600160a01b03168152600190910190602001808311610ae4575b505050505091505b600101610950565b507f666c49d8439089d417a99690492068a6e44b8f5ee919a4e15f72d0185e6034403384868585604051610b4a9594939291906126f0565b60405180910390a150505050565b6060610b6382611ca5565b600082815260066020908152604080832080548251818502810185019093528083529193909284015b82821015610c6e5783829060005260206000209060040201604051806080016040529081600082018054610bbf90612530565b80601f0160208091040260200160405190810160405280929190818152602001828054610beb90612530565b8015610c385780601f10610c0d57610100808354040283529160200191610c38565b820191906000526020600020905b815481529060010190602001808311610c1b57829003601f168201915b50505050508152602001600182015481526020016002820154815260200160038201548152505081526020019060010190610b8c565b505050509050919050565b6000818152600260205260408120805491610c9383612517565b90915550506040805160a081018252338152602080820184815260008385018181528551828152808501875260608601908152878352600280865287842054608088015288845260018087529784208054808a01825590855293869020875160059095020180546001600160a01b0319166001600160a01b03909516949094178455935196830196909655519181019190915592518051929384939092610d41926003850192910190612065565b506080918201516004909101558151602083015160408085015160608601519486015191517fb5977a248b20510642da018e687e9ba90beb459651acf6b82b232aeab1aac86e956106819594939091612735565b336000908152602081815260408083206001018054825181850281018501909352808352610df793830182828015610dec57602002820191906000526020600020905b815481526020019060010190808311610dd8575b505050505083611ddc565b336000908152602081905260409020600101549091508110610e505760405162461bcd60e51b81526020600482015260126024820152711a5b99195e081bdd5d081bd988189bdd5b9960721b60448201526064016107eb565b805b336000908152602081905260409020600190810154610e719190612774565b811015610eeb57336000908152602081905260409020600190810190610e98908390612787565b81548110610ea857610ea86124eb565b6000918252602080832090910154338352908290526040909120600101805483908110610ed757610ed76124eb565b600091825260209091200155600101610e52565b50336000908152602081905260409020600101805480610f0d57610f0d61279a565b600190038181906000526020600020016000905590555050565b60008381526004602052604081206002015490610f4385611ca5565b610f4c85611e4d565b610fa75760405162461bcd60e51b815260206004820152602660248201527f5468652075736572206973206e6f742061206d656d626572206f6620706f6c6c60448201526502067726f75760d41b60648201526084016107eb565b610fb085611efa565b15610ffd5760405162461bcd60e51b815260206004820152601a60248201527f566f74652068617320616c7265616479206265656e206361737400000000000060448201526064016107eb565b60008411801561101e57506000858152600460205260409020600901548411155b61106a5760405162461bcd60e51b815260206004820152601760248201527f50726f706f73616c20646f6573206e6f7420657869737400000000000000000060448201526064016107eb565b61107382611fae565b156110d95760405162461bcd60e51b815260206004820152603060248201527f596f7520686176652064656c65676174656420796f757220766f746520696e2060448201526f3a3432903837b636399033b937bab81760811b60648201526084016107eb565b6000858152600660205260408120905b60008481526001602052604090205481101561117e576000848152600160205260409020805433919083908110611122576111226124eb565b60009182526020909120600590910201546001600160a01b031603611176576000848152600160205260409020805482908110611161576111616124eb565b90600052602060002090600502016002015492505b6001016110e9565b5080546000805b828110156112ac57878482815481106111a0576111a06124eb565b906000526020600020906004020160020154036112a4576111c2856001612787565b8482815481106111d4576111d46124eb565b906000526020600020906004020160010160008282546111f49190612787565b9250508190555083818154811061120d5761120d6124eb565b6000918252602080832060016004909302018201548c84526007825260408085208054948501815585529190932090910180546001600160a01b031916339081179091559051919350908a907f17136284dc4f3c70a7b8fb485be479ba00d7a14578bc2abec6817acb9ae11e8490611291908b908790918252602082015260400190565b60405180910390a3505050505050505050565b600101611185565b5060405162461bcd60e51b815260206004820152603260248201527f5468657265206973206e6f20737563682070726f706f73616c20666f7220746860448201527119481cdc1958da599a5959081c1bdb1b125960721b60648201526084016107eb565b6005805490600061132083612517565b919050555060006040518061014001604052808a815260200189815260200188815260200187815260200186815260200185815260200184815260200183815260200160055481526020016000815250905080600460006005548152602001908152602001600020600082015181600001908161139d91906125bb565b50602082015160018201906113b290826125bb565b5060408201518160020155606082015181600301556080820151816004015560a0820151816005015560c0820151816006015560e08201518160070155610100820151816008015561012082015181600901559050507f65d5ac2bf1bca69566bef1affdfca5bb37b9577fc0b3af4c7c4638225e67b39c6005548a60405161143b9291906127b0565b60405180910390a1505050505050505050565b60046020526000908152604090208054819061146990612530565b80601f016020809104026020016040519081016040528092919081815260200182805461149590612530565b80156114e25780601f106114b7576101008083540402835291602001916114e2565b820191906000526020600020905b8154815290600101906020018083116114c557829003601f168201915b5050505050908060010180546114f790612530565b80601f016020809104026020016040519081016040528092919081815260200182805461152390612530565b80156115705780601f1061154557610100808354040283529160200191611570565b820191906000526020600020905b81548152906001019060200180831161155357829003601f168201915b505050505090806002015490806003015490806004015490806005015490806006015490806007015490806008015490806009015490508a565b600160205281600052604060002081815481106115c657600080fd5b600091825260209091206005909102018054600182015460028301546004909301546001600160a01b039092169450925084565b336000908152602081815260409182902060010180548351818402810184019094528084526060939283018282801561165257602002820191906000526020600020905b81548152602001906001019080831161163e575b5050505050905090565b336000908152600360209081526040808320805482518185028101850190935280835284938301828280156116b057602002820191906000526020600020905b81548152602001906001019080831161169c575b5050505050905060005b81518110156116f557838282815181106116d6576116d66124eb565b6020026020010151036116ed575060019392505050565b6001016116ba565b5060009392505050565b6006602052816000526040600020818154811061171b57600080fd5b90600052602060002090600402016000915091505080600001805461173f90612530565b80601f016020809104026020016040519081016040528092919081815260200182805461176b90612530565b80156117b85780601f1061178d576101008083540402835291602001916117b8565b820191906000526020600020905b81548152906001019060200180831161179b57829003601f168201915b5050505050908060010154908060020154908060030154905084565b6000805b6000848152600160205260409020548110156118f457600084815260016020526040902080546001600160a01b03851691908390811061181a5761181a6124eb565b60009182526020909120600590910201546001600160a01b0316036118ec5760005b600085815260016020526040902080548390811061185c5761185c6124eb565b9060005260206000209060050201600301805490508110156118ea57600085815260016020526040902080543391908490811061189b5761189b6124eb565b906000526020600020906005020160030182815481106118bd576118bd6124eb565b6000918252602090912001546001600160a01b0316036118e2576001925050506118fa565b60010161183c565b505b6001016117d8565b50600090505b92915050565b6000805b3360009081526020819052604090206001015481101561196657336000908152602081905260409020600101805484919083908110611945576119456124eb565b90600052602060002001540361195e5750600192915050565b600101611904565b50600092915050565b61197981836117d4565b6119eb5760405162461bcd60e51b815260206004820152603e60248201527f596f752068617665206e6f742064656c65676174656420746f2074686520737060448201527f656369666965642064656c656761746520696e20746869732067726f7570000060648201526084016107eb565b6000805b600083815260016020526040902054811015611bd357600083815260016020526040902080546001600160a01b038616919083908110611a3157611a316124eb565b60009182526020909120600590910201546001600160a01b031603611bcb576000838152600160205260409020805482908110611a7057611a706124eb565b600091825260208220600260059092020101805491611a8e836127d1565b90915550506000838152600160205260409020805482908110611ab357611ab36124eb565b906000526020600020906005020160020154915060005b6000848152600160205260409020805483908110611aea57611aea6124eb565b906000526020600020906005020160030180549050811015611bc9576000848152600160205260409020805433919084908110611b2957611b296124eb565b90600052602060002090600502016003018281548110611b4b57611b4b6124eb565b6000918252602090912001546001600160a01b031603611bc1576000848152600160205260409020805483908110611b8557611b856124eb565b90600052602060002090600502016003018181548110611ba757611ba76124eb565b600091825260209091200180546001600160a01b03191690555b600101611aca565b505b6001016119ef565b5060005b33600090815260036020526040902054811015611c5757336000908152600360205260409020805484919083908110611c1257611c126124eb565b906000526020600020015403611c4f57336000908152600360205260409020805482908110611c4357611c436124eb565b60009182526020822001555b600101611bd7565b50604080516001600160a01b0385168152336020820152908101839052606081018290527ffe78e1dedca6af8797c8c45500588ea289add8b4b886f1d9b8d3824796274e369060800161076f565b600081118015611cb757506005548111155b611cfc5760405162461bcd60e51b8152602060048201526016602482015275141bdb1b08125108191bd95cc81b9bdd08195e1a5cdd60521b60448201526064016107eb565b50565b6000805b6000848152600160205260409020548110156118f457600084815260016020526040902080546001600160a01b038516919083908110611d4557611d456124eb565b60009182526020909120600590910201546001600160a01b031603611d6e5760019150506118fa565b600101611d03565b6000805b3360009081526020819052604090206001015481101561196657336000908152602081905260409020600101805484919083908110611dbb57611dbb6124eb565b906000526020600020015403611dd45750600192915050565b600101611d7a565b6000805b8351811015611e185782848281518110611dfc57611dfc6124eb565b602002602001015103611e105790506118fa565b600101611de0565b5060405162461bcd60e51b8152602060048201526009602482015268139bdd08119bdd5b9960ba1b60448201526064016107eb565b3360009081526020818152604080832060010180548251818502810185019093528083528493830182828015611ea257602002820191906000526020600020905b815481526020019060010190808311611e8e575b5050505050905060005b81518110156116f5576000848152600460205260409020600201548251839083908110611edb57611edb6124eb565b602002602001015103611ef2575060019392505050565b600101611eac565b600081815260076020908152604080832080548251818502810185019093528083528493830182828015611f5757602002820191906000526020600020905b81546001600160a01b03168152600190910190602001808311611f39575b5050505050905060005b81518110156116f557336001600160a01b0316828281518110611f8657611f866124eb565b60200260200101516001600160a01b031603611fa6575060019392505050565b600101611f61565b3360009081526003602090815260408083208054825181850281018501909352808352849383018282801561200257602002820191906000526020600020905b815481526020019060010190808311611fee575b5050505050905060005b81518110156116f55783828281518110612028576120286124eb565b60200260200101510361203f575060019392505050565b60010161200c565b5080546000825590600052602060002090810190611cfc91906120ca565b8280548282559060005260206000209081019282156120ba579160200282015b828111156120ba57825182546001600160a01b0319166001600160a01b03909116178255602090920191600190910190612085565b506120c69291506120ca565b5090565b5b808211156120c657600081556001016120cb565b6000602082840312156120f157600080fd5b5035919050565b634e487b7160e01b600052604160045260246000fd5b600082601f83011261211f57600080fd5b813567ffffffffffffffff8082111561213a5761213a6120f8565b604051601f8301601f19908116603f01168101908282118183101715612162576121626120f8565b8160405283815286602085880101111561217b57600080fd5b836020870160208301376000602085830101528094505050505092915050565b600080604083850312156121ae57600080fd5b82359150602083013567ffffffffffffffff8111156121cc57600080fd5b6121d88582860161210e565b9150509250929050565b80356001600160a01b03811681146121f957600080fd5b919050565b6000806040838503121561221157600080fd5b82359150612221602084016121e2565b90509250929050565b6000815180845260005b8181101561225057602081850181015186830182015201612234565b506000602082860101526020601f19601f83011685010191505092915050565b600060208083018184528085518083526040925060408601915060408160051b87010184880160005b838110156122ef57603f198984030185528151608081518186526122bf8287018261222a565b838b0151878c0152898401518a880152606093840151939096019290925250509386019390860190600101612299565b509098975050505050505050565b60008060006060848603121561231257600080fd5b505081359360208301359350604090920135919050565b600080600080600080600080610100898b03121561234657600080fd5b883567ffffffffffffffff8082111561235e57600080fd5b61236a8c838d0161210e565b995060208b013591508082111561238057600080fd5b5061238d8b828c0161210e565b989b989a505050506040870135966060810135966080820135965060a0820135955060c0820135945060e09091013592509050565b60006101408083526123d68184018e61222a565b905082810360208401526123ea818d61222a565b604084019b909b5250506060810197909752608087019590955260a086019390935260c085019190915260e08401526101008301526101209091015292915050565b6000806040838503121561243f57600080fd5b50508035926020909101359150565b6020808252825182820181905260009190848201906040850190845b818110156124865783518352928401929184019160010161246a565b50909695505050505050565b6080815260006124a5608083018761222a565b6020830195909552506040810192909252606090910152919050565b600080604083850312156124d457600080fd5b6124dd836121e2565b946020939093013593505050565b634e487b7160e01b600052603260045260246000fd5b634e487b7160e01b600052601160045260246000fd5b60006001820161252957612529612501565b5060010190565b600181811c9082168061254457607f821691505b60208210810361256457634e487b7160e01b600052602260045260246000fd5b50919050565b601f8211156125b6576000816000526020600020601f850160051c810160208610156125935750805b601f850160051c820191505b818110156125b25782815560010161259f565b5050505b505050565b815167ffffffffffffffff8111156125d5576125d56120f8565b6125e9816125e38454612530565b8461256a565b602080601f83116001811461261e57600084156126065750858301515b600019600386901b1c1916600185901b1785556125b2565b600085815260208120601f198616915b8281101561264d5788860151825594840194600190910190840161262e565b508582101561266b5787850151600019600388901b60f8161c191681555b5050505050600190811b01905550565b84815283602082015260806040820152600061269a608083018561222a565b905082606083015295945050505050565b60008151808452602080850194506020840160005b838110156126e55781516001600160a01b0316875295820195908201906001016126c0565b509495945050505050565b6001600160a01b03868116825285166020820152604081018490526060810183905260a06080820181905260009061272a908301846126ab565b979650505050505050565b60018060a01b038616815284602082015283604082015260a06060820152600061276260a08301856126ab565b90508260808301529695505050505050565b818103818111156118fa576118fa612501565b808201808211156118fa576118fa612501565b634e487b7160e01b600052603160045260246000fd5b8281526040602082015260006127c9604083018461222a565b949350505050565b6000816127e0576127e0612501565b50600019019056fea26469706673582212203f8ed1fbe6cce31fa79ce6b801cb21827fb2cafb7a00936f411c3ef8f85371ae64736f6c63430008170033",
    "linkReferences": {}
  },
  "methodIdentifiers": {
    "addProposal(uint256,string)": "051097ef",
    "becomeDelegate(uint256)": "395e0139",
    "checkAllRights()": "ae828f3c",
    "checkRightsInGroup(uint256)": "de219672",
    "createPoll(string,string,uint256,uint256,uint256,uint256,uint256,uint256)": "a00c1f7e",
    "createPrediction(uint256,string,uint256,uint256)": "d278d5f4",
    "delegate(uint256,address)": "08bbb824",
    "getPredictions(uint256)": "f1813d51",
    "getProposals(uint256)": "2c72fdfc",
    "giveRightToVote(uint256)": "bc23bd51",
    "groupDelegates(uint256,uint256)": "ac8ec2f9",
    "hasDelegatedInGroup(uint256)": "b0333e0d",
    "hasDelegatedToDelegateInGroup(uint256,address)": "d5887489",
    "placePredictionBet(uint256,uint256,uint256,uint256)": "c7934029",
    "pollCount()": "9207891d",
    "polls(uint256)": "ac2f0074",
    "predictions(uint256,uint256)": "025ae4e2",
    "proposals(uint256,uint256)": "c2cfee27",
    "removeDelegation(address,uint256)": "fd6c914e",
    "removeRightToVote(uint256)": "422ee52a",
    "requireProposalToExist(uint256,uint256)": "d9e12998",
    "resignAsDelegate(uint256)": "0457bea8",
    "vote(uint256,uint256,bytes32)": "8c881eeb"
  },
  "id": 24
}