{"abi":[{"type":"function","name":"addProposal","inputs":[{"name":"_pollId","type":"uint256","internalType":"uint256"},{"name":"_description","type":"string","internalType":"string"}],"outputs":[],"stateMutability":"nonpayable"},{"type":"function","name":"addressIsDelegate","inputs":[{"name":"_groupId","type":"uint256","internalType":"uint256"},{"name":"_potentialDelegate","type":"address","internalType":"address"}],"outputs":[{"name":"isDelegate","type":"bool","internalType":"bool"}],"stateMutability":"view"},{"type":"function","name":"becomeDelegate","inputs":[{"name":"_groupId","type":"uint256","internalType":"uint256"}],"outputs":[],"stateMutability":"nonpayable"},{"type":"function","name":"checkAllRights","inputs":[],"outputs":[{"name":"groups","type":"uint256[]","internalType":"uint256[]"}],"stateMutability":"view"},{"type":"function","name":"checkRightsInGroup","inputs":[{"name":"_group","type":"uint256","internalType":"uint256"}],"outputs":[{"name":"hasRight","type":"bool","internalType":"bool"}],"stateMutability":"view"},{"type":"function","name":"createPoll","inputs":[{"name":"_title","type":"string","internalType":"string"},{"name":"_tag","type":"string","internalType":"string"},{"name":"_group","type":"uint256","internalType":"uint256"},{"name":"_pollStartDate","type":"uint256","internalType":"uint256"},{"name":"_proposalEndDate","type":"uint256","internalType":"uint256"},{"name":"_votingStartDate","type":"uint256","internalType":"uint256"},{"name":"_delegateEndDate","type":"uint256","internalType":"uint256"},{"name":"_endDate","type":"uint256","internalType":"uint256"}],"outputs":[],"stateMutability":"nonpayable"},{"type":"function","name":"createPrediction","inputs":[{"name":"_pollId","type":"uint256","internalType":"uint256"},{"name":"_proposalId","type":"uint256","internalType":"uint256"},{"name":"_prediction","type":"string","internalType":"string"}],"outputs":[],"stateMutability":"nonpayable"},{"type":"function","name":"delegate","inputs":[{"name":"_groupId","type":"uint256","internalType":"uint256"},{"name":"_delegateTo","type":"address","internalType":"address"}],"outputs":[],"stateMutability":"nonpayable"},{"type":"function","name":"getPollResults","inputs":[{"name":"_pollId","type":"uint256","internalType":"uint256"}],"outputs":[{"name":"","type":"string[]","internalType":"string[]"},{"name":"","type":"uint256[]","internalType":"uint256[]"}],"stateMutability":"view"},{"type":"function","name":"getPredictions","inputs":[{"name":"_pollId","type":"uint256","internalType":"uint256"},{"name":"_proposalId","type":"uint256","internalType":"uint256"}],"outputs":[{"name":"","type":"tuple[]","internalType":"struct Predictions.Prediction[]","components":[{"name":"pollId","type":"uint256","internalType":"uint256"},{"name":"proposalId","type":"uint256","internalType":"uint256"},{"name":"predictionId","type":"uint256","internalType":"uint256"},{"name":"prediction","type":"string","internalType":"string"},{"name":"yesBets","type":"uint256","internalType":"uint256"},{"name":"noBets","type":"uint256","internalType":"uint256"},{"name":"phase","type":"uint8","internalType":"enum Polls.PollPhase"}]}],"stateMutability":"view"},{"type":"function","name":"getProposalCount","inputs":[{"name":"_pollId","type":"uint256","internalType":"uint256"}],"outputs":[{"name":"","type":"uint256","internalType":"uint256"}],"stateMutability":"view"},{"type":"function","name":"getProposals","inputs":[{"name":"_pollId","type":"uint256","internalType":"uint256"}],"outputs":[{"name":"","type":"tuple[]","internalType":"struct Polls.Proposal[]","components":[{"name":"description","type":"string","internalType":"string"},{"name":"voteCount","type":"uint256","internalType":"uint256"},{"name":"proposalId","type":"uint256","internalType":"uint256"},{"name":"predictionCount","type":"uint256","internalType":"uint256"},{"name":"phase","type":"uint8","internalType":"enum Polls.PollPhase"}]}],"stateMutability":"view"},{"type":"function","name":"giveRightToVote","inputs":[{"name":"_group","type":"uint256","internalType":"uint256"}],"outputs":[],"stateMutability":"payable"},{"type":"function","name":"groupDelegates","inputs":[{"name":"","type":"uint256","internalType":"uint256"},{"name":"","type":"uint256","internalType":"uint256"}],"outputs":[{"name":"delegate","type":"address","internalType":"address"},{"name":"groupId","type":"uint256","internalType":"uint256"},{"name":"delegatedVotes","type":"uint256","internalType":"uint256"},{"name":"groupDelegateId","type":"uint256","internalType":"uint256"}],"stateMutability":"view"},{"type":"function","name":"hasDelegatedInGroup","inputs":[{"name":"_groupId","type":"uint256","internalType":"uint256"}],"outputs":[{"name":"","type":"bool","internalType":"bool"}],"stateMutability":"view"},{"type":"function","name":"hasDelegatedToDelegateInGroup","inputs":[{"name":"_groupId","type":"uint256","internalType":"uint256"},{"name":"_delegate","type":"address","internalType":"address"}],"outputs":[{"name":"","type":"bool","internalType":"bool"}],"stateMutability":"view"},{"type":"function","name":"pollCount","inputs":[],"outputs":[{"name":"","type":"uint256","internalType":"uint256"}],"stateMutability":"view"},{"type":"function","name":"polls","inputs":[{"name":"","type":"uint256","internalType":"uint256"}],"outputs":[{"name":"title","type":"string","internalType":"string"},{"name":"tag","type":"string","internalType":"string"},{"name":"group","type":"uint256","internalType":"uint256"},{"name":"pollStartDate","type":"uint256","internalType":"uint256"},{"name":"proposalEndDate","type":"uint256","internalType":"uint256"},{"name":"votingStartDate","type":"uint256","internalType":"uint256"},{"name":"delegateEndDate","type":"uint256","internalType":"uint256"},{"name":"endDate","type":"uint256","internalType":"uint256"},{"name":"pollId","type":"uint256","internalType":"uint256"},{"name":"proposalCount","type":"uint256","internalType":"uint256"},{"name":"phase","type":"uint8","internalType":"enum Polls.PollPhase"}],"stateMutability":"view"},{"type":"function","name":"predictions","inputs":[{"name":"","type":"uint256","internalType":"uint256"},{"name":"","type":"uint256","internalType":"uint256"}],"outputs":[{"name":"pollId","type":"uint256","internalType":"uint256"},{"name":"proposalId","type":"uint256","internalType":"uint256"},{"name":"predictionId","type":"uint256","internalType":"uint256"},{"name":"prediction","type":"string","internalType":"string"},{"name":"yesBets","type":"uint256","internalType":"uint256"},{"name":"noBets","type":"uint256","internalType":"uint256"},{"name":"phase","type":"uint8","internalType":"enum Polls.PollPhase"}],"stateMutability":"view"},{"type":"function","name":"proposals","inputs":[{"name":"","type":"uint256","internalType":"uint256"},{"name":"","type":"uint256","internalType":"uint256"}],"outputs":[{"name":"description","type":"string","internalType":"string"},{"name":"voteCount","type":"uint256","internalType":"uint256"},{"name":"proposalId","type":"uint256","internalType":"uint256"},{"name":"predictionCount","type":"uint256","internalType":"uint256"},{"name":"phase","type":"uint8","internalType":"enum Polls.PollPhase"}],"stateMutability":"view"},{"type":"function","name":"removeDelegation","inputs":[{"name":"_delegate","type":"address","internalType":"address"},{"name":"_groupId","type":"uint256","internalType":"uint256"}],"outputs":[],"stateMutability":"nonpayable"},{"type":"function","name":"removeRightToVote","inputs":[{"name":"_group","type":"uint256","internalType":"uint256"}],"outputs":[],"stateMutability":"payable"},{"type":"function","name":"resignAsDelegate","inputs":[{"name":"_groupId","type":"uint256","internalType":"uint256"}],"outputs":[],"stateMutability":"nonpayable"},{"type":"function","name":"vote","inputs":[{"name":"_pollId","type":"uint256","internalType":"uint256"},{"name":"_proposalId","type":"uint256","internalType":"uint256"}],"outputs":[],"stateMutability":"nonpayable"},{"type":"event","name":"DelegateResignation","inputs":[{"name":"delegate","type":"address","indexed":true,"internalType":"address"},{"name":"groupId","type":"uint256","indexed":true,"internalType":"uint256"}],"anonymous":false},{"type":"event","name":"DelegationRemoved","inputs":[{"name":"from","type":"address","indexed":true,"internalType":"address"},{"name":"by","type":"address","indexed":true,"internalType":"address"},{"name":"groupId","type":"uint256","indexed":true,"internalType":"uint256"},{"name":"delegatedVotes","type":"uint256","indexed":false,"internalType":"uint256"}],"anonymous":false},{"type":"event","name":"NewDelegate","inputs":[{"name":"delegate","type":"address","indexed":true,"internalType":"address"},{"name":"groupId","type":"uint256","indexed":true,"internalType":"uint256"},{"name":"delegatedVotes","type":"uint256","indexed":false,"internalType":"uint256"},{"name":"delegationsFrom","type":"address[]","indexed":false,"internalType":"address[]"},{"name":"groupDelegateId","type":"uint256","indexed":false,"internalType":"uint256"}],"anonymous":false},{"type":"event","name":"NewDelegation","inputs":[{"name":"from","type":"address","indexed":true,"internalType":"address"},{"name":"to","type":"address","indexed":true,"internalType":"address"},{"name":"groupId","type":"uint256","indexed":true,"internalType":"uint256"},{"name":"delegatedVotes","type":"uint256","indexed":false,"internalType":"uint256"},{"name":"delegationsFrom","type":"address[]","indexed":false,"internalType":"address[]"}],"anonymous":false},{"type":"event","name":"PermissionGivenToVote","inputs":[{"name":"_group","type":"uint256","indexed":true,"internalType":"uint256"}],"anonymous":false},{"type":"event","name":"PermissionToVoteRemoved","inputs":[{"name":"_group","type":"uint256","indexed":true,"internalType":"uint256"}],"anonymous":false},{"type":"event","name":"PollCreated","inputs":[{"name":"pollId","type":"uint256","indexed":false,"internalType":"uint256"},{"name":"title","type":"string","indexed":false,"internalType":"string"}],"anonymous":false},{"type":"event","name":"PredictionCreated","inputs":[{"name":"predictionId","type":"uint256","indexed":false,"internalType":"uint256"},{"name":"prediction","type":"string","indexed":false,"internalType":"string"}],"anonymous":false},{"type":"event","name":"ProposalAdded","inputs":[{"name":"pollId","type":"uint256","indexed":true,"internalType":"uint256"},{"name":"proposalId","type":"uint256","indexed":false,"internalType":"uint256"},{"name":"description","type":"string","indexed":false,"internalType":"string"}],"anonymous":false},{"type":"event","name":"VoteSubmitted","inputs":[{"name":"pollId","type":"uint256","indexed":true,"internalType":"uint256"},{"name":"voter","type":"address","indexed":true,"internalType":"address"},{"name":"votesForProposal","type":"uint256","indexed":false,"internalType":"uint256"}],"anonymous":false}],"bytecode":{"object":"0x60806040526008805460ff1916905534801561001a57600080fd5b50613aa68061002a6000396000f3fe60806040526004361061014b5760003560e01c8063a00c1f7e116100b6578063bc23bd511161006f578063bc23bd5114610430578063c2cfee2714610443578063d588748914610474578063de21967214610494578063e424938c146104b4578063fd6c914e146104d457600080fd5b8063a00c1f7e1461032d578063ac2f00741461034d578063ac8ec2f914610384578063ae828f3c146103ce578063b0333e0d146103f0578063b384abef1461041057600080fd5b806333b4097b1161010857806333b4097b1461024b578063395e013914610279578063422ee52a146102995780634936c0f6146102ac5780639207891d146102ea5780639bec02b11461030057600080fd5b8063025ae4e2146101505780630457bea81461018c578063051097ef146101ae57806308bbb824146101ce57806321bcf082146101ee5780632c72fdfc1461021e575b600080fd5b34801561015c57600080fd5b5061017061016b366004613084565b6104f4565b6040516101839796959493929190613124565b60405180910390f35b34801561019857600080fd5b506101ac6101a7366004613170565b6105e0565b005b3480156101ba57600080fd5b506101ac6101c93660046131d2565b610901565b3480156101da57600080fd5b506101ac6101e936600461323a565b610adf565b3480156101fa57600080fd5b5061020e61020936600461323a565b610ec4565b6040519015158152602001610183565b34801561022a57600080fd5b5061023e610239366004613170565b610f48565b6040516101839190613266565b34801561025757600080fd5b5061026b610266366004613170565b61109c565b604051610183929190613345565b34801561028557600080fd5b506101ac610294366004613170565b61131f565b6101ac6102a7366004613170565b6114be565b3480156102b857600080fd5b506102dc6102c7366004613170565b60009081526004602052604090206009015490565b604051908152602001610183565b3480156102f657600080fd5b506102dc60055481565b34801561030c57600080fd5b5061032061031b366004613084565b6116e5565b60405161018391906133bc565b34801561033957600080fd5b506101ac610348366004613467565b611a00565b34801561035957600080fd5b5061036d610368366004613170565b611bdf565b6040516101839b9a99989796959493929190613508565b34801561039057600080fd5b506103a461039f366004613084565b611d49565b604080516001600160a01b0390951685526020850193909352918301526060820152608001610183565b3480156103da57600080fd5b506103e3611d99565b6040516101839190613583565b3480156103fc57600080fd5b5061020e61040b366004613170565b611dfb565b34801561041c57600080fd5b506101ac61042b366004613084565b611e9e565b6101ac61043e366004613170565b61227f565b34801561044f57600080fd5b5061046361045e366004613084565b612330565b60405161018395949392919061359d565b34801561048057600080fd5b5061020e61048f36600461323a565b61240f565b3480156104a057600080fd5b5061020e6104af366004613170565b61252e565b3480156104c057600080fd5b506101ac6104cf3660046135f1565b61259d565b3480156104e057600080fd5b506101ac6104ef3660046136b5565b61287b565b6009602052816000526040600020818154811061051057600080fd5b906000526020600020906007020160009150915050806000015490806001015490806002015490806003018054610546906136df565b80601f0160208091040260200160405190810160405280929190818152602001828054610572906136df565b80156105bf5780601f10610594576101008083540402835291602001916105bf565b820191906000526020600020905b8154815290600101906020018083116105a257829003601f168201915b50505050600483015460058401546006909401549293909290915060ff1687565b60606105ec8233610ec4565b61064f5760405162461bcd60e51b815260206004820152602960248201527f596f7520617265206e6f7420612064656c656761746520696e2072657175657360448201526807465642067726f75760bc1b60648201526084015b60405180910390fd5b600082815260016020526040812054905b818110156107a657600084815260016020526040902080543391908390811061068b5761068b613719565b60009182526020909120600590910201546001600160a01b03160361079e5760008481526001602052604090208054829081106106ca576106ca613719565b906000526020600020906005020160030180548060200260200160405190810160405280929190818152602001828054801561072f57602002820191906000526020600020905b81546001600160a01b03168152600190910190602001808311610711575b5050505050925060016000858152602001908152602001600020818154811061075a5761075a613719565b60009182526020822060059091020180546001600160a01b03191681556001810182905560028101829055906107936003830182612fec565b600482016000905550505b600101610660565b5060005b82518110156108ce57600360008483815181106107c9576107c9613719565b60200260200101516001600160a01b03166001600160a01b0316815260200190815260200160002080549050915060005b828110156108c557846003600086858151811061081957610819613719565b60200260200101516001600160a01b03166001600160a01b03168152602001908152602001600020828154811061085257610852613719565b9060005260206000200154036108bd576003600085848151811061087857610878613719565b60200260200101516001600160a01b03166001600160a01b0316815260200190815260200160002081815481106108b1576108b1613719565b60009182526020822001555b6001016107fa565b506001016107aa565b50604051839033907f4a49253305f0d63099f6b61a9d355ce9fd607a6b536918966a9b09cd46b4da8b90600090a3505050565b6000806000858152600460205260409020600a015460ff16600381111561092a5761092a6130ec565b149050806109865760405162461bcd60e51b8152602060048201526024808201527f596f752063616e206e6f7420706c6163652070726f706f73616c207269676874604482015263206e6f7760e01b6064820152608401610646565b61098f84612bb8565b60008481526004602052604081206009018054916109ac83613745565b90915550506000848152600460209081526040808320600901546006835292819020815160c0601f88018590049094028101840190925260a0820186815290928291908890889081908501838280828437600092018290525093855250505060208201819052604082018590526060820152608001600190528154600181018355600092835260209092208151919260050201908190610a4c90826137af565b5060208201518160010155604082015181600201556060820151816003015560808201518160040160006101000a81548160ff02191690836003811115610a9557610a956130ec565b02179055505050847fbb878f2a2e892d9a3562cba951f66485d18cf663715d59785bd1eafe3697a8c3828686604051610ad09392919061386f565b60405180910390a25050505050565b610ae98282610ec4565b610b525760405162461bcd60e51b815260206004820152603460248201527f5468652061646472657373206973206e6f7420612064656c656761746520696e604482015273020746865207370656369666965642067726f75760641b6064820152608401610646565b610b5b82612c12565b610bc45760405162461bcd60e51b815260206004820152603460248201527f596f752063616e206f6e6c792064656c656761746520696e2067726f757073206044820152733cb7ba9030b93290309036b2b6b132b91037b31760611b6064820152608401610646565b610bcd82611dfb565b15610c2f5760405162461bcd60e51b815260206004820152602c60248201527f596f75206861766520616e206163746976652064656c65676174696f6e20696e60448201526b103a3434b99033b937bab81760a11b6064820152608401610646565b336001600160a01b03821603610c875760405162461bcd60e51b815260206004820181905260248201527f596f752063616e206e6f742064656c656761746520746f20796f757273656c666044820152606401610646565b33600090815260036020908152604080832080546001818101835591855283852001869055858452909152812054606090825b81811015610e6e57600086815260016020526040902080546001600160a01b038716919083908110610cee57610cee613719565b60009182526020909120600590910201546001600160a01b031603610e66576000868152600160205260409020805482908110610d2d57610d2d613719565b600091825260208220600260059092020101805491610d4b83613745565b90915550506000868152600160205260409020805482908110610d7057610d70613719565b600091825260208083206003600590930201919091018054600181810183559184528284200180546001600160a01b03191633179055888352905260409020805482908110610dc157610dc1613719565b9060005260206000209060050201600201549350600160008781526020019081526020016000208181548110610df957610df9613719565b9060005260206000209060050201600301805480602002602001604051908101604052809291908181526020018280548015610e5e57602002820191906000526020600020905b81546001600160a01b03168152600190910190602001808311610e40575b505050505092505b600101610cba565b5084846001600160a01b0316336001600160a01b03167f666c49d8439089d417a99690492068a6e44b8f5ee919a4e15f72d0185e6034408686604051610eb59291906138df565b60405180910390a45050505050565b600082815260016020526040812054815b81811015610f3b57600085815260016020526040902080546001600160a01b038616919083908110610f0957610f09613719565b60009182526020909120600590910201546001600160a01b031603610f3357600192505050610f42565b600101610ed5565b5060009150505b92915050565b6060610f5382612bb8565b600082815260066020908152604080832080548251818502810185019093528083529193909284015b8282101561109157838290600052602060002090600502016040518060a0016040529081600082018054610faf906136df565b80601f0160208091040260200160405190810160405280929190818152602001828054610fdb906136df565b80156110285780601f10610ffd57610100808354040283529160200191611028565b820191906000526020600020905b81548152906001019060200180831161100b57829003601f168201915b505050918352505060018201546020820152600282015460408201526003808301546060830152600483015460809092019160ff169081111561106d5761106d6130ec565b600381111561107e5761107e6130ec565b8152505081526020019060010190610f7c565b505050509050919050565b6060806110a883612bb8565b600083815260066020908152604080832080548251818502810185019093528083529192909190849084015b828210156111e957838290600052602060002090600502016040518060a0016040529081600082018054611107906136df565b80601f0160208091040260200160405190810160405280929190818152602001828054611133906136df565b80156111805780601f1061115557610100808354040283529160200191611180565b820191906000526020600020905b81548152906001019060200180831161116357829003601f168201915b505050918352505060018201546020820152600282015460408201526003808301546060830152600483015460809092019160ff16908111156111c5576111c56130ec565b60038111156111d6576111d66130ec565b81525050815260200190600101906110d4565b5050505090506000815167ffffffffffffffff81111561120b5761120b6135db565b60405190808252806020026020018201604052801561123e57816020015b60608152602001906001900390816112295790505b5090506000825167ffffffffffffffff81111561125d5761125d6135db565b604051908082528060200260200182016040528015611286578160200160208202803683370190505b50905060005b8351811015611313578381815181106112a7576112a7613719565b6020026020010151600001518382815181106112c5576112c5613719565b60200260200101819052508381815181106112e2576112e2613719565b60200260200101516020015182828151811061130057611300613719565b602090810291909101015260010161128c565b50909590945092505050565b6113298133610ec4565b1561138b5760405162461bcd60e51b815260206004820152602c60248201527f596f752061726520616c726561647920612064656c656761746520696e20737060448201526b06563696669632067726f75760a41b6064820152608401610646565b60008181526002602052604081208054916113a583613745565b90915550506040805160a081018252338152602080820184815260008385018181528551828152808501875260608601908152878352600280865287842054608088015288845260018087529784208054808a01825590855293869020875160059095020180546001600160a01b0319166001600160a01b0390951694909417845593519683019690965551918101919091559251805192938493909261145392600385019291019061300a565b50608082015181600401555050806020015181600001516001600160a01b03167fb5977a248b20510642da018e687e9ba90beb459651acf6b82b232aeab1aac86e8360400151846060015185608001516040516114b293929190613900565b60405180910390a35050565b6114c781612c78565b156115265760405162461bcd60e51b815260206004820152602960248201527f43616e27742066696e642067726f757020796f752061726520747279696e6720604482015268746f2072656d6f766560b81b6064820152608401610646565b3360009081526020818152604080832060010180548251818502810185019093528083526115889383018282801561157d57602002820191906000526020600020905b815481526020019060010190808311611569575b505050505083612d1c565b3360009081526020819052604090206001015490915081106115e15760405162461bcd60e51b81526020600482015260126024820152711a5b99195e081bdd5d081bd988189bdd5b9960721b6044820152606401610646565b805b3360009081526020819052604090206001908101546116029190613929565b81101561167c5733600090815260208190526040902060019081019061162990839061393c565b8154811061163957611639613719565b600091825260208083209091015433835290829052604090912060010180548390811061166857611668613719565b6000918252602090912001556001016115e3565b5033600090815260208190526040902060010180548061169e5761169e61394f565b60019003818190600052602060002001600090559055817f90da14bd9eb8fde3e05a9aafa41174e865f627f0d3fea95c160853f866913cd760405160405180910390a25050565b6000828152600660205260408120546060915b8181116118a057600085815260066020526040902080548591908390811061172257611722613719565b9060005260206000209060050201600201540361189857600084815260096020908152604080832080548251818502810185019093528083529193909284015b8282101561188b57838290600052602060002090600702016040518060e00160405290816000820154815260200160018201548152602001600282015481526020016003820180546117b3906136df565b80601f01602080910402602001604051908101604052809291908181526020018280546117df906136df565b801561182c5780601f106118015761010080835404028352916020019161182c565b820191906000526020600020905b81548152906001019060200180831161180f57829003601f168201915b50505091835250506004820154602082015260058201546040820152600682015460609091019060ff166003811115611867576118676130ec565b6003811115611878576118786130ec565b8152505081526020019060010190611762565b5050505092505050610f42565b6001016116f8565b50600083815260096020908152604080832080548251818502810185019093528083529193909284015b828210156119f357838290600052602060002090600702016040518060e001604052908160008201548152602001600182015481526020016002820154815260200160038201805461191b906136df565b80601f0160208091040260200160405190810160405280929190818152602001828054611947906136df565b80156119945780601f1061196957610100808354040283529160200191611994565b820191906000526020600020905b81548152906001019060200180831161197757829003601f168201915b50505091835250506004820154602082015260058201546040820152600682015460609091019060ff1660038111156119cf576119cf6130ec565b60038111156119e0576119e06130ec565b81525050815260200190600101906118ca565b5050505091505092915050565b60058054906000611a1083613745565b9091555050604080516101806020601f8d01819004028201810190925261016081018b81526000928291908e908e9081908501838280828437600092019190915250505090825250604080516020601f8d018190048102820181019092528b815291810191908c908c90819084018382808284376000920182905250938552505050602082018a905260408201899052606082018890526080820187905260a0820186905260c0820185905260055460e083015261010082018190526101209091015261010081015181516040519293507f65d5ac2bf1bca69566bef1affdfca5bb37b9577fc0b3af4c7c4638225e67b39c92611b0e929190613965565b60405180910390a1600554600090815260046020526040902081518291908190611b3890826137af565b5060208201516001820190611b4d90826137af565b5060408201518160020155606082015181600301556080820151816004015560a0820151816005015560c0820151816006015560e082015181600701556101008201518160080155610120820151816009015561014082015181600a0160006101000a81548160ff02191690836003811115611bcb57611bcb6130ec565b021790555050505050505050505050505050565b600460205260009081526040902080548190611bfa906136df565b80601f0160208091040260200160405190810160405280929190818152602001828054611c26906136df565b8015611c735780601f10611c4857610100808354040283529160200191611c73565b820191906000526020600020905b815481529060010190602001808311611c5657829003601f168201915b505050505090806001018054611c88906136df565b80601f0160208091040260200160405190810160405280929190818152602001828054611cb4906136df565b8015611d015780601f10611cd657610100808354040283529160200191611d01565b820191906000526020600020905b815481529060010190602001808311611ce457829003601f168201915b50505060028401546003850154600486015460058701546006880154600789015460088a015460098b0154600a909b0154999a96999598509396509194909391929160ff168b565b60016020528160005260406000208181548110611d6557600080fd5b600091825260209091206005909102018054600182015460028301546004909301546001600160a01b039092169450925084565b3360009081526020818152604091829020600101805483518184028101840190945280845260609392830182828015611df157602002820191906000526020600020905b815481526020019060010190808311611ddd575b5050505050905090565b33600090815260036020908152604080832080548251818502810185019093528083528493830182828015611e4f57602002820191906000526020600020905b815481526020019060010190808311611e3b575b5050505050905060005b8151811015611e945783828281518110611e7557611e75613719565b602002602001015103611e8c575060019392505050565b600101611e59565b5060009392505050565b60008281526004602052604081206002015490611eba84612bb8565b611ec384612d8d565b611f1e5760405162461bcd60e51b815260206004820152602660248201527f5468652075736572206973206e6f742061206d656d626572206f6620706f6c6c60448201526502067726f75760d41b6064820152608401610646565b611f2784612e3a565b15611f745760405162461bcd60e51b815260206004820152601a60248201527f566f74652068617320616c7265616479206265656e20636173740000000000006044820152606401610646565b600083118015611f9557506000848152600460205260409020600901548311155b611fe15760405162461bcd60e51b815260206004820152601760248201527f50726f706f73616c20646f6573206e6f742065786973740000000000000000006044820152606401610646565b611fea82612eee565b156120505760405162461bcd60e51b815260206004820152603060248201527f596f7520686176652064656c65676174656420796f757220766f746520696e2060448201526f3a3432903837b636399033b937bab81760811b6064820152608401610646565b6000848152600660209081526040808320858452600190925282205490915b818110156120f657600085815260016020526040902080543391908390811061209a5761209a613719565b60009182526020909120600590910201546001600160a01b0316036120ee5760008581526001602052604090208054829081106120d9576120d9613719565b90600052602060002090600502016002015493505b60010161206f565b5081546000805b8281101561221b578785828154811061211857612118613719565b906000526020600020906005020160020154036122135761213a86600161393c565b85828154811061214c5761214c613719565b9060005260206000209060050201600101600082825461216c919061393c565b9250508190555084818154811061218557612185613719565b6000918252602080832060016005909302018201548c84526007825260408085208054948501815585529190932090910180546001600160a01b031916339081179091559051919350908a907fa5876137634fc61be6a6224d5f4a2d0926145388c51a133c03cc00f7b66e0e3c906122009086815260200190565b60405180910390a3505050505050505050565b6001016120fd565b5060405162461bcd60e51b815260206004820152603260248201527f5468657265206973206e6f20737563682070726f706f73616c20666f7220746860448201527119481cdc1958da599a5959081c1bdb1b125960721b6064820152608401610646565b61228881612c78565b6122e05760405162461bcd60e51b8152602060048201526024808201527f5065726d697373696f6e20697320616c726561647920676976656e20696e20676044820152630726f75760e41b6064820152608401610646565b3360009081526020818152604080832060019081018054918201815584529183209091018390555182917f8aa97af2947aac0dc42394954c6dd127eba5cecbc5a03fae31e5cc07d6738fe591a250565b6006602052816000526040600020818154811061234c57600080fd5b906000526020600020906005020160009150915050806000018054612370906136df565b80601f016020809104026020016040519081016040528092919081815260200182805461239c906136df565b80156123e95780601f106123be576101008083540402835291602001916123e9565b820191906000526020600020905b8154815290600101906020018083116123cc57829003601f168201915b505050506001830154600284015460038501546004909501549394919390925060ff1685565b600082815260016020526040812054815b81811015610f3b57600085815260016020526040902080546001600160a01b03861691908390811061245457612454613719565b60009182526020909120600590910201546001600160a01b03160361252657600085815260016020526040902080548290811061249357612493613719565b6000918252602082206003600590920201015492505b828110156125245760008681526001602052604090208054339190849081106124d4576124d4613719565b906000526020600020906005020160030182815481106124f6576124f6613719565b6000918252602090912001546001600160a01b03160361251c5760019350505050610f42565b6001016124a9565b505b600101612420565b6000805b336000908152602081905260409020600101548110156125945733600090815260208190526040902060010180548491908390811061257357612573613719565b90600052602060002001540361258c5750600192915050565b600101612532565b50600092915050565b6000600160008581526006602052604090206125ba600186613929565b815481106125ca576125ca613719565b600091825260209091206004600590920201015460ff1660038111156125f2576125f26130ec565b149050806126575760405162461bcd60e51b815260206004820152602c60248201527f596f752063616e206e6f742063726561746520612070726564696374696f6e2060448201526b617420746869732074696d6560a01b6064820152608401610646565b6000848152600660205260408120612670600186613929565b8154811061268057612680613719565b9060005260206000209060050201905061269a8585612f87565b6126a357600080fd5b6003810180549060006126b583613745565b90915550506003810154600086815260066020526040902082906126da600188613929565b815481106126ea576126ea613719565b6000918252602090912060059091020180612705838261397e565b50600182810154828201556002808401549083015560038084015481840155600480850154908401805460ff90921693909260ff1990921691849081111561274f5761274f6130ec565b0217905550905050600960008681526020019081526020016000206040518060e001604052808881526020018781526020018381526020018681526020016000815260200160008152602001600260038111156127ae576127ae6130ec565b905281546001818101845560009384526020938490208351600790930201918255928201519281019290925560408101516002830155606081015190919060038201906127fb90826137af565b506080820151600482015560a0820151600582015560c082015160068201805460ff19166001836003811115612833576128336130ec565b021790555050507f611b851c586fb53b9aae86344db19e0e0dd8f785abd9117602396d3bccb37c41818560405161286b929190613965565b60405180910390a1505050505050565b612885818361240f565b6128f75760405162461bcd60e51b815260206004820152603e60248201527f596f752068617665206e6f742064656c65676174656420746f2074686520737060448201527f656369666965642064656c656761746520696e20746869732067726f757000006064820152608401610646565b600081815260016020526040812054815b81811015612ade57600084815260016020526040902080546001600160a01b03871691908390811061293c5761293c613719565b60009182526020909120600590910201546001600160a01b031603612ad657600084815260016020526040902080548290811061297b5761297b613719565b60009182526020822060026005909202010180549161299983613a59565b909155505060008481526001602052604090208054829081106129be576129be613719565b906000526020600020906005020160020154925060005b60008581526001602052604090208054839081106129f5576129f5613719565b906000526020600020906005020160030180549050811015612ad4576000858152600160205260409020805433919084908110612a3457612a34613719565b90600052602060002090600502016003018281548110612a5657612a56613719565b6000918252602090912001546001600160a01b031603612acc576000858152600160205260409020805483908110612a9057612a90613719565b90600052602060002090600502016003018181548110612ab257612ab2613719565b600091825260209091200180546001600160a01b03191690555b6001016129d5565b505b600101612908565b505033600090815260036020526040812054905b81811015612b6357336000908152600360205260409020805485919083908110612b1e57612b1e613719565b906000526020600020015403612b5b57336000908152600360205260409020805482908110612b4f57612b4f613719565b60009182526020822001555b600101612af2565b5082336001600160a01b0316856001600160a01b03167ffe78e1dedca6af8797c8c45500588ea289add8b4b886f1d9b8d3824796274e3685604051612baa91815260200190565b60405180910390a450505050565b600081118015612bca57506005548111155b612c0f5760405162461bcd60e51b8152602060048201526016602482015275141bdb1b08125108191bd95cc81b9bdd08195e1a5cdd60521b6044820152606401610646565b50565b33600090815260208190526040812060010154815b81811015611e9457336000908152602081905260409020600101805485919083908110612c5657612c56613719565b906000526020600020015403612c70575060019392505050565b600101612c27565b3360009081526020818152604080832060010180548251818502810185019093528083528493830182828015612ccd57602002820191906000526020600020905b815481526020019060010190808311612cb9575b5050505050905060005b8151811015612d125783828281518110612cf357612cf3613719565b602002602001015103612d0a575060009392505050565b600101612cd7565b5060019392505050565b6000805b8351811015612d585782848281518110612d3c57612d3c613719565b602002602001015103612d50579050610f42565b600101612d20565b5060405162461bcd60e51b8152602060048201526009602482015268139bdd08119bdd5b9960ba1b6044820152606401610646565b3360009081526020818152604080832060010180548251818502810185019093528083528493830182828015612de257602002820191906000526020600020905b815481526020019060010190808311612dce575b5050505050905060005b8151811015611e94576000848152600460205260409020600201548251839083908110612e1b57612e1b613719565b602002602001015103612e32575060019392505050565b600101612dec565b600081815260076020908152604080832080548251818502810185019093528083528493830182828015612e9757602002820191906000526020600020905b81546001600160a01b03168152600190910190602001808311612e79575b5050505050905060005b8151811015611e9457336001600160a01b0316828281518110612ec657612ec6613719565b60200260200101516001600160a01b031603612ee6575060019392505050565b600101612ea1565b33600090815260036020908152604080832080548251818502810185019093528083528493830182828015612f4257602002820191906000526020600020905b815481526020019060010190808311612f2e575b5050505050905060005b8151811015611e945783828281518110612f6857612f68613719565b602002602001015103612f7f575060019392505050565b600101612f4c565b600082815260066020526040812054815b818111610f3b576000858152600660205260409020805485919083908110612fc257612fc2613719565b90600052602060002090600502016002015403612fe457600192505050610f42565b600101612f98565b5080546000825590600052602060002090810190612c0f919061306f565b82805482825590600052602060002090810192821561305f579160200282015b8281111561305f57825182546001600160a01b0319166001600160a01b0390911617825560209092019160019091019061302a565b5061306b92915061306f565b5090565b5b8082111561306b5760008155600101613070565b6000806040838503121561309757600080fd5b50508035926020909101359150565b6000815180845260005b818110156130cc576020818501810151868301820152016130b0565b506000602082860101526020601f19601f83011685010191505092915050565b634e487b7160e01b600052602160045260246000fd5b6004811061312057634e487b7160e01b600052602160045260246000fd5b9052565b87815286602082015285604082015260e06060820152600061314960e08301876130a6565b90508460808301528360a083015261316460c0830184613102565b98975050505050505050565b60006020828403121561318257600080fd5b5035919050565b60008083601f84011261319b57600080fd5b50813567ffffffffffffffff8111156131b357600080fd5b6020830191508360208285010111156131cb57600080fd5b9250929050565b6000806000604084860312156131e757600080fd5b83359250602084013567ffffffffffffffff81111561320557600080fd5b61321186828701613189565b9497909650939450505050565b80356001600160a01b038116811461323557600080fd5b919050565b6000806040838503121561324d57600080fd5b8235915061325d6020840161321e565b90509250929050565b600060208083018184528085518083526040925060408601915060408160051b87010184880160005b838110156132fb57603f19898403018552815160a081518186526132b5828701826130a6565b91505088820151898601528782015188860152606080830151818701525060808083015192506132e781870184613102565b50958801959350509086019060010161328f565b509098975050505050505050565b60008151808452602080850194506020840160005b8381101561333a5781518752958201959082019060010161331e565b509495945050505050565b6000604082016040835280855180835260608501915060608160051b8601019250602080880160005b8381101561339c57605f1988870301855261338a8683516130a6565b9550938201939082019060010161336e565b505050505082810360208401526133b38185613309565b95945050505050565b600060208083018184528085518083526040925060408601915060408160051b87010184880160005b838110156132fb57603f19898403018552815160e081518552888201518986015287820151888601526060808301518282880152613425838801826130a6565b92505050608080830151818701525060a080830151818701525060c080830151925061345381870184613102565b5095880195935050908601906001016133e5565b6000806000806000806000806000806101008b8d03121561348757600080fd5b8a3567ffffffffffffffff8082111561349f57600080fd5b6134ab8e838f01613189565b909c509a5060208d01359150808211156134c457600080fd5b506134d18d828e01613189565b9b9e9a9d509b60408101359a60608201359a506080820135995060a0820135985060c0820135975060e09091013595509350505050565b600061016080835261351c8184018f6130a6565b90508281036020840152613530818e6130a6565b9150508a60408301528960608301528860808301528760a08301528660c08301528560e08301528461010083015283610120830152613573610140830184613102565b9c9b505050505050505050505050565b6020815260006135966020830184613309565b9392505050565b60a0815260006135b060a08301886130a6565b90508560208301528460408301528360608301526135d16080830184613102565b9695505050505050565b634e487b7160e01b600052604160045260246000fd5b60008060006060848603121561360657600080fd5b8335925060208401359150604084013567ffffffffffffffff8082111561362c57600080fd5b818601915086601f83011261364057600080fd5b813581811115613652576136526135db565b604051601f8201601f19908116603f0116810190838211818310171561367a5761367a6135db565b8160405282815289602084870101111561369357600080fd5b8260208601602083013760006020848301015280955050505050509250925092565b600080604083850312156136c857600080fd5b6136d18361321e565b946020939093013593505050565b600181811c908216806136f357607f821691505b60208210810361371357634e487b7160e01b600052602260045260246000fd5b50919050565b634e487b7160e01b600052603260045260246000fd5b634e487b7160e01b600052601160045260246000fd5b6000600182016137575761375761372f565b5060010190565b601f8211156137aa576000816000526020600020601f850160051c810160208610156137875750805b601f850160051c820191505b818110156137a657828155600101613793565b5050505b505050565b815167ffffffffffffffff8111156137c9576137c96135db565b6137dd816137d784546136df565b8461375e565b602080601f83116001811461381257600084156137fa5750858301515b600019600386901b1c1916600185901b1785556137a6565b600085815260208120601f198616915b8281101561384157888601518255948401946001909101908401613822565b508582101561385f5787850151600019600388901b60f8161c191681555b5050505050600190811b01905550565b83815260406020820152816040820152818360608301376000818301606090810191909152601f909201601f1916010192915050565b60008151808452602080850194506020840160005b8381101561333a5781516001600160a01b0316875295820195908201906001016138ba565b8281526040602082015260006138f860408301846138a5565b949350505050565b83815260606020820152600061391960608301856138a5565b9050826040830152949350505050565b81810381811115610f4257610f4261372f565b80820180821115610f4257610f4261372f565b634e487b7160e01b600052603160045260246000fd5b8281526040602082015260006138f860408301846130a6565b818103613989575050565b61399382546136df565b67ffffffffffffffff8111156139ab576139ab6135db565b6139b9816137d784546136df565b6000601f8211600181146139ed57600083156139d55750848201545b600019600385901b1c1916600184901b178455613a52565b600085815260209020601f19841690600086815260209020845b83811015613a275782860154825560019586019590910190602001613a07565b5085831015613a455781850154600019600388901b60f8161c191681555b50505060018360011b0184555b5050505050565b600081613a6857613a6861372f565b50600019019056fea26469706673582212208203517d8682f0404588a1b49c2ef8c80bae0667ddd829dedd605b4a7ff21bd164736f6c63430008170033","linkReferences":{}},"methodIdentifiers":{"addProposal(uint256,string)":"051097ef","addressIsDelegate(uint256,address)":"21bcf082","becomeDelegate(uint256)":"395e0139","checkAllRights()":"ae828f3c","checkRightsInGroup(uint256)":"de219672","createPoll(string,string,uint256,uint256,uint256,uint256,uint256,uint256)":"a00c1f7e","createPrediction(uint256,uint256,string)":"e424938c","delegate(uint256,address)":"08bbb824","getPollResults(uint256)":"33b4097b","getPredictions(uint256,uint256)":"9bec02b1","getProposalCount(uint256)":"4936c0f6","getProposals(uint256)":"2c72fdfc","giveRightToVote(uint256)":"bc23bd51","groupDelegates(uint256,uint256)":"ac8ec2f9","hasDelegatedInGroup(uint256)":"b0333e0d","hasDelegatedToDelegateInGroup(uint256,address)":"d5887489","pollCount()":"9207891d","polls(uint256)":"ac2f0074","predictions(uint256,uint256)":"025ae4e2","proposals(uint256,uint256)":"c2cfee27","removeDelegation(address,uint256)":"fd6c914e","removeRightToVote(uint256)":"422ee52a","resignAsDelegate(uint256)":"0457bea8","vote(uint256,uint256)":"b384abef"},"id":20}