{
  "abi": [
    {
      "anonymous": false,
      "inputs": [
        {
          "indexed": true,
          "internalType": "address",
          "name": "delegate",
          "type": "address"
        },
        {
          "indexed": true,
          "internalType": "uint256",
          "name": "groupId",
          "type": "uint256"
        }
      ],
      "name": "DelegateResignation",
      "type": "event"
    },
    {
      "anonymous": false,
      "inputs": [
        {
          "indexed": true,
          "internalType": "address",
          "name": "from",
          "type": "address"
        },
        {
          "indexed": true,
          "internalType": "address",
          "name": "by",
          "type": "address"
        },
        {
          "indexed": true,
          "internalType": "uint256",
          "name": "groupId",
          "type": "uint256"
        },
        {
          "indexed": false,
          "internalType": "uint256",
          "name": "delegatedVotes",
          "type": "uint256"
        }
      ],
      "name": "DelegationRemoved",
      "type": "event"
    },
    {
      "anonymous": false,
      "inputs": [
        {
          "indexed": true,
          "internalType": "address",
          "name": "delegate",
          "type": "address"
        },
        {
          "indexed": true,
          "internalType": "uint256",
          "name": "groupId",
          "type": "uint256"
        },
        {
          "indexed": false,
          "internalType": "uint256",
          "name": "delegatedVotes",
          "type": "uint256"
        },
        {
          "indexed": false,
          "internalType": "address[]",
          "name": "delegationsFrom",
          "type": "address[]"
        },
        {
          "indexed": false,
          "internalType": "uint256",
          "name": "groupDelegateId",
          "type": "uint256"
        }
      ],
      "name": "NewDelegate",
      "type": "event"
    },
    {
      "anonymous": false,
      "inputs": [
        {
          "indexed": true,
          "internalType": "address",
          "name": "from",
          "type": "address"
        },
        {
          "indexed": true,
          "internalType": "address",
          "name": "to",
          "type": "address"
        },
        {
          "indexed": true,
          "internalType": "uint256",
          "name": "groupId",
          "type": "uint256"
        },
        {
          "indexed": false,
          "internalType": "uint256",
          "name": "delegatedVotes",
          "type": "uint256"
        },
        {
          "indexed": false,
          "internalType": "address[]",
          "name": "delegationsFrom",
          "type": "address[]"
        }
      ],
      "name": "NewDelegation",
      "type": "event"
    },
    {
      "anonymous": false,
      "inputs": [
        {
          "indexed": true,
          "internalType": "uint256",
          "name": "_group",
          "type": "uint256"
        }
      ],
      "name": "PermissionGivenToVote",
      "type": "event"
    },
    {
      "anonymous": false,
      "inputs": [
        {
          "indexed": true,
          "internalType": "uint256",
          "name": "_group",
          "type": "uint256"
        }
      ],
      "name": "PermissionToVoteRemoved",
      "type": "event"
    },
    {
      "anonymous": false,
      "inputs": [
        {
          "indexed": false,
          "internalType": "uint256",
          "name": "pollId",
          "type": "uint256"
        },
        {
          "indexed": false,
          "internalType": "string",
          "name": "title",
          "type": "string"
        }
      ],
      "name": "PollCreated",
      "type": "event"
    },
    {
      "anonymous": false,
      "inputs": [
        {
          "indexed": false,
          "internalType": "uint256",
          "name": "predictionId",
          "type": "uint256"
        },
        {
          "indexed": false,
          "internalType": "string",
          "name": "prediction",
          "type": "string"
        }
      ],
      "name": "PredictionCreated",
      "type": "event"
    },
    {
      "anonymous": false,
      "inputs": [
        {
          "indexed": true,
          "internalType": "uint256",
          "name": "pollId",
          "type": "uint256"
        },
        {
          "indexed": false,
          "internalType": "uint256",
          "name": "proposalId",
          "type": "uint256"
        },
        {
          "indexed": false,
          "internalType": "string",
          "name": "description",
          "type": "string"
        }
      ],
      "name": "ProposalAdded",
      "type": "event"
    },
    {
      "anonymous": false,
      "inputs": [
        {
          "indexed": true,
          "internalType": "uint256",
          "name": "pollId",
          "type": "uint256"
        },
        {
          "indexed": true,
          "internalType": "address",
          "name": "voter",
          "type": "address"
        },
        {
          "indexed": false,
          "internalType": "uint256",
          "name": "votesForProposal",
          "type": "uint256"
        }
      ],
      "name": "VoteSubmitted",
      "type": "event"
    },
    {
      "inputs": [
        {
          "internalType": "uint256",
          "name": "_pollId",
          "type": "uint256"
        },
        {
          "internalType": "string",
          "name": "_description",
          "type": "string"
        }
      ],
      "name": "addProposal",
      "outputs": [],
      "stateMutability": "nonpayable",
      "type": "function"
    },
    {
      "inputs": [
        {
          "internalType": "uint256",
          "name": "_groupId",
          "type": "uint256"
        }
      ],
      "name": "becomeDelegate",
      "outputs": [],
      "stateMutability": "nonpayable",
      "type": "function"
    },
    {
      "inputs": [],
      "name": "checkAllRights",
      "outputs": [
        {
          "internalType": "uint256[]",
          "name": "groups",
          "type": "uint256[]"
        }
      ],
      "stateMutability": "view",
      "type": "function"
    },
    {
      "inputs": [
        {
          "internalType": "uint256",
          "name": "_group",
          "type": "uint256"
        }
      ],
      "name": "checkRightsInGroup",
      "outputs": [
        {
          "internalType": "bool",
          "name": "hasRight",
          "type": "bool"
        }
      ],
      "stateMutability": "view",
      "type": "function"
    },
    {
      "inputs": [
        {
          "internalType": "string",
          "name": "_title",
          "type": "string"
        },
        {
          "internalType": "string",
          "name": "_tag",
          "type": "string"
        },
        {
          "internalType": "uint256",
          "name": "_group",
          "type": "uint256"
        },
        {
          "internalType": "uint256",
          "name": "_pollStartDate",
          "type": "uint256"
        },
        {
          "internalType": "uint256",
          "name": "_proposalEndDate",
          "type": "uint256"
        },
        {
          "internalType": "uint256",
          "name": "_votingStartDate",
          "type": "uint256"
        },
        {
          "internalType": "uint256",
          "name": "_delegateEndDate",
          "type": "uint256"
        },
        {
          "internalType": "uint256",
          "name": "_endDate",
          "type": "uint256"
        }
      ],
      "name": "createPoll",
      "outputs": [],
      "stateMutability": "nonpayable",
      "type": "function"
    },
    {
      "inputs": [
        {
          "internalType": "uint256",
          "name": "_pollId",
          "type": "uint256"
        },
        {
          "internalType": "uint256",
          "name": "_proposalId",
          "type": "uint256"
        },
        {
          "internalType": "string",
          "name": "_prediction",
          "type": "string"
        }
      ],
      "name": "createPrediction",
      "outputs": [],
      "stateMutability": "nonpayable",
      "type": "function"
    },
    {
      "inputs": [
        {
          "internalType": "uint256",
          "name": "_groupId",
          "type": "uint256"
        },
        {
          "internalType": "address",
          "name": "_delegateTo",
          "type": "address"
        }
      ],
      "name": "delegate",
      "outputs": [],
      "stateMutability": "nonpayable",
      "type": "function"
    },
    {
      "inputs": [
        {
          "internalType": "uint256",
          "name": "_pollId",
          "type": "uint256"
        }
      ],
      "name": "getPollResults",
      "outputs": [
        {
          "internalType": "string[]",
          "name": "",
          "type": "string[]"
        },
        {
          "internalType": "uint256[]",
          "name": "",
          "type": "uint256[]"
        }
      ],
      "stateMutability": "view",
      "type": "function"
    },
    {
      "inputs": [
        {
          "internalType": "uint256",
          "name": "_pollId",
          "type": "uint256"
        },
        {
          "internalType": "uint256",
          "name": "_proposalId",
          "type": "uint256"
        }
      ],
      "name": "getPredictions",
      "outputs": [
        {
          "components": [
            {
              "internalType": "uint256",
              "name": "pollId",
              "type": "uint256"
            },
            {
              "internalType": "uint256",
              "name": "proposalId",
              "type": "uint256"
            },
            {
              "internalType": "uint256",
              "name": "predictionId",
              "type": "uint256"
            },
            {
              "internalType": "string",
              "name": "prediction",
              "type": "string"
            },
            {
              "internalType": "uint256",
              "name": "yesBets",
              "type": "uint256"
            },
            {
              "internalType": "uint256",
              "name": "noBets",
              "type": "uint256"
            },
            {
              "internalType": "enum PollStructs.PollPhase",
              "name": "phase",
              "type": "uint8"
            }
          ],
          "internalType": "struct Predictions.Prediction[]",
          "name": "",
          "type": "tuple[]"
        }
      ],
      "stateMutability": "view",
      "type": "function"
    },
    {
      "inputs": [
        {
          "internalType": "uint256",
          "name": "_pollId",
          "type": "uint256"
        }
      ],
      "name": "getProposals",
      "outputs": [
        {
          "components": [
            {
              "internalType": "string",
              "name": "description",
              "type": "string"
            },
            {
              "internalType": "uint256",
              "name": "voteCount",
              "type": "uint256"
            },
            {
              "internalType": "uint256",
              "name": "proposalId",
              "type": "uint256"
            },
            {
              "internalType": "uint256",
              "name": "predictionCount",
              "type": "uint256"
            },
            {
              "internalType": "enum PollStructs.PollPhase",
              "name": "phase",
              "type": "uint8"
            }
          ],
          "internalType": "struct Polls.Proposal[]",
          "name": "",
          "type": "tuple[]"
        }
      ],
      "stateMutability": "view",
      "type": "function"
    },
    {
      "inputs": [
        {
          "internalType": "uint256",
          "name": "_group",
          "type": "uint256"
        }
      ],
      "name": "giveRightToVote",
      "outputs": [],
      "stateMutability": "payable",
      "type": "function"
    },
    {
      "inputs": [
        {
          "internalType": "uint256",
          "name": "",
          "type": "uint256"
        },
        {
          "internalType": "uint256",
          "name": "",
          "type": "uint256"
        }
      ],
      "name": "groupDelegates",
      "outputs": [
        {
          "internalType": "address",
          "name": "delegate",
          "type": "address"
        },
        {
          "internalType": "uint256",
          "name": "groupId",
          "type": "uint256"
        },
        {
          "internalType": "uint256",
          "name": "delegatedVotes",
          "type": "uint256"
        },
        {
          "internalType": "uint256",
          "name": "groupDelegateId",
          "type": "uint256"
        }
      ],
      "stateMutability": "view",
      "type": "function"
    },
    {
      "inputs": [
        {
          "internalType": "uint256",
          "name": "_groupId",
          "type": "uint256"
        }
      ],
      "name": "hasDelegatedInGroup",
      "outputs": [
        {
          "internalType": "bool",
          "name": "",
          "type": "bool"
        }
      ],
      "stateMutability": "view",
      "type": "function"
    },
    {
      "inputs": [
        {
          "internalType": "uint256",
          "name": "_groupId",
          "type": "uint256"
        },
        {
          "internalType": "address",
          "name": "_delegate",
          "type": "address"
        }
      ],
      "name": "hasDelegatedToDelegateInGroup",
      "outputs": [
        {
          "internalType": "bool",
          "name": "",
          "type": "bool"
        }
      ],
      "stateMutability": "view",
      "type": "function"
    },
    {
      "inputs": [],
      "name": "pollCount",
      "outputs": [
        {
          "internalType": "uint256",
          "name": "",
          "type": "uint256"
        }
      ],
      "stateMutability": "view",
      "type": "function"
    },
    {
      "inputs": [
        {
          "internalType": "uint256",
          "name": "",
          "type": "uint256"
        }
      ],
      "name": "polls",
      "outputs": [
        {
          "internalType": "string",
          "name": "title",
          "type": "string"
        },
        {
          "internalType": "string",
          "name": "tag",
          "type": "string"
        },
        {
          "internalType": "uint256",
          "name": "group",
          "type": "uint256"
        },
        {
          "internalType": "uint256",
          "name": "pollStartDate",
          "type": "uint256"
        },
        {
          "internalType": "uint256",
          "name": "proposalEndDate",
          "type": "uint256"
        },
        {
          "internalType": "uint256",
          "name": "votingStartDate",
          "type": "uint256"
        },
        {
          "internalType": "uint256",
          "name": "delegateEndDate",
          "type": "uint256"
        },
        {
          "internalType": "uint256",
          "name": "endDate",
          "type": "uint256"
        },
        {
          "internalType": "uint256",
          "name": "pollId",
          "type": "uint256"
        },
        {
          "internalType": "uint256",
          "name": "proposalCount",
          "type": "uint256"
        },
        {
          "internalType": "enum PollStructs.PollPhase",
          "name": "phase",
          "type": "uint8"
        }
      ],
      "stateMutability": "view",
      "type": "function"
    },
    {
      "inputs": [
        {
          "internalType": "uint256",
          "name": "",
          "type": "uint256"
        },
        {
          "internalType": "uint256",
          "name": "",
          "type": "uint256"
        }
      ],
      "name": "predictions",
      "outputs": [
        {
          "internalType": "uint256",
          "name": "pollId",
          "type": "uint256"
        },
        {
          "internalType": "uint256",
          "name": "proposalId",
          "type": "uint256"
        },
        {
          "internalType": "uint256",
          "name": "predictionId",
          "type": "uint256"
        },
        {
          "internalType": "string",
          "name": "prediction",
          "type": "string"
        },
        {
          "internalType": "uint256",
          "name": "yesBets",
          "type": "uint256"
        },
        {
          "internalType": "uint256",
          "name": "noBets",
          "type": "uint256"
        },
        {
          "internalType": "enum PollStructs.PollPhase",
          "name": "phase",
          "type": "uint8"
        }
      ],
      "stateMutability": "view",
      "type": "function"
    },
    {
      "inputs": [
        {
          "internalType": "uint256",
          "name": "",
          "type": "uint256"
        },
        {
          "internalType": "uint256",
          "name": "",
          "type": "uint256"
        }
      ],
      "name": "proposals",
      "outputs": [
        {
          "internalType": "string",
          "name": "description",
          "type": "string"
        },
        {
          "internalType": "uint256",
          "name": "voteCount",
          "type": "uint256"
        },
        {
          "internalType": "uint256",
          "name": "proposalId",
          "type": "uint256"
        },
        {
          "internalType": "uint256",
          "name": "predictionCount",
          "type": "uint256"
        },
        {
          "internalType": "enum PollStructs.PollPhase",
          "name": "phase",
          "type": "uint8"
        }
      ],
      "stateMutability": "view",
      "type": "function"
    },
    {
      "inputs": [
        {
          "internalType": "address",
          "name": "_delegate",
          "type": "address"
        },
        {
          "internalType": "uint256",
          "name": "_groupId",
          "type": "uint256"
        }
      ],
      "name": "removeDelegation",
      "outputs": [],
      "stateMutability": "nonpayable",
      "type": "function"
    },
    {
      "inputs": [
        {
          "internalType": "uint256",
          "name": "_group",
          "type": "uint256"
        }
      ],
      "name": "removeRightToVote",
      "outputs": [],
      "stateMutability": "payable",
      "type": "function"
    },
    {
      "inputs": [
        {
          "internalType": "uint256",
          "name": "_groupId",
          "type": "uint256"
        }
      ],
      "name": "resignAsDelegate",
      "outputs": [],
      "stateMutability": "nonpayable",
      "type": "function"
    },
    {
      "inputs": [
        {
          "internalType": "uint256",
          "name": "_pollId",
          "type": "uint256"
        },
        {
          "internalType": "uint256",
          "name": "_proposalId",
          "type": "uint256"
        }
      ],
      "name": "vote",
      "outputs": [],
      "stateMutability": "nonpayable",
      "type": "function"
    }
  ],
  "bytecode": {
    "object": "0x60806040526008805460ff1916905534801561001a57600080fd5b50613a3f8061002a6000396000f3fe6080604052600436106101355760003560e01c8063ac2f0074116100ab578063bc23bd511161006f578063bc23bd51146103ca578063c2cfee27146103dd578063d58874891461040e578063de2196721461042e578063e424938c1461044e578063fd6c914e1461046e57600080fd5b8063ac2f0074146102d7578063ac8ec2f91461030e578063ae828f3c14610358578063b0333e0d1461037a578063b384abef146103aa57600080fd5b806333b4097b116100fd57806333b4097b14610205578063395e013914610233578063422ee52a146102535780639207891d146102665780639bec02b11461028a578063a00c1f7e146102b757600080fd5b8063025ae4e21461013a5780630457bea814610176578063051097ef1461019857806308bbb824146101b85780632c72fdfc146101d8575b600080fd5b34801561014657600080fd5b5061015a61015536600461301d565b61048e565b60405161016d97969594939291906130bd565b60405180910390f35b34801561018257600080fd5b50610196610191366004613109565b61057a565b005b3480156101a457600080fd5b506101966101b336600461316b565b61089b565b3480156101c457600080fd5b506101966101d33660046131d3565b610a79565b3480156101e457600080fd5b506101f86101f3366004613109565b610e5e565b60405161016d91906131ff565b34801561021157600080fd5b50610225610220366004613109565b610fb2565b60405161016d9291906132de565b34801561023f57600080fd5b5061019661024e366004613109565b611235565b610196610261366004613109565b6113d4565b34801561027257600080fd5b5061027c60055481565b60405190815260200161016d565b34801561029657600080fd5b506102aa6102a536600461301d565b6115fb565b60405161016d9190613355565b3480156102c357600080fd5b506101966102d2366004613400565b611917565b3480156102e357600080fd5b506102f76102f2366004613109565b611af6565b60405161016d9b9a999897969594939291906134a1565b34801561031a57600080fd5b5061032e61032936600461301d565b611c60565b604080516001600160a01b039095168552602085019390935291830152606082015260800161016d565b34801561036457600080fd5b5061036d611cb0565b60405161016d919061351c565b34801561038657600080fd5b5061039a610395366004613109565b611d12565b604051901515815260200161016d565b3480156103b657600080fd5b506101966103c536600461301d565b611db5565b6101966103d8366004613109565b612196565b3480156103e957600080fd5b506103fd6103f836600461301d565b612247565b60405161016d959493929190613536565b34801561041a57600080fd5b5061039a6104293660046131d3565b612326565b34801561043a57600080fd5b5061039a610449366004613109565b612450565b34801561045a57600080fd5b5061019661046936600461358a565b6124bf565b34801561047a57600080fd5b5061019661048936600461364e565b61279d565b600960205281600052604060002081815481106104aa57600080fd5b9060005260206000209060070201600091509150508060000154908060010154908060020154908060030180546104e090613678565b80601f016020809104026020016040519081016040528092919081815260200182805461050c90613678565b80156105595780601f1061052e57610100808354040283529160200191610559565b820191906000526020600020905b81548152906001019060200180831161053c57829003601f168201915b50505050600483015460058401546006909401549293909290915060ff1687565b60606105868233612ada565b6105e95760405162461bcd60e51b815260206004820152602960248201527f596f7520617265206e6f7420612064656c656761746520696e2072657175657360448201526807465642067726f75760bc1b60648201526084015b60405180910390fd5b600082815260016020526040812054905b81811015610740576000848152600160205260409020805433919083908110610625576106256136b2565b60009182526020909120600590910201546001600160a01b031603610738576000848152600160205260409020805482908110610664576106646136b2565b90600052602060002090600502016003018054806020026020016040519081016040528092919081815260200182805480156106c957602002820191906000526020600020905b81546001600160a01b031681526001909101906020018083116106ab575b505050505092506001600085815260200190815260200160002081815481106106f4576106f46136b2565b60009182526020822060059091020180546001600160a01b031916815560018101829055600281018290559061072d6003830182612f85565b600482016000905550505b6001016105fa565b5060005b82518110156108685760036000848381518110610763576107636136b2565b60200260200101516001600160a01b03166001600160a01b0316815260200190815260200160002080549050915060005b8281101561085f5784600360008685815181106107b3576107b36136b2565b60200260200101516001600160a01b03166001600160a01b0316815260200190815260200160002082815481106107ec576107ec6136b2565b9060005260206000200154036108575760036000858481518110610812576108126136b2565b60200260200101516001600160a01b03166001600160a01b03168152602001908152602001600020818154811061084b5761084b6136b2565b60009182526020822001555b600101610794565b50600101610744565b50604051839033907f4a49253305f0d63099f6b61a9d355ce9fd607a6b536918966a9b09cd46b4da8b90600090a3505050565b6000806000858152600460205260409020600a015460ff1660038111156108c4576108c4613085565b149050806109205760405162461bcd60e51b8152602060048201526024808201527f596f752063616e206e6f7420706c6163652070726f706f73616c207269676874604482015263206e6f7760e01b60648201526084016105e0565b61092984612b51565b6000848152600460205260408120600901805491610946836136de565b90915550506000848152600460209081526040808320600901546006835292819020815160c0601f88018590049094028101840190925260a08201868152909282919088908890819085018382808284376000920182905250938552505050602082018190526040820185905260608201526080016001905281546001810183556000928352602090922081519192600502019081906109e69082613748565b5060208201518160010155604082015181600201556060820151816003015560808201518160040160006101000a81548160ff02191690836003811115610a2f57610a2f613085565b02179055505050847fbb878f2a2e892d9a3562cba951f66485d18cf663715d59785bd1eafe3697a8c3828686604051610a6a93929190613808565b60405180910390a25050505050565b610a838282612ada565b610aec5760405162461bcd60e51b815260206004820152603460248201527f5468652061646472657373206973206e6f7420612064656c656761746520696e604482015273020746865207370656369666965642067726f75760641b60648201526084016105e0565b610af582612bab565b610b5e5760405162461bcd60e51b815260206004820152603460248201527f596f752063616e206f6e6c792064656c656761746520696e2067726f757073206044820152733cb7ba9030b93290309036b2b6b132b91037b31760611b60648201526084016105e0565b610b6782611d12565b15610bc95760405162461bcd60e51b815260206004820152602c60248201527f596f75206861766520616e206163746976652064656c65676174696f6e20696e60448201526b103a3434b99033b937bab81760a11b60648201526084016105e0565b336001600160a01b03821603610c215760405162461bcd60e51b815260206004820181905260248201527f596f752063616e206e6f742064656c656761746520746f20796f757273656c6660448201526064016105e0565b33600090815260036020908152604080832080546001818101835591855283852001869055858452909152812054606090825b81811015610e0857600086815260016020526040902080546001600160a01b038716919083908110610c8857610c886136b2565b60009182526020909120600590910201546001600160a01b031603610e00576000868152600160205260409020805482908110610cc757610cc76136b2565b600091825260208220600260059092020101805491610ce5836136de565b90915550506000868152600160205260409020805482908110610d0a57610d0a6136b2565b600091825260208083206003600590930201919091018054600181810183559184528284200180546001600160a01b03191633179055888352905260409020805482908110610d5b57610d5b6136b2565b9060005260206000209060050201600201549350600160008781526020019081526020016000208181548110610d9357610d936136b2565b9060005260206000209060050201600301805480602002602001604051908101604052809291908181526020018280548015610df857602002820191906000526020600020905b81546001600160a01b03168152600190910190602001808311610dda575b505050505092505b600101610c54565b5084846001600160a01b0316336001600160a01b03167f666c49d8439089d417a99690492068a6e44b8f5ee919a4e15f72d0185e6034408686604051610e4f929190613878565b60405180910390a45050505050565b6060610e6982612b51565b600082815260066020908152604080832080548251818502810185019093528083529193909284015b82821015610fa757838290600052602060002090600502016040518060a0016040529081600082018054610ec590613678565b80601f0160208091040260200160405190810160405280929190818152602001828054610ef190613678565b8015610f3e5780601f10610f1357610100808354040283529160200191610f3e565b820191906000526020600020905b815481529060010190602001808311610f2157829003601f168201915b505050918352505060018201546020820152600282015460408201526003808301546060830152600483015460809092019160ff1690811115610f8357610f83613085565b6003811115610f9457610f94613085565b8152505081526020019060010190610e92565b505050509050919050565b606080610fbe83612b51565b600083815260066020908152604080832080548251818502810185019093528083529192909190849084015b828210156110ff57838290600052602060002090600502016040518060a001604052908160008201805461101d90613678565b80601f016020809104026020016040519081016040528092919081815260200182805461104990613678565b80156110965780601f1061106b57610100808354040283529160200191611096565b820191906000526020600020905b81548152906001019060200180831161107957829003601f168201915b505050918352505060018201546020820152600282015460408201526003808301546060830152600483015460809092019160ff16908111156110db576110db613085565b60038111156110ec576110ec613085565b8152505081526020019060010190610fea565b5050505090506000815167ffffffffffffffff81111561112157611121613574565b60405190808252806020026020018201604052801561115457816020015b606081526020019060019003908161113f5790505b5090506000825167ffffffffffffffff81111561117357611173613574565b60405190808252806020026020018201604052801561119c578160200160208202803683370190505b50905060005b8351811015611229578381815181106111bd576111bd6136b2565b6020026020010151600001518382815181106111db576111db6136b2565b60200260200101819052508381815181106111f8576111f86136b2565b602002602001015160200151828281518110611216576112166136b2565b60209081029190910101526001016111a2565b50909590945092505050565b61123f8133612ada565b156112a15760405162461bcd60e51b815260206004820152602c60248201527f596f752061726520616c726561647920612064656c656761746520696e20737060448201526b06563696669632067726f75760a41b60648201526084016105e0565b60008181526002602052604081208054916112bb836136de565b90915550506040805160a081018252338152602080820184815260008385018181528551828152808501875260608601908152878352600280865287842054608088015288845260018087529784208054808a01825590855293869020875160059095020180546001600160a01b0319166001600160a01b03909516949094178455935196830196909655519181019190915592518051929384939092611369926003850192910190612fa3565b50608082015181600401555050806020015181600001516001600160a01b03167fb5977a248b20510642da018e687e9ba90beb459651acf6b82b232aeab1aac86e8360400151846060015185608001516040516113c893929190613899565b60405180910390a35050565b6113dd81612c11565b1561143c5760405162461bcd60e51b815260206004820152602960248201527f43616e27742066696e642067726f757020796f752061726520747279696e6720604482015268746f2072656d6f766560b81b60648201526084016105e0565b33600090815260208181526040808320600101805482518185028101850190935280835261149e9383018282801561149357602002820191906000526020600020905b81548152602001906001019080831161147f575b505050505083612cb5565b3360009081526020819052604090206001015490915081106114f75760405162461bcd60e51b81526020600482015260126024820152711a5b99195e081bdd5d081bd988189bdd5b9960721b60448201526064016105e0565b805b33600090815260208190526040902060019081015461151891906138c2565b8110156115925733600090815260208190526040902060019081019061153f9083906138d5565b8154811061154f5761154f6136b2565b600091825260208083209091015433835290829052604090912060010180548390811061157e5761157e6136b2565b6000918252602090912001556001016114f9565b503360009081526020819052604090206001018054806115b4576115b46138e8565b60019003818190600052602060002001600090559055817f90da14bd9eb8fde3e05a9aafa41174e865f627f0d3fea95c160853f866913cd760405160405180910390a25050565b6000828152600660205260408120546060915b8181116117b6576000858152600660205260409020805485919083908110611638576116386136b2565b906000526020600020906005020160020154036117ae57600084815260096020908152604080832080548251818502810185019093528083529193909284015b828210156117a157838290600052602060002090600702016040518060e00160405290816000820154815260200160018201548152602001600282015481526020016003820180546116c990613678565b80601f01602080910402602001604051908101604052809291908181526020018280546116f590613678565b80156117425780601f1061171757610100808354040283529160200191611742565b820191906000526020600020905b81548152906001019060200180831161172557829003601f168201915b50505091835250506004820154602082015260058201546040820152600682015460609091019060ff16600381111561177d5761177d613085565b600381111561178e5761178e613085565b8152505081526020019060010190611678565b5050505092505050611911565b60010161160e565b50600083815260096020908152604080832080548251818502810185019093528083529193909284015b8282101561190957838290600052602060002090600702016040518060e001604052908160008201548152602001600182015481526020016002820154815260200160038201805461183190613678565b80601f016020809104026020016040519081016040528092919081815260200182805461185d90613678565b80156118aa5780601f1061187f576101008083540402835291602001916118aa565b820191906000526020600020905b81548152906001019060200180831161188d57829003601f168201915b50505091835250506004820154602082015260058201546040820152600682015460609091019060ff1660038111156118e5576118e5613085565b60038111156118f6576118f6613085565b81525050815260200190600101906117e0565b505050509150505b92915050565b60058054906000611927836136de565b9091555050604080516101806020601f8d01819004028201810190925261016081018b81526000928291908e908e9081908501838280828437600092019190915250505090825250604080516020601f8d018190048102820181019092528b815291810191908c908c90819084018382808284376000920182905250938552505050602082018a905260408201899052606082018890526080820187905260a0820186905260c0820185905260055460e083015261010082018190526101209091015261010081015181516040519293507f65d5ac2bf1bca69566bef1affdfca5bb37b9577fc0b3af4c7c4638225e67b39c92611a259291906138fe565b60405180910390a1600554600090815260046020526040902081518291908190611a4f9082613748565b5060208201516001820190611a649082613748565b5060408201518160020155606082015181600301556080820151816004015560a0820151816005015560c0820151816006015560e082015181600701556101008201518160080155610120820151816009015561014082015181600a0160006101000a81548160ff02191690836003811115611ae257611ae2613085565b021790555050505050505050505050505050565b600460205260009081526040902080548190611b1190613678565b80601f0160208091040260200160405190810160405280929190818152602001828054611b3d90613678565b8015611b8a5780601f10611b5f57610100808354040283529160200191611b8a565b820191906000526020600020905b815481529060010190602001808311611b6d57829003601f168201915b505050505090806001018054611b9f90613678565b80601f0160208091040260200160405190810160405280929190818152602001828054611bcb90613678565b8015611c185780601f10611bed57610100808354040283529160200191611c18565b820191906000526020600020905b815481529060010190602001808311611bfb57829003601f168201915b50505060028401546003850154600486015460058701546006880154600789015460088a015460098b0154600a909b0154999a96999598509396509194909391929160ff168b565b60016020528160005260406000208181548110611c7c57600080fd5b600091825260209091206005909102018054600182015460028301546004909301546001600160a01b039092169450925084565b3360009081526020818152604091829020600101805483518184028101840190945280845260609392830182828015611d0857602002820191906000526020600020905b815481526020019060010190808311611cf4575b5050505050905090565b33600090815260036020908152604080832080548251818502810185019093528083528493830182828015611d6657602002820191906000526020600020905b815481526020019060010190808311611d52575b5050505050905060005b8151811015611dab5783828281518110611d8c57611d8c6136b2565b602002602001015103611da3575060019392505050565b600101611d70565b5060009392505050565b60008281526004602052604081206002015490611dd184612b51565b611dda84612d26565b611e355760405162461bcd60e51b815260206004820152602660248201527f5468652075736572206973206e6f742061206d656d626572206f6620706f6c6c60448201526502067726f75760d41b60648201526084016105e0565b611e3e84612dd3565b15611e8b5760405162461bcd60e51b815260206004820152601a60248201527f566f74652068617320616c7265616479206265656e206361737400000000000060448201526064016105e0565b600083118015611eac57506000848152600460205260409020600901548311155b611ef85760405162461bcd60e51b815260206004820152601760248201527f50726f706f73616c20646f6573206e6f7420657869737400000000000000000060448201526064016105e0565b611f0182612e87565b15611f675760405162461bcd60e51b815260206004820152603060248201527f596f7520686176652064656c65676174656420796f757220766f746520696e2060448201526f3a3432903837b636399033b937bab81760811b60648201526084016105e0565b6000848152600660209081526040808320858452600190925282205490915b8181101561200d576000858152600160205260409020805433919083908110611fb157611fb16136b2565b60009182526020909120600590910201546001600160a01b031603612005576000858152600160205260409020805482908110611ff057611ff06136b2565b90600052602060002090600502016002015493505b600101611f86565b5081546000805b82811015612132578785828154811061202f5761202f6136b2565b9060005260206000209060050201600201540361212a576120518660016138d5565b858281548110612063576120636136b2565b9060005260206000209060050201600101600082825461208391906138d5565b9250508190555084818154811061209c5761209c6136b2565b6000918252602080832060016005909302018201548c84526007825260408085208054948501815585529190932090910180546001600160a01b031916339081179091559051919350908a907fa5876137634fc61be6a6224d5f4a2d0926145388c51a133c03cc00f7b66e0e3c906121179086815260200190565b60405180910390a3505050505050505050565b600101612014565b5060405162461bcd60e51b815260206004820152603260248201527f5468657265206973206e6f20737563682070726f706f73616c20666f7220746860448201527119481cdc1958da599a5959081c1bdb1b125960721b60648201526084016105e0565b61219f81612c11565b6121f75760405162461bcd60e51b8152602060048201526024808201527f5065726d697373696f6e20697320616c726561647920676976656e20696e20676044820152630726f75760e41b60648201526084016105e0565b3360009081526020818152604080832060019081018054918201815584529183209091018390555182917f8aa97af2947aac0dc42394954c6dd127eba5cecbc5a03fae31e5cc07d6738fe591a250565b6006602052816000526040600020818154811061226357600080fd5b90600052602060002090600502016000915091505080600001805461228790613678565b80601f01602080910402602001604051908101604052809291908181526020018280546122b390613678565b80156123005780601f106122d557610100808354040283529160200191612300565b820191906000526020600020905b8154815290600101906020018083116122e357829003601f168201915b505050506001830154600284015460038501546004909501549394919390925060ff1685565b600082815260016020526040812054815b8181101561244557600085815260016020526040902080546001600160a01b03861691908390811061236b5761236b6136b2565b60009182526020909120600590910201546001600160a01b03160361243d5760008581526001602052604090208054829081106123aa576123aa6136b2565b6000918252602082206003600590920201015492505b8281101561243b5760008681526001602052604090208054339190849081106123eb576123eb6136b2565b9060005260206000209060050201600301828154811061240d5761240d6136b2565b6000918252602090912001546001600160a01b0316036124335760019350505050611911565b6001016123c0565b505b600101612337565b506000949350505050565b6000805b336000908152602081905260409020600101548110156124b657336000908152602081905260409020600101805484919083908110612495576124956136b2565b9060005260206000200154036124ae5750600192915050565b600101612454565b50600092915050565b6000600160008581526006602052604090206124dc6001866138c2565b815481106124ec576124ec6136b2565b600091825260209091206004600590920201015460ff16600381111561251457612514613085565b149050806125795760405162461bcd60e51b815260206004820152602c60248201527f596f752063616e206e6f742063726561746520612070726564696374696f6e2060448201526b617420746869732074696d6560a01b60648201526084016105e0565b60008481526006602052604081206125926001866138c2565b815481106125a2576125a26136b2565b906000526020600020906005020190506125bc8585612f20565b6125c557600080fd5b6003810180549060006125d7836136de565b90915550506003810154600086815260066020526040902082906125fc6001886138c2565b8154811061260c5761260c6136b2565b60009182526020909120600590910201806126278382613917565b50600182810154828201556002808401549083015560038084015481840155600480850154908401805460ff90921693909260ff1990921691849081111561267157612671613085565b0217905550905050600960008681526020019081526020016000206040518060e001604052808881526020018781526020018381526020018681526020016000815260200160008152602001600260038111156126d0576126d0613085565b9052815460018181018455600093845260209384902083516007909302019182559282015192810192909255604081015160028301556060810151909190600382019061271d9082613748565b506080820151600482015560a0820151600582015560c082015160068201805460ff1916600183600381111561275557612755613085565b021790555050507f611b851c586fb53b9aae86344db19e0e0dd8f785abd9117602396d3bccb37c41818560405161278d9291906138fe565b60405180910390a1505050505050565b6127a78183612326565b6128195760405162461bcd60e51b815260206004820152603e60248201527f596f752068617665206e6f742064656c65676174656420746f2074686520737060448201527f656369666965642064656c656761746520696e20746869732067726f7570000060648201526084016105e0565b600081815260016020526040812054815b81811015612a0057600084815260016020526040902080546001600160a01b03871691908390811061285e5761285e6136b2565b60009182526020909120600590910201546001600160a01b0316036129f857600084815260016020526040902080548290811061289d5761289d6136b2565b6000918252602082206002600590920201018054916128bb836139f2565b909155505060008481526001602052604090208054829081106128e0576128e06136b2565b906000526020600020906005020160020154925060005b6000858152600160205260409020805483908110612917576129176136b2565b9060005260206000209060050201600301805490508110156129f6576000858152600160205260409020805433919084908110612956576129566136b2565b90600052602060002090600502016003018281548110612978576129786136b2565b6000918252602090912001546001600160a01b0316036129ee5760008581526001602052604090208054839081106129b2576129b26136b2565b906000526020600020906005020160030181815481106129d4576129d46136b2565b600091825260209091200180546001600160a01b03191690555b6001016128f7565b505b60010161282a565b505033600090815260036020526040812054905b81811015612a8557336000908152600360205260409020805485919083908110612a4057612a406136b2565b906000526020600020015403612a7d57336000908152600360205260409020805482908110612a7157612a716136b2565b60009182526020822001555b600101612a14565b5082336001600160a01b0316856001600160a01b03167ffe78e1dedca6af8797c8c45500588ea289add8b4b886f1d9b8d3824796274e3685604051612acc91815260200190565b60405180910390a450505050565b600082815260016020526040812054815b8181101561244557600085815260016020526040902080546001600160a01b038616919083908110612b1f57612b1f6136b2565b60009182526020909120600590910201546001600160a01b031603612b4957600192505050611911565b600101612aeb565b600081118015612b6357506005548111155b612ba85760405162461bcd60e51b8152602060048201526016602482015275141bdb1b08125108191bd95cc81b9bdd08195e1a5cdd60521b60448201526064016105e0565b50565b33600090815260208190526040812060010154815b81811015611dab57336000908152602081905260409020600101805485919083908110612bef57612bef6136b2565b906000526020600020015403612c09575060019392505050565b600101612bc0565b3360009081526020818152604080832060010180548251818502810185019093528083528493830182828015612c6657602002820191906000526020600020905b815481526020019060010190808311612c52575b5050505050905060005b8151811015612cab5783828281518110612c8c57612c8c6136b2565b602002602001015103612ca3575060009392505050565b600101612c70565b5060019392505050565b6000805b8351811015612cf15782848281518110612cd557612cd56136b2565b602002602001015103612ce9579050611911565b600101612cb9565b5060405162461bcd60e51b8152602060048201526009602482015268139bdd08119bdd5b9960ba1b60448201526064016105e0565b3360009081526020818152604080832060010180548251818502810185019093528083528493830182828015612d7b57602002820191906000526020600020905b815481526020019060010190808311612d67575b5050505050905060005b8151811015611dab576000848152600460205260409020600201548251839083908110612db457612db46136b2565b602002602001015103612dcb575060019392505050565b600101612d85565b600081815260076020908152604080832080548251818502810185019093528083528493830182828015612e3057602002820191906000526020600020905b81546001600160a01b03168152600190910190602001808311612e12575b5050505050905060005b8151811015611dab57336001600160a01b0316828281518110612e5f57612e5f6136b2565b60200260200101516001600160a01b031603612e7f575060019392505050565b600101612e3a565b33600090815260036020908152604080832080548251818502810185019093528083528493830182828015612edb57602002820191906000526020600020905b815481526020019060010190808311612ec7575b5050505050905060005b8151811015611dab5783828281518110612f0157612f016136b2565b602002602001015103612f18575060019392505050565b600101612ee5565b600082815260066020526040812054815b818111612445576000858152600660205260409020805485919083908110612f5b57612f5b6136b2565b90600052602060002090600502016002015403612f7d57600192505050611911565b600101612f31565b5080546000825590600052602060002090810190612ba89190613008565b828054828255906000526020600020908101928215612ff8579160200282015b82811115612ff857825182546001600160a01b0319166001600160a01b03909116178255602090920191600190910190612fc3565b50613004929150613008565b5090565b5b808211156130045760008155600101613009565b6000806040838503121561303057600080fd5b50508035926020909101359150565b6000815180845260005b8181101561306557602081850181015186830182015201613049565b506000602082860101526020601f19601f83011685010191505092915050565b634e487b7160e01b600052602160045260246000fd5b600481106130b957634e487b7160e01b600052602160045260246000fd5b9052565b87815286602082015285604082015260e0606082015260006130e260e083018761303f565b90508460808301528360a08301526130fd60c083018461309b565b98975050505050505050565b60006020828403121561311b57600080fd5b5035919050565b60008083601f84011261313457600080fd5b50813567ffffffffffffffff81111561314c57600080fd5b60208301915083602082850101111561316457600080fd5b9250929050565b60008060006040848603121561318057600080fd5b83359250602084013567ffffffffffffffff81111561319e57600080fd5b6131aa86828701613122565b9497909650939450505050565b80356001600160a01b03811681146131ce57600080fd5b919050565b600080604083850312156131e657600080fd5b823591506131f6602084016131b7565b90509250929050565b600060208083018184528085518083526040925060408601915060408160051b87010184880160005b8381101561329457603f19898403018552815160a0815181865261324e8287018261303f565b91505088820151898601528782015188860152606080830151818701525060808083015192506132808187018461309b565b509588019593505090860190600101613228565b509098975050505050505050565b60008151808452602080850194506020840160005b838110156132d3578151875295820195908201906001016132b7565b509495945050505050565b6000604082016040835280855180835260608501915060608160051b8601019250602080880160005b8381101561333557605f1988870301855261332386835161303f565b95509382019390820190600101613307565b5050505050828103602084015261334c81856132a2565b95945050505050565b600060208083018184528085518083526040925060408601915060408160051b87010184880160005b8381101561329457603f19898403018552815160e0815185528882015189860152878201518886015260608083015182828801526133be8388018261303f565b92505050608080830151818701525060a080830151818701525060c08083015192506133ec8187018461309b565b50958801959350509086019060010161337e565b6000806000806000806000806000806101008b8d03121561342057600080fd5b8a3567ffffffffffffffff8082111561343857600080fd5b6134448e838f01613122565b909c509a5060208d013591508082111561345d57600080fd5b5061346a8d828e01613122565b9b9e9a9d509b60408101359a60608201359a506080820135995060a0820135985060c0820135975060e09091013595509350505050565b60006101608083526134b58184018f61303f565b905082810360208401526134c9818e61303f565b9150508a60408301528960608301528860808301528760a08301528660c08301528560e0830152846101008301528361012083015261350c61014083018461309b565b9c9b505050505050505050505050565b60208152600061352f60208301846132a2565b9392505050565b60a08152600061354960a083018861303f565b905085602083015284604083015283606083015261356a608083018461309b565b9695505050505050565b634e487b7160e01b600052604160045260246000fd5b60008060006060848603121561359f57600080fd5b8335925060208401359150604084013567ffffffffffffffff808211156135c557600080fd5b818601915086601f8301126135d957600080fd5b8135818111156135eb576135eb613574565b604051601f8201601f19908116603f0116810190838211818310171561361357613613613574565b8160405282815289602084870101111561362c57600080fd5b8260208601602083013760006020848301015280955050505050509250925092565b6000806040838503121561366157600080fd5b61366a836131b7565b946020939093013593505050565b600181811c9082168061368c57607f821691505b6020821081036136ac57634e487b7160e01b600052602260045260246000fd5b50919050565b634e487b7160e01b600052603260045260246000fd5b634e487b7160e01b600052601160045260246000fd5b6000600182016136f0576136f06136c8565b5060010190565b601f821115613743576000816000526020600020601f850160051c810160208610156137205750805b601f850160051c820191505b8181101561373f5782815560010161372c565b5050505b505050565b815167ffffffffffffffff81111561376257613762613574565b613776816137708454613678565b846136f7565b602080601f8311600181146137ab57600084156137935750858301515b600019600386901b1c1916600185901b17855561373f565b600085815260208120601f198616915b828110156137da578886015182559484019460019091019084016137bb565b50858210156137f85787850151600019600388901b60f8161c191681555b5050505050600190811b01905550565b83815260406020820152816040820152818360608301376000818301606090810191909152601f909201601f1916010192915050565b60008151808452602080850194506020840160005b838110156132d35781516001600160a01b031687529582019590820190600101613853565b828152604060208201526000613891604083018461383e565b949350505050565b8381526060602082015260006138b2606083018561383e565b9050826040830152949350505050565b81810381811115611911576119116136c8565b80820180821115611911576119116136c8565b634e487b7160e01b600052603160045260246000fd5b828152604060208201526000613891604083018461303f565b818103613922575050565b61392c8254613678565b67ffffffffffffffff81111561394457613944613574565b613952816137708454613678565b6000601f821160018114613986576000831561396e5750848201545b600019600385901b1c1916600184901b1784556139eb565b600085815260209020601f19841690600086815260209020845b838110156139c057828601548255600195860195909101906020016139a0565b50858310156139de5781850154600019600388901b60f8161c191681555b50505060018360011b0184555b5050505050565b600081613a0157613a016136c8565b50600019019056fea2646970667358221220bfef5820305bd958768ca5354c56f235911464948d8a62117c443fa4dee2fafb64736f6c63430008170033",
    "linkReferences": {}
  },
  "methodIdentifiers": {
    "addProposal(uint256,string)": "051097ef",
    "becomeDelegate(uint256)": "395e0139",
    "checkAllRights()": "ae828f3c",
    "checkRightsInGroup(uint256)": "de219672",
    "createPoll(string,string,uint256,uint256,uint256,uint256,uint256,uint256)": "a00c1f7e",
    "createPrediction(uint256,uint256,string)": "e424938c",
    "delegate(uint256,address)": "08bbb824",
    "getPollResults(uint256)": "33b4097b",
    "getPredictions(uint256,uint256)": "9bec02b1",
    "getProposals(uint256)": "2c72fdfc",
    "giveRightToVote(uint256)": "bc23bd51",
    "groupDelegates(uint256,uint256)": "ac8ec2f9",
    "hasDelegatedInGroup(uint256)": "b0333e0d",
    "hasDelegatedToDelegateInGroup(uint256,address)": "d5887489",
    "pollCount()": "9207891d",
    "polls(uint256)": "ac2f0074",
    "predictions(uint256,uint256)": "025ae4e2",
    "proposals(uint256,uint256)": "c2cfee27",
    "removeDelegation(address,uint256)": "fd6c914e",
    "removeRightToVote(uint256)": "422ee52a",
    "resignAsDelegate(uint256)": "0457bea8",
    "vote(uint256,uint256)": "b384abef"
  },
  "id": 21
}