{"abi":[{"type":"function","name":"checkAllRights","inputs":[],"outputs":[{"name":"groups","type":"uint256[]","internalType":"uint256[]"}],"stateMutability":"view"},{"type":"function","name":"checkRightsInGroup","inputs":[{"name":"_group","type":"uint256","internalType":"uint256"}],"outputs":[{"name":"hasRight","type":"bool","internalType":"bool"}],"stateMutability":"view"},{"type":"function","name":"giveRightToVote","inputs":[{"name":"_group","type":"uint256","internalType":"uint256"}],"outputs":[],"stateMutability":"payable"},{"type":"function","name":"removeRightToVote","inputs":[{"name":"_group","type":"uint256","internalType":"uint256"}],"outputs":[],"stateMutability":"payable"},{"type":"event","name":"PermissionGivenToVote","inputs":[{"name":"_group","type":"uint256","indexed":true,"internalType":"uint256"}],"anonymous":false},{"type":"event","name":"PermissionToVoteRemoved","inputs":[{"name":"_group","type":"uint256","indexed":true,"internalType":"uint256"}],"anonymous":false}],"bytecode":{"object":"0x608060405234801561001057600080fd5b5061068b806100206000396000f3fe60806040526004361061003f5760003560e01c8063422ee52a14610044578063ae828f3c14610059578063bc23bd5114610084578063de21967214610097575b600080fd5b610057610052366004610590565b6100c7565b005b34801561006557600080fd5b5061006e6102f3565b60405161007b91906105a9565b60405180910390f35b610057610092366004610590565b610355565b3480156100a357600080fd5b506100b76100b2366004610590565b610406565b604051901515815260200161007b565b6100d081610475565b156101345760405162461bcd60e51b815260206004820152602960248201527f43616e27742066696e642067726f757020796f752061726520747279696e6720604482015268746f2072656d6f766560b81b60648201526084015b60405180910390fd5b3360009081526020818152604080832060010180548251818502810185019093528083526101969383018282801561018b57602002820191906000526020600020905b815481526020019060010190808311610177575b505050505083610519565b3360009081526020819052604090206001015490915081106101ef5760405162461bcd60e51b81526020600482015260126024820152711a5b99195e081bdd5d081bd988189bdd5b9960721b604482015260640161012b565b805b3360009081526020819052604090206001908101546102109190610603565b81101561028a57336000908152602081905260409020600190810190610237908390610616565b8154811061024757610247610629565b600091825260208083209091015433835290829052604090912060010180548390811061027657610276610629565b6000918252602090912001556001016101f1565b503360009081526020819052604090206001018054806102ac576102ac61063f565b60019003818190600052602060002001600090559055817f90da14bd9eb8fde3e05a9aafa41174e865f627f0d3fea95c160853f866913cd760405160405180910390a25050565b336000908152602081815260409182902060010180548351818402810184019094528084526060939283018282801561034b57602002820191906000526020600020905b815481526020019060010190808311610337575b5050505050905090565b61035e81610475565b6103b65760405162461bcd60e51b8152602060048201526024808201527f5065726d697373696f6e20697320616c726561647920676976656e20696e20676044820152630726f75760e41b606482015260840161012b565b3360009081526020818152604080832060019081018054918201815584529183209091018390555182917f8aa97af2947aac0dc42394954c6dd127eba5cecbc5a03fae31e5cc07d6738fe591a250565b6000805b3360009081526020819052604090206001015481101561046c5733600090815260208190526040902060010180548491908390811061044b5761044b610629565b9060005260206000200154036104645750600192915050565b60010161040a565b50600092915050565b33600090815260208181526040808320600101805482518185028101850190935280835284938301828280156104ca57602002820191906000526020600020905b8154815260200190600101908083116104b6575b5050505050905060005b815181101561050f57838282815181106104f0576104f0610629565b602002602001015103610507575060009392505050565b6001016104d4565b5060019392505050565b6000805b8351811015610555578284828151811061053957610539610629565b60200260200101510361054d57905061058a565b60010161051d565b5060405162461bcd60e51b8152602060048201526009602482015268139bdd08119bdd5b9960ba1b604482015260640161012b565b92915050565b6000602082840312156105a257600080fd5b5035919050565b6020808252825182820181905260009190848201906040850190845b818110156105e1578351835292840192918401916001016105c5565b50909695505050505050565b634e487b7160e01b600052601160045260246000fd5b8181038181111561058a5761058a6105ed565b8082018082111561058a5761058a6105ed565b634e487b7160e01b600052603260045260246000fd5b634e487b7160e01b600052603160045260246000fdfea2646970667358221220cb1fb3ad38ceb06acd0e50d196de202803dc3d3152627487f8b4f69445fd93ef64736f6c63430008170033","linkReferences":{}},"methodIdentifiers":{"checkAllRights()":"ae828f3c","checkRightsInGroup(uint256)":"de219672","giveRightToVote(uint256)":"bc23bd51","removeRightToVote(uint256)":"422ee52a"},"id":23}