{
  "abi": [
    {
      "inputs": [],
      "name": "checkAllRights",
      "outputs": [
        {
          "internalType": "uint256[]",
          "name": "groups",
          "type": "uint256[]"
        }
      ],
      "stateMutability": "view",
      "type": "function"
    },
    {
      "inputs": [
        {
          "internalType": "uint256",
          "name": "_group",
          "type": "uint256"
        }
      ],
      "name": "checkRightsInGroup",
      "outputs": [
        {
          "internalType": "bool",
          "name": "hasRight",
          "type": "bool"
        }
      ],
      "stateMutability": "view",
      "type": "function"
    },
    {
      "inputs": [
        {
          "internalType": "uint256",
          "name": "_group",
          "type": "uint256"
        }
      ],
      "name": "giveRightToVote",
      "outputs": [],
      "stateMutability": "payable",
      "type": "function"
    },
    {
      "inputs": [
        {
          "internalType": "uint256",
          "name": "_group",
          "type": "uint256"
        }
      ],
      "name": "removeRightToVote",
      "outputs": [],
      "stateMutability": "payable",
      "type": "function"
    }
  ],
  "bytecode": {
    "object": "0x608060405234801561001057600080fd5b506104bf806100206000396000f3fe60806040526004361061003f5760003560e01c8063422ee52a14610044578063ae828f3c14610059578063bc23bd5114610084578063de219672146100b5575b600080fd5b6100576100523660046103c4565b6100e5565b005b34801561006557600080fd5b5061006e61027c565b60405161007b91906103dd565b60405180910390f35b6100576100923660046103c4565b336000908152602081815260408220600190810180549182018155835291200155565b3480156100c157600080fd5b506100d56100d03660046103c4565b6102de565b604051901515815260200161007b565b3360009081526020818152604080832060010180548251818502810185019093528083526101479383018282801561013c57602002820191906000526020600020905b815481526020019060010190808311610128575b50505050508361034d565b3360009081526020819052604090206001015490915081106101a55760405162461bcd60e51b81526020600482015260126024820152711a5b99195e081bdd5d081bd988189bdd5b9960721b60448201526064015b60405180910390fd5b805b3360009081526020819052604090206001908101546101c69190610437565b811015610240573360009081526020819052604090206001908101906101ed90839061044a565b815481106101fd576101fd61045d565b600091825260208083209091015433835290829052604090912060010180548390811061022c5761022c61045d565b6000918252602090912001556001016101a7565b5033600090815260208190526040902060010180548061026257610262610473565b600190038181906000526020600020016000905590555050565b33600090815260208181526040918290206001018054835181840281018401909452808452606093928301828280156102d457602002820191906000526020600020905b8154815260200190600101908083116102c0575b5050505050905090565b6000805b33600090815260208190526040902060010154811015610344573360009081526020819052604090206001018054849190839081106103235761032361045d565b90600052602060002001540361033c5750600192915050565b6001016102e2565b50600092915050565b6000805b8351811015610389578284828151811061036d5761036d61045d565b6020026020010151036103815790506103be565b600101610351565b5060405162461bcd60e51b8152602060048201526009602482015268139bdd08119bdd5b9960ba1b604482015260640161019c565b92915050565b6000602082840312156103d657600080fd5b5035919050565b6020808252825182820181905260009190848201906040850190845b81811015610415578351835292840192918401916001016103f9565b50909695505050505050565b634e487b7160e01b600052601160045260246000fd5b818103818111156103be576103be610421565b808201808211156103be576103be610421565b634e487b7160e01b600052603260045260246000fd5b634e487b7160e01b600052603160045260246000fdfea26469706673582212203c089755851cc8688ce7b3dad5f6e83bd6f8bfa429148925b711f746280e5b2764736f6c63430008170033",
    "linkReferences": {}
  },
  "methodIdentifiers": {
    "checkAllRights()": "ae828f3c",
    "checkRightsInGroup(uint256)": "de219672",
    "giveRightToVote(uint256)": "bc23bd51",
    "removeRightToVote(uint256)": "422ee52a"
  },
  "id": 25
}