{
  "abi": [
    {
      "anonymous": false,
      "inputs": [
        {
          "indexed": true,
          "internalType": "uint256",
          "name": "_group",
          "type": "uint256"
        }
      ],
      "name": "PermissionGivenToVote",
      "type": "event"
    },
    {
      "inputs": [
        {
          "internalType": "uint256",
          "name": "_group",
          "type": "uint256"
        }
      ],
      "name": "becomeMemberOfGroup",
      "outputs": [],
      "stateMutability": "payable",
      "type": "function"
    },
    {
      "inputs": [],
      "name": "getGroupsUserIsMemberIn",
      "outputs": [
        {
          "internalType": "uint256[]",
          "name": "groups",
          "type": "uint256[]"
        }
      ],
      "stateMutability": "view",
      "type": "function"
    },
    {
      "inputs": [
        {
          "internalType": "uint256",
          "name": "_group",
          "type": "uint256"
        }
      ],
      "name": "isUserMemberOfGroup",
      "outputs": [
        {
          "internalType": "bool",
          "name": "hasRight",
          "type": "bool"
        }
      ],
      "stateMutability": "view",
      "type": "function"
    },
    {
      "inputs": [
        {
          "internalType": "uint256",
          "name": "_group",
          "type": "uint256"
        }
      ],
      "name": "removeGroupMembership",
      "outputs": [],
      "stateMutability": "payable",
      "type": "function"
    }
  ],
  "bytecode": {
    "object": "0x608060405234801561001057600080fd5b50610585806100206000396000f3fe60806040526004361061003f5760003560e01c80634b30ef34146100445780638ad0871b14610059578063af3157c01461008e578063b28bb34c146100a1575b600080fd5b61005761005236600461048a565b6100c3565b005b34801561006557600080fd5b5061007961007436600461048a565b6102bd565b60405190151581526020015b60405180910390f35b61005761009c36600461048a565b61032c565b3480156100ad57600080fd5b506100b66103e4565b60405161008591906104a3565b6100cc816102bd565b61012b5760405162461bcd60e51b815260206004820152602560248201527f596f7520617265206e6f74206d656d626572206f662073706563696669656420604482015264067726f75760dc1b60648201526084015b60405180910390fd5b33600090815260208181526040808320600101805482518185028101850190935280835261018d9383018282801561018257602002820191906000526020600020905b81548152602001906001019080831161016e575b505050505083610446565b3360009081526020819052604090206001015490915081106101e65760405162461bcd60e51b81526020600482015260126024820152711a5b99195e081bdd5d081bd988189bdd5b9960721b6044820152606401610122565b805b33600090815260208190526040902060019081015461020791906104fd565b8110156102815733600090815260208190526040902060019081019061022e908390610510565b8154811061023e5761023e610523565b600091825260208083209091015433835290829052604090912060010180548390811061026d5761026d610523565b6000918252602090912001556001016101e8565b503360009081526020819052604090206001018054806102a3576102a3610539565b600190038181906000526020600020016000905590555050565b6000805b336000908152602081905260409020600101548110156103235733600090815260208190526040902060010180548491908390811061030257610302610523565b90600052602060002001540361031b5750600192915050565b6001016102c1565b50600092915050565b610335816102bd565b156103945760405162461bcd60e51b815260206004820152602960248201527f596f752061726520616c7265616479206d656d626572206f662073706563696660448201526806965642067726f75760bc1b6064820152608401610122565b3360009081526020818152604080832060019081018054918201815584529183209091018390555182917f8aa97af2947aac0dc42394954c6dd127eba5cecbc5a03fae31e5cc07d6738fe591a250565b336000908152602081815260409182902060010180548351818402810184019094528084526060939283018282801561043c57602002820191906000526020600020905b815481526020019060010190808311610428575b5050505050905090565b6000805b8351811015610482578284828151811061046657610466610523565b60200260200101510361047a579050610484565b60010161044a565b505b92915050565b60006020828403121561049c57600080fd5b5035919050565b6020808252825182820181905260009190848201906040850190845b818110156104db578351835292840192918401916001016104bf565b50909695505050505050565b634e487b7160e01b600052601160045260246000fd5b81810381811115610484576104846104e7565b80820180821115610484576104846104e7565b634e487b7160e01b600052603260045260246000fd5b634e487b7160e01b600052603160045260246000fdfea26469706673582212207e329b3a65d4963f6ac2897ddc25d6a7a3da35cd4226c4442bf3c5b5ae40080164736f6c63430008170033",
    "linkReferences": {}
  },
  "methodIdentifiers": {
    "becomeMemberOfGroup(uint256)": "af3157c0",
    "getGroupsUserIsMemberIn()": "b28bb34c",
    "isUserMemberOfGroup(uint256)": "8ad0871b",
    "removeGroupMembership(uint256)": "4b30ef34"
  },
  "id": 26
}