{
  "abi": [
    {
      "anonymous": false,
      "inputs": [
        {
          "indexed": true,
          "internalType": "address",
          "name": "delegate",
          "type": "address"
        },
        {
          "indexed": true,
          "internalType": "uint256",
          "name": "groupId",
          "type": "uint256"
        }
      ],
      "name": "DelegateResignation",
      "type": "event"
    },
    {
      "anonymous": false,
      "inputs": [
        {
          "indexed": true,
          "internalType": "address",
          "name": "delegate",
          "type": "address"
        },
        {
          "indexed": true,
          "internalType": "uint256",
          "name": "groupId",
          "type": "uint256"
        },
        {
          "indexed": false,
          "internalType": "uint256",
          "name": "delegatedVotes",
          "type": "uint256"
        },
        {
          "indexed": false,
          "internalType": "address[]",
          "name": "delegationsFrom",
          "type": "address[]"
        },
        {
          "indexed": false,
          "internalType": "uint256",
          "name": "groupDelegateId",
          "type": "uint256"
        }
      ],
      "name": "NewDelegate",
      "type": "event"
    },
    {
      "anonymous": false,
      "inputs": [
        {
          "indexed": true,
          "internalType": "address",
          "name": "from",
          "type": "address"
        },
        {
          "indexed": true,
          "internalType": "address",
          "name": "to",
          "type": "address"
        },
        {
          "indexed": true,
          "internalType": "uint256",
          "name": "groupId",
          "type": "uint256"
        },
        {
          "indexed": false,
          "internalType": "uint256",
          "name": "delegatedVotes",
          "type": "uint256"
        },
        {
          "indexed": false,
          "internalType": "address[]",
          "name": "delegationsFrom",
          "type": "address[]"
        }
      ],
      "name": "NewDelegation",
      "type": "event"
    },
    {
      "anonymous": false,
      "inputs": [
        {
          "indexed": true,
          "internalType": "uint256",
          "name": "_group",
          "type": "uint256"
        }
      ],
      "name": "PermissionGivenToVote",
      "type": "event"
    },
    {
      "anonymous": false,
      "inputs": [
        {
          "indexed": false,
          "internalType": "uint256",
          "name": "pollId",
          "type": "uint256"
        },
        {
          "indexed": false,
          "internalType": "string",
          "name": "title",
          "type": "string"
        }
      ],
      "name": "PollCreated",
      "type": "event"
    },
    {
      "anonymous": false,
      "inputs": [
        {
          "indexed": true,
          "internalType": "uint256",
          "name": "predictionId",
          "type": "uint256"
        },
        {
          "indexed": false,
          "internalType": "bool",
          "name": "bet",
          "type": "bool"
        },
        {
          "indexed": false,
          "internalType": "uint256",
          "name": "likelihood",
          "type": "uint256"
        }
      ],
      "name": "PredictionBetCreated",
      "type": "event"
    },
    {
      "anonymous": false,
      "inputs": [
        {
          "indexed": false,
          "internalType": "uint256",
          "name": "predictionId",
          "type": "uint256"
        },
        {
          "indexed": false,
          "internalType": "string",
          "name": "prediction",
          "type": "string"
        }
      ],
      "name": "PredictionCreated",
      "type": "event"
    },
    {
      "anonymous": false,
      "inputs": [
        {
          "indexed": true,
          "internalType": "uint256",
          "name": "pollId",
          "type": "uint256"
        },
        {
          "indexed": false,
          "internalType": "uint256",
          "name": "proposalId",
          "type": "uint256"
        },
        {
          "indexed": false,
          "internalType": "string",
          "name": "description",
          "type": "string"
        }
      ],
      "name": "ProposalAdded",
      "type": "event"
    },
    {
      "anonymous": false,
      "inputs": [
        {
          "indexed": true,
          "internalType": "uint256",
          "name": "pollId",
          "type": "uint256"
        },
        {
          "indexed": true,
          "internalType": "address",
          "name": "voter",
          "type": "address"
        },
        {
          "indexed": false,
          "internalType": "uint256",
          "name": "votesForProposal",
          "type": "uint256"
        }
      ],
      "name": "VoteSubmitted",
      "type": "event"
    },
    {
      "inputs": [
        {
          "internalType": "uint256",
          "name": "_pollId",
          "type": "uint256"
        },
        {
          "internalType": "string",
          "name": "_description",
          "type": "string"
        }
      ],
      "name": "addProposal",
      "outputs": [],
      "stateMutability": "nonpayable",
      "type": "function"
    },
    {
      "inputs": [
        {
          "internalType": "uint256",
          "name": "_groupId",
          "type": "uint256"
        }
      ],
      "name": "becomeDelegate",
      "outputs": [],
      "stateMutability": "nonpayable",
      "type": "function"
    },
    {
      "inputs": [
        {
          "internalType": "uint256",
          "name": "_group",
          "type": "uint256"
        }
      ],
      "name": "becomeMemberOfGroup",
      "outputs": [],
      "stateMutability": "payable",
      "type": "function"
    },
    {
      "inputs": [
        {
          "internalType": "string",
          "name": "_title",
          "type": "string"
        },
        {
          "internalType": "string",
          "name": "_tag",
          "type": "string"
        },
        {
          "internalType": "uint256",
          "name": "_group",
          "type": "uint256"
        },
        {
          "internalType": "uint256",
          "name": "_pollStartDate",
          "type": "uint256"
        },
        {
          "internalType": "uint256",
          "name": "_proposalEndDate",
          "type": "uint256"
        },
        {
          "internalType": "uint256",
          "name": "_votingStartDate",
          "type": "uint256"
        },
        {
          "internalType": "uint256",
          "name": "_delegateEndDate",
          "type": "uint256"
        },
        {
          "internalType": "uint256",
          "name": "_endDate",
          "type": "uint256"
        }
      ],
      "name": "createPoll",
      "outputs": [],
      "stateMutability": "nonpayable",
      "type": "function"
    },
    {
      "inputs": [
        {
          "internalType": "uint256",
          "name": "_pollId",
          "type": "uint256"
        },
        {
          "internalType": "uint256",
          "name": "_proposalId",
          "type": "uint256"
        },
        {
          "internalType": "string",
          "name": "_prediction",
          "type": "string"
        }
      ],
      "name": "createPrediction",
      "outputs": [],
      "stateMutability": "nonpayable",
      "type": "function"
    },
    {
      "inputs": [
        {
          "internalType": "uint256",
          "name": "_groupId",
          "type": "uint256"
        },
        {
          "internalType": "address",
          "name": "_delegateTo",
          "type": "address"
        }
      ],
      "name": "delegate",
      "outputs": [],
      "stateMutability": "nonpayable",
      "type": "function"
    },
    {
      "inputs": [],
      "name": "getGroupsUserIsMemberIn",
      "outputs": [
        {
          "internalType": "uint256[]",
          "name": "groups",
          "type": "uint256[]"
        }
      ],
      "stateMutability": "view",
      "type": "function"
    },
    {
      "inputs": [
        {
          "internalType": "uint256",
          "name": "_pollId",
          "type": "uint256"
        }
      ],
      "name": "getPollResults",
      "outputs": [
        {
          "internalType": "string[]",
          "name": "",
          "type": "string[]"
        },
        {
          "internalType": "uint256[]",
          "name": "",
          "type": "uint256[]"
        }
      ],
      "stateMutability": "view",
      "type": "function"
    },
    {
      "inputs": [
        {
          "internalType": "uint256",
          "name": "_pollId",
          "type": "uint256"
        },
        {
          "internalType": "uint256",
          "name": "_proposalId",
          "type": "uint256"
        },
        {
          "internalType": "uint256",
          "name": "_predictionId",
          "type": "uint256"
        }
      ],
      "name": "getPredictionBets",
      "outputs": [
        {
          "components": [
            {
              "internalType": "uint256",
              "name": "pollId",
              "type": "uint256"
            },
            {
              "internalType": "uint256",
              "name": "proposalId",
              "type": "uint256"
            },
            {
              "internalType": "uint256",
              "name": "predictionId",
              "type": "uint256"
            },
            {
              "internalType": "bool",
              "name": "bet",
              "type": "bool"
            },
            {
              "internalType": "uint256",
              "name": "likelihood",
              "type": "uint256"
            },
            {
              "internalType": "enum PollStructs.PollPhase",
              "name": "phase",
              "type": "uint8"
            }
          ],
          "internalType": "struct PredictionBetStructs.PredictionBet[]",
          "name": "",
          "type": "tuple[]"
        }
      ],
      "stateMutability": "view",
      "type": "function"
    },
    {
      "inputs": [
        {
          "internalType": "uint256",
          "name": "_pollId",
          "type": "uint256"
        },
        {
          "internalType": "uint256",
          "name": "_proposalId",
          "type": "uint256"
        }
      ],
      "name": "getPredictions",
      "outputs": [
        {
          "components": [
            {
              "internalType": "uint256",
              "name": "pollId",
              "type": "uint256"
            },
            {
              "internalType": "uint256",
              "name": "proposalId",
              "type": "uint256"
            },
            {
              "internalType": "uint256",
              "name": "predictionId",
              "type": "uint256"
            },
            {
              "internalType": "string",
              "name": "prediction",
              "type": "string"
            },
            {
              "internalType": "enum PollStructs.PollPhase",
              "name": "phase",
              "type": "uint8"
            }
          ],
          "internalType": "struct PredictionStructs.Prediction[]",
          "name": "",
          "type": "tuple[]"
        }
      ],
      "stateMutability": "view",
      "type": "function"
    },
    {
      "inputs": [
        {
          "internalType": "uint256",
          "name": "_pollId",
          "type": "uint256"
        }
      ],
      "name": "getProposals",
      "outputs": [
        {
          "components": [
            {
              "internalType": "string",
              "name": "description",
              "type": "string"
            },
            {
              "internalType": "uint256",
              "name": "voteCount",
              "type": "uint256"
            },
            {
              "internalType": "uint256",
              "name": "proposalId",
              "type": "uint256"
            },
            {
              "internalType": "uint256",
              "name": "predictionCount",
              "type": "uint256"
            },
            {
              "internalType": "enum PollStructs.PollPhase",
              "name": "phase",
              "type": "uint8"
            }
          ],
          "internalType": "struct ProposalStructs.Proposal[]",
          "name": "",
          "type": "tuple[]"
        }
      ],
      "stateMutability": "view",
      "type": "function"
    },
    {
      "inputs": [
        {
          "internalType": "uint256",
          "name": "",
          "type": "uint256"
        },
        {
          "internalType": "uint256",
          "name": "",
          "type": "uint256"
        }
      ],
      "name": "groupDelegates",
      "outputs": [
        {
          "internalType": "address",
          "name": "delegate",
          "type": "address"
        },
        {
          "internalType": "uint256",
          "name": "groupId",
          "type": "uint256"
        },
        {
          "internalType": "uint256",
          "name": "delegatedVotes",
          "type": "uint256"
        },
        {
          "internalType": "uint256",
          "name": "groupDelegateId",
          "type": "uint256"
        }
      ],
      "stateMutability": "view",
      "type": "function"
    },
    {
      "inputs": [
        {
          "internalType": "uint256",
          "name": "_groupId",
          "type": "uint256"
        }
      ],
      "name": "hasDelegatedInGroup",
      "outputs": [
        {
          "internalType": "bool",
          "name": "",
          "type": "bool"
        }
      ],
      "stateMutability": "view",
      "type": "function"
    },
    {
      "inputs": [
        {
          "internalType": "uint256",
          "name": "_groupId",
          "type": "uint256"
        },
        {
          "internalType": "address",
          "name": "_delegate",
          "type": "address"
        }
      ],
      "name": "hasDelegatedToDelegateInGroup",
      "outputs": [
        {
          "internalType": "bool",
          "name": "",
          "type": "bool"
        }
      ],
      "stateMutability": "view",
      "type": "function"
    },
    {
      "inputs": [
        {
          "internalType": "uint256",
          "name": "_group",
          "type": "uint256"
        }
      ],
      "name": "isUserMemberOfGroup",
      "outputs": [
        {
          "internalType": "bool",
          "name": "hasRight",
          "type": "bool"
        }
      ],
      "stateMutability": "view",
      "type": "function"
    },
    {
      "inputs": [
        {
          "internalType": "uint256",
          "name": "_pollId",
          "type": "uint256"
        },
        {
          "internalType": "uint256",
          "name": "_proposalId",
          "type": "uint256"
        },
        {
          "internalType": "uint256",
          "name": "_predictionId",
          "type": "uint256"
        },
        {
          "internalType": "uint256",
          "name": "_likelihood",
          "type": "uint256"
        },
        {
          "internalType": "bool",
          "name": "_bet",
          "type": "bool"
        }
      ],
      "name": "placePredictionBet",
      "outputs": [],
      "stateMutability": "nonpayable",
      "type": "function"
    },
    {
      "inputs": [],
      "name": "pollCount",
      "outputs": [
        {
          "internalType": "uint256",
          "name": "",
          "type": "uint256"
        }
      ],
      "stateMutability": "view",
      "type": "function"
    },
    {
      "inputs": [
        {
          "internalType": "uint256",
          "name": "",
          "type": "uint256"
        }
      ],
      "name": "polls",
      "outputs": [
        {
          "internalType": "string",
          "name": "title",
          "type": "string"
        },
        {
          "internalType": "string",
          "name": "tag",
          "type": "string"
        },
        {
          "internalType": "uint256",
          "name": "group",
          "type": "uint256"
        },
        {
          "internalType": "uint256",
          "name": "pollStartDate",
          "type": "uint256"
        },
        {
          "internalType": "uint256",
          "name": "proposalEndDate",
          "type": "uint256"
        },
        {
          "internalType": "uint256",
          "name": "votingStartDate",
          "type": "uint256"
        },
        {
          "internalType": "uint256",
          "name": "delegateEndDate",
          "type": "uint256"
        },
        {
          "internalType": "uint256",
          "name": "endDate",
          "type": "uint256"
        },
        {
          "internalType": "uint256",
          "name": "pollId",
          "type": "uint256"
        },
        {
          "internalType": "uint256",
          "name": "proposalCount",
          "type": "uint256"
        },
        {
          "internalType": "enum PollStructs.PollPhase",
          "name": "phase",
          "type": "uint8"
        }
      ],
      "stateMutability": "view",
      "type": "function"
    },
    {
      "inputs": [
        {
          "internalType": "uint256",
          "name": "",
          "type": "uint256"
        },
        {
          "internalType": "uint256",
          "name": "",
          "type": "uint256"
        }
      ],
      "name": "predictionBets",
      "outputs": [
        {
          "internalType": "uint256",
          "name": "pollId",
          "type": "uint256"
        },
        {
          "internalType": "uint256",
          "name": "proposalId",
          "type": "uint256"
        },
        {
          "internalType": "uint256",
          "name": "predictionId",
          "type": "uint256"
        },
        {
          "internalType": "bool",
          "name": "bet",
          "type": "bool"
        },
        {
          "internalType": "uint256",
          "name": "likelihood",
          "type": "uint256"
        },
        {
          "internalType": "enum PollStructs.PollPhase",
          "name": "phase",
          "type": "uint8"
        }
      ],
      "stateMutability": "view",
      "type": "function"
    },
    {
      "inputs": [
        {
          "internalType": "uint256",
          "name": "",
          "type": "uint256"
        },
        {
          "internalType": "uint256",
          "name": "",
          "type": "uint256"
        }
      ],
      "name": "predictions",
      "outputs": [
        {
          "internalType": "uint256",
          "name": "pollId",
          "type": "uint256"
        },
        {
          "internalType": "uint256",
          "name": "proposalId",
          "type": "uint256"
        },
        {
          "internalType": "uint256",
          "name": "predictionId",
          "type": "uint256"
        },
        {
          "internalType": "string",
          "name": "prediction",
          "type": "string"
        },
        {
          "internalType": "enum PollStructs.PollPhase",
          "name": "phase",
          "type": "uint8"
        }
      ],
      "stateMutability": "view",
      "type": "function"
    },
    {
      "inputs": [
        {
          "internalType": "uint256",
          "name": "",
          "type": "uint256"
        },
        {
          "internalType": "uint256",
          "name": "",
          "type": "uint256"
        }
      ],
      "name": "proposals",
      "outputs": [
        {
          "internalType": "string",
          "name": "description",
          "type": "string"
        },
        {
          "internalType": "uint256",
          "name": "voteCount",
          "type": "uint256"
        },
        {
          "internalType": "uint256",
          "name": "proposalId",
          "type": "uint256"
        },
        {
          "internalType": "uint256",
          "name": "predictionCount",
          "type": "uint256"
        },
        {
          "internalType": "enum PollStructs.PollPhase",
          "name": "phase",
          "type": "uint8"
        }
      ],
      "stateMutability": "view",
      "type": "function"
    },
    {
      "inputs": [
        {
          "internalType": "address",
          "name": "_delegate",
          "type": "address"
        },
        {
          "internalType": "uint256",
          "name": "_groupId",
          "type": "uint256"
        }
      ],
      "name": "removeDelegation",
      "outputs": [],
      "stateMutability": "nonpayable",
      "type": "function"
    },
    {
      "inputs": [
        {
          "internalType": "uint256",
          "name": "_group",
          "type": "uint256"
        }
      ],
      "name": "removeGroupMembership",
      "outputs": [],
      "stateMutability": "payable",
      "type": "function"
    },
    {
      "inputs": [
        {
          "internalType": "uint256",
          "name": "_pollId",
          "type": "uint256"
        },
        {
          "internalType": "uint256",
          "name": "_proposalId",
          "type": "uint256"
        },
        {
          "internalType": "uint256",
          "name": "_predictionId",
          "type": "uint256"
        }
      ],
      "name": "requirePollPropPredToExist",
      "outputs": [
        {
          "internalType": "bool",
          "name": "exists",
          "type": "bool"
        }
      ],
      "stateMutability": "view",
      "type": "function"
    },
    {
      "inputs": [
        {
          "internalType": "uint256",
          "name": "_groupId",
          "type": "uint256"
        }
      ],
      "name": "resignAsDelegate",
      "outputs": [],
      "stateMutability": "nonpayable",
      "type": "function"
    },
    {
      "inputs": [
        {
          "internalType": "uint256",
          "name": "_pollId",
          "type": "uint256"
        },
        {
          "internalType": "uint256",
          "name": "_proposalId",
          "type": "uint256"
        }
      ],
      "name": "vote",
      "outputs": [],
      "stateMutability": "nonpayable",
      "type": "function"
    }
  ],
  "bytecode": {
    "object": "0x608060405234801561001057600080fd5b50613eb2806100206000396000f3fe6080604052600436106101815760003560e01c8063a00c1f7e116100d1578063b384abef1161008a578063d588748911610064578063d5887489146104f7578063e424938c14610517578063fad036de14610537578063fd6c914e1461055757600080fd5b8063b384abef14610486578063c20572af146104a6578063c2cfee27146104c657600080fd5b8063a00c1f7e14610390578063ac2f0074146103b0578063ac8ec2f9146103e7578063af3157c014610431578063b0333e0d14610444578063b28bb34c1461046457600080fd5b806333b4097b1161013e5780634b30ef34116101185780634b30ef34146102fc5780638ad0871b1461030f5780639207891d1461033f5780639bec02b11461036357600080fd5b806333b4097b1461027c578063395e0139146102aa57806344f0bb77146102ca57600080fd5b8063025ae4e2146101865780630457bea8146101c0578063051097ef146101e257806308bbb824146102025780632c72fdfc146102225780633128fcb61461024f575b600080fd5b34801561019257600080fd5b506101a66101a1366004613393565b610577565b6040516101b7959493929190613433565b60405180910390f35b3480156101cc57600080fd5b506101e06101db366004613471565b610655565b005b3480156101ee57600080fd5b506101e06101fd3660046134d3565b610917565b34801561020e57600080fd5b506101e061021d36600461353b565b610afc565b34801561022e57600080fd5b5061024261023d366004613471565b610e7c565b6040516101b79190613567565b34801561025b57600080fd5b5061026f61026a36600461360a565b610fd3565b6040516101b79190613636565b34801561028857600080fd5b5061029c610297366004613471565b611246565b6040516101b79291906136f8565b3480156102b657600080fd5b506101e06102c5366004613471565b6114cb565b3480156102d657600080fd5b506102ea6102e5366004613393565b61166a565b6040516101b79695949392919061376f565b6101e061030a366004613471565b6116c5565b34801561031b57600080fd5b5061032f61032a366004613471565b6118ba565b60405190151581526020016101b7565b34801561034b57600080fd5b5061035560055481565b6040519081526020016101b7565b34801561036f57600080fd5b5061038361037e366004613393565b611929565b6040516101b791906137ac565b34801561039c57600080fd5b506101e06103ab366004613841565b611c1d565b3480156103bc57600080fd5b506103d06103cb366004613471565b611dfc565b6040516101b79b9a999897969594939291906138e2565b3480156103f357600080fd5b50610407610402366004613393565b611f66565b604080516001600160a01b03909516855260208501939093529183015260608201526080016101b7565b6101e061043f366004613471565b611fb6565b34801561045057600080fd5b5061032f61045f366004613471565b61206e565b34801561047057600080fd5b50610479612111565b6040516101b7919061395d565b34801561049257600080fd5b506101e06104a1366004613393565b612173565b3480156104b257600080fd5b506101e06104c1366004613970565b6124a5565b3480156104d257600080fd5b506104e66104e1366004613393565b6126ab565b6040516101b79594939291906139c2565b34801561050357600080fd5b5061032f61051236600461353b565b61278a565b34801561052357600080fd5b506101e0610532366004613a0c565b6128b4565b34801561054357600080fd5b5061032f61055236600461360a565b612b4e565b34801561056357600080fd5b506101e0610572366004613ad0565b612c6d565b6007602052816000526040600020818154811061059357600080fd5b9060005260206000209060050201600091509150508060000154908060010154908060020154908060030180546105c990613afa565b80601f01602080910402602001604051908101604052809291908181526020018280546105f590613afa565b80156106425780601f1061061757610100808354040283529160200191610642565b820191906000526020600020905b81548152906001019060200180831161062557829003601f168201915b5050506004909301549192505060ff1685565b80336106618282612f5c565b6000838152600160205260408120546060915b818110156107ba57600086815260016020526040902080543391908390811061069f5761069f613b2e565b60009182526020909120600590910201546001600160a01b0316036107b25760008681526001602052604090208054829081106106de576106de613b2e565b906000526020600020906005020160030180548060200260200160405190810160405280929190818152602001828054801561074357602002820191906000526020600020905b81546001600160a01b03168152600190910190602001808311610725575b5050505050925060016000878152602001908152602001600020818154811061076e5761076e613b2e565b60009182526020822060059091020180546001600160a01b03191681556001810182905560028101829055906107a760038301826132fb565b600482016000905550505b600101610674565b5060005b82518110156108e257600360008483815181106107dd576107dd613b2e565b60200260200101516001600160a01b03166001600160a01b0316815260200190815260200160002080549050915060005b828110156108d957866003600086858151811061082d5761082d613b2e565b60200260200101516001600160a01b03166001600160a01b03168152602001908152602001600020828154811061086657610866613b2e565b9060005260206000200154036108d1576003600085848151811061088c5761088c613b2e565b60200260200101516001600160a01b03166001600160a01b0316815260200190815260200160002081815481106108c5576108c5613b2e565b60009182526020822001555b60010161080e565b506001016107be565b50604051859033907f4a49253305f0d63099f6b61a9d355ce9fd607a6b536918966a9b09cd46b4da8b90600090a35050505050565b8261092181612fd3565b6000806000868152600460205260409020600a015460ff16600381111561094a5761094a6133fb565b149050806109ab5760405162461bcd60e51b8152602060048201526024808201527f596f752063616e206e6f7420706c6163652070726f706f73616c207269676874604482015263206e6f7760e01b60648201526084015b60405180910390fd5b60008581526004602052604081206009018054916109c883613b5a565b90915550506000858152600460209081526040808320600901546006835292819020815160c0601f89018590049094028101840190925260a0820187815290928291908990899081908501838280828437600092018290525093855250505060208201819052604082018590526060820152608001600190528154600181018355600092835260209092208151919260050201908190610a689082613bc3565b5060208201518160010155604082015181600201556060820151816003015560808201518160040160006101000a81548160ff02191690836003811115610ab157610ab16133fb565b02179055505050857fbb878f2a2e892d9a3562cba951f66485d18cf663715d59785bd1eafe3697a8c3828787604051610aec93929190613c83565b60405180910390a2505050505050565b8181610b088282612f5c565b610b11846118ba565b610b7a5760405162461bcd60e51b815260206004820152603460248201527f596f752063616e206f6e6c792064656c656761746520696e2067726f757073206044820152733cb7ba9030b93290309036b2b6b132b91037b31760611b60648201526084016109a2565b610b838461206e565b15610be55760405162461bcd60e51b815260206004820152602c60248201527f596f75206861766520616e206163746976652064656c65676174696f6e20696e60448201526b103a3434b99033b937bab81760a11b60648201526084016109a2565b336001600160a01b03841603610c3d5760405162461bcd60e51b815260206004820181905260248201527f596f752063616e206e6f742064656c656761746520746f20796f757273656c6660448201526064016109a2565b33600090815260036020908152604080832080546001818101835591855283852001889055878452909152812054606090825b81811015610e2457600088815260016020526040902080546001600160a01b038916919083908110610ca457610ca4613b2e565b60009182526020909120600590910201546001600160a01b031603610e1c576000888152600160205260409020805482908110610ce357610ce3613b2e565b600091825260208220600260059092020101805491610d0183613b5a565b90915550506000888152600160205260409020805482908110610d2657610d26613b2e565b600091825260208083206003600590930201919091018054600181810183559184528284200180546001600160a01b031916331790558a8352905260409020805482908110610d7757610d77613b2e565b9060005260206000209060050201600201549350600160008981526020019081526020016000208181548110610daf57610daf613b2e565b9060005260206000209060050201600301805480602002602001604051908101604052809291908181526020018280548015610e1457602002820191906000526020600020905b81546001600160a01b03168152600190910190602001808311610df6575b505050505092505b600101610c70565b5086866001600160a01b0316336001600160a01b03167f666c49d8439089d417a99690492068a6e44b8f5ee919a4e15f72d0185e6034408686604051610e6b929190613cf3565b60405180910390a450505050505050565b606081610e8881612fd3565b600083815260066020908152604080832080548251818502810185019093528083529193909284015b82821015610fc657838290600052602060002090600502016040518060a0016040529081600082018054610ee490613afa565b80601f0160208091040260200160405190810160405280929190818152602001828054610f1090613afa565b8015610f5d5780601f10610f3257610100808354040283529160200191610f5d565b820191906000526020600020905b815481529060010190602001808311610f4057829003601f168201915b505050918352505060018201546020820152600282015460408201526003808301546060830152600483015460809092019160ff1690811115610fa257610fa26133fb565b6003811115610fb357610fb36133fb565b8152505081526020019060010190610eb1565b5050505091505b50919050565b6060838383610fe383838361302d565b600087815260066020526040812054905b81811161116e57600089815260066020526040902080548991908390811061101e5761101e613b2e565b9060005260206000209060050201600201540361116657600088815260076020526040812054905b8181116111635760008a815260076020526040902080548a91908390811061107057611070613b2e565b9060005260206000209060050201600201540361115b57600089815260086020908152604080832080548251818502810185019093528083529193909284015b8282101561114c5760008481526020908190206040805160c081018252600686029092018054835260018101549383019390935260028301549082015260038083015460ff9081161515606084015260048401546080840152600584015492939260a0850192911690811115611128576111286133fb565b6003811115611139576111396133fb565b81525050815260200190600101906110b0565b5050505097505050505061123c565b600101611046565b50505b600101610ff4565b50600086815260086020908152604080832080548251818502810185019093528083529193909284015b828210156112345760008481526020908190206040805160c081018252600686029092018054835260018101549383019390935260028301549082015260038083015460ff9081161515606084015260048401546080840152600584015492939260a0850192911690811115611210576112106133fb565b6003811115611221576112216133fb565b8152505081526020019060010190611198565b505050509450505b5050509392505050565b6060808261125381612fd3565b600084815260066020908152604080832080548251818502810185019093528083529192909190849084015b8282101561139457838290600052602060002090600502016040518060a00160405290816000820180546112b290613afa565b80601f01602080910402602001604051908101604052809291908181526020018280546112de90613afa565b801561132b5780601f106113005761010080835404028352916020019161132b565b820191906000526020600020905b81548152906001019060200180831161130e57829003601f168201915b505050918352505060018201546020820152600282015460408201526003808301546060830152600483015460809092019160ff1690811115611370576113706133fb565b6003811115611381576113816133fb565b815250508152602001906001019061127f565b5050505090506000815167ffffffffffffffff8111156113b6576113b66139f6565b6040519080825280602002602001820160405280156113e957816020015b60608152602001906001900390816113d45790505b5090506000825167ffffffffffffffff811115611408576114086139f6565b604051908082528060200260200182016040528015611431578160200160208202803683370190505b50905060005b83518110156114be5783818151811061145257611452613b2e565b60200260200101516000015183828151811061147057611470613b2e565b602002602001018190525083818151811061148d5761148d613b2e565b6020026020010151602001518282815181106114ab576114ab613b2e565b6020908102919091010152600101611437565b5090945092505050915091565b6114d5813361308f565b156115375760405162461bcd60e51b815260206004820152602c60248201527f596f752061726520616c726561647920612064656c656761746520696e20737060448201526b06563696669632067726f75760a41b60648201526084016109a2565b600081815260026020526040812080549161155183613b5a565b90915550506040805160a081018252338152602080820184815260008385018181528551828152808501875260608601908152878352600280865287842054608088015288845260018087529784208054808a01825590855293869020875160059095020180546001600160a01b0319166001600160a01b039095169490941784559351968301969096555191810191909155925180519293849390926115ff926003850192910190613319565b50608082015181600401555050806020015181600001516001600160a01b03167fb5977a248b20510642da018e687e9ba90beb459651acf6b82b232aeab1aac86e83604001518460600151856080015160405161165e93929190613d14565b60405180910390a35050565b6008602052816000526040600020818154811061168657600080fd5b60009182526020909120600690910201805460018201546002830154600384015460048501546005909501549396509194509260ff9182169290911686565b6116ce816118ba565b6117285760405162461bcd60e51b815260206004820152602560248201527f596f7520617265206e6f74206d656d626572206f662073706563696669656420604482015264067726f75760dc1b60648201526084016109a2565b33600090815260208181526040808320600101805482518185028101850190935280835261178a9383018282801561177f57602002820191906000526020600020905b81548152602001906001019080831161176b575b505050505083613106565b3360009081526020819052604090206001015490915081106117e35760405162461bcd60e51b81526020600482015260126024820152711a5b99195e081bdd5d081bd988189bdd5b9960721b60448201526064016109a2565b805b3360009081526020819052604090206001908101546118049190613d3d565b81101561187e5733600090815260208190526040902060019081019061182b908390613d50565b8154811061183b5761183b613b2e565b600091825260208083209091015433835290829052604090912060010180548390811061186a5761186a613b2e565b6000918252602090912001556001016117e5565b503360009081526020819052604090206001018054806118a0576118a0613d63565b600190038181906000526020600020016000905590555050565b6000805b33600090815260208190526040902060010154811015611920573360009081526020819052604090206001018054849190839081106118ff576118ff613b2e565b9060005260206000200154036119185750600192915050565b6001016118be565b50600092915050565b6000828152600660205260408120546060915b818111611ad057600085815260066020526040902080548591908390811061196657611966613b2e565b90600052602060002090600502016002015403611ac857600084815260076020908152604080832080548251818502810185019093528083529193909284015b82821015611abb57838290600052602060002090600502016040518060a00160405290816000820154815260200160018201548152602001600282015481526020016003820180546119f790613afa565b80601f0160208091040260200160405190810160405280929190818152602001828054611a2390613afa565b8015611a705780601f10611a4557610100808354040283529160200191611a70565b820191906000526020600020905b815481529060010190602001808311611a5357829003601f168201915b5050509183525050600482015460209091019060ff166003811115611a9757611a976133fb565b6003811115611aa857611aa86133fb565b81525050815260200190600101906119a6565b5050505092505050611c17565b60010161193c565b50600083815260076020908152604080832080548251818502810185019093528083529193909284015b82821015611c0f57838290600052602060002090600502016040518060a0016040529081600082015481526020016001820154815260200160028201548152602001600382018054611b4b90613afa565b80601f0160208091040260200160405190810160405280929190818152602001828054611b7790613afa565b8015611bc45780601f10611b9957610100808354040283529160200191611bc4565b820191906000526020600020905b815481529060010190602001808311611ba757829003601f168201915b5050509183525050600482015460209091019060ff166003811115611beb57611beb6133fb565b6003811115611bfc57611bfc6133fb565b8152505081526020019060010190611afa565b505050509150505b92915050565b60058054906000611c2d83613b5a565b9091555050604080516101806020601f8d01819004028201810190925261016081018b81526000928291908e908e9081908501838280828437600092019190915250505090825250604080516020601f8d018190048102820181019092528b815291810191908c908c90819084018382808284376000920182905250938552505050602082018a905260408201899052606082018890526080820187905260a0820186905260c0820185905260055460e083015261010082018190526101209091015261010081015181516040519293507f65d5ac2bf1bca69566bef1affdfca5bb37b9577fc0b3af4c7c4638225e67b39c92611d2b929190613d79565b60405180910390a1600554600090815260046020526040902081518291908190611d559082613bc3565b5060208201516001820190611d6a9082613bc3565b5060408201518160020155606082015181600301556080820151816004015560a0820151816005015560c0820151816006015560e082015181600701556101008201518160080155610120820151816009015561014082015181600a0160006101000a81548160ff02191690836003811115611de857611de86133fb565b021790555050505050505050505050505050565b600460205260009081526040902080548190611e1790613afa565b80601f0160208091040260200160405190810160405280929190818152602001828054611e4390613afa565b8015611e905780601f10611e6557610100808354040283529160200191611e90565b820191906000526020600020905b815481529060010190602001808311611e7357829003601f168201915b505050505090806001018054611ea590613afa565b80601f0160208091040260200160405190810160405280929190818152602001828054611ed190613afa565b8015611f1e5780601f10611ef357610100808354040283529160200191611f1e565b820191906000526020600020905b815481529060010190602001808311611f0157829003601f168201915b50505060028401546003850154600486015460058701546006880154600789015460088a015460098b0154600a909b0154999a96999598509396509194909391929160ff168b565b60016020528160005260406000208181548110611f8257600080fd5b600091825260209091206005909102018054600182015460028301546004909301546001600160a01b039092169450925084565b611fbf816118ba565b1561201e5760405162461bcd60e51b815260206004820152602960248201527f596f752061726520616c7265616479206d656d626572206f662073706563696660448201526806965642067726f75760bc1b60648201526084016109a2565b3360009081526020818152604080832060019081018054918201815584529183209091018390555182917f8aa97af2947aac0dc42394954c6dd127eba5cecbc5a03fae31e5cc07d6738fe591a250565b336000908152600360209081526040808320805482518185028101850190935280835284938301828280156120c257602002820191906000526020600020905b8154815260200190600101908083116120ae575b5050505050905060005b815181101561210757838282815181106120e8576120e8613b2e565b6020026020010151036120ff575060019392505050565b6001016120cc565b5060009392505050565b336000908152602081815260409182902060010180548351818402810184019094528084526060939283018282801561216957602002820191906000526020600020905b815481526020019060010190808311612155575b5050505050905090565b8161217d81612fd3565b60008381526004602052604081206002015490612199856118ba565b6121f45760405162461bcd60e51b815260206004820152602660248201527f5468652075736572206973206e6f742061206d656d626572206f6620706f6c6c60448201526502067726f75760d41b60648201526084016109a2565b6121fd85613149565b1561224a5760405162461bcd60e51b815260206004820152601a60248201527f566f74652068617320616c7265616479206265656e206361737400000000000060448201526064016109a2565b61225485856131fd565b61225d57600080fd5b61226682613262565b156122cc5760405162461bcd60e51b815260206004820152603060248201527f596f7520686176652064656c65676174656420796f757220766f746520696e2060448201526f3a3432903837b636399033b937bab81760811b60648201526084016109a2565b6000858152600660209081526040808320858452600190925282205490915b8181101561237257600085815260016020526040902080543391908390811061231657612316613b2e565b60009182526020909120600590910201546001600160a01b03160361236a57600085815260016020526040902080548290811061235557612355613b2e565b90600052602060002090600502016002015493505b6001016122eb565b5081546000805b82811015612498578885828154811061239457612394613b2e565b90600052602060002090600502016002015403612490576123b6866001613d50565b8582815481106123c8576123c8613b2e565b906000526020600020906005020160010160008282546123e89190613d50565b9250508190555084818154811061240157612401613b2e565b6000918252602080832060016005909302018201548d84526009825260408085208054948501815585529190932090910180546001600160a01b031916339081179091559051919350908b907fa5876137634fc61be6a6224d5f4a2d0926145388c51a133c03cc00f7b66e0e3c9061247c9086815260200190565b60405180910390a350505050505050505050565b600101612379565b505050505050505b505050565b8484846124b383838361302d565b600085116125035760405162461bcd60e51b815260206004820152601f60248201527f56616c7565206e6565647320746f20626520686967686572207468616e20300060448201526064016109a2565b60006002600089815260076020526040902061252060018a613d3d565b8154811061253057612530613b2e565b600091825260209091206004600590920201015460ff166003811115612558576125586133fb565b149050806125b45760405162461bcd60e51b8152602060048201526024808201527f596f752063616e206e6f7420706c61636520612062657420617420746869732060448201526374696d6560e01b60648201526084016109a2565b6000878152600860209081526040808320815160c0810183528d81528084018d81529281018c81528a151560608301908152608083018d8152600360a08501818152865460018082018955978b529890992085516006909902019788559551878601559151600287015551858501805491151560ff19928316179055905160048601559451600585018054929691949093929091169190849081111561265c5761265c6133fb565b021790555050604080518715158152602081018990528992507fefbf97b6b2de004cd3e8b4af6b867bf332de6df57c2447d9b5c5a00abaec5d1f910160405180910390a2505050505050505050565b600660205281600052604060002081815481106126c757600080fd5b9060005260206000209060050201600091509150508060000180546126eb90613afa565b80601f016020809104026020016040519081016040528092919081815260200182805461271790613afa565b80156127645780601f1061273957610100808354040283529160200191612764565b820191906000526020600020905b81548152906001019060200180831161274757829003601f168201915b505050506001830154600284015460038501546004909501549394919390925060ff1685565b600082815260016020526040812054815b818110156128a957600085815260016020526040902080546001600160a01b0386169190839081106127cf576127cf613b2e565b60009182526020909120600590910201546001600160a01b0316036128a157600085815260016020526040902080548290811061280e5761280e613b2e565b6000918252602082206003600590920201015492505b8281101561289f57600086815260016020526040902080543391908490811061284f5761284f613b2e565b9060005260206000209060050201600301828154811061287157612871613b2e565b6000918252602090912001546001600160a01b0316036128975760019350505050611c17565b600101612824565b505b60010161279b565b506000949350505050565b6000600160008581526006602052604090206128d1600186613d3d565b815481106128e1576128e1613b2e565b600091825260209091206004600590920201015460ff166003811115612909576129096133fb565b1490508061296e5760405162461bcd60e51b815260206004820152602c60248201527f596f752063616e206e6f742063726561746520612070726564696374696f6e2060448201526b617420746869732074696d6560a01b60648201526084016109a2565b6000848152600660205260408120612987600186613d3d565b8154811061299757612997613b2e565b906000526020600020906005020190506129b185856131fd565b6129ba57600080fd5b6003810180549060006129cc83613b5a565b90915550506003810154600086815260066020526040902082906129f1600188613d3d565b81548110612a0157612a01613b2e565b6000918252602090912060059091020180612a1c8382613d92565b50600182810154828201556002808401549083015560038084015481840155600480850154908401805460ff90921693909260ff19909216918490811115612a6657612a666133fb565b021790555050506000858152600760209081526040808320815160a0810183528a81528084018a8152928101868152606082018a8152600260808401819052845460018082018755958952969097208351600590970201958655935192850192909255905193830193909355516003820190612ae29082613bc3565b50608082015160048201805460ff19166001836003811115612b0657612b066133fb565b021790555050507f611b851c586fb53b9aae86344db19e0e0dd8f785abd9117602396d3bccb37c418185604051612b3e929190613d79565b60405180910390a1505050505050565b600554600090815b818111612c5f57600081815260046020526040902060080154869003612c5757600086815260066020526040812054905b81811015612c4a576000888152600660205260409020805488919083908110612bb257612bb2613b2e565b90600052602060002090600502016002015403612c4257600087815260076020526040812054905b81811015612c33576000898152600760205260409020805489919083908110612c0557612c05613b2e565b90600052602060002090600502016002015403612c2b5760019650505050505050612c66565b600101612bda565b50600095505050505050612c66565b600101612b87565b5060009350505050612c66565b600101612b56565b5060009150505b9392505050565b612c77818361278a565b612ce95760405162461bcd60e51b815260206004820152603e60248201527f596f752068617665206e6f742064656c65676174656420746f2074686520737060448201527f656369666965642064656c656761746520696e20746869732067726f7570000060648201526084016109a2565b600081815260016020526040812054815b81811015612ed057600084815260016020526040902080546001600160a01b038716919083908110612d2e57612d2e613b2e565b60009182526020909120600590910201546001600160a01b031603612ec8576000848152600160205260409020805482908110612d6d57612d6d613b2e565b600091825260208220600260059092020101805491612d8b83613e65565b90915550506000848152600160205260409020805482908110612db057612db0613b2e565b906000526020600020906005020160020154925060005b6000858152600160205260409020805483908110612de757612de7613b2e565b906000526020600020906005020160030180549050811015612ec6576000858152600160205260409020805433919084908110612e2657612e26613b2e565b90600052602060002090600502016003018281548110612e4857612e48613b2e565b6000918252602090912001546001600160a01b031603612ebe576000858152600160205260409020805483908110612e8257612e82613b2e565b90600052602060002090600502016003018181548110612ea457612ea4613b2e565b600091825260209091200180546001600160a01b03191690555b600101612dc7565b505b600101612cfa565b505033600090815260036020526040812054905b81811015612f5557336000908152600360205260409020805485919083908110612f1057612f10613b2e565b906000526020600020015403612f4d57336000908152600360205260409020805482908110612f4157612f41613b2e565b60009182526020822001555b600101612ee4565b5050505050565b612f66828261308f565b612fcf5760405162461bcd60e51b815260206004820152603460248201527f5468652061646472657373206973206e6f7420612064656c656761746520696e604482015273020746865207370656369666965642067726f75760641b60648201526084016109a2565b5050565b600081118015612fe557506005548111155b61302a5760405162461bcd60e51b8152602060048201526016602482015275141bdb1b08125108191bd95cc81b9bdd08195e1a5cdd60521b60448201526064016109a2565b50565b613038838383612b4e565b6124a05760405162461bcd60e51b815260206004820152602260248201527f57726f6e6720706f6c6c2c2070726f706f73616c206f7220707265646963746960448201526137b760f11b60648201526084016109a2565b600082815260016020526040812054815b818110156128a957600085815260016020526040902080546001600160a01b0386169190839081106130d4576130d4613b2e565b60009182526020909120600590910201546001600160a01b0316036130fe57600192505050611c17565b6001016130a0565b6000805b8351811015613142578284828151811061312657613126613b2e565b60200260200101510361313a579050611c17565b60010161310a565b5092915050565b6000818152600960209081526040808320805482518185028101850190935280835284938301828280156131a657602002820191906000526020600020905b81546001600160a01b03168152600190910190602001808311613188575b5050505050905060005b815181101561210757336001600160a01b03168282815181106131d5576131d5613b2e565b60200260200101516001600160a01b0316036131f5575060019392505050565b6001016131b0565b600082815260066020526040812054815b8181116128a957600085815260066020526040902080548591908390811061323857613238613b2e565b9060005260206000209060050201600201540361325a57600192505050611c17565b60010161320e565b336000908152600360209081526040808320805482518185028101850190935280835284938301828280156132b657602002820191906000526020600020905b8154815260200190600101908083116132a2575b5050505050905060005b815181101561210757838282815181106132dc576132dc613b2e565b6020026020010151036132f3575060019392505050565b6001016132c0565b508054600082559060005260206000209081019061302a919061337e565b82805482825590600052602060002090810192821561336e579160200282015b8281111561336e57825182546001600160a01b0319166001600160a01b03909116178255602090920191600190910190613339565b5061337a92915061337e565b5090565b5b8082111561337a576000815560010161337f565b600080604083850312156133a657600080fd5b50508035926020909101359150565b6000815180845260005b818110156133db576020818501810151868301820152016133bf565b506000602082860101526020601f19601f83011685010191505092915050565b634e487b7160e01b600052602160045260246000fd5b6004811061342f57634e487b7160e01b600052602160045260246000fd5b9052565b85815284602082015283604082015260a06060820152600061345860a08301856133b5565b90506134676080830184613411565b9695505050505050565b60006020828403121561348357600080fd5b5035919050565b60008083601f84011261349c57600080fd5b50813567ffffffffffffffff8111156134b457600080fd5b6020830191508360208285010111156134cc57600080fd5b9250929050565b6000806000604084860312156134e857600080fd5b83359250602084013567ffffffffffffffff81111561350657600080fd5b6135128682870161348a565b9497909650939450505050565b80356001600160a01b038116811461353657600080fd5b919050565b6000806040838503121561354e57600080fd5b8235915061355e6020840161351f565b90509250929050565b600060208083018184528085518083526040925060408601915060408160051b87010184880160005b838110156135fc57603f19898403018552815160a081518186526135b6828701826133b5565b91505088820151898601528782015188860152606080830151818701525060808083015192506135e881870184613411565b509588019593505090860190600101613590565b509098975050505050505050565b60008060006060848603121561361f57600080fd5b505081359360208301359350604090920135919050565b602080825282518282018190526000919060409081850190868401855b828110156136af57815180518552868101518786015285810151868601526060808201511515908601526080808201519086015260a0908101519061369a81870183613411565b505060c0939093019290850190600101613653565b5091979650505050505050565b60008151808452602080850194506020840160005b838110156136ed578151875295820195908201906001016136d1565b509495945050505050565b6000604082016040835280855180835260608501915060608160051b8601019250602080880160005b8381101561374f57605f1988870301855261373d8683516133b5565b95509382019390820190600101613721565b5050505050828103602084015261376681856136bc565b95945050505050565b600060c08201905087825286602083015285604083015284151560608301528360808301526137a160a0830184613411565b979650505050505050565b600060208083018184528085518083526040925060408601915060408160051b87010184880160005b838110156135fc57603f19898403018552815160a081518552888201518986015287820151888601526060808301518282880152613815838801826133b5565b92505050608080830151925061382d81870184613411565b5095880195935050908601906001016137d5565b6000806000806000806000806000806101008b8d03121561386157600080fd5b8a3567ffffffffffffffff8082111561387957600080fd5b6138858e838f0161348a565b909c509a5060208d013591508082111561389e57600080fd5b506138ab8d828e0161348a565b9b9e9a9d509b60408101359a60608201359a506080820135995060a0820135985060c0820135975060e09091013595509350505050565b60006101608083526138f68184018f6133b5565b9050828103602084015261390a818e6133b5565b9150508a60408301528960608301528860808301528760a08301528660c08301528560e0830152846101008301528361012083015261394d610140830184613411565b9c9b505050505050505050505050565b602081526000612c6660208301846136bc565b600080600080600060a0868803121561398857600080fd5b85359450602086013593506040860135925060608601359150608086013580151581146139b457600080fd5b809150509295509295909350565b60a0815260006139d560a08301886133b5565b90508560208301528460408301528360608301526134676080830184613411565b634e487b7160e01b600052604160045260246000fd5b600080600060608486031215613a2157600080fd5b8335925060208401359150604084013567ffffffffffffffff80821115613a4757600080fd5b818601915086601f830112613a5b57600080fd5b813581811115613a6d57613a6d6139f6565b604051601f8201601f19908116603f01168101908382118183101715613a9557613a956139f6565b81604052828152896020848701011115613aae57600080fd5b8260208601602083013760006020848301015280955050505050509250925092565b60008060408385031215613ae357600080fd5b613aec8361351f565b946020939093013593505050565b600181811c90821680613b0e57607f821691505b602082108103610fcd57634e487b7160e01b600052602260045260246000fd5b634e487b7160e01b600052603260045260246000fd5b634e487b7160e01b600052601160045260246000fd5b600060018201613b6c57613b6c613b44565b5060010190565b601f8211156124a0576000816000526020600020601f850160051c81016020861015613b9c5750805b601f850160051c820191505b81811015613bbb57828155600101613ba8565b505050505050565b815167ffffffffffffffff811115613bdd57613bdd6139f6565b613bf181613beb8454613afa565b84613b73565b602080601f831160018114613c265760008415613c0e5750858301515b600019600386901b1c1916600185901b178555613bbb565b600085815260208120601f198616915b82811015613c5557888601518255948401946001909101908401613c36565b5085821015613c735787850151600019600388901b60f8161c191681555b5050505050600190811b01905550565b83815260406020820152816040820152818360608301376000818301606090810191909152601f909201601f1916010192915050565b60008151808452602080850194506020840160005b838110156136ed5781516001600160a01b031687529582019590820190600101613cce565b828152604060208201526000613d0c6040830184613cb9565b949350505050565b838152606060208201526000613d2d6060830185613cb9565b9050826040830152949350505050565b81810381811115611c1757611c17613b44565b80820180821115611c1757611c17613b44565b634e487b7160e01b600052603160045260246000fd5b828152604060208201526000613d0c60408301846133b5565b818103613d9d575050565b613da78254613afa565b67ffffffffffffffff811115613dbf57613dbf6139f6565b613dcd81613beb8454613afa565b6000601f821160018114613e015760008315613de95750848201545b600019600385901b1c1916600184901b178455612f55565b600085815260209020601f19841690600086815260209020845b83811015613e3b5782860154825560019586019590910190602001613e1b565b5085831015613c735793015460001960f8600387901b161c19169092555050600190811b01905550565b600081613e7457613e74613b44565b50600019019056fea2646970667358221220c996506b41548f9f526276ae18d17dcd52d8705c0e0204cb759e0da3841e21c864736f6c63430008170033",
    "linkReferences": {}
  },
  "methodIdentifiers": {
    "addProposal(uint256,string)": "051097ef",
    "becomeDelegate(uint256)": "395e0139",
    "becomeMemberOfGroup(uint256)": "af3157c0",
    "createPoll(string,string,uint256,uint256,uint256,uint256,uint256,uint256)": "a00c1f7e",
    "createPrediction(uint256,uint256,string)": "e424938c",
    "delegate(uint256,address)": "08bbb824",
    "getGroupsUserIsMemberIn()": "b28bb34c",
    "getPollResults(uint256)": "33b4097b",
    "getPredictionBets(uint256,uint256,uint256)": "3128fcb6",
    "getPredictions(uint256,uint256)": "9bec02b1",
    "getProposals(uint256)": "2c72fdfc",
    "groupDelegates(uint256,uint256)": "ac8ec2f9",
    "hasDelegatedInGroup(uint256)": "b0333e0d",
    "hasDelegatedToDelegateInGroup(uint256,address)": "d5887489",
    "isUserMemberOfGroup(uint256)": "8ad0871b",
    "placePredictionBet(uint256,uint256,uint256,uint256,bool)": "c20572af",
    "pollCount()": "9207891d",
    "polls(uint256)": "ac2f0074",
    "predictionBets(uint256,uint256)": "44f0bb77",
    "predictions(uint256,uint256)": "025ae4e2",
    "proposals(uint256,uint256)": "c2cfee27",
    "removeDelegation(address,uint256)": "fd6c914e",
    "removeGroupMembership(uint256)": "4b30ef34",
    "requirePollPropPredToExist(uint256,uint256,uint256)": "fad036de",
    "resignAsDelegate(uint256)": "0457bea8",
    "vote(uint256,uint256)": "b384abef"
  },
  "id": 20
}