{"abi":[{"type":"function","name":"addProposal","inputs":[{"name":"_pollId","type":"uint256","internalType":"uint256"},{"name":"_description","type":"string","internalType":"string"}],"outputs":[],"stateMutability":"nonpayable"},{"type":"function","name":"addressIsDelegate","inputs":[{"name":"_groupId","type":"uint256","internalType":"uint256"},{"name":"_potentialDelegate","type":"address","internalType":"address"}],"outputs":[{"name":"isDelegate","type":"bool","internalType":"bool"}],"stateMutability":"view"},{"type":"function","name":"becomeDelegate","inputs":[{"name":"_groupId","type":"uint256","internalType":"uint256"}],"outputs":[],"stateMutability":"nonpayable"},{"type":"function","name":"checkAllRights","inputs":[],"outputs":[{"name":"groups","type":"uint256[]","internalType":"uint256[]"}],"stateMutability":"view"},{"type":"function","name":"checkRightsInGroup","inputs":[{"name":"_group","type":"uint256","internalType":"uint256"}],"outputs":[{"name":"hasRight","type":"bool","internalType":"bool"}],"stateMutability":"view"},{"type":"function","name":"createPoll","inputs":[{"name":"_title","type":"string","internalType":"string"},{"name":"_tag","type":"string","internalType":"string"},{"name":"_group","type":"uint256","internalType":"uint256"},{"name":"_pollStartDate","type":"uint256","internalType":"uint256"},{"name":"_proposalEndDate","type":"uint256","internalType":"uint256"},{"name":"_votingStartDate","type":"uint256","internalType":"uint256"},{"name":"_delegateEndDate","type":"uint256","internalType":"uint256"},{"name":"_endDate","type":"uint256","internalType":"uint256"}],"outputs":[],"stateMutability":"nonpayable"},{"type":"function","name":"delegate","inputs":[{"name":"_groupId","type":"uint256","internalType":"uint256"},{"name":"_delegateTo","type":"address","internalType":"address"}],"outputs":[],"stateMutability":"nonpayable"},{"type":"function","name":"getPollResults","inputs":[{"name":"_pollId","type":"uint256","internalType":"uint256"}],"outputs":[{"name":"","type":"string[]","internalType":"string[]"},{"name":"","type":"uint256[]","internalType":"uint256[]"}],"stateMutability":"view"},{"type":"function","name":"getProposalCount","inputs":[{"name":"_pollId","type":"uint256","internalType":"uint256"}],"outputs":[{"name":"","type":"uint256","internalType":"uint256"}],"stateMutability":"view"},{"type":"function","name":"getProposals","inputs":[{"name":"_pollId","type":"uint256","internalType":"uint256"}],"outputs":[{"name":"","type":"tuple[]","internalType":"struct Polls.Proposal[]","components":[{"name":"description","type":"string","internalType":"string"},{"name":"voteCount","type":"uint256","internalType":"uint256"},{"name":"proposalId","type":"uint256","internalType":"uint256"},{"name":"predictionCount","type":"uint256","internalType":"uint256"},{"name":"phase","type":"uint8","internalType":"enum Polls.PollPhase"}]}],"stateMutability":"view"},{"type":"function","name":"giveRightToVote","inputs":[{"name":"_group","type":"uint256","internalType":"uint256"}],"outputs":[],"stateMutability":"payable"},{"type":"function","name":"groupDelegates","inputs":[{"name":"","type":"uint256","internalType":"uint256"},{"name":"","type":"uint256","internalType":"uint256"}],"outputs":[{"name":"delegate","type":"address","internalType":"address"},{"name":"groupId","type":"uint256","internalType":"uint256"},{"name":"delegatedVotes","type":"uint256","internalType":"uint256"},{"name":"groupDelegateId","type":"uint256","internalType":"uint256"}],"stateMutability":"view"},{"type":"function","name":"hasDelegatedInGroup","inputs":[{"name":"_groupId","type":"uint256","internalType":"uint256"}],"outputs":[{"name":"","type":"bool","internalType":"bool"}],"stateMutability":"view"},{"type":"function","name":"hasDelegatedToDelegateInGroup","inputs":[{"name":"_groupId","type":"uint256","internalType":"uint256"},{"name":"_delegate","type":"address","internalType":"address"}],"outputs":[{"name":"","type":"bool","internalType":"bool"}],"stateMutability":"view"},{"type":"function","name":"pollCount","inputs":[],"outputs":[{"name":"","type":"uint256","internalType":"uint256"}],"stateMutability":"view"},{"type":"function","name":"polls","inputs":[{"name":"","type":"uint256","internalType":"uint256"}],"outputs":[{"name":"title","type":"string","internalType":"string"},{"name":"tag","type":"string","internalType":"string"},{"name":"group","type":"uint256","internalType":"uint256"},{"name":"pollStartDate","type":"uint256","internalType":"uint256"},{"name":"proposalEndDate","type":"uint256","internalType":"uint256"},{"name":"votingStartDate","type":"uint256","internalType":"uint256"},{"name":"delegateEndDate","type":"uint256","internalType":"uint256"},{"name":"endDate","type":"uint256","internalType":"uint256"},{"name":"pollId","type":"uint256","internalType":"uint256"},{"name":"proposalCount","type":"uint256","internalType":"uint256"},{"name":"phase","type":"uint8","internalType":"enum Polls.PollPhase"}],"stateMutability":"view"},{"type":"function","name":"proposals","inputs":[{"name":"","type":"uint256","internalType":"uint256"},{"name":"","type":"uint256","internalType":"uint256"}],"outputs":[{"name":"description","type":"string","internalType":"string"},{"name":"voteCount","type":"uint256","internalType":"uint256"},{"name":"proposalId","type":"uint256","internalType":"uint256"},{"name":"predictionCount","type":"uint256","internalType":"uint256"},{"name":"phase","type":"uint8","internalType":"enum Polls.PollPhase"}],"stateMutability":"view"},{"type":"function","name":"removeDelegation","inputs":[{"name":"_delegate","type":"address","internalType":"address"},{"name":"_groupId","type":"uint256","internalType":"uint256"}],"outputs":[],"stateMutability":"nonpayable"},{"type":"function","name":"removeRightToVote","inputs":[{"name":"_group","type":"uint256","internalType":"uint256"}],"outputs":[],"stateMutability":"payable"},{"type":"function","name":"resignAsDelegate","inputs":[{"name":"_groupId","type":"uint256","internalType":"uint256"}],"outputs":[],"stateMutability":"nonpayable"},{"type":"function","name":"vote","inputs":[{"name":"_pollId","type":"uint256","internalType":"uint256"},{"name":"_proposalId","type":"uint256","internalType":"uint256"}],"outputs":[],"stateMutability":"nonpayable"},{"type":"event","name":"DelegateResignation","inputs":[{"name":"delegate","type":"address","indexed":true,"internalType":"address"},{"name":"groupId","type":"uint256","indexed":true,"internalType":"uint256"}],"anonymous":false},{"type":"event","name":"DelegationRemoved","inputs":[{"name":"from","type":"address","indexed":true,"internalType":"address"},{"name":"by","type":"address","indexed":true,"internalType":"address"},{"name":"groupId","type":"uint256","indexed":true,"internalType":"uint256"},{"name":"delegatedVotes","type":"uint256","indexed":false,"internalType":"uint256"}],"anonymous":false},{"type":"event","name":"NewDelegate","inputs":[{"name":"delegate","type":"address","indexed":true,"internalType":"address"},{"name":"groupId","type":"uint256","indexed":true,"internalType":"uint256"},{"name":"delegatedVotes","type":"uint256","indexed":false,"internalType":"uint256"},{"name":"delegationsFrom","type":"address[]","indexed":false,"internalType":"address[]"},{"name":"groupDelegateId","type":"uint256","indexed":false,"internalType":"uint256"}],"anonymous":false},{"type":"event","name":"NewDelegation","inputs":[{"name":"from","type":"address","indexed":true,"internalType":"address"},{"name":"to","type":"address","indexed":true,"internalType":"address"},{"name":"groupId","type":"uint256","indexed":true,"internalType":"uint256"},{"name":"delegatedVotes","type":"uint256","indexed":false,"internalType":"uint256"},{"name":"delegationsFrom","type":"address[]","indexed":false,"internalType":"address[]"}],"anonymous":false},{"type":"event","name":"PermissionGivenToVote","inputs":[{"name":"_group","type":"uint256","indexed":true,"internalType":"uint256"}],"anonymous":false},{"type":"event","name":"PermissionToVoteRemoved","inputs":[{"name":"_group","type":"uint256","indexed":true,"internalType":"uint256"}],"anonymous":false},{"type":"event","name":"PollCreated","inputs":[{"name":"pollId","type":"uint256","indexed":false,"internalType":"uint256"},{"name":"title","type":"string","indexed":false,"internalType":"string"}],"anonymous":false},{"type":"event","name":"ProposalAdded","inputs":[{"name":"pollId","type":"uint256","indexed":true,"internalType":"uint256"},{"name":"proposalId","type":"uint256","indexed":false,"internalType":"uint256"},{"name":"description","type":"string","indexed":false,"internalType":"string"}],"anonymous":false},{"type":"event","name":"VoteSubmitted","inputs":[{"name":"pollId","type":"uint256","indexed":true,"internalType":"uint256"},{"name":"voter","type":"address","indexed":true,"internalType":"address"},{"name":"votesForProposal","type":"uint256","indexed":false,"internalType":"uint256"}],"anonymous":false}],"bytecode":{"object":"0x608060405234801561001057600080fd5b50613021806100206000396000f3fe60806040526004361061012a5760003560e01c8063a00c1f7e116100ab578063b384abef1161006f578063b384abef1461038b578063bc23bd51146103ab578063c2cfee27146103be578063d5887489146103ef578063de2196721461040f578063fd6c914e1461042f57600080fd5b8063a00c1f7e146102a8578063ac2f0074146102c8578063ac8ec2f9146102ff578063ae828f3c14610349578063b0333e0d1461036b57600080fd5b806333b4097b116100f257806333b4097b146101f3578063395e013914610221578063422ee52a146102415780634936c0f6146102545780639207891d1461029257600080fd5b80630457bea81461012f578063051097ef1461015157806308bbb8241461017157806321bcf082146101915780632c72fdfc146101c6575b600080fd5b34801561013b57600080fd5b5061014f61014a366004612895565b61044f565b005b34801561015d57600080fd5b5061014f61016c3660046128f7565b610770565b34801561017d57600080fd5b5061014f61018c36600461295f565b61094e565b34801561019d57600080fd5b506101b16101ac36600461295f565b610d33565b60405190151581526020015b60405180910390f35b3480156101d257600080fd5b506101e66101e1366004612895565b610db7565b6040516101bd9190612a09565b3480156101ff57600080fd5b5061021361020e366004612895565b610f0b565b6040516101bd929190612ae8565b34801561022d57600080fd5b5061014f61023c366004612895565b61118e565b61014f61024f366004612895565b61132d565b34801561026057600080fd5b5061028461026f366004612895565b60009081526004602052604090206009015490565b6040519081526020016101bd565b34801561029e57600080fd5b5061028460055481565b3480156102b457600080fd5b5061014f6102c3366004612b5f565b611554565b3480156102d457600080fd5b506102e86102e3366004612895565b611733565b6040516101bd9b9a99989796959493929190612c00565b34801561030b57600080fd5b5061031f61031a366004612c7b565b61189d565b604080516001600160a01b03909516855260208501939093529183015260608201526080016101bd565b34801561035557600080fd5b5061035e6118ed565b6040516101bd9190612c9d565b34801561037757600080fd5b506101b1610386366004612895565b61194f565b34801561039757600080fd5b5061014f6103a6366004612c7b565b6119f2565b61014f6103b9366004612895565b611dd3565b3480156103ca57600080fd5b506103de6103d9366004612c7b565b611e84565b6040516101bd959493929190612cb7565b3480156103fb57600080fd5b506101b161040a36600461295f565b611f63565b34801561041b57600080fd5b506101b161042a366004612895565b612082565b34801561043b57600080fd5b5061014f61044a366004612cf5565b6120f1565b606061045b8233610d33565b6104be5760405162461bcd60e51b815260206004820152602960248201527f596f7520617265206e6f7420612064656c656761746520696e2072657175657360448201526807465642067726f75760bc1b60648201526084015b60405180910390fd5b600082815260016020526040812054905b818110156106155760008481526001602052604090208054339190839081106104fa576104fa612d1f565b60009182526020909120600590910201546001600160a01b03160361060d57600084815260016020526040902080548290811061053957610539612d1f565b906000526020600020906005020160030180548060200260200160405190810160405280929190818152602001828054801561059e57602002820191906000526020600020905b81546001600160a01b03168152600190910190602001808311610580575b505050505092506001600085815260200190815260200160002081815481106105c9576105c9612d1f565b60009182526020822060059091020180546001600160a01b031916815560018101829055600281018290559061060260038301826127fd565b600482016000905550505b6001016104cf565b5060005b825181101561073d576003600084838151811061063857610638612d1f565b60200260200101516001600160a01b03166001600160a01b0316815260200190815260200160002080549050915060005b8281101561073457846003600086858151811061068857610688612d1f565b60200260200101516001600160a01b03166001600160a01b0316815260200190815260200160002082815481106106c1576106c1612d1f565b90600052602060002001540361072c57600360008584815181106106e7576106e7612d1f565b60200260200101516001600160a01b03166001600160a01b03168152602001908152602001600020818154811061072057610720612d1f565b60009182526020822001555b600101610669565b50600101610619565b50604051839033907f4a49253305f0d63099f6b61a9d355ce9fd607a6b536918966a9b09cd46b4da8b90600090a3505050565b6000806000858152600460205260409020600a015460ff166003811115610799576107996129d1565b149050806107f55760405162461bcd60e51b8152602060048201526024808201527f596f752063616e206e6f7420706c6163652070726f706f73616c207269676874604482015263206e6f7760e01b60648201526084016104b5565b6107fe8461242e565b600084815260046020526040812060090180549161081b83612d4b565b90915550506000848152600460209081526040808320600901546006835292819020815160c0601f88018590049094028101840190925260a08201868152909282919088908890819085018382808284376000920182905250938552505050602082018190526040820185905260608201526080016001905281546001810183556000928352602090922081519192600502019081906108bb9082612e05565b5060208201518160010155604082015181600201556060820151816003015560808201518160040160006101000a81548160ff02191690836003811115610904576109046129d1565b02179055505050847fbb878f2a2e892d9a3562cba951f66485d18cf663715d59785bd1eafe3697a8c382868660405161093f93929190612ec5565b60405180910390a25050505050565b6109588282610d33565b6109c15760405162461bcd60e51b815260206004820152603460248201527f5468652061646472657373206973206e6f7420612064656c656761746520696e604482015273020746865207370656369666965642067726f75760641b60648201526084016104b5565b6109ca82612488565b610a335760405162461bcd60e51b815260206004820152603460248201527f596f752063616e206f6e6c792064656c656761746520696e2067726f757073206044820152733cb7ba9030b93290309036b2b6b132b91037b31760611b60648201526084016104b5565b610a3c8261194f565b15610a9e5760405162461bcd60e51b815260206004820152602c60248201527f596f75206861766520616e206163746976652064656c65676174696f6e20696e60448201526b103a3434b99033b937bab81760a11b60648201526084016104b5565b336001600160a01b03821603610af65760405162461bcd60e51b815260206004820181905260248201527f596f752063616e206e6f742064656c656761746520746f20796f757273656c6660448201526064016104b5565b33600090815260036020908152604080832080546001818101835591855283852001869055858452909152812054606090825b81811015610cdd57600086815260016020526040902080546001600160a01b038716919083908110610b5d57610b5d612d1f565b60009182526020909120600590910201546001600160a01b031603610cd5576000868152600160205260409020805482908110610b9c57610b9c612d1f565b600091825260208220600260059092020101805491610bba83612d4b565b90915550506000868152600160205260409020805482908110610bdf57610bdf612d1f565b600091825260208083206003600590930201919091018054600181810183559184528284200180546001600160a01b03191633179055888352905260409020805482908110610c3057610c30612d1f565b9060005260206000209060050201600201549350600160008781526020019081526020016000208181548110610c6857610c68612d1f565b9060005260206000209060050201600301805480602002602001604051908101604052809291908181526020018280548015610ccd57602002820191906000526020600020905b81546001600160a01b03168152600190910190602001808311610caf575b505050505092505b600101610b29565b5084846001600160a01b0316336001600160a01b03167f666c49d8439089d417a99690492068a6e44b8f5ee919a4e15f72d0185e6034408686604051610d24929190612f35565b60405180910390a45050505050565b600082815260016020526040812054815b81811015610daa57600085815260016020526040902080546001600160a01b038616919083908110610d7857610d78612d1f565b60009182526020909120600590910201546001600160a01b031603610da257600192505050610db1565b600101610d44565b5060009150505b92915050565b6060610dc28261242e565b600082815260066020908152604080832080548251818502810185019093528083529193909284015b82821015610f0057838290600052602060002090600502016040518060a0016040529081600082018054610e1e90612d7a565b80601f0160208091040260200160405190810160405280929190818152602001828054610e4a90612d7a565b8015610e975780601f10610e6c57610100808354040283529160200191610e97565b820191906000526020600020905b815481529060010190602001808311610e7a57829003601f168201915b505050918352505060018201546020820152600282015460408201526003808301546060830152600483015460809092019160ff1690811115610edc57610edc6129d1565b6003811115610eed57610eed6129d1565b8152505081526020019060010190610deb565b505050509050919050565b606080610f178361242e565b600083815260066020908152604080832080548251818502810185019093528083529192909190849084015b8282101561105857838290600052602060002090600502016040518060a0016040529081600082018054610f7690612d7a565b80601f0160208091040260200160405190810160405280929190818152602001828054610fa290612d7a565b8015610fef5780601f10610fc457610100808354040283529160200191610fef565b820191906000526020600020905b815481529060010190602001808311610fd257829003601f168201915b505050918352505060018201546020820152600282015460408201526003808301546060830152600483015460809092019160ff1690811115611034576110346129d1565b6003811115611045576110456129d1565b8152505081526020019060010190610f43565b5050505090506000815167ffffffffffffffff81111561107a5761107a612d64565b6040519080825280602002602001820160405280156110ad57816020015b60608152602001906001900390816110985790505b5090506000825167ffffffffffffffff8111156110cc576110cc612d64565b6040519080825280602002602001820160405280156110f5578160200160208202803683370190505b50905060005b83518110156111825783818151811061111657611116612d1f565b60200260200101516000015183828151811061113457611134612d1f565b602002602001018190525083818151811061115157611151612d1f565b60200260200101516020015182828151811061116f5761116f612d1f565b60209081029190910101526001016110fb565b50909590945092505050565b6111988133610d33565b156111fa5760405162461bcd60e51b815260206004820152602c60248201527f596f752061726520616c726561647920612064656c656761746520696e20737060448201526b06563696669632067726f75760a41b60648201526084016104b5565b600081815260026020526040812080549161121483612d4b565b90915550506040805160a081018252338152602080820184815260008385018181528551828152808501875260608601908152878352600280865287842054608088015288845260018087529784208054808a01825590855293869020875160059095020180546001600160a01b0319166001600160a01b039095169490941784559351968301969096555191810191909155925180519293849390926112c292600385019291019061281b565b50608082015181600401555050806020015181600001516001600160a01b03167fb5977a248b20510642da018e687e9ba90beb459651acf6b82b232aeab1aac86e83604001518460600151856080015160405161132193929190612f56565b60405180910390a35050565b611336816124ee565b156113955760405162461bcd60e51b815260206004820152602960248201527f43616e27742066696e642067726f757020796f752061726520747279696e6720604482015268746f2072656d6f766560b81b60648201526084016104b5565b3360009081526020818152604080832060010180548251818502810185019093528083526113f7938301828280156113ec57602002820191906000526020600020905b8154815260200190600101908083116113d8575b505050505083612592565b3360009081526020819052604090206001015490915081106114505760405162461bcd60e51b81526020600482015260126024820152711a5b99195e081bdd5d081bd988189bdd5b9960721b60448201526064016104b5565b805b3360009081526020819052604090206001908101546114719190612f7f565b8110156114eb57336000908152602081905260409020600190810190611498908390612f92565b815481106114a8576114a8612d1f565b60009182526020808320909101543383529082905260409091206001018054839081106114d7576114d7612d1f565b600091825260209091200155600101611452565b5033600090815260208190526040902060010180548061150d5761150d612fa5565b60019003818190600052602060002001600090559055817f90da14bd9eb8fde3e05a9aafa41174e865f627f0d3fea95c160853f866913cd760405160405180910390a25050565b6005805490600061156483612d4b565b9091555050604080516101806020601f8d01819004028201810190925261016081018b81526000928291908e908e9081908501838280828437600092019190915250505090825250604080516020601f8d018190048102820181019092528b815291810191908c908c90819084018382808284376000920182905250938552505050602082018a905260408201899052606082018890526080820187905260a0820186905260c0820185905260055460e083015261010082018190526101209091015261010081015181516040519293507f65d5ac2bf1bca69566bef1affdfca5bb37b9577fc0b3af4c7c4638225e67b39c92611662929190612fbb565b60405180910390a160055460009081526004602052604090208151829190819061168c9082612e05565b50602082015160018201906116a19082612e05565b5060408201518160020155606082015181600301556080820151816004015560a0820151816005015560c0820151816006015560e082015181600701556101008201518160080155610120820151816009015561014082015181600a0160006101000a81548160ff0219169083600381111561171f5761171f6129d1565b021790555050505050505050505050505050565b60046020526000908152604090208054819061174e90612d7a565b80601f016020809104026020016040519081016040528092919081815260200182805461177a90612d7a565b80156117c75780601f1061179c576101008083540402835291602001916117c7565b820191906000526020600020905b8154815290600101906020018083116117aa57829003601f168201915b5050505050908060010180546117dc90612d7a565b80601f016020809104026020016040519081016040528092919081815260200182805461180890612d7a565b80156118555780601f1061182a57610100808354040283529160200191611855565b820191906000526020600020905b81548152906001019060200180831161183857829003601f168201915b50505060028401546003850154600486015460058701546006880154600789015460088a015460098b0154600a909b0154999a96999598509396509194909391929160ff168b565b600160205281600052604060002081815481106118b957600080fd5b600091825260209091206005909102018054600182015460028301546004909301546001600160a01b039092169450925084565b336000908152602081815260409182902060010180548351818402810184019094528084526060939283018282801561194557602002820191906000526020600020905b815481526020019060010190808311611931575b5050505050905090565b336000908152600360209081526040808320805482518185028101850190935280835284938301828280156119a357602002820191906000526020600020905b81548152602001906001019080831161198f575b5050505050905060005b81518110156119e857838282815181106119c9576119c9612d1f565b6020026020010151036119e0575060019392505050565b6001016119ad565b5060009392505050565b60008281526004602052604081206002015490611a0e8461242e565b611a1784612603565b611a725760405162461bcd60e51b815260206004820152602660248201527f5468652075736572206973206e6f742061206d656d626572206f6620706f6c6c60448201526502067726f75760d41b60648201526084016104b5565b611a7b846126b0565b15611ac85760405162461bcd60e51b815260206004820152601a60248201527f566f74652068617320616c7265616479206265656e206361737400000000000060448201526064016104b5565b600083118015611ae957506000848152600460205260409020600901548311155b611b355760405162461bcd60e51b815260206004820152601760248201527f50726f706f73616c20646f6573206e6f7420657869737400000000000000000060448201526064016104b5565b611b3e82612764565b15611ba45760405162461bcd60e51b815260206004820152603060248201527f596f7520686176652064656c65676174656420796f757220766f746520696e2060448201526f3a3432903837b636399033b937bab81760811b60648201526084016104b5565b6000848152600660209081526040808320858452600190925282205490915b81811015611c4a576000858152600160205260409020805433919083908110611bee57611bee612d1f565b60009182526020909120600590910201546001600160a01b031603611c42576000858152600160205260409020805482908110611c2d57611c2d612d1f565b90600052602060002090600502016002015493505b600101611bc3565b5081546000805b82811015611d6f5787858281548110611c6c57611c6c612d1f565b90600052602060002090600502016002015403611d6757611c8e866001612f92565b858281548110611ca057611ca0612d1f565b90600052602060002090600502016001016000828254611cc09190612f92565b92505081905550848181548110611cd957611cd9612d1f565b6000918252602080832060016005909302018201548c84526007825260408085208054948501815585529190932090910180546001600160a01b031916339081179091559051919350908a907fa5876137634fc61be6a6224d5f4a2d0926145388c51a133c03cc00f7b66e0e3c90611d549086815260200190565b60405180910390a3505050505050505050565b600101611c51565b5060405162461bcd60e51b815260206004820152603260248201527f5468657265206973206e6f20737563682070726f706f73616c20666f7220746860448201527119481cdc1958da599a5959081c1bdb1b125960721b60648201526084016104b5565b611ddc816124ee565b611e345760405162461bcd60e51b8152602060048201526024808201527f5065726d697373696f6e20697320616c726561647920676976656e20696e20676044820152630726f75760e41b60648201526084016104b5565b3360009081526020818152604080832060019081018054918201815584529183209091018390555182917f8aa97af2947aac0dc42394954c6dd127eba5cecbc5a03fae31e5cc07d6738fe591a250565b60066020528160005260406000208181548110611ea057600080fd5b906000526020600020906005020160009150915050806000018054611ec490612d7a565b80601f0160208091040260200160405190810160405280929190818152602001828054611ef090612d7a565b8015611f3d5780601f10611f1257610100808354040283529160200191611f3d565b820191906000526020600020905b815481529060010190602001808311611f2057829003601f168201915b505050506001830154600284015460038501546004909501549394919390925060ff1685565b600082815260016020526040812054815b81811015610daa57600085815260016020526040902080546001600160a01b038616919083908110611fa857611fa8612d1f565b60009182526020909120600590910201546001600160a01b03160361207a576000858152600160205260409020805482908110611fe757611fe7612d1f565b6000918252602082206003600590920201015492505b8281101561207857600086815260016020526040902080543391908490811061202857612028612d1f565b9060005260206000209060050201600301828154811061204a5761204a612d1f565b6000918252602090912001546001600160a01b0316036120705760019350505050610db1565b600101611ffd565b505b600101611f74565b6000805b336000908152602081905260409020600101548110156120e8573360009081526020819052604090206001018054849190839081106120c7576120c7612d1f565b9060005260206000200154036120e05750600192915050565b600101612086565b50600092915050565b6120fb8183611f63565b61216d5760405162461bcd60e51b815260206004820152603e60248201527f596f752068617665206e6f742064656c65676174656420746f2074686520737060448201527f656369666965642064656c656761746520696e20746869732067726f7570000060648201526084016104b5565b600081815260016020526040812054815b8181101561235457600084815260016020526040902080546001600160a01b0387169190839081106121b2576121b2612d1f565b60009182526020909120600590910201546001600160a01b03160361234c5760008481526001602052604090208054829081106121f1576121f1612d1f565b60009182526020822060026005909202010180549161220f83612fd4565b9091555050600084815260016020526040902080548290811061223457612234612d1f565b906000526020600020906005020160020154925060005b600085815260016020526040902080548390811061226b5761226b612d1f565b90600052602060002090600502016003018054905081101561234a5760008581526001602052604090208054339190849081106122aa576122aa612d1f565b906000526020600020906005020160030182815481106122cc576122cc612d1f565b6000918252602090912001546001600160a01b03160361234257600085815260016020526040902080548390811061230657612306612d1f565b9060005260206000209060050201600301818154811061232857612328612d1f565b600091825260209091200180546001600160a01b03191690555b60010161224b565b505b60010161217e565b505033600090815260036020526040812054905b818110156123d95733600090815260036020526040902080548591908390811061239457612394612d1f565b9060005260206000200154036123d1573360009081526003602052604090208054829081106123c5576123c5612d1f565b60009182526020822001555b600101612368565b5082336001600160a01b0316856001600160a01b03167ffe78e1dedca6af8797c8c45500588ea289add8b4b886f1d9b8d3824796274e368560405161242091815260200190565b60405180910390a450505050565b60008111801561244057506005548111155b6124855760405162461bcd60e51b8152602060048201526016602482015275141bdb1b08125108191bd95cc81b9bdd08195e1a5cdd60521b60448201526064016104b5565b50565b33600090815260208190526040812060010154815b818110156119e8573360009081526020819052604090206001018054859190839081106124cc576124cc612d1f565b9060005260206000200154036124e6575060019392505050565b60010161249d565b336000908152602081815260408083206001018054825181850281018501909352808352849383018282801561254357602002820191906000526020600020905b81548152602001906001019080831161252f575b5050505050905060005b8151811015612588578382828151811061256957612569612d1f565b602002602001015103612580575060009392505050565b60010161254d565b5060019392505050565b6000805b83518110156125ce57828482815181106125b2576125b2612d1f565b6020026020010151036125c6579050610db1565b600101612596565b5060405162461bcd60e51b8152602060048201526009602482015268139bdd08119bdd5b9960ba1b60448201526064016104b5565b336000908152602081815260408083206001018054825181850281018501909352808352849383018282801561265857602002820191906000526020600020905b815481526020019060010190808311612644575b5050505050905060005b81518110156119e857600084815260046020526040902060020154825183908390811061269157612691612d1f565b6020026020010151036126a8575060019392505050565b600101612662565b60008181526007602090815260408083208054825181850281018501909352808352849383018282801561270d57602002820191906000526020600020905b81546001600160a01b031681526001909101906020018083116126ef575b5050505050905060005b81518110156119e857336001600160a01b031682828151811061273c5761273c612d1f565b60200260200101516001600160a01b03160361275c575060019392505050565b600101612717565b336000908152600360209081526040808320805482518185028101850190935280835284938301828280156127b857602002820191906000526020600020905b8154815260200190600101908083116127a4575b5050505050905060005b81518110156119e857838282815181106127de576127de612d1f565b6020026020010151036127f5575060019392505050565b6001016127c2565b50805460008255906000526020600020908101906124859190612880565b828054828255906000526020600020908101928215612870579160200282015b8281111561287057825182546001600160a01b0319166001600160a01b0390911617825560209092019160019091019061283b565b5061287c929150612880565b5090565b5b8082111561287c5760008155600101612881565b6000602082840312156128a757600080fd5b5035919050565b60008083601f8401126128c057600080fd5b50813567ffffffffffffffff8111156128d857600080fd5b6020830191508360208285010111156128f057600080fd5b9250929050565b60008060006040848603121561290c57600080fd5b83359250602084013567ffffffffffffffff81111561292a57600080fd5b612936868287016128ae565b9497909650939450505050565b80356001600160a01b038116811461295a57600080fd5b919050565b6000806040838503121561297257600080fd5b8235915061298260208401612943565b90509250929050565b6000815180845260005b818110156129b157602081850181015186830182015201612995565b506000602082860101526020601f19601f83011685010191505092915050565b634e487b7160e01b600052602160045260246000fd5b60048110612a0557634e487b7160e01b600052602160045260246000fd5b9052565b600060208083018184528085518083526040925060408601915060408160051b87010184880160005b83811015612a9e57603f19898403018552815160a08151818652612a588287018261298b565b9150508882015189860152878201518886015260608083015181870152506080808301519250612a8a818701846129e7565b509588019593505090860190600101612a32565b509098975050505050505050565b60008151808452602080850194506020840160005b83811015612add57815187529582019590820190600101612ac1565b509495945050505050565b6000604082016040835280855180835260608501915060608160051b8601019250602080880160005b83811015612b3f57605f19888703018552612b2d86835161298b565b95509382019390820190600101612b11565b50505050508281036020840152612b568185612aac565b95945050505050565b6000806000806000806000806000806101008b8d031215612b7f57600080fd5b8a3567ffffffffffffffff80821115612b9757600080fd5b612ba38e838f016128ae565b909c509a5060208d0135915080821115612bbc57600080fd5b50612bc98d828e016128ae565b9b9e9a9d509b60408101359a60608201359a506080820135995060a0820135985060c0820135975060e09091013595509350505050565b6000610160808352612c148184018f61298b565b90508281036020840152612c28818e61298b565b9150508a60408301528960608301528860808301528760a08301528660c08301528560e08301528461010083015283610120830152612c6b6101408301846129e7565b9c9b505050505050505050505050565b60008060408385031215612c8e57600080fd5b50508035926020909101359150565b602081526000612cb06020830184612aac565b9392505050565b60a081526000612cca60a083018861298b565b9050856020830152846040830152836060830152612ceb60808301846129e7565b9695505050505050565b60008060408385031215612d0857600080fd5b612d1183612943565b946020939093013593505050565b634e487b7160e01b600052603260045260246000fd5b634e487b7160e01b600052601160045260246000fd5b600060018201612d5d57612d5d612d35565b5060010190565b634e487b7160e01b600052604160045260246000fd5b600181811c90821680612d8e57607f821691505b602082108103612dae57634e487b7160e01b600052602260045260246000fd5b50919050565b601f821115612e00576000816000526020600020601f850160051c81016020861015612ddd5750805b601f850160051c820191505b81811015612dfc57828155600101612de9565b5050505b505050565b815167ffffffffffffffff811115612e1f57612e1f612d64565b612e3381612e2d8454612d7a565b84612db4565b602080601f831160018114612e685760008415612e505750858301515b600019600386901b1c1916600185901b178555612dfc565b600085815260208120601f198616915b82811015612e9757888601518255948401946001909101908401612e78565b5085821015612eb55787850151600019600388901b60f8161c191681555b5050505050600190811b01905550565b83815260406020820152816040820152818360608301376000818301606090810191909152601f909201601f1916010192915050565b60008151808452602080850194506020840160005b83811015612add5781516001600160a01b031687529582019590820190600101612f10565b828152604060208201526000612f4e6040830184612efb565b949350505050565b838152606060208201526000612f6f6060830185612efb565b9050826040830152949350505050565b81810381811115610db157610db1612d35565b80820180821115610db157610db1612d35565b634e487b7160e01b600052603160045260246000fd5b828152604060208201526000612f4e604083018461298b565b600081612fe357612fe3612d35565b50600019019056fea264697066735822122090933b69e69ddb4b318eed15c1d08385815d099bf5f4f91358f79e6848bb49c164736f6c63430008170033","linkReferences":{}},"methodIdentifiers":{"addProposal(uint256,string)":"051097ef","addressIsDelegate(uint256,address)":"21bcf082","becomeDelegate(uint256)":"395e0139","checkAllRights()":"ae828f3c","checkRightsInGroup(uint256)":"de219672","createPoll(string,string,uint256,uint256,uint256,uint256,uint256,uint256)":"a00c1f7e","delegate(uint256,address)":"08bbb824","getPollResults(uint256)":"33b4097b","getProposalCount(uint256)":"4936c0f6","getProposals(uint256)":"2c72fdfc","giveRightToVote(uint256)":"bc23bd51","groupDelegates(uint256,uint256)":"ac8ec2f9","hasDelegatedInGroup(uint256)":"b0333e0d","hasDelegatedToDelegateInGroup(uint256,address)":"d5887489","pollCount()":"9207891d","polls(uint256)":"ac2f0074","proposals(uint256,uint256)":"c2cfee27","removeDelegation(address,uint256)":"fd6c914e","removeRightToVote(uint256)":"422ee52a","resignAsDelegate(uint256)":"0457bea8","vote(uint256,uint256)":"b384abef"},"id":19}