{"abi":[{"type":"function","name":"addProposal","inputs":[{"name":"_pollId","type":"uint256","internalType":"uint256"},{"name":"_description","type":"string","internalType":"string"}],"outputs":[],"stateMutability":"nonpayable"},{"type":"function","name":"becomeDelegate","inputs":[{"name":"_groupId","type":"uint256","internalType":"uint256"}],"outputs":[],"stateMutability":"nonpayable"},{"type":"function","name":"becomeMemberOfGroup","inputs":[{"name":"_group","type":"uint256","internalType":"uint256"}],"outputs":[],"stateMutability":"payable"},{"type":"function","name":"createPoll","inputs":[{"name":"_title","type":"string","internalType":"string"},{"name":"_tag","type":"string","internalType":"string"},{"name":"_group","type":"uint256","internalType":"uint256"},{"name":"_pollStartDate","type":"uint256","internalType":"uint256"},{"name":"_proposalEndDate","type":"uint256","internalType":"uint256"},{"name":"_votingStartDate","type":"uint256","internalType":"uint256"},{"name":"_delegateEndDate","type":"uint256","internalType":"uint256"},{"name":"_endDate","type":"uint256","internalType":"uint256"}],"outputs":[],"stateMutability":"nonpayable"},{"type":"function","name":"createPrediction","inputs":[{"name":"_pollId","type":"uint256","internalType":"uint256"},{"name":"_proposalId","type":"uint256","internalType":"uint256"},{"name":"_prediction","type":"string","internalType":"string"}],"outputs":[],"stateMutability":"nonpayable"},{"type":"function","name":"delegate","inputs":[{"name":"_groupId","type":"uint256","internalType":"uint256"},{"name":"_delegateTo","type":"address","internalType":"address"}],"outputs":[],"stateMutability":"nonpayable"},{"type":"function","name":"getGroupsUserIsMemberIn","inputs":[],"outputs":[{"name":"groups","type":"uint256[]","internalType":"uint256[]"}],"stateMutability":"view"},{"type":"function","name":"getPollResults","inputs":[{"name":"_pollId","type":"uint256","internalType":"uint256"}],"outputs":[{"name":"","type":"string[]","internalType":"string[]"},{"name":"","type":"uint256[]","internalType":"uint256[]"}],"stateMutability":"view"},{"type":"function","name":"getPredictionBets","inputs":[{"name":"_pollId","type":"uint256","internalType":"uint256"},{"name":"_proposalId","type":"uint256","internalType":"uint256"},{"name":"_predictionId","type":"uint256","internalType":"uint256"}],"outputs":[{"name":"","type":"tuple[]","internalType":"struct PredictionBetStructs.PredictionBet[]","components":[{"name":"pollId","type":"uint256","internalType":"uint256"},{"name":"proposalId","type":"uint256","internalType":"uint256"},{"name":"predictionId","type":"uint256","internalType":"uint256"},{"name":"bet","type":"bool","internalType":"bool"},{"name":"likelihood","type":"uint256","internalType":"uint256"},{"name":"phase","type":"uint8","internalType":"enum PollStructs.PollPhase"}]}],"stateMutability":"view"},{"type":"function","name":"getPredictions","inputs":[{"name":"_pollId","type":"uint256","internalType":"uint256"},{"name":"_proposalId","type":"uint256","internalType":"uint256"}],"outputs":[{"name":"","type":"tuple[]","internalType":"struct PredictionStructs.Prediction[]","components":[{"name":"pollId","type":"uint256","internalType":"uint256"},{"name":"proposalId","type":"uint256","internalType":"uint256"},{"name":"predictionId","type":"uint256","internalType":"uint256"},{"name":"prediction","type":"string","internalType":"string"},{"name":"phase","type":"uint8","internalType":"enum PollStructs.PollPhase"}]}],"stateMutability":"view"},{"type":"function","name":"getProposals","inputs":[{"name":"_pollId","type":"uint256","internalType":"uint256"}],"outputs":[{"name":"","type":"tuple[]","internalType":"struct ProposalStructs.Proposal[]","components":[{"name":"description","type":"string","internalType":"string"},{"name":"voteCount","type":"uint256","internalType":"uint256"},{"name":"proposalId","type":"uint256","internalType":"uint256"},{"name":"predictionCount","type":"uint256","internalType":"uint256"},{"name":"phase","type":"uint8","internalType":"enum PollStructs.PollPhase"}]}],"stateMutability":"view"},{"type":"function","name":"groupDelegates","inputs":[{"name":"","type":"uint256","internalType":"uint256"},{"name":"","type":"uint256","internalType":"uint256"}],"outputs":[{"name":"delegate","type":"address","internalType":"address"},{"name":"groupId","type":"uint256","internalType":"uint256"},{"name":"delegatedVotes","type":"uint256","internalType":"uint256"},{"name":"groupDelegateId","type":"uint256","internalType":"uint256"}],"stateMutability":"view"},{"type":"function","name":"hasDelegatedInGroup","inputs":[{"name":"_groupId","type":"uint256","internalType":"uint256"}],"outputs":[{"name":"","type":"bool","internalType":"bool"}],"stateMutability":"view"},{"type":"function","name":"hasDelegatedToDelegateInGroup","inputs":[{"name":"_groupId","type":"uint256","internalType":"uint256"},{"name":"_delegate","type":"address","internalType":"address"}],"outputs":[{"name":"","type":"bool","internalType":"bool"}],"stateMutability":"view"},{"type":"function","name":"isUserMemberOfGroup","inputs":[{"name":"_group","type":"uint256","internalType":"uint256"}],"outputs":[{"name":"hasRight","type":"bool","internalType":"bool"}],"stateMutability":"view"},{"type":"function","name":"placePredictionBet","inputs":[{"name":"_pollId","type":"uint256","internalType":"uint256"},{"name":"_proposalId","type":"uint256","internalType":"uint256"},{"name":"_predictionId","type":"uint256","internalType":"uint256"},{"name":"_likelihood","type":"uint256","internalType":"uint256"},{"name":"_bet","type":"bool","internalType":"bool"}],"outputs":[],"stateMutability":"nonpayable"},{"type":"function","name":"pollCount","inputs":[],"outputs":[{"name":"","type":"uint256","internalType":"uint256"}],"stateMutability":"view"},{"type":"function","name":"polls","inputs":[{"name":"","type":"uint256","internalType":"uint256"}],"outputs":[{"name":"title","type":"string","internalType":"string"},{"name":"tag","type":"string","internalType":"string"},{"name":"group","type":"uint256","internalType":"uint256"},{"name":"pollStartDate","type":"uint256","internalType":"uint256"},{"name":"proposalEndDate","type":"uint256","internalType":"uint256"},{"name":"votingStartDate","type":"uint256","internalType":"uint256"},{"name":"delegateEndDate","type":"uint256","internalType":"uint256"},{"name":"endDate","type":"uint256","internalType":"uint256"},{"name":"pollId","type":"uint256","internalType":"uint256"},{"name":"proposalCount","type":"uint256","internalType":"uint256"},{"name":"phase","type":"uint8","internalType":"enum PollStructs.PollPhase"}],"stateMutability":"view"},{"type":"function","name":"predictionBets","inputs":[{"name":"","type":"uint256","internalType":"uint256"},{"name":"","type":"uint256","internalType":"uint256"}],"outputs":[{"name":"pollId","type":"uint256","internalType":"uint256"},{"name":"proposalId","type":"uint256","internalType":"uint256"},{"name":"predictionId","type":"uint256","internalType":"uint256"},{"name":"bet","type":"bool","internalType":"bool"},{"name":"likelihood","type":"uint256","internalType":"uint256"},{"name":"phase","type":"uint8","internalType":"enum PollStructs.PollPhase"}],"stateMutability":"view"},{"type":"function","name":"predictions","inputs":[{"name":"","type":"uint256","internalType":"uint256"},{"name":"","type":"uint256","internalType":"uint256"}],"outputs":[{"name":"pollId","type":"uint256","internalType":"uint256"},{"name":"proposalId","type":"uint256","internalType":"uint256"},{"name":"predictionId","type":"uint256","internalType":"uint256"},{"name":"prediction","type":"string","internalType":"string"},{"name":"phase","type":"uint8","internalType":"enum PollStructs.PollPhase"}],"stateMutability":"view"},{"type":"function","name":"proposals","inputs":[{"name":"","type":"uint256","internalType":"uint256"},{"name":"","type":"uint256","internalType":"uint256"}],"outputs":[{"name":"description","type":"string","internalType":"string"},{"name":"voteCount","type":"uint256","internalType":"uint256"},{"name":"proposalId","type":"uint256","internalType":"uint256"},{"name":"predictionCount","type":"uint256","internalType":"uint256"},{"name":"phase","type":"uint8","internalType":"enum PollStructs.PollPhase"}],"stateMutability":"view"},{"type":"function","name":"removeDelegation","inputs":[{"name":"_delegate","type":"address","internalType":"address"},{"name":"_groupId","type":"uint256","internalType":"uint256"}],"outputs":[],"stateMutability":"nonpayable"},{"type":"function","name":"removeGroupMembership","inputs":[{"name":"_group","type":"uint256","internalType":"uint256"}],"outputs":[],"stateMutability":"payable"},{"type":"function","name":"resignAsDelegate","inputs":[{"name":"_groupId","type":"uint256","internalType":"uint256"}],"outputs":[],"stateMutability":"nonpayable"},{"type":"function","name":"vote","inputs":[{"name":"_pollId","type":"uint256","internalType":"uint256"},{"name":"_proposalId","type":"uint256","internalType":"uint256"}],"outputs":[],"stateMutability":"nonpayable"},{"type":"event","name":"DelegateResignation","inputs":[{"name":"delegate","type":"address","indexed":true,"internalType":"address"},{"name":"groupId","type":"uint256","indexed":true,"internalType":"uint256"}],"anonymous":false},{"type":"event","name":"NewDelegate","inputs":[{"name":"delegate","type":"address","indexed":true,"internalType":"address"},{"name":"groupId","type":"uint256","indexed":true,"internalType":"uint256"},{"name":"delegatedVotes","type":"uint256","indexed":false,"internalType":"uint256"},{"name":"delegationsFrom","type":"address[]","indexed":false,"internalType":"address[]"},{"name":"groupDelegateId","type":"uint256","indexed":false,"internalType":"uint256"}],"anonymous":false},{"type":"event","name":"NewDelegation","inputs":[{"name":"from","type":"address","indexed":true,"internalType":"address"},{"name":"to","type":"address","indexed":true,"internalType":"address"},{"name":"groupId","type":"uint256","indexed":true,"internalType":"uint256"},{"name":"delegatedVotes","type":"uint256","indexed":false,"internalType":"uint256"},{"name":"delegationsFrom","type":"address[]","indexed":false,"internalType":"address[]"}],"anonymous":false},{"type":"event","name":"PermissionGivenToVote","inputs":[{"name":"_group","type":"uint256","indexed":true,"internalType":"uint256"}],"anonymous":false},{"type":"event","name":"PollCreated","inputs":[{"name":"pollId","type":"uint256","indexed":false,"internalType":"uint256"},{"name":"title","type":"string","indexed":false,"internalType":"string"}],"anonymous":false},{"type":"event","name":"PredictionBetCreated","inputs":[{"name":"predictionId","type":"uint256","indexed":true,"internalType":"uint256"},{"name":"bet","type":"bool","indexed":false,"internalType":"bool"},{"name":"likelihood","type":"uint256","indexed":false,"internalType":"uint256"}],"anonymous":false},{"type":"event","name":"PredictionCreated","inputs":[{"name":"predictionId","type":"uint256","indexed":false,"internalType":"uint256"},{"name":"prediction","type":"string","indexed":false,"internalType":"string"}],"anonymous":false},{"type":"event","name":"ProposalAdded","inputs":[{"name":"pollId","type":"uint256","indexed":true,"internalType":"uint256"},{"name":"proposalId","type":"uint256","indexed":false,"internalType":"uint256"},{"name":"description","type":"string","indexed":false,"internalType":"string"}],"anonymous":false},{"type":"event","name":"VoteSubmitted","inputs":[{"name":"pollId","type":"uint256","indexed":true,"internalType":"uint256"},{"name":"voter","type":"address","indexed":true,"internalType":"address"},{"name":"votesForProposal","type":"uint256","indexed":false,"internalType":"uint256"}],"anonymous":false}],"bytecode":{"object":"0x608060405234801561001057600080fd5b50613e75806100206000396000f3fe6080604052600436106101665760003560e01c80639bec02b1116100d1578063b28bb34c1161008a578063c2cfee2711610064578063c2cfee27146104ab578063d5887489146104dc578063e424938c146104fc578063fd6c914e1461051c57600080fd5b8063b28bb34c14610449578063b384abef1461046b578063c20572af1461048b57600080fd5b80639bec02b114610348578063a00c1f7e14610375578063ac2f007414610395578063ac8ec2f9146103cc578063af3157c014610416578063b0333e0d1461042957600080fd5b806333b4097b1161012357806333b4097b14610261578063395e01391461028f57806344f0bb77146102af5780634b30ef34146102e15780638ad0871b146102f45780639207891d1461032457600080fd5b8063025ae4e21461016b5780630457bea8146101a5578063051097ef146101c757806308bbb824146101e75780632c72fdfc146102075780633128fcb614610234575b600080fd5b34801561017757600080fd5b5061018b610186366004613356565b61053c565b60405161019c9594939291906133f6565b60405180910390f35b3480156101b157600080fd5b506101c56101c0366004613434565b61061a565b005b3480156101d357600080fd5b506101c56101e2366004613496565b6108dc565b3480156101f357600080fd5b506101c56102023660046134fe565b610ac1565b34801561021357600080fd5b50610227610222366004613434565b610e41565b60405161019c919061352a565b34801561024057600080fd5b5061025461024f3660046135cd565b610f98565b60405161019c91906135f9565b34801561026d57600080fd5b5061028161027c366004613434565b61120b565b60405161019c9291906136bb565b34801561029b57600080fd5b506101c56102aa366004613434565b611490565b3480156102bb57600080fd5b506102cf6102ca366004613356565b61162f565b60405161019c96959493929190613732565b6101c56102ef366004613434565b61168a565b34801561030057600080fd5b5061031461030f366004613434565b61187f565b604051901515815260200161019c565b34801561033057600080fd5b5061033a60055481565b60405190815260200161019c565b34801561035457600080fd5b50610368610363366004613356565b6118ee565b60405161019c919061376f565b34801561038157600080fd5b506101c5610390366004613804565b611be2565b3480156103a157600080fd5b506103b56103b0366004613434565b611dc1565b60405161019c9b9a999897969594939291906138a5565b3480156103d857600080fd5b506103ec6103e7366004613356565b611f2b565b604080516001600160a01b039095168552602085019390935291830152606082015260800161019c565b6101c5610424366004613434565b611f7b565b34801561043557600080fd5b50610314610444366004613434565b612033565b34801561045557600080fd5b5061045e6120d6565b60405161019c9190613920565b34801561047757600080fd5b506101c5610486366004613356565b612138565b34801561049757600080fd5b506101c56104a6366004613933565b61246a565b3480156104b757600080fd5b506104cb6104c6366004613356565b612670565b60405161019c959493929190613985565b3480156104e857600080fd5b506103146104f73660046134fe565b61274f565b34801561050857600080fd5b506101c56105173660046139cf565b612879565b34801561052857600080fd5b506101c5610537366004613a93565b612b13565b6007602052816000526040600020818154811061055857600080fd5b90600052602060002090600502016000915091505080600001549080600101549080600201549080600301805461058e90613abd565b80601f01602080910402602001604051908101604052809291908181526020018280546105ba90613abd565b80156106075780601f106105dc57610100808354040283529160200191610607565b820191906000526020600020905b8154815290600101906020018083116105ea57829003601f168201915b5050506004909301549192505060ff1685565b80336106268282612e02565b6000838152600160205260408120546060915b8181101561077f57600086815260016020526040902080543391908390811061066457610664613af1565b60009182526020909120600590910201546001600160a01b0316036107775760008681526001602052604090208054829081106106a3576106a3613af1565b906000526020600020906005020160030180548060200260200160405190810160405280929190818152602001828054801561070857602002820191906000526020600020905b81546001600160a01b031681526001909101906020018083116106ea575b5050505050925060016000878152602001908152602001600020818154811061073357610733613af1565b60009182526020822060059091020180546001600160a01b031916815560018101829055600281018290559061076c60038301826132be565b600482016000905550505b600101610639565b5060005b82518110156108a757600360008483815181106107a2576107a2613af1565b60200260200101516001600160a01b03166001600160a01b0316815260200190815260200160002080549050915060005b8281101561089e5786600360008685815181106107f2576107f2613af1565b60200260200101516001600160a01b03166001600160a01b03168152602001908152602001600020828154811061082b5761082b613af1565b906000526020600020015403610896576003600085848151811061085157610851613af1565b60200260200101516001600160a01b03166001600160a01b03168152602001908152602001600020818154811061088a5761088a613af1565b60009182526020822001555b6001016107d3565b50600101610783565b50604051859033907f4a49253305f0d63099f6b61a9d355ce9fd607a6b536918966a9b09cd46b4da8b90600090a35050505050565b826108e681612e79565b6000806000868152600460205260409020600a015460ff16600381111561090f5761090f6133be565b149050806109705760405162461bcd60e51b8152602060048201526024808201527f596f752063616e206e6f7420706c6163652070726f706f73616c207269676874604482015263206e6f7760e01b60648201526084015b60405180910390fd5b600085815260046020526040812060090180549161098d83613b1d565b90915550506000858152600460209081526040808320600901546006835292819020815160c0601f89018590049094028101840190925260a0820187815290928291908990899081908501838280828437600092018290525093855250505060208201819052604082018590526060820152608001600190528154600181018355600092835260209092208151919260050201908190610a2d9082613b86565b5060208201518160010155604082015181600201556060820151816003015560808201518160040160006101000a81548160ff02191690836003811115610a7657610a766133be565b02179055505050857fbb878f2a2e892d9a3562cba951f66485d18cf663715d59785bd1eafe3697a8c3828787604051610ab193929190613c46565b60405180910390a2505050505050565b8181610acd8282612e02565b610ad68461187f565b610b3f5760405162461bcd60e51b815260206004820152603460248201527f596f752063616e206f6e6c792064656c656761746520696e2067726f757073206044820152733cb7ba9030b93290309036b2b6b132b91037b31760611b6064820152608401610967565b610b4884612033565b15610baa5760405162461bcd60e51b815260206004820152602c60248201527f596f75206861766520616e206163746976652064656c65676174696f6e20696e60448201526b103a3434b99033b937bab81760a11b6064820152608401610967565b336001600160a01b03841603610c025760405162461bcd60e51b815260206004820181905260248201527f596f752063616e206e6f742064656c656761746520746f20796f757273656c666044820152606401610967565b33600090815260036020908152604080832080546001818101835591855283852001889055878452909152812054606090825b81811015610de957600088815260016020526040902080546001600160a01b038916919083908110610c6957610c69613af1565b60009182526020909120600590910201546001600160a01b031603610de1576000888152600160205260409020805482908110610ca857610ca8613af1565b600091825260208220600260059092020101805491610cc683613b1d565b90915550506000888152600160205260409020805482908110610ceb57610ceb613af1565b600091825260208083206003600590930201919091018054600181810183559184528284200180546001600160a01b031916331790558a8352905260409020805482908110610d3c57610d3c613af1565b9060005260206000209060050201600201549350600160008981526020019081526020016000208181548110610d7457610d74613af1565b9060005260206000209060050201600301805480602002602001604051908101604052809291908181526020018280548015610dd957602002820191906000526020600020905b81546001600160a01b03168152600190910190602001808311610dbb575b505050505092505b600101610c35565b5086866001600160a01b0316336001600160a01b03167f666c49d8439089d417a99690492068a6e44b8f5ee919a4e15f72d0185e6034408686604051610e30929190613cb6565b60405180910390a450505050505050565b606081610e4d81612e79565b600083815260066020908152604080832080548251818502810185019093528083529193909284015b82821015610f8b57838290600052602060002090600502016040518060a0016040529081600082018054610ea990613abd565b80601f0160208091040260200160405190810160405280929190818152602001828054610ed590613abd565b8015610f225780601f10610ef757610100808354040283529160200191610f22565b820191906000526020600020905b815481529060010190602001808311610f0557829003601f168201915b505050918352505060018201546020820152600282015460408201526003808301546060830152600483015460809092019160ff1690811115610f6757610f676133be565b6003811115610f7857610f786133be565b8152505081526020019060010190610e76565b5050505091505b50919050565b6060838383610fa8838383612ed3565b600087815260066020526040812054905b818111611133576000898152600660205260409020805489919083908110610fe357610fe3613af1565b9060005260206000209060050201600201540361112b57600088815260076020526040812054905b8181116111285760008a815260076020526040902080548a91908390811061103557611035613af1565b9060005260206000209060050201600201540361112057600089815260086020908152604080832080548251818502810185019093528083529193909284015b828210156111115760008481526020908190206040805160c081018252600686029092018054835260018101549383019390935260028301549082015260038083015460ff9081161515606084015260048401546080840152600584015492939260a08501929116908111156110ed576110ed6133be565b60038111156110fe576110fe6133be565b8152505081526020019060010190611075565b50505050975050505050611201565b60010161100b565b50505b600101610fb9565b50600086815260086020908152604080832080548251818502810185019093528083529193909284015b828210156111f95760008481526020908190206040805160c081018252600686029092018054835260018101549383019390935260028301549082015260038083015460ff9081161515606084015260048401546080840152600584015492939260a08501929116908111156111d5576111d56133be565b60038111156111e6576111e66133be565b815250508152602001906001019061115d565b505050509450505b5050509392505050565b6060808261121881612e79565b600084815260066020908152604080832080548251818502810185019093528083529192909190849084015b8282101561135957838290600052602060002090600502016040518060a001604052908160008201805461127790613abd565b80601f01602080910402602001604051908101604052809291908181526020018280546112a390613abd565b80156112f05780601f106112c5576101008083540402835291602001916112f0565b820191906000526020600020905b8154815290600101906020018083116112d357829003601f168201915b505050918352505060018201546020820152600282015460408201526003808301546060830152600483015460809092019160ff1690811115611335576113356133be565b6003811115611346576113466133be565b8152505081526020019060010190611244565b5050505090506000815167ffffffffffffffff81111561137b5761137b6139b9565b6040519080825280602002602001820160405280156113ae57816020015b60608152602001906001900390816113995790505b5090506000825167ffffffffffffffff8111156113cd576113cd6139b9565b6040519080825280602002602001820160405280156113f6578160200160208202803683370190505b50905060005b83518110156114835783818151811061141757611417613af1565b60200260200101516000015183828151811061143557611435613af1565b602002602001018190525083818151811061145257611452613af1565b60200260200101516020015182828151811061147057611470613af1565b60209081029190910101526001016113fc565b5090945092505050915091565b61149a8133612f35565b156114fc5760405162461bcd60e51b815260206004820152602c60248201527f596f752061726520616c726561647920612064656c656761746520696e20737060448201526b06563696669632067726f75760a41b6064820152608401610967565b600081815260026020526040812080549161151683613b1d565b90915550506040805160a081018252338152602080820184815260008385018181528551828152808501875260608601908152878352600280865287842054608088015288845260018087529784208054808a01825590855293869020875160059095020180546001600160a01b0319166001600160a01b039095169490941784559351968301969096555191810191909155925180519293849390926115c49260038501929101906132dc565b50608082015181600401555050806020015181600001516001600160a01b03167fb5977a248b20510642da018e687e9ba90beb459651acf6b82b232aeab1aac86e83604001518460600151856080015160405161162393929190613cd7565b60405180910390a35050565b6008602052816000526040600020818154811061164b57600080fd5b60009182526020909120600690910201805460018201546002830154600384015460048501546005909501549396509194509260ff9182169290911686565b6116938161187f565b6116ed5760405162461bcd60e51b815260206004820152602560248201527f596f7520617265206e6f74206d656d626572206f662073706563696669656420604482015264067726f75760dc1b6064820152608401610967565b33600090815260208181526040808320600101805482518185028101850190935280835261174f9383018282801561174457602002820191906000526020600020905b815481526020019060010190808311611730575b505050505083612fac565b3360009081526020819052604090206001015490915081106117a85760405162461bcd60e51b81526020600482015260126024820152711a5b99195e081bdd5d081bd988189bdd5b9960721b6044820152606401610967565b805b3360009081526020819052604090206001908101546117c99190613d00565b811015611843573360009081526020819052604090206001908101906117f0908390613d13565b8154811061180057611800613af1565b600091825260208083209091015433835290829052604090912060010180548390811061182f5761182f613af1565b6000918252602090912001556001016117aa565b5033600090815260208190526040902060010180548061186557611865613d26565b600190038181906000526020600020016000905590555050565b6000805b336000908152602081905260409020600101548110156118e5573360009081526020819052604090206001018054849190839081106118c4576118c4613af1565b9060005260206000200154036118dd5750600192915050565b600101611883565b50600092915050565b6000828152600660205260408120546060915b818111611a9557600085815260066020526040902080548591908390811061192b5761192b613af1565b90600052602060002090600502016002015403611a8d57600084815260076020908152604080832080548251818502810185019093528083529193909284015b82821015611a8057838290600052602060002090600502016040518060a00160405290816000820154815260200160018201548152602001600282015481526020016003820180546119bc90613abd565b80601f01602080910402602001604051908101604052809291908181526020018280546119e890613abd565b8015611a355780601f10611a0a57610100808354040283529160200191611a35565b820191906000526020600020905b815481529060010190602001808311611a1857829003601f168201915b5050509183525050600482015460209091019060ff166003811115611a5c57611a5c6133be565b6003811115611a6d57611a6d6133be565b815250508152602001906001019061196b565b5050505092505050611bdc565b600101611901565b50600083815260076020908152604080832080548251818502810185019093528083529193909284015b82821015611bd457838290600052602060002090600502016040518060a0016040529081600082015481526020016001820154815260200160028201548152602001600382018054611b1090613abd565b80601f0160208091040260200160405190810160405280929190818152602001828054611b3c90613abd565b8015611b895780601f10611b5e57610100808354040283529160200191611b89565b820191906000526020600020905b815481529060010190602001808311611b6c57829003601f168201915b5050509183525050600482015460209091019060ff166003811115611bb057611bb06133be565b6003811115611bc157611bc16133be565b8152505081526020019060010190611abf565b505050509150505b92915050565b60058054906000611bf283613b1d565b9091555050604080516101806020601f8d01819004028201810190925261016081018b81526000928291908e908e9081908501838280828437600092019190915250505090825250604080516020601f8d018190048102820181019092528b815291810191908c908c90819084018382808284376000920182905250938552505050602082018a905260408201899052606082018890526080820187905260a0820186905260c0820185905260055460e083015261010082018190526101209091015261010081015181516040519293507f65d5ac2bf1bca69566bef1affdfca5bb37b9577fc0b3af4c7c4638225e67b39c92611cf0929190613d3c565b60405180910390a1600554600090815260046020526040902081518291908190611d1a9082613b86565b5060208201516001820190611d2f9082613b86565b5060408201518160020155606082015181600301556080820151816004015560a0820151816005015560c0820151816006015560e082015181600701556101008201518160080155610120820151816009015561014082015181600a0160006101000a81548160ff02191690836003811115611dad57611dad6133be565b021790555050505050505050505050505050565b600460205260009081526040902080548190611ddc90613abd565b80601f0160208091040260200160405190810160405280929190818152602001828054611e0890613abd565b8015611e555780601f10611e2a57610100808354040283529160200191611e55565b820191906000526020600020905b815481529060010190602001808311611e3857829003601f168201915b505050505090806001018054611e6a90613abd565b80601f0160208091040260200160405190810160405280929190818152602001828054611e9690613abd565b8015611ee35780601f10611eb857610100808354040283529160200191611ee3565b820191906000526020600020905b815481529060010190602001808311611ec657829003601f168201915b50505060028401546003850154600486015460058701546006880154600789015460088a015460098b0154600a909b0154999a96999598509396509194909391929160ff168b565b60016020528160005260406000208181548110611f4757600080fd5b600091825260209091206005909102018054600182015460028301546004909301546001600160a01b039092169450925084565b611f848161187f565b15611fe35760405162461bcd60e51b815260206004820152602960248201527f596f752061726520616c7265616479206d656d626572206f662073706563696660448201526806965642067726f75760bc1b6064820152608401610967565b3360009081526020818152604080832060019081018054918201815584529183209091018390555182917f8aa97af2947aac0dc42394954c6dd127eba5cecbc5a03fae31e5cc07d6738fe591a250565b3360009081526003602090815260408083208054825181850281018501909352808352849383018282801561208757602002820191906000526020600020905b815481526020019060010190808311612073575b5050505050905060005b81518110156120cc57838282815181106120ad576120ad613af1565b6020026020010151036120c4575060019392505050565b600101612091565b5060009392505050565b336000908152602081815260409182902060010180548351818402810184019094528084526060939283018282801561212e57602002820191906000526020600020905b81548152602001906001019080831161211a575b5050505050905090565b8161214281612e79565b6000838152600460205260408120600201549061215e8561187f565b6121b95760405162461bcd60e51b815260206004820152602660248201527f5468652075736572206973206e6f742061206d656d626572206f6620706f6c6c60448201526502067726f75760d41b6064820152608401610967565b6121c285612fef565b1561220f5760405162461bcd60e51b815260206004820152601a60248201527f566f74652068617320616c7265616479206265656e20636173740000000000006044820152606401610967565b61221985856130a3565b61222257600080fd5b61222b82613108565b156122915760405162461bcd60e51b815260206004820152603060248201527f596f7520686176652064656c65676174656420796f757220766f746520696e2060448201526f3a3432903837b636399033b937bab81760811b6064820152608401610967565b6000858152600660209081526040808320858452600190925282205490915b818110156123375760008581526001602052604090208054339190839081106122db576122db613af1565b60009182526020909120600590910201546001600160a01b03160361232f57600085815260016020526040902080548290811061231a5761231a613af1565b90600052602060002090600502016002015493505b6001016122b0565b5081546000805b8281101561245d578885828154811061235957612359613af1565b906000526020600020906005020160020154036124555761237b866001613d13565b85828154811061238d5761238d613af1565b906000526020600020906005020160010160008282546123ad9190613d13565b925050819055508481815481106123c6576123c6613af1565b6000918252602080832060016005909302018201548d84526009825260408085208054948501815585529190932090910180546001600160a01b031916339081179091559051919350908b907fa5876137634fc61be6a6224d5f4a2d0926145388c51a133c03cc00f7b66e0e3c906124419086815260200190565b60405180910390a350505050505050505050565b60010161233e565b505050505050505b505050565b848484612478838383612ed3565b600085116124c85760405162461bcd60e51b815260206004820152601f60248201527f56616c7565206e6565647320746f20626520686967686572207468616e2030006044820152606401610967565b6000600260008981526007602052604090206124e560018a613d00565b815481106124f5576124f5613af1565b600091825260209091206004600590920201015460ff16600381111561251d5761251d6133be565b149050806125795760405162461bcd60e51b8152602060048201526024808201527f596f752063616e206e6f7420706c61636520612062657420617420746869732060448201526374696d6560e01b6064820152608401610967565b6000878152600860209081526040808320815160c0810183528d81528084018d81529281018c81528a151560608301908152608083018d8152600360a08501818152865460018082018955978b529890992085516006909902019788559551878601559151600287015551858501805491151560ff199283161790559051600486015594516005850180549296919490939290911691908490811115612621576126216133be565b021790555050604080518715158152602081018990528992507fefbf97b6b2de004cd3e8b4af6b867bf332de6df57c2447d9b5c5a00abaec5d1f910160405180910390a2505050505050505050565b6006602052816000526040600020818154811061268c57600080fd5b9060005260206000209060050201600091509150508060000180546126b090613abd565b80601f01602080910402602001604051908101604052809291908181526020018280546126dc90613abd565b80156127295780601f106126fe57610100808354040283529160200191612729565b820191906000526020600020905b81548152906001019060200180831161270c57829003601f168201915b505050506001830154600284015460038501546004909501549394919390925060ff1685565b600082815260016020526040812054815b8181101561286e57600085815260016020526040902080546001600160a01b03861691908390811061279457612794613af1565b60009182526020909120600590910201546001600160a01b0316036128665760008581526001602052604090208054829081106127d3576127d3613af1565b6000918252602082206003600590920201015492505b8281101561286457600086815260016020526040902080543391908490811061281457612814613af1565b9060005260206000209060050201600301828154811061283657612836613af1565b6000918252602090912001546001600160a01b03160361285c5760019350505050611bdc565b6001016127e9565b505b600101612760565b506000949350505050565b600060016000858152600660205260409020612896600186613d00565b815481106128a6576128a6613af1565b600091825260209091206004600590920201015460ff1660038111156128ce576128ce6133be565b149050806129335760405162461bcd60e51b815260206004820152602c60248201527f596f752063616e206e6f742063726561746520612070726564696374696f6e2060448201526b617420746869732074696d6560a01b6064820152608401610967565b600084815260066020526040812061294c600186613d00565b8154811061295c5761295c613af1565b9060005260206000209060050201905061297685856130a3565b61297f57600080fd5b60038101805490600061299183613b1d565b90915550506003810154600086815260066020526040902082906129b6600188613d00565b815481106129c6576129c6613af1565b60009182526020909120600590910201806129e18382613d55565b50600182810154828201556002808401549083015560038084015481840155600480850154908401805460ff90921693909260ff19909216918490811115612a2b57612a2b6133be565b021790555050506000858152600760209081526040808320815160a0810183528a81528084018a8152928101868152606082018a8152600260808401819052845460018082018755958952969097208351600590970201958655935192850192909255905193830193909355516003820190612aa79082613b86565b50608082015160048201805460ff19166001836003811115612acb57612acb6133be565b021790555050507f611b851c586fb53b9aae86344db19e0e0dd8f785abd9117602396d3bccb37c418185604051612b03929190613d3c565b60405180910390a1505050505050565b612b1d818361274f565b612b8f5760405162461bcd60e51b815260206004820152603e60248201527f596f752068617665206e6f742064656c65676174656420746f2074686520737060448201527f656369666965642064656c656761746520696e20746869732067726f757000006064820152608401610967565b600081815260016020526040812054815b81811015612d7657600084815260016020526040902080546001600160a01b038716919083908110612bd457612bd4613af1565b60009182526020909120600590910201546001600160a01b031603612d6e576000848152600160205260409020805482908110612c1357612c13613af1565b600091825260208220600260059092020101805491612c3183613e28565b90915550506000848152600160205260409020805482908110612c5657612c56613af1565b906000526020600020906005020160020154925060005b6000858152600160205260409020805483908110612c8d57612c8d613af1565b906000526020600020906005020160030180549050811015612d6c576000858152600160205260409020805433919084908110612ccc57612ccc613af1565b90600052602060002090600502016003018281548110612cee57612cee613af1565b6000918252602090912001546001600160a01b031603612d64576000858152600160205260409020805483908110612d2857612d28613af1565b90600052602060002090600502016003018181548110612d4a57612d4a613af1565b600091825260209091200180546001600160a01b03191690555b600101612c6d565b505b600101612ba0565b505033600090815260036020526040812054905b81811015612dfb57336000908152600360205260409020805485919083908110612db657612db6613af1565b906000526020600020015403612df357336000908152600360205260409020805482908110612de757612de7613af1565b60009182526020822001555b600101612d8a565b5050505050565b612e0c8282612f35565b612e755760405162461bcd60e51b815260206004820152603460248201527f5468652061646472657373206973206e6f7420612064656c656761746520696e604482015273020746865207370656369666965642067726f75760641b6064820152608401610967565b5050565b600081118015612e8b57506005548111155b612ed05760405162461bcd60e51b8152602060048201526016602482015275141bdb1b08125108191bd95cc81b9bdd08195e1a5cdd60521b6044820152606401610967565b50565b612ede8383836131a1565b6124655760405162461bcd60e51b815260206004820152602260248201527f57726f6e6720706f6c6c2c2070726f706f73616c206f7220707265646963746960448201526137b760f11b6064820152608401610967565b600082815260016020526040812054815b8181101561286e57600085815260016020526040902080546001600160a01b038616919083908110612f7a57612f7a613af1565b60009182526020909120600590910201546001600160a01b031603612fa457600192505050611bdc565b600101612f46565b6000805b8351811015612fe85782848281518110612fcc57612fcc613af1565b602002602001015103612fe0579050611bdc565b600101612fb0565b5092915050565b60008181526009602090815260408083208054825181850281018501909352808352849383018282801561304c57602002820191906000526020600020905b81546001600160a01b0316815260019091019060200180831161302e575b5050505050905060005b81518110156120cc57336001600160a01b031682828151811061307b5761307b613af1565b60200260200101516001600160a01b03160361309b575060019392505050565b600101613056565b600082815260066020526040812054815b81811161286e5760008581526006602052604090208054859190839081106130de576130de613af1565b9060005260206000209060050201600201540361310057600192505050611bdc565b6001016130b4565b3360009081526003602090815260408083208054825181850281018501909352808352849383018282801561315c57602002820191906000526020600020905b815481526020019060010190808311613148575b5050505050905060005b81518110156120cc578382828151811061318257613182613af1565b602002602001015103613199575060019392505050565b600101613166565b600554600090815b8181116132b0576000818152600460205260409020600801548690036132a857600086815260066020526040812054905b81811161329b57600088815260066020526040902080548891908390811061320457613204613af1565b9060005260206000209060050201600201540361329357600087815260076020526040812054905b81811161328457600089815260076020526040902080548991908390811061325657613256613af1565b9060005260206000209060050201600201540361327c57600196505050505050506132b7565b60010161322c565b506000955050505050506132b7565b6001016131da565b50600093505050506132b7565b6001016131a9565b5060009150505b9392505050565b5080546000825590600052602060002090810190612ed09190613341565b828054828255906000526020600020908101928215613331579160200282015b8281111561333157825182546001600160a01b0319166001600160a01b039091161782556020909201916001909101906132fc565b5061333d929150613341565b5090565b5b8082111561333d5760008155600101613342565b6000806040838503121561336957600080fd5b50508035926020909101359150565b6000815180845260005b8181101561339e57602081850181015186830182015201613382565b506000602082860101526020601f19601f83011685010191505092915050565b634e487b7160e01b600052602160045260246000fd5b600481106133f257634e487b7160e01b600052602160045260246000fd5b9052565b85815284602082015283604082015260a06060820152600061341b60a0830185613378565b905061342a60808301846133d4565b9695505050505050565b60006020828403121561344657600080fd5b5035919050565b60008083601f84011261345f57600080fd5b50813567ffffffffffffffff81111561347757600080fd5b60208301915083602082850101111561348f57600080fd5b9250929050565b6000806000604084860312156134ab57600080fd5b83359250602084013567ffffffffffffffff8111156134c957600080fd5b6134d58682870161344d565b9497909650939450505050565b80356001600160a01b03811681146134f957600080fd5b919050565b6000806040838503121561351157600080fd5b82359150613521602084016134e2565b90509250929050565b600060208083018184528085518083526040925060408601915060408160051b87010184880160005b838110156135bf57603f19898403018552815160a0815181865261357982870182613378565b91505088820151898601528782015188860152606080830151818701525060808083015192506135ab818701846133d4565b509588019593505090860190600101613553565b509098975050505050505050565b6000806000606084860312156135e257600080fd5b505081359360208301359350604090920135919050565b602080825282518282018190526000919060409081850190868401855b8281101561367257815180518552868101518786015285810151868601526060808201511515908601526080808201519086015260a0908101519061365d818701836133d4565b505060c0939093019290850190600101613616565b5091979650505050505050565b60008151808452602080850194506020840160005b838110156136b057815187529582019590820190600101613694565b509495945050505050565b6000604082016040835280855180835260608501915060608160051b8601019250602080880160005b8381101561371257605f19888703018552613700868351613378565b955093820193908201906001016136e4565b50505050508281036020840152613729818561367f565b95945050505050565b600060c082019050878252866020830152856040830152841515606083015283608083015261376460a08301846133d4565b979650505050505050565b600060208083018184528085518083526040925060408601915060408160051b87010184880160005b838110156135bf57603f19898403018552815160a0815185528882015189860152878201518886015260608083015182828801526137d883880182613378565b9250505060808083015192506137f0818701846133d4565b509588019593505090860190600101613798565b6000806000806000806000806000806101008b8d03121561382457600080fd5b8a3567ffffffffffffffff8082111561383c57600080fd5b6138488e838f0161344d565b909c509a5060208d013591508082111561386157600080fd5b5061386e8d828e0161344d565b9b9e9a9d509b60408101359a60608201359a506080820135995060a0820135985060c0820135975060e09091013595509350505050565b60006101608083526138b98184018f613378565b905082810360208401526138cd818e613378565b9150508a60408301528960608301528860808301528760a08301528660c08301528560e083015284610100830152836101208301526139106101408301846133d4565b9c9b505050505050505050505050565b6020815260006132b7602083018461367f565b600080600080600060a0868803121561394b57600080fd5b853594506020860135935060408601359250606086013591506080860135801515811461397757600080fd5b809150509295509295909350565b60a08152600061399860a0830188613378565b905085602083015284604083015283606083015261342a60808301846133d4565b634e487b7160e01b600052604160045260246000fd5b6000806000606084860312156139e457600080fd5b8335925060208401359150604084013567ffffffffffffffff80821115613a0a57600080fd5b818601915086601f830112613a1e57600080fd5b813581811115613a3057613a306139b9565b604051601f8201601f19908116603f01168101908382118183101715613a5857613a586139b9565b81604052828152896020848701011115613a7157600080fd5b8260208601602083013760006020848301015280955050505050509250925092565b60008060408385031215613aa657600080fd5b613aaf836134e2565b946020939093013593505050565b600181811c90821680613ad157607f821691505b602082108103610f9257634e487b7160e01b600052602260045260246000fd5b634e487b7160e01b600052603260045260246000fd5b634e487b7160e01b600052601160045260246000fd5b600060018201613b2f57613b2f613b07565b5060010190565b601f821115612465576000816000526020600020601f850160051c81016020861015613b5f5750805b601f850160051c820191505b81811015613b7e57828155600101613b6b565b505050505050565b815167ffffffffffffffff811115613ba057613ba06139b9565b613bb481613bae8454613abd565b84613b36565b602080601f831160018114613be95760008415613bd15750858301515b600019600386901b1c1916600185901b178555613b7e565b600085815260208120601f198616915b82811015613c1857888601518255948401946001909101908401613bf9565b5085821015613c365787850151600019600388901b60f8161c191681555b5050505050600190811b01905550565b83815260406020820152816040820152818360608301376000818301606090810191909152601f909201601f1916010192915050565b60008151808452602080850194506020840160005b838110156136b05781516001600160a01b031687529582019590820190600101613c91565b828152604060208201526000613ccf6040830184613c7c565b949350505050565b838152606060208201526000613cf06060830185613c7c565b9050826040830152949350505050565b81810381811115611bdc57611bdc613b07565b80820180821115611bdc57611bdc613b07565b634e487b7160e01b600052603160045260246000fd5b828152604060208201526000613ccf6040830184613378565b818103613d60575050565b613d6a8254613abd565b67ffffffffffffffff811115613d8257613d826139b9565b613d9081613bae8454613abd565b6000601f821160018114613dc45760008315613dac5750848201545b600019600385901b1c1916600184901b178455612dfb565b600085815260209020601f19841690600086815260209020845b83811015613dfe5782860154825560019586019590910190602001613dde565b5085831015613c365793015460001960f8600387901b161c19169092555050600190811b01905550565b600081613e3757613e37613b07565b50600019019056fea26469706673582212202052a746d43d32cecd6c20cfa815d0de3b8c59ac78eecdc20248e56248c4e2a164736f6c63430008170033","linkReferences":{}},"methodIdentifiers":{"addProposal(uint256,string)":"051097ef","becomeDelegate(uint256)":"395e0139","becomeMemberOfGroup(uint256)":"af3157c0","createPoll(string,string,uint256,uint256,uint256,uint256,uint256,uint256)":"a00c1f7e","createPrediction(uint256,uint256,string)":"e424938c","delegate(uint256,address)":"08bbb824","getGroupsUserIsMemberIn()":"b28bb34c","getPollResults(uint256)":"33b4097b","getPredictionBets(uint256,uint256,uint256)":"3128fcb6","getPredictions(uint256,uint256)":"9bec02b1","getProposals(uint256)":"2c72fdfc","groupDelegates(uint256,uint256)":"ac8ec2f9","hasDelegatedInGroup(uint256)":"b0333e0d","hasDelegatedToDelegateInGroup(uint256,address)":"d5887489","isUserMemberOfGroup(uint256)":"8ad0871b","placePredictionBet(uint256,uint256,uint256,uint256,bool)":"c20572af","pollCount()":"9207891d","polls(uint256)":"ac2f0074","predictionBets(uint256,uint256)":"44f0bb77","predictions(uint256,uint256)":"025ae4e2","proposals(uint256,uint256)":"c2cfee27","removeDelegation(address,uint256)":"fd6c914e","removeGroupMembership(uint256)":"4b30ef34","resignAsDelegate(uint256)":"0457bea8","vote(uint256,uint256)":"b384abef"},"id":22}