{"abi":[{"type":"function","name":"addProposal","inputs":[{"name":"_pollId","type":"uint256","internalType":"uint256"},{"name":"_description","type":"string","internalType":"string"}],"outputs":[],"stateMutability":"nonpayable"},{"type":"function","name":"becomeDelegate","inputs":[{"name":"_groupId","type":"uint256","internalType":"uint256"}],"outputs":[],"stateMutability":"nonpayable"},{"type":"function","name":"checkAllRights","inputs":[],"outputs":[{"name":"groups","type":"uint256[]","internalType":"uint256[]"}],"stateMutability":"view"},{"type":"function","name":"checkRightsInGroup","inputs":[{"name":"_group","type":"uint256","internalType":"uint256"}],"outputs":[{"name":"hasRight","type":"bool","internalType":"bool"}],"stateMutability":"view"},{"type":"function","name":"createPoll","inputs":[{"name":"_title","type":"string","internalType":"string"},{"name":"_tag","type":"string","internalType":"string"},{"name":"_group","type":"uint256","internalType":"uint256"},{"name":"_pollStartDate","type":"uint256","internalType":"uint256"},{"name":"_proposalEndDate","type":"uint256","internalType":"uint256"},{"name":"_votingStartDate","type":"uint256","internalType":"uint256"},{"name":"_delegateEndDate","type":"uint256","internalType":"uint256"},{"name":"_endDate","type":"uint256","internalType":"uint256"}],"outputs":[],"stateMutability":"nonpayable"},{"type":"function","name":"delegate","inputs":[{"name":"_groupId","type":"uint256","internalType":"uint256"},{"name":"_delegateTo","type":"address","internalType":"address"}],"outputs":[],"stateMutability":"nonpayable"},{"type":"function","name":"getPollResults","inputs":[{"name":"_pollId","type":"uint256","internalType":"uint256"}],"outputs":[{"name":"","type":"string[]","internalType":"string[]"},{"name":"","type":"uint256[]","internalType":"uint256[]"}],"stateMutability":"view"},{"type":"function","name":"getProposals","inputs":[{"name":"_pollId","type":"uint256","internalType":"uint256"}],"outputs":[{"name":"","type":"tuple[]","internalType":"struct Polls.Proposal[]","components":[{"name":"description","type":"string","internalType":"string"},{"name":"voteCount","type":"uint256","internalType":"uint256"},{"name":"proposalId","type":"uint256","internalType":"uint256"},{"name":"predictionCount","type":"uint256","internalType":"uint256"},{"name":"phase","type":"uint8","internalType":"enum Polls.PollPhase"}]}],"stateMutability":"view"},{"type":"function","name":"giveRightToVote","inputs":[{"name":"_group","type":"uint256","internalType":"uint256"}],"outputs":[],"stateMutability":"payable"},{"type":"function","name":"groupDelegates","inputs":[{"name":"","type":"uint256","internalType":"uint256"},{"name":"","type":"uint256","internalType":"uint256"}],"outputs":[{"name":"delegate","type":"address","internalType":"address"},{"name":"groupId","type":"uint256","internalType":"uint256"},{"name":"delegatedVotes","type":"uint256","internalType":"uint256"},{"name":"groupDelegateId","type":"uint256","internalType":"uint256"}],"stateMutability":"view"},{"type":"function","name":"hasDelegatedInGroup","inputs":[{"name":"_groupId","type":"uint256","internalType":"uint256"}],"outputs":[{"name":"","type":"bool","internalType":"bool"}],"stateMutability":"view"},{"type":"function","name":"hasDelegatedToDelegateInGroup","inputs":[{"name":"_groupId","type":"uint256","internalType":"uint256"},{"name":"_delegate","type":"address","internalType":"address"}],"outputs":[{"name":"","type":"bool","internalType":"bool"}],"stateMutability":"view"},{"type":"function","name":"pollCount","inputs":[],"outputs":[{"name":"","type":"uint256","internalType":"uint256"}],"stateMutability":"view"},{"type":"function","name":"polls","inputs":[{"name":"","type":"uint256","internalType":"uint256"}],"outputs":[{"name":"title","type":"string","internalType":"string"},{"name":"tag","type":"string","internalType":"string"},{"name":"group","type":"uint256","internalType":"uint256"},{"name":"pollStartDate","type":"uint256","internalType":"uint256"},{"name":"proposalEndDate","type":"uint256","internalType":"uint256"},{"name":"votingStartDate","type":"uint256","internalType":"uint256"},{"name":"delegateEndDate","type":"uint256","internalType":"uint256"},{"name":"endDate","type":"uint256","internalType":"uint256"},{"name":"pollId","type":"uint256","internalType":"uint256"},{"name":"proposalCount","type":"uint256","internalType":"uint256"},{"name":"phase","type":"uint8","internalType":"enum Polls.PollPhase"}],"stateMutability":"view"},{"type":"function","name":"proposals","inputs":[{"name":"","type":"uint256","internalType":"uint256"},{"name":"","type":"uint256","internalType":"uint256"}],"outputs":[{"name":"description","type":"string","internalType":"string"},{"name":"voteCount","type":"uint256","internalType":"uint256"},{"name":"proposalId","type":"uint256","internalType":"uint256"},{"name":"predictionCount","type":"uint256","internalType":"uint256"},{"name":"phase","type":"uint8","internalType":"enum Polls.PollPhase"}],"stateMutability":"view"},{"type":"function","name":"removeDelegation","inputs":[{"name":"_delegate","type":"address","internalType":"address"},{"name":"_groupId","type":"uint256","internalType":"uint256"}],"outputs":[],"stateMutability":"nonpayable"},{"type":"function","name":"removeRightToVote","inputs":[{"name":"_group","type":"uint256","internalType":"uint256"}],"outputs":[],"stateMutability":"payable"},{"type":"function","name":"resignAsDelegate","inputs":[{"name":"_groupId","type":"uint256","internalType":"uint256"}],"outputs":[],"stateMutability":"nonpayable"},{"type":"function","name":"vote","inputs":[{"name":"_pollId","type":"uint256","internalType":"uint256"},{"name":"_proposalId","type":"uint256","internalType":"uint256"}],"outputs":[],"stateMutability":"nonpayable"},{"type":"event","name":"DelegateResignation","inputs":[{"name":"delegate","type":"address","indexed":true,"internalType":"address"},{"name":"groupId","type":"uint256","indexed":true,"internalType":"uint256"}],"anonymous":false},{"type":"event","name":"DelegationRemoved","inputs":[{"name":"from","type":"address","indexed":true,"internalType":"address"},{"name":"by","type":"address","indexed":true,"internalType":"address"},{"name":"groupId","type":"uint256","indexed":true,"internalType":"uint256"},{"name":"delegatedVotes","type":"uint256","indexed":false,"internalType":"uint256"}],"anonymous":false},{"type":"event","name":"NewDelegate","inputs":[{"name":"delegate","type":"address","indexed":true,"internalType":"address"},{"name":"groupId","type":"uint256","indexed":true,"internalType":"uint256"},{"name":"delegatedVotes","type":"uint256","indexed":false,"internalType":"uint256"},{"name":"delegationsFrom","type":"address[]","indexed":false,"internalType":"address[]"},{"name":"groupDelegateId","type":"uint256","indexed":false,"internalType":"uint256"}],"anonymous":false},{"type":"event","name":"NewDelegation","inputs":[{"name":"from","type":"address","indexed":true,"internalType":"address"},{"name":"to","type":"address","indexed":true,"internalType":"address"},{"name":"groupId","type":"uint256","indexed":true,"internalType":"uint256"},{"name":"delegatedVotes","type":"uint256","indexed":false,"internalType":"uint256"},{"name":"delegationsFrom","type":"address[]","indexed":false,"internalType":"address[]"}],"anonymous":false},{"type":"event","name":"PermissionGivenToVote","inputs":[{"name":"_group","type":"uint256","indexed":true,"internalType":"uint256"}],"anonymous":false},{"type":"event","name":"PermissionToVoteRemoved","inputs":[{"name":"_group","type":"uint256","indexed":true,"internalType":"uint256"}],"anonymous":false},{"type":"event","name":"PollCreated","inputs":[{"name":"pollId","type":"uint256","indexed":false,"internalType":"uint256"},{"name":"title","type":"string","indexed":false,"internalType":"string"}],"anonymous":false},{"type":"event","name":"ProposalAdded","inputs":[{"name":"pollId","type":"uint256","indexed":true,"internalType":"uint256"},{"name":"proposalId","type":"uint256","indexed":false,"internalType":"uint256"},{"name":"description","type":"string","indexed":false,"internalType":"string"}],"anonymous":false},{"type":"event","name":"VoteSubmitted","inputs":[{"name":"pollId","type":"uint256","indexed":true,"internalType":"uint256"},{"name":"voter","type":"address","indexed":true,"internalType":"address"},{"name":"votesForProposal","type":"uint256","indexed":false,"internalType":"uint256"}],"anonymous":false}],"bytecode":{"object":"0x608060405234801561001057600080fd5b50612fbf806100206000396000f3fe6080604052600436106101145760003560e01c8063ac2f0074116100a0578063bc23bd5111610064578063bc23bd5114610349578063c2cfee271461035c578063d58874891461038d578063de219672146103ad578063fd6c914e146103cd57600080fd5b8063ac2f007414610256578063ac8ec2f91461028d578063ae828f3c146102d7578063b0333e0d146102f9578063b384abef1461032957600080fd5b806333b4097b116100e757806333b4097b146101b1578063395e0139146101df578063422ee52a146101ff5780639207891d14610212578063a00c1f7e1461023657600080fd5b80630457bea814610119578063051097ef1461013b57806308bbb8241461015b5780632c72fdfc1461017b575b600080fd5b34801561012557600080fd5b50610139610134366004612833565b6103ed565b005b34801561014757600080fd5b50610139610156366004612895565b61070e565b34801561016757600080fd5b506101396101763660046128fd565b6108ec565b34801561018757600080fd5b5061019b610196366004612833565b610cd1565b6040516101a891906129a7565b60405180910390f35b3480156101bd57600080fd5b506101d16101cc366004612833565b610e25565b6040516101a8929190612a86565b3480156101eb57600080fd5b506101396101fa366004612833565b6110a8565b61013961020d366004612833565b611247565b34801561021e57600080fd5b5061022860055481565b6040519081526020016101a8565b34801561024257600080fd5b50610139610251366004612afd565b61146e565b34801561026257600080fd5b50610276610271366004612833565b61164d565b6040516101a89b9a99989796959493929190612b9e565b34801561029957600080fd5b506102ad6102a8366004612c19565b6117b7565b604080516001600160a01b03909516855260208501939093529183015260608201526080016101a8565b3480156102e357600080fd5b506102ec611807565b6040516101a89190612c3b565b34801561030557600080fd5b50610319610314366004612833565b611869565b60405190151581526020016101a8565b34801561033557600080fd5b50610139610344366004612c19565b61190c565b610139610357366004612833565b611ced565b34801561036857600080fd5b5061037c610377366004612c19565b611d9e565b6040516101a8959493929190612c55565b34801561039957600080fd5b506103196103a83660046128fd565b611e7d565b3480156103b957600080fd5b506103196103c8366004612833565b611fa9565b3480156103d957600080fd5b506101396103e8366004612c93565b612018565b60606103f98233612355565b61045c5760405162461bcd60e51b815260206004820152602960248201527f596f7520617265206e6f7420612064656c656761746520696e2072657175657360448201526807465642067726f75760bc1b60648201526084015b60405180910390fd5b600082815260016020526040812054905b818110156105b357600084815260016020526040902080543391908390811061049857610498612cbd565b60009182526020909120600590910201546001600160a01b0316036105ab5760008481526001602052604090208054829081106104d7576104d7612cbd565b906000526020600020906005020160030180548060200260200160405190810160405280929190818152602001828054801561053c57602002820191906000526020600020905b81546001600160a01b0316815260019091019060200180831161051e575b5050505050925060016000858152602001908152602001600020818154811061056757610567612cbd565b60009182526020822060059091020180546001600160a01b03191681556001810182905560028101829055906105a0600383018261279b565b600482016000905550505b60010161046d565b5060005b82518110156106db57600360008483815181106105d6576105d6612cbd565b60200260200101516001600160a01b03166001600160a01b0316815260200190815260200160002080549050915060005b828110156106d257846003600086858151811061062657610626612cbd565b60200260200101516001600160a01b03166001600160a01b03168152602001908152602001600020828154811061065f5761065f612cbd565b9060005260206000200154036106ca576003600085848151811061068557610685612cbd565b60200260200101516001600160a01b03166001600160a01b0316815260200190815260200160002081815481106106be576106be612cbd565b60009182526020822001555b600101610607565b506001016105b7565b50604051839033907f4a49253305f0d63099f6b61a9d355ce9fd607a6b536918966a9b09cd46b4da8b90600090a3505050565b6000806000858152600460205260409020600a015460ff1660038111156107375761073761296f565b149050806107935760405162461bcd60e51b8152602060048201526024808201527f596f752063616e206e6f7420706c6163652070726f706f73616c207269676874604482015263206e6f7760e01b6064820152608401610453565b61079c846123cc565b60008481526004602052604081206009018054916107b983612ce9565b90915550506000848152600460209081526040808320600901546006835292819020815160c0601f88018590049094028101840190925260a08201868152909282919088908890819085018382808284376000920182905250938552505050602082018190526040820185905260608201526080016001905281546001810183556000928352602090922081519192600502019081906108599082612da3565b5060208201518160010155604082015181600201556060820151816003015560808201518160040160006101000a81548160ff021916908360038111156108a2576108a261296f565b02179055505050847fbb878f2a2e892d9a3562cba951f66485d18cf663715d59785bd1eafe3697a8c38286866040516108dd93929190612e63565b60405180910390a25050505050565b6108f68282612355565b61095f5760405162461bcd60e51b815260206004820152603460248201527f5468652061646472657373206973206e6f7420612064656c656761746520696e604482015273020746865207370656369666965642067726f75760641b6064820152608401610453565b61096882612426565b6109d15760405162461bcd60e51b815260206004820152603460248201527f596f752063616e206f6e6c792064656c656761746520696e2067726f757073206044820152733cb7ba9030b93290309036b2b6b132b91037b31760611b6064820152608401610453565b6109da82611869565b15610a3c5760405162461bcd60e51b815260206004820152602c60248201527f596f75206861766520616e206163746976652064656c65676174696f6e20696e60448201526b103a3434b99033b937bab81760a11b6064820152608401610453565b336001600160a01b03821603610a945760405162461bcd60e51b815260206004820181905260248201527f596f752063616e206e6f742064656c656761746520746f20796f757273656c666044820152606401610453565b33600090815260036020908152604080832080546001818101835591855283852001869055858452909152812054606090825b81811015610c7b57600086815260016020526040902080546001600160a01b038716919083908110610afb57610afb612cbd565b60009182526020909120600590910201546001600160a01b031603610c73576000868152600160205260409020805482908110610b3a57610b3a612cbd565b600091825260208220600260059092020101805491610b5883612ce9565b90915550506000868152600160205260409020805482908110610b7d57610b7d612cbd565b600091825260208083206003600590930201919091018054600181810183559184528284200180546001600160a01b03191633179055888352905260409020805482908110610bce57610bce612cbd565b9060005260206000209060050201600201549350600160008781526020019081526020016000208181548110610c0657610c06612cbd565b9060005260206000209060050201600301805480602002602001604051908101604052809291908181526020018280548015610c6b57602002820191906000526020600020905b81546001600160a01b03168152600190910190602001808311610c4d575b505050505092505b600101610ac7565b5084846001600160a01b0316336001600160a01b03167f666c49d8439089d417a99690492068a6e44b8f5ee919a4e15f72d0185e6034408686604051610cc2929190612ed3565b60405180910390a45050505050565b6060610cdc826123cc565b600082815260066020908152604080832080548251818502810185019093528083529193909284015b82821015610e1a57838290600052602060002090600502016040518060a0016040529081600082018054610d3890612d18565b80601f0160208091040260200160405190810160405280929190818152602001828054610d6490612d18565b8015610db15780601f10610d8657610100808354040283529160200191610db1565b820191906000526020600020905b815481529060010190602001808311610d9457829003601f168201915b505050918352505060018201546020820152600282015460408201526003808301546060830152600483015460809092019160ff1690811115610df657610df661296f565b6003811115610e0757610e0761296f565b8152505081526020019060010190610d05565b505050509050919050565b606080610e31836123cc565b600083815260066020908152604080832080548251818502810185019093528083529192909190849084015b82821015610f7257838290600052602060002090600502016040518060a0016040529081600082018054610e9090612d18565b80601f0160208091040260200160405190810160405280929190818152602001828054610ebc90612d18565b8015610f095780601f10610ede57610100808354040283529160200191610f09565b820191906000526020600020905b815481529060010190602001808311610eec57829003601f168201915b505050918352505060018201546020820152600282015460408201526003808301546060830152600483015460809092019160ff1690811115610f4e57610f4e61296f565b6003811115610f5f57610f5f61296f565b8152505081526020019060010190610e5d565b5050505090506000815167ffffffffffffffff811115610f9457610f94612d02565b604051908082528060200260200182016040528015610fc757816020015b6060815260200190600190039081610fb25790505b5090506000825167ffffffffffffffff811115610fe657610fe6612d02565b60405190808252806020026020018201604052801561100f578160200160208202803683370190505b50905060005b835181101561109c5783818151811061103057611030612cbd565b60200260200101516000015183828151811061104e5761104e612cbd565b602002602001018190525083818151811061106b5761106b612cbd565b60200260200101516020015182828151811061108957611089612cbd565b6020908102919091010152600101611015565b50909590945092505050565b6110b28133612355565b156111145760405162461bcd60e51b815260206004820152602c60248201527f596f752061726520616c726561647920612064656c656761746520696e20737060448201526b06563696669632067726f75760a41b6064820152608401610453565b600081815260026020526040812080549161112e83612ce9565b90915550506040805160a081018252338152602080820184815260008385018181528551828152808501875260608601908152878352600280865287842054608088015288845260018087529784208054808a01825590855293869020875160059095020180546001600160a01b0319166001600160a01b039095169490941784559351968301969096555191810191909155925180519293849390926111dc9260038501929101906127b9565b50608082015181600401555050806020015181600001516001600160a01b03167fb5977a248b20510642da018e687e9ba90beb459651acf6b82b232aeab1aac86e83604001518460600151856080015160405161123b93929190612ef4565b60405180910390a35050565b6112508161248c565b156112af5760405162461bcd60e51b815260206004820152602960248201527f43616e27742066696e642067726f757020796f752061726520747279696e6720604482015268746f2072656d6f766560b81b6064820152608401610453565b3360009081526020818152604080832060010180548251818502810185019093528083526113119383018282801561130657602002820191906000526020600020905b8154815260200190600101908083116112f2575b505050505083612530565b33600090815260208190526040902060010154909150811061136a5760405162461bcd60e51b81526020600482015260126024820152711a5b99195e081bdd5d081bd988189bdd5b9960721b6044820152606401610453565b805b33600090815260208190526040902060019081015461138b9190612f1d565b811015611405573360009081526020819052604090206001908101906113b2908390612f30565b815481106113c2576113c2612cbd565b60009182526020808320909101543383529082905260409091206001018054839081106113f1576113f1612cbd565b60009182526020909120015560010161136c565b5033600090815260208190526040902060010180548061142757611427612f43565b60019003818190600052602060002001600090559055817f90da14bd9eb8fde3e05a9aafa41174e865f627f0d3fea95c160853f866913cd760405160405180910390a25050565b6005805490600061147e83612ce9565b9091555050604080516101806020601f8d01819004028201810190925261016081018b81526000928291908e908e9081908501838280828437600092019190915250505090825250604080516020601f8d018190048102820181019092528b815291810191908c908c90819084018382808284376000920182905250938552505050602082018a905260408201899052606082018890526080820187905260a0820186905260c0820185905260055460e083015261010082018190526101209091015261010081015181516040519293507f65d5ac2bf1bca69566bef1affdfca5bb37b9577fc0b3af4c7c4638225e67b39c9261157c929190612f59565b60405180910390a16005546000908152600460205260409020815182919081906115a69082612da3565b50602082015160018201906115bb9082612da3565b5060408201518160020155606082015181600301556080820151816004015560a0820151816005015560c0820151816006015560e082015181600701556101008201518160080155610120820151816009015561014082015181600a0160006101000a81548160ff021916908360038111156116395761163961296f565b021790555050505050505050505050505050565b60046020526000908152604090208054819061166890612d18565b80601f016020809104026020016040519081016040528092919081815260200182805461169490612d18565b80156116e15780601f106116b6576101008083540402835291602001916116e1565b820191906000526020600020905b8154815290600101906020018083116116c457829003601f168201915b5050505050908060010180546116f690612d18565b80601f016020809104026020016040519081016040528092919081815260200182805461172290612d18565b801561176f5780601f106117445761010080835404028352916020019161176f565b820191906000526020600020905b81548152906001019060200180831161175257829003601f168201915b50505060028401546003850154600486015460058701546006880154600789015460088a015460098b0154600a909b0154999a96999598509396509194909391929160ff168b565b600160205281600052604060002081815481106117d357600080fd5b600091825260209091206005909102018054600182015460028301546004909301546001600160a01b039092169450925084565b336000908152602081815260409182902060010180548351818402810184019094528084526060939283018282801561185f57602002820191906000526020600020905b81548152602001906001019080831161184b575b5050505050905090565b336000908152600360209081526040808320805482518185028101850190935280835284938301828280156118bd57602002820191906000526020600020905b8154815260200190600101908083116118a9575b5050505050905060005b815181101561190257838282815181106118e3576118e3612cbd565b6020026020010151036118fa575060019392505050565b6001016118c7565b5060009392505050565b60008281526004602052604081206002015490611928846123cc565b611931846125a1565b61198c5760405162461bcd60e51b815260206004820152602660248201527f5468652075736572206973206e6f742061206d656d626572206f6620706f6c6c60448201526502067726f75760d41b6064820152608401610453565b6119958461264e565b156119e25760405162461bcd60e51b815260206004820152601a60248201527f566f74652068617320616c7265616479206265656e20636173740000000000006044820152606401610453565b600083118015611a0357506000848152600460205260409020600901548311155b611a4f5760405162461bcd60e51b815260206004820152601760248201527f50726f706f73616c20646f6573206e6f742065786973740000000000000000006044820152606401610453565b611a5882612702565b15611abe5760405162461bcd60e51b815260206004820152603060248201527f596f7520686176652064656c65676174656420796f757220766f746520696e2060448201526f3a3432903837b636399033b937bab81760811b6064820152608401610453565b6000848152600660209081526040808320858452600190925282205490915b81811015611b64576000858152600160205260409020805433919083908110611b0857611b08612cbd565b60009182526020909120600590910201546001600160a01b031603611b5c576000858152600160205260409020805482908110611b4757611b47612cbd565b90600052602060002090600502016002015493505b600101611add565b5081546000805b82811015611c895787858281548110611b8657611b86612cbd565b90600052602060002090600502016002015403611c8157611ba8866001612f30565b858281548110611bba57611bba612cbd565b90600052602060002090600502016001016000828254611bda9190612f30565b92505081905550848181548110611bf357611bf3612cbd565b6000918252602080832060016005909302018201548c84526007825260408085208054948501815585529190932090910180546001600160a01b031916339081179091559051919350908a907fa5876137634fc61be6a6224d5f4a2d0926145388c51a133c03cc00f7b66e0e3c90611c6e9086815260200190565b60405180910390a3505050505050505050565b600101611b6b565b5060405162461bcd60e51b815260206004820152603260248201527f5468657265206973206e6f20737563682070726f706f73616c20666f7220746860448201527119481cdc1958da599a5959081c1bdb1b125960721b6064820152608401610453565b611cf68161248c565b611d4e5760405162461bcd60e51b8152602060048201526024808201527f5065726d697373696f6e20697320616c726561647920676976656e20696e20676044820152630726f75760e41b6064820152608401610453565b3360009081526020818152604080832060019081018054918201815584529183209091018390555182917f8aa97af2947aac0dc42394954c6dd127eba5cecbc5a03fae31e5cc07d6738fe591a250565b60066020528160005260406000208181548110611dba57600080fd5b906000526020600020906005020160009150915050806000018054611dde90612d18565b80601f0160208091040260200160405190810160405280929190818152602001828054611e0a90612d18565b8015611e575780601f10611e2c57610100808354040283529160200191611e57565b820191906000526020600020905b815481529060010190602001808311611e3a57829003601f168201915b505050506001830154600284015460038501546004909501549394919390925060ff1685565b600082815260016020526040812054815b81811015611f9c57600085815260016020526040902080546001600160a01b038616919083908110611ec257611ec2612cbd565b60009182526020909120600590910201546001600160a01b031603611f94576000858152600160205260409020805482908110611f0157611f01612cbd565b6000918252602082206003600590920201015492505b82811015611f92576000868152600160205260409020805433919084908110611f4257611f42612cbd565b90600052602060002090600502016003018281548110611f6457611f64612cbd565b6000918252602090912001546001600160a01b031603611f8a5760019350505050611fa3565b600101611f17565b505b600101611e8e565b5060009150505b92915050565b6000805b3360009081526020819052604090206001015481101561200f57336000908152602081905260409020600101805484919083908110611fee57611fee612cbd565b9060005260206000200154036120075750600192915050565b600101611fad565b50600092915050565b6120228183611e7d565b6120945760405162461bcd60e51b815260206004820152603e60248201527f596f752068617665206e6f742064656c65676174656420746f2074686520737060448201527f656369666965642064656c656761746520696e20746869732067726f757000006064820152608401610453565b600081815260016020526040812054815b8181101561227b57600084815260016020526040902080546001600160a01b0387169190839081106120d9576120d9612cbd565b60009182526020909120600590910201546001600160a01b03160361227357600084815260016020526040902080548290811061211857612118612cbd565b60009182526020822060026005909202010180549161213683612f72565b9091555050600084815260016020526040902080548290811061215b5761215b612cbd565b906000526020600020906005020160020154925060005b600085815260016020526040902080548390811061219257612192612cbd565b9060005260206000209060050201600301805490508110156122715760008581526001602052604090208054339190849081106121d1576121d1612cbd565b906000526020600020906005020160030182815481106121f3576121f3612cbd565b6000918252602090912001546001600160a01b03160361226957600085815260016020526040902080548390811061222d5761222d612cbd565b9060005260206000209060050201600301818154811061224f5761224f612cbd565b600091825260209091200180546001600160a01b03191690555b600101612172565b505b6001016120a5565b505033600090815260036020526040812054905b81811015612300573360009081526003602052604090208054859190839081106122bb576122bb612cbd565b9060005260206000200154036122f8573360009081526003602052604090208054829081106122ec576122ec612cbd565b60009182526020822001555b60010161228f565b5082336001600160a01b0316856001600160a01b03167ffe78e1dedca6af8797c8c45500588ea289add8b4b886f1d9b8d3824796274e368560405161234791815260200190565b60405180910390a450505050565b600082815260016020526040812054815b81811015611f9c57600085815260016020526040902080546001600160a01b03861691908390811061239a5761239a612cbd565b60009182526020909120600590910201546001600160a01b0316036123c457600192505050611fa3565b600101612366565b6000811180156123de57506005548111155b6124235760405162461bcd60e51b8152602060048201526016602482015275141bdb1b08125108191bd95cc81b9bdd08195e1a5cdd60521b6044820152606401610453565b50565b33600090815260208190526040812060010154815b818110156119025733600090815260208190526040902060010180548591908390811061246a5761246a612cbd565b906000526020600020015403612484575060019392505050565b60010161243b565b33600090815260208181526040808320600101805482518185028101850190935280835284938301828280156124e157602002820191906000526020600020905b8154815260200190600101908083116124cd575b5050505050905060005b8151811015612526578382828151811061250757612507612cbd565b60200260200101510361251e575060009392505050565b6001016124eb565b5060019392505050565b6000805b835181101561256c578284828151811061255057612550612cbd565b602002602001015103612564579050611fa3565b600101612534565b5060405162461bcd60e51b8152602060048201526009602482015268139bdd08119bdd5b9960ba1b6044820152606401610453565b33600090815260208181526040808320600101805482518185028101850190935280835284938301828280156125f657602002820191906000526020600020905b8154815260200190600101908083116125e2575b5050505050905060005b815181101561190257600084815260046020526040902060020154825183908390811061262f5761262f612cbd565b602002602001015103612646575060019392505050565b600101612600565b6000818152600760209081526040808320805482518185028101850190935280835284938301828280156126ab57602002820191906000526020600020905b81546001600160a01b0316815260019091019060200180831161268d575b5050505050905060005b815181101561190257336001600160a01b03168282815181106126da576126da612cbd565b60200260200101516001600160a01b0316036126fa575060019392505050565b6001016126b5565b3360009081526003602090815260408083208054825181850281018501909352808352849383018282801561275657602002820191906000526020600020905b815481526020019060010190808311612742575b5050505050905060005b8151811015611902578382828151811061277c5761277c612cbd565b602002602001015103612793575060019392505050565b600101612760565b5080546000825590600052602060002090810190612423919061281e565b82805482825590600052602060002090810192821561280e579160200282015b8281111561280e57825182546001600160a01b0319166001600160a01b039091161782556020909201916001909101906127d9565b5061281a92915061281e565b5090565b5b8082111561281a576000815560010161281f565b60006020828403121561284557600080fd5b5035919050565b60008083601f84011261285e57600080fd5b50813567ffffffffffffffff81111561287657600080fd5b60208301915083602082850101111561288e57600080fd5b9250929050565b6000806000604084860312156128aa57600080fd5b83359250602084013567ffffffffffffffff8111156128c857600080fd5b6128d48682870161284c565b9497909650939450505050565b80356001600160a01b03811681146128f857600080fd5b919050565b6000806040838503121561291057600080fd5b82359150612920602084016128e1565b90509250929050565b6000815180845260005b8181101561294f57602081850181015186830182015201612933565b506000602082860101526020601f19601f83011685010191505092915050565b634e487b7160e01b600052602160045260246000fd5b600481106129a357634e487b7160e01b600052602160045260246000fd5b9052565b600060208083018184528085518083526040925060408601915060408160051b87010184880160005b83811015612a3c57603f19898403018552815160a081518186526129f682870182612929565b9150508882015189860152878201518886015260608083015181870152506080808301519250612a2881870184612985565b5095880195935050908601906001016129d0565b509098975050505050505050565b60008151808452602080850194506020840160005b83811015612a7b57815187529582019590820190600101612a5f565b509495945050505050565b6000604082016040835280855180835260608501915060608160051b8601019250602080880160005b83811015612add57605f19888703018552612acb868351612929565b95509382019390820190600101612aaf565b50505050508281036020840152612af48185612a4a565b95945050505050565b6000806000806000806000806000806101008b8d031215612b1d57600080fd5b8a3567ffffffffffffffff80821115612b3557600080fd5b612b418e838f0161284c565b909c509a5060208d0135915080821115612b5a57600080fd5b50612b678d828e0161284c565b9b9e9a9d509b60408101359a60608201359a506080820135995060a0820135985060c0820135975060e09091013595509350505050565b6000610160808352612bb28184018f612929565b90508281036020840152612bc6818e612929565b9150508a60408301528960608301528860808301528760a08301528660c08301528560e08301528461010083015283610120830152612c09610140830184612985565b9c9b505050505050505050505050565b60008060408385031215612c2c57600080fd5b50508035926020909101359150565b602081526000612c4e6020830184612a4a565b9392505050565b60a081526000612c6860a0830188612929565b9050856020830152846040830152836060830152612c896080830184612985565b9695505050505050565b60008060408385031215612ca657600080fd5b612caf836128e1565b946020939093013593505050565b634e487b7160e01b600052603260045260246000fd5b634e487b7160e01b600052601160045260246000fd5b600060018201612cfb57612cfb612cd3565b5060010190565b634e487b7160e01b600052604160045260246000fd5b600181811c90821680612d2c57607f821691505b602082108103612d4c57634e487b7160e01b600052602260045260246000fd5b50919050565b601f821115612d9e576000816000526020600020601f850160051c81016020861015612d7b5750805b601f850160051c820191505b81811015612d9a57828155600101612d87565b5050505b505050565b815167ffffffffffffffff811115612dbd57612dbd612d02565b612dd181612dcb8454612d18565b84612d52565b602080601f831160018114612e065760008415612dee5750858301515b600019600386901b1c1916600185901b178555612d9a565b600085815260208120601f198616915b82811015612e3557888601518255948401946001909101908401612e16565b5085821015612e535787850151600019600388901b60f8161c191681555b5050505050600190811b01905550565b83815260406020820152816040820152818360608301376000818301606090810191909152601f909201601f1916010192915050565b60008151808452602080850194506020840160005b83811015612a7b5781516001600160a01b031687529582019590820190600101612eae565b828152604060208201526000612eec6040830184612e99565b949350505050565b838152606060208201526000612f0d6060830185612e99565b9050826040830152949350505050565b81810381811115611fa357611fa3612cd3565b80820180821115611fa357611fa3612cd3565b634e487b7160e01b600052603160045260246000fd5b828152604060208201526000612eec6040830184612929565b600081612f8157612f81612cd3565b50600019019056fea26469706673582212207f907f62c8b8c5a9b8bd74c2754f8d15256ff00908f968a9d54209407b41aa4164736f6c63430008170033","linkReferences":{}},"methodIdentifiers":{"addProposal(uint256,string)":"051097ef","becomeDelegate(uint256)":"395e0139","checkAllRights()":"ae828f3c","checkRightsInGroup(uint256)":"de219672","createPoll(string,string,uint256,uint256,uint256,uint256,uint256,uint256)":"a00c1f7e","delegate(uint256,address)":"08bbb824","getPollResults(uint256)":"33b4097b","getProposals(uint256)":"2c72fdfc","giveRightToVote(uint256)":"bc23bd51","groupDelegates(uint256,uint256)":"ac8ec2f9","hasDelegatedInGroup(uint256)":"b0333e0d","hasDelegatedToDelegateInGroup(uint256,address)":"d5887489","pollCount()":"9207891d","polls(uint256)":"ac2f0074","proposals(uint256,uint256)":"c2cfee27","removeDelegation(address,uint256)":"fd6c914e","removeRightToVote(uint256)":"422ee52a","resignAsDelegate(uint256)":"0457bea8","vote(uint256,uint256)":"b384abef"},"id":20}