{"abi":[{"type":"function","name":"addProposal","inputs":[{"name":"_pollId","type":"uint256","internalType":"uint256"},{"name":"_description","type":"string","internalType":"string"}],"outputs":[],"stateMutability":"nonpayable"},{"type":"function","name":"becomeDelegate","inputs":[{"name":"_groupId","type":"uint256","internalType":"uint256"}],"outputs":[],"stateMutability":"nonpayable"},{"type":"function","name":"becomeMemberOfGroup","inputs":[{"name":"_group","type":"uint256","internalType":"uint256"}],"outputs":[],"stateMutability":"payable"},{"type":"function","name":"createPoll","inputs":[{"name":"_title","type":"string","internalType":"string"},{"name":"_tag","type":"string","internalType":"string"},{"name":"_group","type":"uint256","internalType":"uint256"},{"name":"_pollStartDate","type":"uint256","internalType":"uint256"},{"name":"_proposalEndDate","type":"uint256","internalType":"uint256"},{"name":"_votingStartDate","type":"uint256","internalType":"uint256"},{"name":"_delegateEndDate","type":"uint256","internalType":"uint256"},{"name":"_endDate","type":"uint256","internalType":"uint256"}],"outputs":[],"stateMutability":"nonpayable"},{"type":"function","name":"createPrediction","inputs":[{"name":"_pollId","type":"uint256","internalType":"uint256"},{"name":"_proposalId","type":"uint256","internalType":"uint256"},{"name":"_prediction","type":"string","internalType":"string"}],"outputs":[],"stateMutability":"nonpayable"},{"type":"function","name":"delegate","inputs":[{"name":"_groupId","type":"uint256","internalType":"uint256"},{"name":"_delegateTo","type":"address","internalType":"address"}],"outputs":[],"stateMutability":"nonpayable"},{"type":"function","name":"getGroupsUserIsMemberIn","inputs":[],"outputs":[{"name":"groups","type":"uint256[]","internalType":"uint256[]"}],"stateMutability":"view"},{"type":"function","name":"getPoll","inputs":[{"name":"_pollId","type":"uint256","internalType":"uint256"}],"outputs":[{"name":"","type":"tuple","internalType":"struct PollStructs.Poll","components":[{"name":"title","type":"string","internalType":"string"},{"name":"tag","type":"string","internalType":"string"},{"name":"group","type":"uint256","internalType":"uint256"},{"name":"pollStartDate","type":"uint256","internalType":"uint256"},{"name":"proposalEndDate","type":"uint256","internalType":"uint256"},{"name":"votingStartDate","type":"uint256","internalType":"uint256"},{"name":"delegateEndDate","type":"uint256","internalType":"uint256"},{"name":"endDate","type":"uint256","internalType":"uint256"},{"name":"pollId","type":"uint256","internalType":"uint256"},{"name":"proposalCount","type":"uint256","internalType":"uint256"},{"name":"phase","type":"uint8","internalType":"enum PollStructs.PollPhase"}]}],"stateMutability":"view"},{"type":"function","name":"getPollResults","inputs":[{"name":"_pollId","type":"uint256","internalType":"uint256"}],"outputs":[{"name":"","type":"string[]","internalType":"string[]"},{"name":"","type":"uint256[]","internalType":"uint256[]"}],"stateMutability":"view"},{"type":"function","name":"getPredictionBets","inputs":[{"name":"_pollId","type":"uint256","internalType":"uint256"},{"name":"_proposalId","type":"uint256","internalType":"uint256"},{"name":"_predictionId","type":"uint256","internalType":"uint256"}],"outputs":[{"name":"","type":"tuple[]","internalType":"struct PredictionBetStructs.PredictionBet[]","components":[{"name":"pollId","type":"uint256","internalType":"uint256"},{"name":"proposalId","type":"uint256","internalType":"uint256"},{"name":"predictionId","type":"uint256","internalType":"uint256"},{"name":"bet","type":"bool","internalType":"bool"},{"name":"likelihood","type":"uint256","internalType":"uint256"},{"name":"phase","type":"uint8","internalType":"enum PollStructs.PollPhase"}]}],"stateMutability":"view"},{"type":"function","name":"getPredictions","inputs":[{"name":"_pollId","type":"uint256","internalType":"uint256"},{"name":"_proposalId","type":"uint256","internalType":"uint256"}],"outputs":[{"name":"","type":"tuple[]","internalType":"struct PredictionStructs.Prediction[]","components":[{"name":"pollId","type":"uint256","internalType":"uint256"},{"name":"proposalId","type":"uint256","internalType":"uint256"},{"name":"predictionId","type":"uint256","internalType":"uint256"},{"name":"prediction","type":"string","internalType":"string"},{"name":"phase","type":"uint8","internalType":"enum PollStructs.PollPhase"}]}],"stateMutability":"view"},{"type":"function","name":"getProposals","inputs":[{"name":"_pollId","type":"uint256","internalType":"uint256"}],"outputs":[{"name":"","type":"tuple[]","internalType":"struct ProposalStructs.Proposal[]","components":[{"name":"description","type":"string","internalType":"string"},{"name":"voteCount","type":"uint256","internalType":"uint256"},{"name":"proposalId","type":"uint256","internalType":"uint256"},{"name":"predictionCount","type":"uint256","internalType":"uint256"},{"name":"phase","type":"uint8","internalType":"enum PollStructs.PollPhase"}]}],"stateMutability":"view"},{"type":"function","name":"groupDelegates","inputs":[{"name":"","type":"uint256","internalType":"uint256"},{"name":"","type":"uint256","internalType":"uint256"}],"outputs":[{"name":"delegate","type":"address","internalType":"address"},{"name":"groupId","type":"uint256","internalType":"uint256"},{"name":"delegatedVotes","type":"uint256","internalType":"uint256"},{"name":"groupDelegateId","type":"uint256","internalType":"uint256"}],"stateMutability":"view"},{"type":"function","name":"hasDelegatedInGroup","inputs":[{"name":"_groupId","type":"uint256","internalType":"uint256"}],"outputs":[{"name":"","type":"bool","internalType":"bool"}],"stateMutability":"view"},{"type":"function","name":"hasDelegatedToDelegateInGroup","inputs":[{"name":"_groupId","type":"uint256","internalType":"uint256"},{"name":"_delegate","type":"address","internalType":"address"}],"outputs":[{"name":"","type":"bool","internalType":"bool"}],"stateMutability":"view"},{"type":"function","name":"isUserMemberOfGroup","inputs":[{"name":"_group","type":"uint256","internalType":"uint256"}],"outputs":[{"name":"hasRight","type":"bool","internalType":"bool"}],"stateMutability":"view"},{"type":"function","name":"placePredictionBet","inputs":[{"name":"_pollId","type":"uint256","internalType":"uint256"},{"name":"_proposalId","type":"uint256","internalType":"uint256"},{"name":"_predictionId","type":"uint256","internalType":"uint256"},{"name":"_likelihood","type":"uint256","internalType":"uint256"},{"name":"_bet","type":"bool","internalType":"bool"}],"outputs":[],"stateMutability":"nonpayable"},{"type":"function","name":"pollCount","inputs":[],"outputs":[{"name":"","type":"uint256","internalType":"uint256"}],"stateMutability":"view"},{"type":"function","name":"polls","inputs":[{"name":"","type":"uint256","internalType":"uint256"}],"outputs":[{"name":"title","type":"string","internalType":"string"},{"name":"tag","type":"string","internalType":"string"},{"name":"group","type":"uint256","internalType":"uint256"},{"name":"pollStartDate","type":"uint256","internalType":"uint256"},{"name":"proposalEndDate","type":"uint256","internalType":"uint256"},{"name":"votingStartDate","type":"uint256","internalType":"uint256"},{"name":"delegateEndDate","type":"uint256","internalType":"uint256"},{"name":"endDate","type":"uint256","internalType":"uint256"},{"name":"pollId","type":"uint256","internalType":"uint256"},{"name":"proposalCount","type":"uint256","internalType":"uint256"},{"name":"phase","type":"uint8","internalType":"enum PollStructs.PollPhase"}],"stateMutability":"view"},{"type":"function","name":"predictionBets","inputs":[{"name":"","type":"uint256","internalType":"uint256"},{"name":"","type":"uint256","internalType":"uint256"}],"outputs":[{"name":"pollId","type":"uint256","internalType":"uint256"},{"name":"proposalId","type":"uint256","internalType":"uint256"},{"name":"predictionId","type":"uint256","internalType":"uint256"},{"name":"bet","type":"bool","internalType":"bool"},{"name":"likelihood","type":"uint256","internalType":"uint256"},{"name":"phase","type":"uint8","internalType":"enum PollStructs.PollPhase"}],"stateMutability":"view"},{"type":"function","name":"predictions","inputs":[{"name":"","type":"uint256","internalType":"uint256"},{"name":"","type":"uint256","internalType":"uint256"}],"outputs":[{"name":"pollId","type":"uint256","internalType":"uint256"},{"name":"proposalId","type":"uint256","internalType":"uint256"},{"name":"predictionId","type":"uint256","internalType":"uint256"},{"name":"prediction","type":"string","internalType":"string"},{"name":"phase","type":"uint8","internalType":"enum PollStructs.PollPhase"}],"stateMutability":"view"},{"type":"function","name":"proposals","inputs":[{"name":"","type":"uint256","internalType":"uint256"},{"name":"","type":"uint256","internalType":"uint256"}],"outputs":[{"name":"description","type":"string","internalType":"string"},{"name":"voteCount","type":"uint256","internalType":"uint256"},{"name":"proposalId","type":"uint256","internalType":"uint256"},{"name":"predictionCount","type":"uint256","internalType":"uint256"},{"name":"phase","type":"uint8","internalType":"enum PollStructs.PollPhase"}],"stateMutability":"view"},{"type":"function","name":"removeDelegation","inputs":[{"name":"_delegate","type":"address","internalType":"address"},{"name":"_groupId","type":"uint256","internalType":"uint256"}],"outputs":[],"stateMutability":"nonpayable"},{"type":"function","name":"removeGroupMembership","inputs":[{"name":"_group","type":"uint256","internalType":"uint256"}],"outputs":[],"stateMutability":"payable"},{"type":"function","name":"resignAsDelegate","inputs":[{"name":"_groupId","type":"uint256","internalType":"uint256"}],"outputs":[],"stateMutability":"nonpayable"},{"type":"function","name":"vote","inputs":[{"name":"_pollId","type":"uint256","internalType":"uint256"},{"name":"_proposalId","type":"uint256","internalType":"uint256"}],"outputs":[],"stateMutability":"nonpayable"},{"type":"event","name":"DelegateResignation","inputs":[{"name":"delegate","type":"address","indexed":true,"internalType":"address"},{"name":"groupId","type":"uint256","indexed":true,"internalType":"uint256"}],"anonymous":false},{"type":"event","name":"NewDelegate","inputs":[{"name":"delegate","type":"address","indexed":true,"internalType":"address"},{"name":"groupId","type":"uint256","indexed":true,"internalType":"uint256"},{"name":"delegatedVotes","type":"uint256","indexed":false,"internalType":"uint256"},{"name":"delegationsFrom","type":"address[]","indexed":false,"internalType":"address[]"},{"name":"groupDelegateId","type":"uint256","indexed":false,"internalType":"uint256"}],"anonymous":false},{"type":"event","name":"NewDelegation","inputs":[{"name":"from","type":"address","indexed":true,"internalType":"address"},{"name":"to","type":"address","indexed":true,"internalType":"address"},{"name":"groupId","type":"uint256","indexed":true,"internalType":"uint256"},{"name":"delegatedVotes","type":"uint256","indexed":false,"internalType":"uint256"},{"name":"delegationsFrom","type":"address[]","indexed":false,"internalType":"address[]"}],"anonymous":false},{"type":"event","name":"PermissionGivenToVote","inputs":[{"name":"_group","type":"uint256","indexed":true,"internalType":"uint256"}],"anonymous":false},{"type":"event","name":"PollCreated","inputs":[{"name":"pollId","type":"uint256","indexed":false,"internalType":"uint256"},{"name":"title","type":"string","indexed":false,"internalType":"string"}],"anonymous":false},{"type":"event","name":"PredictionBetCreated","inputs":[{"name":"predictionId","type":"uint256","indexed":true,"internalType":"uint256"},{"name":"bet","type":"bool","indexed":false,"internalType":"bool"},{"name":"likelihood","type":"uint256","indexed":false,"internalType":"uint256"}],"anonymous":false},{"type":"event","name":"PredictionCreated","inputs":[{"name":"predictionId","type":"uint256","indexed":false,"internalType":"uint256"},{"name":"prediction","type":"string","indexed":false,"internalType":"string"}],"anonymous":false},{"type":"event","name":"ProposalAdded","inputs":[{"name":"pollId","type":"uint256","indexed":true,"internalType":"uint256"},{"name":"proposalId","type":"uint256","indexed":false,"internalType":"uint256"},{"name":"description","type":"string","indexed":false,"internalType":"string"}],"anonymous":false},{"type":"event","name":"VoteSubmitted","inputs":[{"name":"pollId","type":"uint256","indexed":true,"internalType":"uint256"},{"name":"voter","type":"address","indexed":true,"internalType":"address"},{"name":"votesForProposal","type":"uint256","indexed":false,"internalType":"uint256"}],"anonymous":false}],"bytecode":{"object":"0x608060405234801561001057600080fd5b506141af806100206000396000f3fe6080604052600436106101815760003560e01c80639bec02b1116100d1578063b28bb34c1161008a578063c2cfee2711610064578063c2cfee27146104f3578063d588748914610524578063e424938c14610544578063fd6c914e1461056457600080fd5b8063b28bb34c14610491578063b384abef146104b3578063c20572af146104d357600080fd5b80639bec02b114610390578063a00c1f7e146103bd578063ac2f0074146103dd578063ac8ec2f914610414578063af3157c01461045e578063b0333e0d1461047157600080fd5b80633128fcb61161013e57806344f0bb771161011857806344f0bb77146102f75780634b30ef34146103295780638ad0871b1461033c5780639207891d1461036c57600080fd5b80633128fcb61461027c57806333b4097b146102a9578063395e0139146102d757600080fd5b8063025ae4e2146101865780630457bea8146101c0578063051097ef146101e257806308bbb824146102025780631a8cbcaa146102225780632c72fdfc1461024f575b600080fd5b34801561019257600080fd5b506101a66101a13660046135d7565b610584565b6040516101b7959493929190613677565b60405180910390f35b3480156101cc57600080fd5b506101e06101db3660046136b5565b610662565b005b3480156101ee57600080fd5b506101e06101fd366004613717565b610924565b34801561020e57600080fd5b506101e061021d36600461377f565b610b09565b34801561022e57600080fd5b5061024261023d3660046136b5565b610e89565b6040516101b791906137ab565b34801561025b57600080fd5b5061026f61026a3660046136b5565b611058565b6040516101b79190613864565b34801561028857600080fd5b5061029c610297366004613907565b6111af565b6040516101b79190613933565b3480156102b557600080fd5b506102c96102c43660046136b5565b611422565b6040516101b79291906139f5565b3480156102e357600080fd5b506101e06102f23660046136b5565b6116a7565b34801561030357600080fd5b506103176103123660046135d7565b611846565b6040516101b796959493929190613a6c565b6101e06103373660046136b5565b6118a1565b34801561034857600080fd5b5061035c6103573660046136b5565b611a96565b60405190151581526020016101b7565b34801561037857600080fd5b5061038260055481565b6040519081526020016101b7565b34801561039c57600080fd5b506103b06103ab3660046135d7565b611b05565b6040516101b79190613aa9565b3480156103c957600080fd5b506101e06103d8366004613b3e565b611df9565b3480156103e957600080fd5b506103fd6103f83660046136b5565b611fd8565b6040516101b79b9a99989796959493929190613bdf565b34801561042057600080fd5b5061043461042f3660046135d7565b612142565b604080516001600160a01b03909516855260208501939093529183015260608201526080016101b7565b6101e061046c3660046136b5565b612192565b34801561047d57600080fd5b5061035c61048c3660046136b5565b61224a565b34801561049d57600080fd5b506104a66122ed565b6040516101b79190613c5a565b3480156104bf57600080fd5b506101e06104ce3660046135d7565b61234f565b3480156104df57600080fd5b506101e06104ee366004613c6d565b612681565b3480156104ff57600080fd5b5061051361050e3660046135d7565b612887565b6040516101b7959493929190613cbf565b34801561053057600080fd5b5061035c61053f36600461377f565b612966565b34801561055057600080fd5b506101e061055f366004613d09565b612a90565b34801561057057600080fd5b506101e061057f366004613dcd565b612d2a565b600760205281600052604060002081815481106105a057600080fd5b9060005260206000209060050201600091509150508060000154908060010154908060020154908060030180546105d690613df7565b80601f016020809104026020016040519081016040528092919081815260200182805461060290613df7565b801561064f5780601f106106245761010080835404028352916020019161064f565b820191906000526020600020905b81548152906001019060200180831161063257829003601f168201915b5050506004909301549192505060ff1685565b803361066e8282613019565b6000838152600160205260408120546060915b818110156107c75760008681526001602052604090208054339190839081106106ac576106ac613e2b565b60009182526020909120600590910201546001600160a01b0316036107bf5760008681526001602052604090208054829081106106eb576106eb613e2b565b906000526020600020906005020160030180548060200260200160405190810160405280929190818152602001828054801561075057602002820191906000526020600020905b81546001600160a01b03168152600190910190602001808311610732575b5050505050925060016000878152602001908152602001600020818154811061077b5761077b613e2b565b60009182526020822060059091020180546001600160a01b03191681556001810182905560028101829055906107b460038301826134d5565b600482016000905550505b600101610681565b5060005b82518110156108ef57600360008483815181106107ea576107ea613e2b565b60200260200101516001600160a01b03166001600160a01b0316815260200190815260200160002080549050915060005b828110156108e657866003600086858151811061083a5761083a613e2b565b60200260200101516001600160a01b03166001600160a01b03168152602001908152602001600020828154811061087357610873613e2b565b9060005260206000200154036108de576003600085848151811061089957610899613e2b565b60200260200101516001600160a01b03166001600160a01b0316815260200190815260200160002081815481106108d2576108d2613e2b565b60009182526020822001555b60010161081b565b506001016107cb565b50604051859033907f4a49253305f0d63099f6b61a9d355ce9fd607a6b536918966a9b09cd46b4da8b90600090a35050505050565b8261092e81613090565b6000806000868152600460205260409020600a015460ff1660038111156109575761095761363f565b149050806109b85760405162461bcd60e51b8152602060048201526024808201527f596f752063616e206e6f7420706c6163652070726f706f73616c207269676874604482015263206e6f7760e01b60648201526084015b60405180910390fd5b60008581526004602052604081206009018054916109d583613e57565b90915550506000858152600460209081526040808320600901546006835292819020815160c0601f89018590049094028101840190925260a0820187815290928291908990899081908501838280828437600092018290525093855250505060208201819052604082018590526060820152608001600190528154600181018355600092835260209092208151919260050201908190610a759082613ec0565b5060208201518160010155604082015181600201556060820151816003015560808201518160040160006101000a81548160ff02191690836003811115610abe57610abe61363f565b02179055505050857fbb878f2a2e892d9a3562cba951f66485d18cf663715d59785bd1eafe3697a8c3828787604051610af993929190613f80565b60405180910390a2505050505050565b8181610b158282613019565b610b1e84611a96565b610b875760405162461bcd60e51b815260206004820152603460248201527f596f752063616e206f6e6c792064656c656761746520696e2067726f757073206044820152733cb7ba9030b93290309036b2b6b132b91037b31760611b60648201526084016109af565b610b908461224a565b15610bf25760405162461bcd60e51b815260206004820152602c60248201527f596f75206861766520616e206163746976652064656c65676174696f6e20696e60448201526b103a3434b99033b937bab81760a11b60648201526084016109af565b336001600160a01b03841603610c4a5760405162461bcd60e51b815260206004820181905260248201527f596f752063616e206e6f742064656c656761746520746f20796f757273656c6660448201526064016109af565b33600090815260036020908152604080832080546001818101835591855283852001889055878452909152812054606090825b81811015610e3157600088815260016020526040902080546001600160a01b038916919083908110610cb157610cb1613e2b565b60009182526020909120600590910201546001600160a01b031603610e29576000888152600160205260409020805482908110610cf057610cf0613e2b565b600091825260208220600260059092020101805491610d0e83613e57565b90915550506000888152600160205260409020805482908110610d3357610d33613e2b565b600091825260208083206003600590930201919091018054600181810183559184528284200180546001600160a01b031916331790558a8352905260409020805482908110610d8457610d84613e2b565b9060005260206000209060050201600201549350600160008981526020019081526020016000208181548110610dbc57610dbc613e2b565b9060005260206000209060050201600301805480602002602001604051908101604052809291908181526020018280548015610e2157602002820191906000526020600020905b81546001600160a01b03168152600190910190602001808311610e03575b505050505092505b600101610c7d565b5086866001600160a01b0316336001600160a01b03167f666c49d8439089d417a99690492068a6e44b8f5ee919a4e15f72d0185e6034408686604051610e78929190613ff0565b60405180910390a450505050505050565b610e916134f3565b6000828152600460205260409081902081516101608101909252805482908290610eba90613df7565b80601f0160208091040260200160405190810160405280929190818152602001828054610ee690613df7565b8015610f335780601f10610f0857610100808354040283529160200191610f33565b820191906000526020600020905b815481529060010190602001808311610f1657829003601f168201915b50505050508152602001600182018054610f4c90613df7565b80601f0160208091040260200160405190810160405280929190818152602001828054610f7890613df7565b8015610fc55780601f10610f9a57610100808354040283529160200191610fc5565b820191906000526020600020905b815481529060010190602001808311610fa857829003601f168201915b50505091835250506002820154602082015260038083015460408301526004830154606083015260058301546080830152600683015460a0830152600783015460c0830152600883015460e08301526009830154610100830152600a8301546101209092019160ff169081111561103e5761103e61363f565b600381111561104f5761104f61363f565b90525092915050565b60608161106481613090565b600083815260066020908152604080832080548251818502810185019093528083529193909284015b828210156111a257838290600052602060002090600502016040518060a00160405290816000820180546110c090613df7565b80601f01602080910402602001604051908101604052809291908181526020018280546110ec90613df7565b80156111395780601f1061110e57610100808354040283529160200191611139565b820191906000526020600020905b81548152906001019060200180831161111c57829003601f168201915b505050918352505060018201546020820152600282015460408201526003808301546060830152600483015460809092019160ff169081111561117e5761117e61363f565b600381111561118f5761118f61363f565b815250508152602001906001019061108d565b5050505091505b50919050565b60608383836111bf8383836130ea565b600087815260066020526040812054905b81811161134a5760008981526006602052604090208054899190839081106111fa576111fa613e2b565b9060005260206000209060050201600201540361134257600088815260076020526040812054905b81811161133f5760008a815260076020526040902080548a91908390811061124c5761124c613e2b565b9060005260206000209060050201600201540361133757600089815260086020908152604080832080548251818502810185019093528083529193909284015b828210156113285760008481526020908190206040805160c081018252600686029092018054835260018101549383019390935260028301549082015260038083015460ff9081161515606084015260048401546080840152600584015492939260a08501929116908111156113045761130461363f565b60038111156113155761131561363f565b815250508152602001906001019061128c565b50505050975050505050611418565b600101611222565b50505b6001016111d0565b50600086815260086020908152604080832080548251818502810185019093528083529193909284015b828210156114105760008481526020908190206040805160c081018252600686029092018054835260018101549383019390935260028301549082015260038083015460ff9081161515606084015260048401546080840152600584015492939260a08501929116908111156113ec576113ec61363f565b60038111156113fd576113fd61363f565b8152505081526020019060010190611374565b505050509450505b5050509392505050565b6060808261142f81613090565b600084815260066020908152604080832080548251818502810185019093528083529192909190849084015b8282101561157057838290600052602060002090600502016040518060a001604052908160008201805461148e90613df7565b80601f01602080910402602001604051908101604052809291908181526020018280546114ba90613df7565b80156115075780601f106114dc57610100808354040283529160200191611507565b820191906000526020600020905b8154815290600101906020018083116114ea57829003601f168201915b505050918352505060018201546020820152600282015460408201526003808301546060830152600483015460809092019160ff169081111561154c5761154c61363f565b600381111561155d5761155d61363f565b815250508152602001906001019061145b565b5050505090506000815167ffffffffffffffff81111561159257611592613cf3565b6040519080825280602002602001820160405280156115c557816020015b60608152602001906001900390816115b05790505b5090506000825167ffffffffffffffff8111156115e4576115e4613cf3565b60405190808252806020026020018201604052801561160d578160200160208202803683370190505b50905060005b835181101561169a5783818151811061162e5761162e613e2b565b60200260200101516000015183828151811061164c5761164c613e2b565b602002602001018190525083818151811061166957611669613e2b565b60200260200101516020015182828151811061168757611687613e2b565b6020908102919091010152600101611613565b5090945092505050915091565b6116b1813361314c565b156117135760405162461bcd60e51b815260206004820152602c60248201527f596f752061726520616c726561647920612064656c656761746520696e20737060448201526b06563696669632067726f75760a41b60648201526084016109af565b600081815260026020526040812080549161172d83613e57565b90915550506040805160a081018252338152602080820184815260008385018181528551828152808501875260608601908152878352600280865287842054608088015288845260018087529784208054808a01825590855293869020875160059095020180546001600160a01b0319166001600160a01b039095169490941784559351968301969096555191810191909155925180519293849390926117db92600385019291019061355d565b50608082015181600401555050806020015181600001516001600160a01b03167fb5977a248b20510642da018e687e9ba90beb459651acf6b82b232aeab1aac86e83604001518460600151856080015160405161183a93929190614011565b60405180910390a35050565b6008602052816000526040600020818154811061186257600080fd5b60009182526020909120600690910201805460018201546002830154600384015460048501546005909501549396509194509260ff9182169290911686565b6118aa81611a96565b6119045760405162461bcd60e51b815260206004820152602560248201527f596f7520617265206e6f74206d656d626572206f662073706563696669656420604482015264067726f75760dc1b60648201526084016109af565b3360009081526020818152604080832060010180548251818502810185019093528083526119669383018282801561195b57602002820191906000526020600020905b815481526020019060010190808311611947575b5050505050836131c3565b3360009081526020819052604090206001015490915081106119bf5760405162461bcd60e51b81526020600482015260126024820152711a5b99195e081bdd5d081bd988189bdd5b9960721b60448201526064016109af565b805b3360009081526020819052604090206001908101546119e0919061403a565b811015611a5a57336000908152602081905260409020600190810190611a0790839061404d565b81548110611a1757611a17613e2b565b6000918252602080832090910154338352908290526040909120600101805483908110611a4657611a46613e2b565b6000918252602090912001556001016119c1565b50336000908152602081905260409020600101805480611a7c57611a7c614060565b600190038181906000526020600020016000905590555050565b6000805b33600090815260208190526040902060010154811015611afc57336000908152602081905260409020600101805484919083908110611adb57611adb613e2b565b906000526020600020015403611af45750600192915050565b600101611a9a565b50600092915050565b6000828152600660205260408120546060915b818111611cac576000858152600660205260409020805485919083908110611b4257611b42613e2b565b90600052602060002090600502016002015403611ca457600084815260076020908152604080832080548251818502810185019093528083529193909284015b82821015611c9757838290600052602060002090600502016040518060a0016040529081600082015481526020016001820154815260200160028201548152602001600382018054611bd390613df7565b80601f0160208091040260200160405190810160405280929190818152602001828054611bff90613df7565b8015611c4c5780601f10611c2157610100808354040283529160200191611c4c565b820191906000526020600020905b815481529060010190602001808311611c2f57829003601f168201915b5050509183525050600482015460209091019060ff166003811115611c7357611c7361363f565b6003811115611c8457611c8461363f565b8152505081526020019060010190611b82565b5050505092505050611df3565b600101611b18565b50600083815260076020908152604080832080548251818502810185019093528083529193909284015b82821015611deb57838290600052602060002090600502016040518060a0016040529081600082015481526020016001820154815260200160028201548152602001600382018054611d2790613df7565b80601f0160208091040260200160405190810160405280929190818152602001828054611d5390613df7565b8015611da05780601f10611d7557610100808354040283529160200191611da0565b820191906000526020600020905b815481529060010190602001808311611d8357829003601f168201915b5050509183525050600482015460209091019060ff166003811115611dc757611dc761363f565b6003811115611dd857611dd861363f565b8152505081526020019060010190611cd6565b505050509150505b92915050565b60058054906000611e0983613e57565b9091555050604080516101806020601f8d01819004028201810190925261016081018b81526000928291908e908e9081908501838280828437600092019190915250505090825250604080516020601f8d018190048102820181019092528b815291810191908c908c90819084018382808284376000920182905250938552505050602082018a905260408201899052606082018890526080820187905260a0820186905260c0820185905260055460e083015261010082018190526101209091015261010081015181516040519293507f65d5ac2bf1bca69566bef1affdfca5bb37b9577fc0b3af4c7c4638225e67b39c92611f07929190614076565b60405180910390a1600554600090815260046020526040902081518291908190611f319082613ec0565b5060208201516001820190611f469082613ec0565b5060408201518160020155606082015181600301556080820151816004015560a0820151816005015560c0820151816006015560e082015181600701556101008201518160080155610120820151816009015561014082015181600a0160006101000a81548160ff02191690836003811115611fc457611fc461363f565b021790555050505050505050505050505050565b600460205260009081526040902080548190611ff390613df7565b80601f016020809104026020016040519081016040528092919081815260200182805461201f90613df7565b801561206c5780601f106120415761010080835404028352916020019161206c565b820191906000526020600020905b81548152906001019060200180831161204f57829003601f168201915b50505050509080600101805461208190613df7565b80601f01602080910402602001604051908101604052809291908181526020018280546120ad90613df7565b80156120fa5780601f106120cf576101008083540402835291602001916120fa565b820191906000526020600020905b8154815290600101906020018083116120dd57829003601f168201915b50505060028401546003850154600486015460058701546006880154600789015460088a015460098b0154600a909b0154999a96999598509396509194909391929160ff168b565b6001602052816000526040600020818154811061215e57600080fd5b600091825260209091206005909102018054600182015460028301546004909301546001600160a01b039092169450925084565b61219b81611a96565b156121fa5760405162461bcd60e51b815260206004820152602960248201527f596f752061726520616c7265616479206d656d626572206f662073706563696660448201526806965642067726f75760bc1b60648201526084016109af565b3360009081526020818152604080832060019081018054918201815584529183209091018390555182917f8aa97af2947aac0dc42394954c6dd127eba5cecbc5a03fae31e5cc07d6738fe591a250565b3360009081526003602090815260408083208054825181850281018501909352808352849383018282801561229e57602002820191906000526020600020905b81548152602001906001019080831161228a575b5050505050905060005b81518110156122e357838282815181106122c4576122c4613e2b565b6020026020010151036122db575060019392505050565b6001016122a8565b5060009392505050565b336000908152602081815260409182902060010180548351818402810184019094528084526060939283018282801561234557602002820191906000526020600020905b815481526020019060010190808311612331575b5050505050905090565b8161235981613090565b6000838152600460205260408120600201549061237585611a96565b6123d05760405162461bcd60e51b815260206004820152602660248201527f5468652075736572206973206e6f742061206d656d626572206f6620706f6c6c60448201526502067726f75760d41b60648201526084016109af565b6123d985613206565b156124265760405162461bcd60e51b815260206004820152601a60248201527f566f74652068617320616c7265616479206265656e206361737400000000000060448201526064016109af565b61243085856132ba565b61243957600080fd5b6124428261331f565b156124a85760405162461bcd60e51b815260206004820152603060248201527f596f7520686176652064656c65676174656420796f757220766f746520696e2060448201526f3a3432903837b636399033b937bab81760811b60648201526084016109af565b6000858152600660209081526040808320858452600190925282205490915b8181101561254e5760008581526001602052604090208054339190839081106124f2576124f2613e2b565b60009182526020909120600590910201546001600160a01b03160361254657600085815260016020526040902080548290811061253157612531613e2b565b90600052602060002090600502016002015493505b6001016124c7565b5081546000805b82811015612674578885828154811061257057612570613e2b565b9060005260206000209060050201600201540361266c5761259286600161404d565b8582815481106125a4576125a4613e2b565b906000526020600020906005020160010160008282546125c4919061404d565b925050819055508481815481106125dd576125dd613e2b565b6000918252602080832060016005909302018201548d84526009825260408085208054948501815585529190932090910180546001600160a01b031916339081179091559051919350908b907fa5876137634fc61be6a6224d5f4a2d0926145388c51a133c03cc00f7b66e0e3c906126589086815260200190565b60405180910390a350505050505050505050565b600101612555565b505050505050505b505050565b84848461268f8383836130ea565b600085116126df5760405162461bcd60e51b815260206004820152601f60248201527f56616c7565206e6565647320746f20626520686967686572207468616e20300060448201526064016109af565b6000600260008981526007602052604090206126fc60018a61403a565b8154811061270c5761270c613e2b565b600091825260209091206004600590920201015460ff1660038111156127345761273461363f565b149050806127905760405162461bcd60e51b8152602060048201526024808201527f596f752063616e206e6f7420706c61636520612062657420617420746869732060448201526374696d6560e01b60648201526084016109af565b6000878152600860209081526040808320815160c0810183528d81528084018d81529281018c81528a151560608301908152608083018d8152600360a08501818152865460018082018955978b529890992085516006909902019788559551878601559151600287015551858501805491151560ff1992831617905590516004860155945160058501805492969194909392909116919084908111156128385761283861363f565b021790555050604080518715158152602081018990528992507fefbf97b6b2de004cd3e8b4af6b867bf332de6df57c2447d9b5c5a00abaec5d1f910160405180910390a2505050505050505050565b600660205281600052604060002081815481106128a357600080fd5b9060005260206000209060050201600091509150508060000180546128c790613df7565b80601f01602080910402602001604051908101604052809291908181526020018280546128f390613df7565b80156129405780601f1061291557610100808354040283529160200191612940565b820191906000526020600020905b81548152906001019060200180831161292357829003601f168201915b505050506001830154600284015460038501546004909501549394919390925060ff1685565b600082815260016020526040812054815b81811015612a8557600085815260016020526040902080546001600160a01b0386169190839081106129ab576129ab613e2b565b60009182526020909120600590910201546001600160a01b031603612a7d5760008581526001602052604090208054829081106129ea576129ea613e2b565b6000918252602082206003600590920201015492505b82811015612a7b576000868152600160205260409020805433919084908110612a2b57612a2b613e2b565b90600052602060002090600502016003018281548110612a4d57612a4d613e2b565b6000918252602090912001546001600160a01b031603612a735760019350505050611df3565b600101612a00565b505b600101612977565b506000949350505050565b600060016000858152600660205260409020612aad60018661403a565b81548110612abd57612abd613e2b565b600091825260209091206004600590920201015460ff166003811115612ae557612ae561363f565b14905080612b4a5760405162461bcd60e51b815260206004820152602c60248201527f596f752063616e206e6f742063726561746520612070726564696374696f6e2060448201526b617420746869732074696d6560a01b60648201526084016109af565b6000848152600660205260408120612b6360018661403a565b81548110612b7357612b73613e2b565b90600052602060002090600502019050612b8d85856132ba565b612b9657600080fd5b600381018054906000612ba883613e57565b9091555050600381015460008681526006602052604090208290612bcd60018861403a565b81548110612bdd57612bdd613e2b565b6000918252602090912060059091020180612bf8838261408f565b50600182810154828201556002808401549083015560038084015481840155600480850154908401805460ff90921693909260ff19909216918490811115612c4257612c4261363f565b021790555050506000858152600760209081526040808320815160a0810183528a81528084018a8152928101868152606082018a8152600260808401819052845460018082018755958952969097208351600590970201958655935192850192909255905193830193909355516003820190612cbe9082613ec0565b50608082015160048201805460ff19166001836003811115612ce257612ce261363f565b021790555050507f611b851c586fb53b9aae86344db19e0e0dd8f785abd9117602396d3bccb37c418185604051612d1a929190614076565b60405180910390a1505050505050565b612d348183612966565b612da65760405162461bcd60e51b815260206004820152603e60248201527f596f752068617665206e6f742064656c65676174656420746f2074686520737060448201527f656369666965642064656c656761746520696e20746869732067726f7570000060648201526084016109af565b600081815260016020526040812054815b81811015612f8d57600084815260016020526040902080546001600160a01b038716919083908110612deb57612deb613e2b565b60009182526020909120600590910201546001600160a01b031603612f85576000848152600160205260409020805482908110612e2a57612e2a613e2b565b600091825260208220600260059092020101805491612e4883614162565b90915550506000848152600160205260409020805482908110612e6d57612e6d613e2b565b906000526020600020906005020160020154925060005b6000858152600160205260409020805483908110612ea457612ea4613e2b565b906000526020600020906005020160030180549050811015612f83576000858152600160205260409020805433919084908110612ee357612ee3613e2b565b90600052602060002090600502016003018281548110612f0557612f05613e2b565b6000918252602090912001546001600160a01b031603612f7b576000858152600160205260409020805483908110612f3f57612f3f613e2b565b90600052602060002090600502016003018181548110612f6157612f61613e2b565b600091825260209091200180546001600160a01b03191690555b600101612e84565b505b600101612db7565b505033600090815260036020526040812054905b8181101561301257336000908152600360205260409020805485919083908110612fcd57612fcd613e2b565b90600052602060002001540361300a57336000908152600360205260409020805482908110612ffe57612ffe613e2b565b60009182526020822001555b600101612fa1565b5050505050565b613023828261314c565b61308c5760405162461bcd60e51b815260206004820152603460248201527f5468652061646472657373206973206e6f7420612064656c656761746520696e604482015273020746865207370656369666965642067726f75760641b60648201526084016109af565b5050565b6000811180156130a257506005548111155b6130e75760405162461bcd60e51b8152602060048201526016602482015275141bdb1b08125108191bd95cc81b9bdd08195e1a5cdd60521b60448201526064016109af565b50565b6130f58383836133b8565b61267c5760405162461bcd60e51b815260206004820152602260248201527f57726f6e6720706f6c6c2c2070726f706f73616c206f7220707265646963746960448201526137b760f11b60648201526084016109af565b600082815260016020526040812054815b81811015612a8557600085815260016020526040902080546001600160a01b03861691908390811061319157613191613e2b565b60009182526020909120600590910201546001600160a01b0316036131bb57600192505050611df3565b60010161315d565b6000805b83518110156131ff57828482815181106131e3576131e3613e2b565b6020026020010151036131f7579050611df3565b6001016131c7565b5092915050565b60008181526009602090815260408083208054825181850281018501909352808352849383018282801561326357602002820191906000526020600020905b81546001600160a01b03168152600190910190602001808311613245575b5050505050905060005b81518110156122e357336001600160a01b031682828151811061329257613292613e2b565b60200260200101516001600160a01b0316036132b2575060019392505050565b60010161326d565b600082815260066020526040812054815b818111612a855760008581526006602052604090208054859190839081106132f5576132f5613e2b565b9060005260206000209060050201600201540361331757600192505050611df3565b6001016132cb565b3360009081526003602090815260408083208054825181850281018501909352808352849383018282801561337357602002820191906000526020600020905b81548152602001906001019080831161335f575b5050505050905060005b81518110156122e3578382828151811061339957613399613e2b565b6020026020010151036133b0575060019392505050565b60010161337d565b600554600090815b8181116134c7576000818152600460205260409020600801548690036134bf57600086815260066020526040812054905b8181116134b257600088815260066020526040902080548891908390811061341b5761341b613e2b565b906000526020600020906005020160020154036134aa57600087815260076020526040812054905b81811161349b57600089815260076020526040902080548991908390811061346d5761346d613e2b565b9060005260206000209060050201600201540361349357600196505050505050506134ce565b600101613443565b506000955050505050506134ce565b6001016133f1565b50600093505050506134ce565b6001016133c0565b5060009150505b9392505050565b50805460008255906000526020600020908101906130e791906135c2565b60405180610160016040528060608152602001606081526020016000815260200160008152602001600081526020016000815260200160008152602001600081526020016000815260200160008152602001600060038111156135585761355861363f565b905290565b8280548282559060005260206000209081019282156135b2579160200282015b828111156135b257825182546001600160a01b0319166001600160a01b0390911617825560209092019160019091019061357d565b506135be9291506135c2565b5090565b5b808211156135be57600081556001016135c3565b600080604083850312156135ea57600080fd5b50508035926020909101359150565b6000815180845260005b8181101561361f57602081850181015186830182015201613603565b506000602082860101526020601f19601f83011685010191505092915050565b634e487b7160e01b600052602160045260246000fd5b6004811061367357634e487b7160e01b600052602160045260246000fd5b9052565b85815284602082015283604082015260a06060820152600061369c60a08301856135f9565b90506136ab6080830184613655565b9695505050505050565b6000602082840312156136c757600080fd5b5035919050565b60008083601f8401126136e057600080fd5b50813567ffffffffffffffff8111156136f857600080fd5b60208301915083602082850101111561371057600080fd5b9250929050565b60008060006040848603121561372c57600080fd5b83359250602084013567ffffffffffffffff81111561374a57600080fd5b613756868287016136ce565b9497909650939450505050565b80356001600160a01b038116811461377a57600080fd5b919050565b6000806040838503121561379257600080fd5b823591506137a260208401613763565b90509250929050565b60208152600082516101608060208501526137ca6101808501836135f9565b91506020850151601f198584030160408601526137e783826135f9565b9250506040850151606085015260608501516080850152608085015160a085015260a085015160c085015260c085015160e085015260e085015161010081818701528087015191505061012081818701528087015191505061014081818701528087015191505061385a82860182613655565b5090949350505050565b600060208083018184528085518083526040925060408601915060408160051b87010184880160005b838110156138f957603f19898403018552815160a081518186526138b3828701826135f9565b91505088820151898601528782015188860152606080830151818701525060808083015192506138e581870184613655565b50958801959350509086019060010161388d565b509098975050505050505050565b60008060006060848603121561391c57600080fd5b505081359360208301359350604090920135919050565b602080825282518282018190526000919060409081850190868401855b828110156139ac57815180518552868101518786015285810151868601526060808201511515908601526080808201519086015260a0908101519061399781870183613655565b505060c0939093019290850190600101613950565b5091979650505050505050565b60008151808452602080850194506020840160005b838110156139ea578151875295820195908201906001016139ce565b509495945050505050565b6000604082016040835280855180835260608501915060608160051b8601019250602080880160005b83811015613a4c57605f19888703018552613a3a8683516135f9565b95509382019390820190600101613a1e565b50505050508281036020840152613a6381856139b9565b95945050505050565b600060c0820190508782528660208301528560408301528415156060830152836080830152613a9e60a0830184613655565b979650505050505050565b600060208083018184528085518083526040925060408601915060408160051b87010184880160005b838110156138f957603f19898403018552815160a081518552888201518986015287820151888601526060808301518282880152613b12838801826135f9565b925050506080808301519250613b2a81870184613655565b509588019593505090860190600101613ad2565b6000806000806000806000806000806101008b8d031215613b5e57600080fd5b8a3567ffffffffffffffff80821115613b7657600080fd5b613b828e838f016136ce565b909c509a5060208d0135915080821115613b9b57600080fd5b50613ba88d828e016136ce565b9b9e9a9d509b60408101359a60608201359a506080820135995060a0820135985060c0820135975060e09091013595509350505050565b6000610160808352613bf38184018f6135f9565b90508281036020840152613c07818e6135f9565b9150508a60408301528960608301528860808301528760a08301528660c08301528560e08301528461010083015283610120830152613c4a610140830184613655565b9c9b505050505050505050505050565b6020815260006134ce60208301846139b9565b600080600080600060a08688031215613c8557600080fd5b8535945060208601359350604086013592506060860135915060808601358015158114613cb157600080fd5b809150509295509295909350565b60a081526000613cd260a08301886135f9565b90508560208301528460408301528360608301526136ab6080830184613655565b634e487b7160e01b600052604160045260246000fd5b600080600060608486031215613d1e57600080fd5b8335925060208401359150604084013567ffffffffffffffff80821115613d4457600080fd5b818601915086601f830112613d5857600080fd5b813581811115613d6a57613d6a613cf3565b604051601f8201601f19908116603f01168101908382118183101715613d9257613d92613cf3565b81604052828152896020848701011115613dab57600080fd5b8260208601602083013760006020848301015280955050505050509250925092565b60008060408385031215613de057600080fd5b613de983613763565b946020939093013593505050565b600181811c90821680613e0b57607f821691505b6020821081036111a957634e487b7160e01b600052602260045260246000fd5b634e487b7160e01b600052603260045260246000fd5b634e487b7160e01b600052601160045260246000fd5b600060018201613e6957613e69613e41565b5060010190565b601f82111561267c576000816000526020600020601f850160051c81016020861015613e995750805b601f850160051c820191505b81811015613eb857828155600101613ea5565b505050505050565b815167ffffffffffffffff811115613eda57613eda613cf3565b613eee81613ee88454613df7565b84613e70565b602080601f831160018114613f235760008415613f0b5750858301515b600019600386901b1c1916600185901b178555613eb8565b600085815260208120601f198616915b82811015613f5257888601518255948401946001909101908401613f33565b5085821015613f705787850151600019600388901b60f8161c191681555b5050505050600190811b01905550565b83815260406020820152816040820152818360608301376000818301606090810191909152601f909201601f1916010192915050565b60008151808452602080850194506020840160005b838110156139ea5781516001600160a01b031687529582019590820190600101613fcb565b8281526040602082015260006140096040830184613fb6565b949350505050565b83815260606020820152600061402a6060830185613fb6565b9050826040830152949350505050565b81810381811115611df357611df3613e41565b80820180821115611df357611df3613e41565b634e487b7160e01b600052603160045260246000fd5b82815260406020820152600061400960408301846135f9565b81810361409a575050565b6140a48254613df7565b67ffffffffffffffff8111156140bc576140bc613cf3565b6140ca81613ee88454613df7565b6000601f8211600181146140fe57600083156140e65750848201545b600019600385901b1c1916600184901b178455613012565b600085815260209020601f19841690600086815260209020845b838110156141385782860154825560019586019590910190602001614118565b5085831015613f705793015460001960f8600387901b161c19169092555050600190811b01905550565b60008161417157614171613e41565b50600019019056fea2646970667358221220e20e7aee753cb8563fb7d290dafdc71642694979be9e731849e834b99bc0bcf064736f6c63430008170033","linkReferences":{}},"methodIdentifiers":{"addProposal(uint256,string)":"051097ef","becomeDelegate(uint256)":"395e0139","becomeMemberOfGroup(uint256)":"af3157c0","createPoll(string,string,uint256,uint256,uint256,uint256,uint256,uint256)":"a00c1f7e","createPrediction(uint256,uint256,string)":"e424938c","delegate(uint256,address)":"08bbb824","getGroupsUserIsMemberIn()":"b28bb34c","getPoll(uint256)":"1a8cbcaa","getPollResults(uint256)":"33b4097b","getPredictionBets(uint256,uint256,uint256)":"3128fcb6","getPredictions(uint256,uint256)":"9bec02b1","getProposals(uint256)":"2c72fdfc","groupDelegates(uint256,uint256)":"ac8ec2f9","hasDelegatedInGroup(uint256)":"b0333e0d","hasDelegatedToDelegateInGroup(uint256,address)":"d5887489","isUserMemberOfGroup(uint256)":"8ad0871b","placePredictionBet(uint256,uint256,uint256,uint256,bool)":"c20572af","pollCount()":"9207891d","polls(uint256)":"ac2f0074","predictionBets(uint256,uint256)":"44f0bb77","predictions(uint256,uint256)":"025ae4e2","proposals(uint256,uint256)":"c2cfee27","removeDelegation(address,uint256)":"fd6c914e","removeGroupMembership(uint256)":"4b30ef34","resignAsDelegate(uint256)":"0457bea8","vote(uint256,uint256)":"b384abef"},"id":22}