{
  "abi": [
    {
      "anonymous": false,
      "inputs": [
        {
          "indexed": true,
          "internalType": "address",
          "name": "delegate",
          "type": "address"
        },
        {
          "indexed": true,
          "internalType": "uint256",
          "name": "groupId",
          "type": "uint256"
        }
      ],
      "name": "DelegateResignation",
      "type": "event"
    },
    {
      "anonymous": false,
      "inputs": [
        {
          "indexed": true,
          "internalType": "address",
          "name": "from",
          "type": "address"
        },
        {
          "indexed": true,
          "internalType": "address",
          "name": "by",
          "type": "address"
        },
        {
          "indexed": true,
          "internalType": "uint256",
          "name": "groupId",
          "type": "uint256"
        },
        {
          "indexed": false,
          "internalType": "uint256",
          "name": "delegatedVotes",
          "type": "uint256"
        }
      ],
      "name": "DelegationRemoved",
      "type": "event"
    },
    {
      "anonymous": false,
      "inputs": [
        {
          "indexed": true,
          "internalType": "address",
          "name": "delegate",
          "type": "address"
        },
        {
          "indexed": true,
          "internalType": "uint256",
          "name": "groupId",
          "type": "uint256"
        },
        {
          "indexed": false,
          "internalType": "uint256",
          "name": "delegatedVotes",
          "type": "uint256"
        },
        {
          "indexed": false,
          "internalType": "address[]",
          "name": "delegationsFrom",
          "type": "address[]"
        },
        {
          "indexed": false,
          "internalType": "uint256",
          "name": "groupDelegateId",
          "type": "uint256"
        }
      ],
      "name": "NewDelegate",
      "type": "event"
    },
    {
      "anonymous": false,
      "inputs": [
        {
          "indexed": true,
          "internalType": "address",
          "name": "from",
          "type": "address"
        },
        {
          "indexed": true,
          "internalType": "address",
          "name": "to",
          "type": "address"
        },
        {
          "indexed": true,
          "internalType": "uint256",
          "name": "groupId",
          "type": "uint256"
        },
        {
          "indexed": false,
          "internalType": "uint256",
          "name": "delegatedVotes",
          "type": "uint256"
        },
        {
          "indexed": false,
          "internalType": "address[]",
          "name": "delegationsFrom",
          "type": "address[]"
        }
      ],
      "name": "NewDelegation",
      "type": "event"
    },
    {
      "anonymous": false,
      "inputs": [
        {
          "indexed": true,
          "internalType": "uint256",
          "name": "_group",
          "type": "uint256"
        }
      ],
      "name": "PermissionGivenToVote",
      "type": "event"
    },
    {
      "anonymous": false,
      "inputs": [
        {
          "indexed": true,
          "internalType": "uint256",
          "name": "_group",
          "type": "uint256"
        }
      ],
      "name": "PermissionToVoteRemoved",
      "type": "event"
    },
    {
      "anonymous": false,
      "inputs": [
        {
          "indexed": false,
          "internalType": "uint256",
          "name": "pollId",
          "type": "uint256"
        },
        {
          "indexed": false,
          "internalType": "string",
          "name": "title",
          "type": "string"
        }
      ],
      "name": "PollCreated",
      "type": "event"
    },
    {
      "anonymous": false,
      "inputs": [
        {
          "indexed": true,
          "internalType": "uint256",
          "name": "predictionId",
          "type": "uint256"
        },
        {
          "indexed": false,
          "internalType": "bool",
          "name": "bet",
          "type": "bool"
        },
        {
          "indexed": false,
          "internalType": "uint256",
          "name": "likelihood",
          "type": "uint256"
        }
      ],
      "name": "PredictionBetCreated",
      "type": "event"
    },
    {
      "anonymous": false,
      "inputs": [
        {
          "indexed": false,
          "internalType": "uint256",
          "name": "predictionId",
          "type": "uint256"
        },
        {
          "indexed": false,
          "internalType": "string",
          "name": "prediction",
          "type": "string"
        }
      ],
      "name": "PredictionCreated",
      "type": "event"
    },
    {
      "anonymous": false,
      "inputs": [
        {
          "indexed": true,
          "internalType": "uint256",
          "name": "pollId",
          "type": "uint256"
        },
        {
          "indexed": false,
          "internalType": "uint256",
          "name": "proposalId",
          "type": "uint256"
        },
        {
          "indexed": false,
          "internalType": "string",
          "name": "description",
          "type": "string"
        }
      ],
      "name": "ProposalAdded",
      "type": "event"
    },
    {
      "anonymous": false,
      "inputs": [
        {
          "indexed": true,
          "internalType": "uint256",
          "name": "pollId",
          "type": "uint256"
        },
        {
          "indexed": true,
          "internalType": "address",
          "name": "voter",
          "type": "address"
        },
        {
          "indexed": false,
          "internalType": "uint256",
          "name": "votesForProposal",
          "type": "uint256"
        }
      ],
      "name": "VoteSubmitted",
      "type": "event"
    },
    {
      "inputs": [
        {
          "internalType": "uint256",
          "name": "_pollId",
          "type": "uint256"
        },
        {
          "internalType": "string",
          "name": "_description",
          "type": "string"
        }
      ],
      "name": "addProposal",
      "outputs": [],
      "stateMutability": "nonpayable",
      "type": "function"
    },
    {
      "inputs": [
        {
          "internalType": "uint256",
          "name": "_groupId",
          "type": "uint256"
        }
      ],
      "name": "becomeDelegate",
      "outputs": [],
      "stateMutability": "nonpayable",
      "type": "function"
    },
    {
      "inputs": [],
      "name": "checkAllRights",
      "outputs": [
        {
          "internalType": "uint256[]",
          "name": "groups",
          "type": "uint256[]"
        }
      ],
      "stateMutability": "view",
      "type": "function"
    },
    {
      "inputs": [
        {
          "internalType": "uint256",
          "name": "_group",
          "type": "uint256"
        }
      ],
      "name": "checkRightsInGroup",
      "outputs": [
        {
          "internalType": "bool",
          "name": "hasRight",
          "type": "bool"
        }
      ],
      "stateMutability": "view",
      "type": "function"
    },
    {
      "inputs": [
        {
          "internalType": "string",
          "name": "_title",
          "type": "string"
        },
        {
          "internalType": "string",
          "name": "_tag",
          "type": "string"
        },
        {
          "internalType": "uint256",
          "name": "_group",
          "type": "uint256"
        },
        {
          "internalType": "uint256",
          "name": "_pollStartDate",
          "type": "uint256"
        },
        {
          "internalType": "uint256",
          "name": "_proposalEndDate",
          "type": "uint256"
        },
        {
          "internalType": "uint256",
          "name": "_votingStartDate",
          "type": "uint256"
        },
        {
          "internalType": "uint256",
          "name": "_delegateEndDate",
          "type": "uint256"
        },
        {
          "internalType": "uint256",
          "name": "_endDate",
          "type": "uint256"
        }
      ],
      "name": "createPoll",
      "outputs": [],
      "stateMutability": "nonpayable",
      "type": "function"
    },
    {
      "inputs": [
        {
          "internalType": "uint256",
          "name": "_pollId",
          "type": "uint256"
        },
        {
          "internalType": "uint256",
          "name": "_proposalId",
          "type": "uint256"
        },
        {
          "internalType": "string",
          "name": "_prediction",
          "type": "string"
        }
      ],
      "name": "createPrediction",
      "outputs": [],
      "stateMutability": "nonpayable",
      "type": "function"
    },
    {
      "inputs": [
        {
          "internalType": "uint256",
          "name": "_groupId",
          "type": "uint256"
        },
        {
          "internalType": "address",
          "name": "_delegateTo",
          "type": "address"
        }
      ],
      "name": "delegate",
      "outputs": [],
      "stateMutability": "nonpayable",
      "type": "function"
    },
    {
      "inputs": [
        {
          "internalType": "uint256",
          "name": "_pollId",
          "type": "uint256"
        }
      ],
      "name": "getPollResults",
      "outputs": [
        {
          "internalType": "string[]",
          "name": "",
          "type": "string[]"
        },
        {
          "internalType": "uint256[]",
          "name": "",
          "type": "uint256[]"
        }
      ],
      "stateMutability": "view",
      "type": "function"
    },
    {
      "inputs": [
        {
          "internalType": "uint256",
          "name": "_pollId",
          "type": "uint256"
        },
        {
          "internalType": "uint256",
          "name": "_proposalId",
          "type": "uint256"
        },
        {
          "internalType": "uint256",
          "name": "_predictionId",
          "type": "uint256"
        }
      ],
      "name": "getPredictionBets",
      "outputs": [
        {
          "components": [
            {
              "internalType": "uint256",
              "name": "pollId",
              "type": "uint256"
            },
            {
              "internalType": "uint256",
              "name": "proposalId",
              "type": "uint256"
            },
            {
              "internalType": "uint256",
              "name": "predictionId",
              "type": "uint256"
            },
            {
              "internalType": "bool",
              "name": "bet",
              "type": "bool"
            },
            {
              "internalType": "uint256",
              "name": "likelihood",
              "type": "uint256"
            },
            {
              "internalType": "enum PollStructs.PollPhase",
              "name": "phase",
              "type": "uint8"
            }
          ],
          "internalType": "struct PredictionBets.PredictionBet[]",
          "name": "",
          "type": "tuple[]"
        }
      ],
      "stateMutability": "view",
      "type": "function"
    },
    {
      "inputs": [
        {
          "internalType": "uint256",
          "name": "_pollId",
          "type": "uint256"
        },
        {
          "internalType": "uint256",
          "name": "_proposalId",
          "type": "uint256"
        }
      ],
      "name": "getPredictions",
      "outputs": [
        {
          "components": [
            {
              "internalType": "uint256",
              "name": "pollId",
              "type": "uint256"
            },
            {
              "internalType": "uint256",
              "name": "proposalId",
              "type": "uint256"
            },
            {
              "internalType": "uint256",
              "name": "predictionId",
              "type": "uint256"
            },
            {
              "internalType": "string",
              "name": "prediction",
              "type": "string"
            },
            {
              "internalType": "uint256",
              "name": "yesBets",
              "type": "uint256"
            },
            {
              "internalType": "uint256",
              "name": "noBets",
              "type": "uint256"
            },
            {
              "internalType": "enum PollStructs.PollPhase",
              "name": "phase",
              "type": "uint8"
            }
          ],
          "internalType": "struct PredictionStructs.Prediction[]",
          "name": "",
          "type": "tuple[]"
        }
      ],
      "stateMutability": "view",
      "type": "function"
    },
    {
      "inputs": [
        {
          "internalType": "uint256",
          "name": "_pollId",
          "type": "uint256"
        }
      ],
      "name": "getProposals",
      "outputs": [
        {
          "components": [
            {
              "internalType": "string",
              "name": "description",
              "type": "string"
            },
            {
              "internalType": "uint256",
              "name": "voteCount",
              "type": "uint256"
            },
            {
              "internalType": "uint256",
              "name": "proposalId",
              "type": "uint256"
            },
            {
              "internalType": "uint256",
              "name": "predictionCount",
              "type": "uint256"
            },
            {
              "internalType": "enum PollStructs.PollPhase",
              "name": "phase",
              "type": "uint8"
            }
          ],
          "internalType": "struct ProposalStructs.Proposal[]",
          "name": "",
          "type": "tuple[]"
        }
      ],
      "stateMutability": "view",
      "type": "function"
    },
    {
      "inputs": [
        {
          "internalType": "uint256",
          "name": "_group",
          "type": "uint256"
        }
      ],
      "name": "giveRightToVote",
      "outputs": [],
      "stateMutability": "payable",
      "type": "function"
    },
    {
      "inputs": [
        {
          "internalType": "uint256",
          "name": "",
          "type": "uint256"
        },
        {
          "internalType": "uint256",
          "name": "",
          "type": "uint256"
        }
      ],
      "name": "groupDelegates",
      "outputs": [
        {
          "internalType": "address",
          "name": "delegate",
          "type": "address"
        },
        {
          "internalType": "uint256",
          "name": "groupId",
          "type": "uint256"
        },
        {
          "internalType": "uint256",
          "name": "delegatedVotes",
          "type": "uint256"
        },
        {
          "internalType": "uint256",
          "name": "groupDelegateId",
          "type": "uint256"
        }
      ],
      "stateMutability": "view",
      "type": "function"
    },
    {
      "inputs": [
        {
          "internalType": "uint256",
          "name": "_groupId",
          "type": "uint256"
        }
      ],
      "name": "hasDelegatedInGroup",
      "outputs": [
        {
          "internalType": "bool",
          "name": "",
          "type": "bool"
        }
      ],
      "stateMutability": "view",
      "type": "function"
    },
    {
      "inputs": [
        {
          "internalType": "uint256",
          "name": "_groupId",
          "type": "uint256"
        },
        {
          "internalType": "address",
          "name": "_delegate",
          "type": "address"
        }
      ],
      "name": "hasDelegatedToDelegateInGroup",
      "outputs": [
        {
          "internalType": "bool",
          "name": "",
          "type": "bool"
        }
      ],
      "stateMutability": "view",
      "type": "function"
    },
    {
      "inputs": [
        {
          "internalType": "uint256",
          "name": "_pollId",
          "type": "uint256"
        },
        {
          "internalType": "uint256",
          "name": "_proposalId",
          "type": "uint256"
        },
        {
          "internalType": "uint256",
          "name": "_predictionId",
          "type": "uint256"
        },
        {
          "internalType": "uint256",
          "name": "_likelihood",
          "type": "uint256"
        },
        {
          "internalType": "bool",
          "name": "_bet",
          "type": "bool"
        }
      ],
      "name": "placePredictionBet",
      "outputs": [],
      "stateMutability": "nonpayable",
      "type": "function"
    },
    {
      "inputs": [],
      "name": "pollCount",
      "outputs": [
        {
          "internalType": "uint256",
          "name": "",
          "type": "uint256"
        }
      ],
      "stateMutability": "view",
      "type": "function"
    },
    {
      "inputs": [
        {
          "internalType": "uint256",
          "name": "",
          "type": "uint256"
        }
      ],
      "name": "polls",
      "outputs": [
        {
          "internalType": "string",
          "name": "title",
          "type": "string"
        },
        {
          "internalType": "string",
          "name": "tag",
          "type": "string"
        },
        {
          "internalType": "uint256",
          "name": "group",
          "type": "uint256"
        },
        {
          "internalType": "uint256",
          "name": "pollStartDate",
          "type": "uint256"
        },
        {
          "internalType": "uint256",
          "name": "proposalEndDate",
          "type": "uint256"
        },
        {
          "internalType": "uint256",
          "name": "votingStartDate",
          "type": "uint256"
        },
        {
          "internalType": "uint256",
          "name": "delegateEndDate",
          "type": "uint256"
        },
        {
          "internalType": "uint256",
          "name": "endDate",
          "type": "uint256"
        },
        {
          "internalType": "uint256",
          "name": "pollId",
          "type": "uint256"
        },
        {
          "internalType": "uint256",
          "name": "proposalCount",
          "type": "uint256"
        },
        {
          "internalType": "enum PollStructs.PollPhase",
          "name": "phase",
          "type": "uint8"
        }
      ],
      "stateMutability": "view",
      "type": "function"
    },
    {
      "inputs": [
        {
          "internalType": "uint256",
          "name": "",
          "type": "uint256"
        },
        {
          "internalType": "uint256",
          "name": "",
          "type": "uint256"
        }
      ],
      "name": "predictionBets",
      "outputs": [
        {
          "internalType": "uint256",
          "name": "pollId",
          "type": "uint256"
        },
        {
          "internalType": "uint256",
          "name": "proposalId",
          "type": "uint256"
        },
        {
          "internalType": "uint256",
          "name": "predictionId",
          "type": "uint256"
        },
        {
          "internalType": "bool",
          "name": "bet",
          "type": "bool"
        },
        {
          "internalType": "uint256",
          "name": "likelihood",
          "type": "uint256"
        },
        {
          "internalType": "enum PollStructs.PollPhase",
          "name": "phase",
          "type": "uint8"
        }
      ],
      "stateMutability": "view",
      "type": "function"
    },
    {
      "inputs": [
        {
          "internalType": "uint256",
          "name": "",
          "type": "uint256"
        },
        {
          "internalType": "uint256",
          "name": "",
          "type": "uint256"
        }
      ],
      "name": "predictions",
      "outputs": [
        {
          "internalType": "uint256",
          "name": "pollId",
          "type": "uint256"
        },
        {
          "internalType": "uint256",
          "name": "proposalId",
          "type": "uint256"
        },
        {
          "internalType": "uint256",
          "name": "predictionId",
          "type": "uint256"
        },
        {
          "internalType": "string",
          "name": "prediction",
          "type": "string"
        },
        {
          "internalType": "uint256",
          "name": "yesBets",
          "type": "uint256"
        },
        {
          "internalType": "uint256",
          "name": "noBets",
          "type": "uint256"
        },
        {
          "internalType": "enum PollStructs.PollPhase",
          "name": "phase",
          "type": "uint8"
        }
      ],
      "stateMutability": "view",
      "type": "function"
    },
    {
      "inputs": [
        {
          "internalType": "uint256",
          "name": "",
          "type": "uint256"
        },
        {
          "internalType": "uint256",
          "name": "",
          "type": "uint256"
        }
      ],
      "name": "proposals",
      "outputs": [
        {
          "internalType": "string",
          "name": "description",
          "type": "string"
        },
        {
          "internalType": "uint256",
          "name": "voteCount",
          "type": "uint256"
        },
        {
          "internalType": "uint256",
          "name": "proposalId",
          "type": "uint256"
        },
        {
          "internalType": "uint256",
          "name": "predictionCount",
          "type": "uint256"
        },
        {
          "internalType": "enum PollStructs.PollPhase",
          "name": "phase",
          "type": "uint8"
        }
      ],
      "stateMutability": "view",
      "type": "function"
    },
    {
      "inputs": [
        {
          "internalType": "address",
          "name": "_delegate",
          "type": "address"
        },
        {
          "internalType": "uint256",
          "name": "_groupId",
          "type": "uint256"
        }
      ],
      "name": "removeDelegation",
      "outputs": [],
      "stateMutability": "nonpayable",
      "type": "function"
    },
    {
      "inputs": [
        {
          "internalType": "uint256",
          "name": "_group",
          "type": "uint256"
        }
      ],
      "name": "removeRightToVote",
      "outputs": [],
      "stateMutability": "payable",
      "type": "function"
    },
    {
      "inputs": [
        {
          "internalType": "uint256",
          "name": "_groupId",
          "type": "uint256"
        }
      ],
      "name": "resignAsDelegate",
      "outputs": [],
      "stateMutability": "nonpayable",
      "type": "function"
    },
    {
      "inputs": [
        {
          "internalType": "uint256",
          "name": "_pollId",
          "type": "uint256"
        },
        {
          "internalType": "uint256",
          "name": "_proposalId",
          "type": "uint256"
        }
      ],
      "name": "testRequireProposalToExist",
      "outputs": [
        {
          "internalType": "bool",
          "name": "",
          "type": "bool"
        }
      ],
      "stateMutability": "view",
      "type": "function"
    },
    {
      "inputs": [
        {
          "internalType": "uint256",
          "name": "_pollId",
          "type": "uint256"
        },
        {
          "internalType": "uint256",
          "name": "_proposalId",
          "type": "uint256"
        }
      ],
      "name": "vote",
      "outputs": [],
      "stateMutability": "nonpayable",
      "type": "function"
    }
  ],
  "bytecode": {
    "object": "0x608060405234801561001057600080fd5b50614264806100206000396000f3fe6080604052600436106101815760003560e01c8063a00c1f7e116100d1578063bc23bd511161008a578063d588748911610064578063d5887489146104f9578063de21967214610519578063e424938c14610539578063fd6c914e1461055957600080fd5b8063bc23bd5114610495578063c20572af146104a8578063c2cfee27146104c857600080fd5b8063a00c1f7e14610392578063ac2f0074146103b2578063ac8ec2f9146103e9578063ae828f3c14610433578063b0333e0d14610455578063b384abef1461047557600080fd5b806333b4097b1161013e57806344f0bb771161011857806344f0bb77146102df578063695971bf146103115780639207891d146103415780639bec02b11461036557600080fd5b806333b4097b1461027e578063395e0139146102ac578063422ee52a146102cc57600080fd5b8063025ae4e2146101865780630457bea8146101c2578063051097ef146101e457806308bbb824146102045780632c72fdfc146102245780633128fcb614610251575b600080fd5b34801561019257600080fd5b506101a66101a1366004613709565b610579565b6040516101b997969594939291906137a9565b60405180910390f35b3480156101ce57600080fd5b506101e26101dd3660046137f5565b610665565b005b3480156101f057600080fd5b506101e26101ff366004613857565b610986565b34801561021057600080fd5b506101e261021f3660046138bf565b610b64565b34801561023057600080fd5b5061024461023f3660046137f5565b610f49565b6040516101b991906138eb565b34801561025d57600080fd5b5061027161026c36600461398e565b61109d565b6040516101b991906139ba565b34801561028a57600080fd5b5061029e6102993660046137f5565b611279565b6040516101b9929190613a7c565b3480156102b857600080fd5b506101e26102c73660046137f5565b6114fc565b6101e26102da3660046137f5565b61169b565b3480156102eb57600080fd5b506102ff6102fa366004613709565b6118c2565b6040516101b996959493929190613af3565b34801561031d57600080fd5b5061033161032c366004613709565b61191d565b60405190151581526020016101b9565b34801561034d57600080fd5b5061035760085481565b6040519081526020016101b9565b34801561037157600080fd5b50610385610380366004613709565b611932565b6040516101b99190613b30565b34801561039e57600080fd5b506101e26103ad366004613bdb565b611c4d565b3480156103be57600080fd5b506103d26103cd3660046137f5565b611e2c565b6040516101b99b9a99989796959493929190613c7c565b3480156103f557600080fd5b50610409610404366004613709565b611f96565b604080516001600160a01b03909516855260208501939093529183015260608201526080016101b9565b34801561043f57600080fd5b50610448611fe6565b6040516101b99190613cf7565b34801561046157600080fd5b506103316104703660046137f5565b612048565b34801561048157600080fd5b506101e2610490366004613709565b6120eb565b6101e26104a33660046137f5565b6124cc565b3480156104b457600080fd5b506101e26104c3366004613d0a565b61257d565b3480156104d457600080fd5b506104e86104e3366004613709565b6127b3565b6040516101b9959493929190613d5c565b34801561050557600080fd5b506103316105143660046138bf565b612892565b34801561052557600080fd5b506103316105343660046137f5565b6129bc565b34801561054557600080fd5b506101e2610554366004613db0565b612a2b565b34801561056557600080fd5b506101e2610574366004613e74565b612d09565b6006602052816000526040600020818154811061059557600080fd5b9060005260206000209060070201600091509150508060000154908060010154908060020154908060030180546105cb90613e9e565b80601f01602080910402602001604051908101604052809291908181526020018280546105f790613e9e565b80156106445780601f1061061957610100808354040283529160200191610644565b820191906000526020600020905b81548152906001019060200180831161062757829003601f168201915b50505050600483015460058401546006909401549293909290915060ff1687565b60606106718233613046565b6106d45760405162461bcd60e51b815260206004820152602960248201527f596f7520617265206e6f7420612064656c656761746520696e2072657175657360448201526807465642067726f75760bc1b60648201526084015b60405180910390fd5b600082815260016020526040812054905b8181101561082b57600084815260016020526040902080543391908390811061071057610710613ed8565b60009182526020909120600590910201546001600160a01b03160361082357600084815260016020526040902080548290811061074f5761074f613ed8565b90600052602060002090600502016003018054806020026020016040519081016040528092919081815260200182805480156107b457602002820191906000526020600020905b81546001600160a01b03168152600190910190602001808311610796575b505050505092506001600085815260200190815260200160002081815481106107df576107df613ed8565b60009182526020822060059091020180546001600160a01b03191681556001810182905560028101829055906108186003830182613629565b600482016000905550505b6001016106e5565b5060005b8251811015610953576003600084838151811061084e5761084e613ed8565b60200260200101516001600160a01b03166001600160a01b0316815260200190815260200160002080549050915060005b8281101561094a57846003600086858151811061089e5761089e613ed8565b60200260200101516001600160a01b03166001600160a01b0316815260200190815260200160002082815481106108d7576108d7613ed8565b90600052602060002001540361094257600360008584815181106108fd576108fd613ed8565b60200260200101516001600160a01b03166001600160a01b03168152602001908152602001600020818154811061093657610936613ed8565b60009182526020822001555b60010161087f565b5060010161082f565b50604051839033907f4a49253305f0d63099f6b61a9d355ce9fd607a6b536918966a9b09cd46b4da8b90600090a3505050565b6000806000858152600460205260409020600a015460ff1660038111156109af576109af613771565b14905080610a0b5760405162461bcd60e51b8152602060048201526024808201527f596f752063616e206e6f7420706c6163652070726f706f73616c207269676874604482015263206e6f7760e01b60648201526084016106cb565b610a14846130bd565b6000848152600460205260408120600901805491610a3183613f04565b90915550506000848152600460209081526040808320600901546005835292819020815160c0601f88018590049094028101840190925260a0820186815290928291908890889081908501838280828437600092018290525093855250505060208201819052604082018590526060820152608001600190528154600181018355600092835260209092208151919260050201908190610ad19082613f6d565b5060208201518160010155604082015181600201556060820151816003015560808201518160040160006101000a81548160ff02191690836003811115610b1a57610b1a613771565b02179055505050847fbb878f2a2e892d9a3562cba951f66485d18cf663715d59785bd1eafe3697a8c3828686604051610b559392919061402d565b60405180910390a25050505050565b610b6e8282613046565b610bd75760405162461bcd60e51b815260206004820152603460248201527f5468652061646472657373206973206e6f7420612064656c656761746520696e604482015273020746865207370656369666965642067726f75760641b60648201526084016106cb565b610be082613117565b610c495760405162461bcd60e51b815260206004820152603460248201527f596f752063616e206f6e6c792064656c656761746520696e2067726f757073206044820152733cb7ba9030b93290309036b2b6b132b91037b31760611b60648201526084016106cb565b610c5282612048565b15610cb45760405162461bcd60e51b815260206004820152602c60248201527f596f75206861766520616e206163746976652064656c65676174696f6e20696e60448201526b103a3434b99033b937bab81760a11b60648201526084016106cb565b336001600160a01b03821603610d0c5760405162461bcd60e51b815260206004820181905260248201527f596f752063616e206e6f742064656c656761746520746f20796f757273656c6660448201526064016106cb565b33600090815260036020908152604080832080546001818101835591855283852001869055858452909152812054606090825b81811015610ef357600086815260016020526040902080546001600160a01b038716919083908110610d7357610d73613ed8565b60009182526020909120600590910201546001600160a01b031603610eeb576000868152600160205260409020805482908110610db257610db2613ed8565b600091825260208220600260059092020101805491610dd083613f04565b90915550506000868152600160205260409020805482908110610df557610df5613ed8565b600091825260208083206003600590930201919091018054600181810183559184528284200180546001600160a01b03191633179055888352905260409020805482908110610e4657610e46613ed8565b9060005260206000209060050201600201549350600160008781526020019081526020016000208181548110610e7e57610e7e613ed8565b9060005260206000209060050201600301805480602002602001604051908101604052809291908181526020018280548015610ee357602002820191906000526020600020905b81546001600160a01b03168152600190910190602001808311610ec5575b505050505092505b600101610d3f565b5084846001600160a01b0316336001600160a01b03167f666c49d8439089d417a99690492068a6e44b8f5ee919a4e15f72d0185e6034408686604051610f3a92919061409d565b60405180910390a45050505050565b6060610f54826130bd565b600082815260056020908152604080832080548251818502810185019093528083529193909284015b8282101561109257838290600052602060002090600502016040518060a0016040529081600082018054610fb090613e9e565b80601f0160208091040260200160405190810160405280929190818152602001828054610fdc90613e9e565b80156110295780601f10610ffe57610100808354040283529160200191611029565b820191906000526020600020905b81548152906001019060200180831161100c57829003601f168201915b505050918352505060018201546020820152600282015460408201526003808301546060830152600483015460809092019160ff169081111561106e5761106e613771565b600381111561107f5761107f613771565b8152505081526020019060010190610f7d565b505050509050919050565b60608383836110ad83838361317d565b600087815260056020526040812054905b8181116112385760008981526005602052604090208054899190839081106110e8576110e8613ed8565b9060005260206000209060050201600201540361123057600088815260066020526040812054905b81811161122d5760008a815260066020526040902080548a91908390811061113a5761113a613ed8565b9060005260206000209060070201600201540361122557600089815260076020908152604080832080548251818502810185019093528083529193909284015b828210156112165760008481526020908190206040805160c081018252600686029092018054835260018101549383019390935260028301549082015260038083015460ff9081161515606084015260048401546080840152600584015492939260a08501929116908111156111f2576111f2613771565b600381111561120357611203613771565b815250508152602001906001019061117a565b5050505097505050505061126f565b600101611110565b50505b6001016110be565b50604080516000808252602082019092529061126a565b611257613647565b81526020019060019003908161124f5790505b509450505b5050509392505050565b606080611285836130bd565b600083815260056020908152604080832080548251818502810185019093528083529192909190849084015b828210156113c657838290600052602060002090600502016040518060a00160405290816000820180546112e490613e9e565b80601f016020809104026020016040519081016040528092919081815260200182805461131090613e9e565b801561135d5780601f106113325761010080835404028352916020019161135d565b820191906000526020600020905b81548152906001019060200180831161134057829003601f168201915b505050918352505060018201546020820152600282015460408201526003808301546060830152600483015460809092019160ff16908111156113a2576113a2613771565b60038111156113b3576113b3613771565b81525050815260200190600101906112b1565b5050505090506000815167ffffffffffffffff8111156113e8576113e8613d9a565b60405190808252806020026020018201604052801561141b57816020015b60608152602001906001900390816114065790505b5090506000825167ffffffffffffffff81111561143a5761143a613d9a565b604051908082528060200260200182016040528015611463578160200160208202803683370190505b50905060005b83518110156114f05783818151811061148457611484613ed8565b6020026020010151600001518382815181106114a2576114a2613ed8565b60200260200101819052508381815181106114bf576114bf613ed8565b6020026020010151602001518282815181106114dd576114dd613ed8565b6020908102919091010152600101611469565b50909590945092505050565b6115068133613046565b156115685760405162461bcd60e51b815260206004820152602c60248201527f596f752061726520616c726561647920612064656c656761746520696e20737060448201526b06563696669632067726f75760a41b60648201526084016106cb565b600081815260026020526040812080549161158283613f04565b90915550506040805160a081018252338152602080820184815260008385018181528551828152808501875260608601908152878352600280865287842054608088015288845260018087529784208054808a01825590855293869020875160059095020180546001600160a01b0319166001600160a01b0390951694909417845593519683019690965551918101919091559251805192938493909261163092600385019291019061368f565b50608082015181600401555050806020015181600001516001600160a01b03167fb5977a248b20510642da018e687e9ba90beb459651acf6b82b232aeab1aac86e83604001518460600151856080015160405161168f939291906140be565b60405180910390a35050565b6116a4816131d9565b156117035760405162461bcd60e51b815260206004820152602960248201527f43616e27742066696e642067726f757020796f752061726520747279696e6720604482015268746f2072656d6f766560b81b60648201526084016106cb565b3360009081526020818152604080832060010180548251818502810185019093528083526117659383018282801561175a57602002820191906000526020600020905b815481526020019060010190808311611746575b50505050508361327d565b3360009081526020819052604090206001015490915081106117be5760405162461bcd60e51b81526020600482015260126024820152711a5b99195e081bdd5d081bd988189bdd5b9960721b60448201526064016106cb565b805b3360009081526020819052604090206001908101546117df91906140e7565b811015611859573360009081526020819052604090206001908101906118069083906140fa565b8154811061181657611816613ed8565b600091825260208083209091015433835290829052604090912060010180548390811061184557611845613ed8565b6000918252602090912001556001016117c0565b5033600090815260208190526040902060010180548061187b5761187b61410d565b60019003818190600052602060002001600090559055817f90da14bd9eb8fde3e05a9aafa41174e865f627f0d3fea95c160853f866913cd760405160405180910390a25050565b600760205281600052604060002081815481106118de57600080fd5b60009182526020909120600690910201805460018201546002830154600384015460048501546005909501549396509194509260ff9182169290911686565b600061192983836132ee565b90505b92915050565b6000828152600560205260408120546060915b818111611aed57600085815260056020526040902080548591908390811061196f5761196f613ed8565b90600052602060002090600502016002015403611ae557600084815260066020908152604080832080548251818502810185019093528083529193909284015b82821015611ad857838290600052602060002090600702016040518060e0016040529081600082015481526020016001820154815260200160028201548152602001600382018054611a0090613e9e565b80601f0160208091040260200160405190810160405280929190818152602001828054611a2c90613e9e565b8015611a795780601f10611a4e57610100808354040283529160200191611a79565b820191906000526020600020905b815481529060010190602001808311611a5c57829003601f168201915b50505091835250506004820154602082015260058201546040820152600682015460609091019060ff166003811115611ab457611ab4613771565b6003811115611ac557611ac5613771565b81525050815260200190600101906119af565b505050509250505061192c565b600101611945565b50600083815260066020908152604080832080548251818502810185019093528083529193909284015b82821015611c4057838290600052602060002090600702016040518060e0016040529081600082015481526020016001820154815260200160028201548152602001600382018054611b6890613e9e565b80601f0160208091040260200160405190810160405280929190818152602001828054611b9490613e9e565b8015611be15780601f10611bb657610100808354040283529160200191611be1565b820191906000526020600020905b815481529060010190602001808311611bc457829003601f168201915b50505091835250506004820154602082015260058201546040820152600682015460609091019060ff166003811115611c1c57611c1c613771565b6003811115611c2d57611c2d613771565b8152505081526020019060010190611b17565b5050505091505092915050565b60088054906000611c5d83613f04565b9091555050604080516101806020601f8d01819004028201810190925261016081018b81526000928291908e908e9081908501838280828437600092019190915250505090825250604080516020601f8d018190048102820181019092528b815291810191908c908c90819084018382808284376000920182905250938552505050602082018a905260408201899052606082018890526080820187905260a0820186905260c0820185905260085460e083015261010082018190526101209091015261010081015181516040519293507f65d5ac2bf1bca69566bef1affdfca5bb37b9577fc0b3af4c7c4638225e67b39c92611d5b929190614123565b60405180910390a1600854600090815260046020526040902081518291908190611d859082613f6d565b5060208201516001820190611d9a9082613f6d565b5060408201518160020155606082015181600301556080820151816004015560a0820151816005015560c0820151816006015560e082015181600701556101008201518160080155610120820151816009015561014082015181600a0160006101000a81548160ff02191690836003811115611e1857611e18613771565b021790555050505050505050505050505050565b600460205260009081526040902080548190611e4790613e9e565b80601f0160208091040260200160405190810160405280929190818152602001828054611e7390613e9e565b8015611ec05780601f10611e9557610100808354040283529160200191611ec0565b820191906000526020600020905b815481529060010190602001808311611ea357829003601f168201915b505050505090806001018054611ed590613e9e565b80601f0160208091040260200160405190810160405280929190818152602001828054611f0190613e9e565b8015611f4e5780601f10611f2357610100808354040283529160200191611f4e565b820191906000526020600020905b815481529060010190602001808311611f3157829003601f168201915b50505060028401546003850154600486015460058701546006880154600789015460088a015460098b0154600a909b0154999a96999598509396509194909391929160ff168b565b60016020528160005260406000208181548110611fb257600080fd5b600091825260209091206005909102018054600182015460028301546004909301546001600160a01b039092169450925084565b336000908152602081815260409182902060010180548351818402810184019094528084526060939283018282801561203e57602002820191906000526020600020905b81548152602001906001019080831161202a575b5050505050905090565b3360009081526003602090815260408083208054825181850281018501909352808352849383018282801561209c57602002820191906000526020600020905b815481526020019060010190808311612088575b5050505050905060005b81518110156120e157838282815181106120c2576120c2613ed8565b6020026020010151036120d9575060019392505050565b6001016120a6565b5060009392505050565b60008281526004602052604081206002015490612107846130bd565b61211084613353565b61216b5760405162461bcd60e51b815260206004820152602660248201527f5468652075736572206973206e6f742061206d656d626572206f6620706f6c6c60448201526502067726f75760d41b60648201526084016106cb565b61217484613400565b156121c15760405162461bcd60e51b815260206004820152601a60248201527f566f74652068617320616c7265616479206265656e206361737400000000000060448201526064016106cb565b6000831180156121e257506000848152600460205260409020600901548311155b61222e5760405162461bcd60e51b815260206004820152601760248201527f50726f706f73616c20646f6573206e6f7420657869737400000000000000000060448201526064016106cb565b612237826134b4565b1561229d5760405162461bcd60e51b815260206004820152603060248201527f596f7520686176652064656c65676174656420796f757220766f746520696e2060448201526f3a3432903837b636399033b937bab81760811b60648201526084016106cb565b6000848152600560209081526040808320858452600190925282205490915b818110156123435760008581526001602052604090208054339190839081106122e7576122e7613ed8565b60009182526020909120600590910201546001600160a01b03160361233b57600085815260016020526040902080548290811061232657612326613ed8565b90600052602060002090600502016002015493505b6001016122bc565b5081546000805b82811015612468578785828154811061236557612365613ed8565b90600052602060002090600502016002015403612460576123878660016140fa565b85828154811061239957612399613ed8565b906000526020600020906005020160010160008282546123b991906140fa565b925050819055508481815481106123d2576123d2613ed8565b6000918252602080832060016005909302018201548c84526009825260408085208054948501815585529190932090910180546001600160a01b031916339081179091559051919350908a907fa5876137634fc61be6a6224d5f4a2d0926145388c51a133c03cc00f7b66e0e3c9061244d9086815260200190565b60405180910390a3505050505050505050565b60010161234a565b5060405162461bcd60e51b815260206004820152603260248201527f5468657265206973206e6f20737563682070726f706f73616c20666f7220746860448201527119481cdc1958da599a5959081c1bdb1b125960721b60648201526084016106cb565b6124d5816131d9565b61252d5760405162461bcd60e51b8152602060048201526024808201527f5065726d697373696f6e20697320616c726561647920676976656e20696e20676044820152630726f75760e41b60648201526084016106cb565b3360009081526020818152604080832060019081018054918201815584529183209091018390555182917f8aa97af2947aac0dc42394954c6dd127eba5cecbc5a03fae31e5cc07d6738fe591a250565b84848461258b83838361317d565b600085116125db5760405162461bcd60e51b815260206004820152601f60248201527f56616c7565206e6565647320746f20626520686967686572207468616e20300060448201526064016106cb565b6000600260008981526006602052604090206125f860018a6140e7565b8154811061260857612608613ed8565b600091825260209091206006600790920201015460ff16600381111561263057612630613771565b1490508061268c5760405162461bcd60e51b8152602060048201526024808201527f596f752063616e206e6f7420706c61636520612062657420617420746869732060448201526374696d6560e01b60648201526084016106cb565b6007600061269b60018a6140e7565b81526020019081526020016000206040518060c001604052808b81526020018a815260200189815260200187151581526020018881526020016003808111156126e6576126e6613771565b90528154600181810184556000938452602093849020835160069093020191825592820151818401556040820151600282015560608201516003808301805492151560ff199384161790556080840151600484015560a084015160058401805495969495919490939190911691849081111561276457612764613771565b021790555050604080518715158152602081018990528992507fefbf97b6b2de004cd3e8b4af6b867bf332de6df57c2447d9b5c5a00abaec5d1f910160405180910390a2505050505050505050565b600560205281600052604060002081815481106127cf57600080fd5b9060005260206000209060050201600091509150508060000180546127f390613e9e565b80601f016020809104026020016040519081016040528092919081815260200182805461281f90613e9e565b801561286c5780601f106128415761010080835404028352916020019161286c565b820191906000526020600020905b81548152906001019060200180831161284f57829003601f168201915b505050506001830154600284015460038501546004909501549394919390925060ff1685565b600082815260016020526040812054815b818110156129b157600085815260016020526040902080546001600160a01b0386169190839081106128d7576128d7613ed8565b60009182526020909120600590910201546001600160a01b0316036129a957600085815260016020526040902080548290811061291657612916613ed8565b6000918252602082206003600590920201015492505b828110156129a757600086815260016020526040902080543391908490811061295757612957613ed8565b9060005260206000209060050201600301828154811061297957612979613ed8565b6000918252602090912001546001600160a01b03160361299f576001935050505061192c565b60010161292c565b505b6001016128a3565b506000949350505050565b6000805b33600090815260208190526040902060010154811015612a2257336000908152602081905260409020600101805484919083908110612a0157612a01613ed8565b906000526020600020015403612a1a5750600192915050565b6001016129c0565b50600092915050565b600060016000858152600560205260409020612a486001866140e7565b81548110612a5857612a58613ed8565b600091825260209091206004600590920201015460ff166003811115612a8057612a80613771565b14905080612ae55760405162461bcd60e51b815260206004820152602c60248201527f596f752063616e206e6f742063726561746520612070726564696374696f6e2060448201526b617420746869732074696d6560a01b60648201526084016106cb565b6000848152600560205260408120612afe6001866140e7565b81548110612b0e57612b0e613ed8565b90600052602060002090600502019050612b2885856132ee565b612b3157600080fd5b600381018054906000612b4383613f04565b9091555050600381015460008681526005602052604090208290612b686001886140e7565b81548110612b7857612b78613ed8565b6000918252602090912060059091020180612b93838261413c565b50600182810154828201556002808401549083015560038084015481840155600480850154908401805460ff90921693909260ff19909216918490811115612bdd57612bdd613771565b0217905550905050600660008681526020019081526020016000206040518060e00160405280888152602001878152602001838152602001868152602001600081526020016000815260200160026003811115612c3c57612c3c613771565b90528154600181810184556000938452602093849020835160079093020191825592820151928101929092556040810151600283015560608101519091906003820190612c899082613f6d565b506080820151600482015560a0820151600582015560c082015160068201805460ff19166001836003811115612cc157612cc1613771565b021790555050507f611b851c586fb53b9aae86344db19e0e0dd8f785abd9117602396d3bccb37c418185604051612cf9929190614123565b60405180910390a1505050505050565b612d138183612892565b612d855760405162461bcd60e51b815260206004820152603e60248201527f596f752068617665206e6f742064656c65676174656420746f2074686520737060448201527f656369666965642064656c656761746520696e20746869732067726f7570000060648201526084016106cb565b600081815260016020526040812054815b81811015612f6c57600084815260016020526040902080546001600160a01b038716919083908110612dca57612dca613ed8565b60009182526020909120600590910201546001600160a01b031603612f64576000848152600160205260409020805482908110612e0957612e09613ed8565b600091825260208220600260059092020101805491612e2783614217565b90915550506000848152600160205260409020805482908110612e4c57612e4c613ed8565b906000526020600020906005020160020154925060005b6000858152600160205260409020805483908110612e8357612e83613ed8565b906000526020600020906005020160030180549050811015612f62576000858152600160205260409020805433919084908110612ec257612ec2613ed8565b90600052602060002090600502016003018281548110612ee457612ee4613ed8565b6000918252602090912001546001600160a01b031603612f5a576000858152600160205260409020805483908110612f1e57612f1e613ed8565b90600052602060002090600502016003018181548110612f4057612f40613ed8565b600091825260209091200180546001600160a01b03191690555b600101612e63565b505b600101612d96565b505033600090815260036020526040812054905b81811015612ff157336000908152600360205260409020805485919083908110612fac57612fac613ed8565b906000526020600020015403612fe957336000908152600360205260409020805482908110612fdd57612fdd613ed8565b60009182526020822001555b600101612f80565b5082336001600160a01b0316856001600160a01b03167ffe78e1dedca6af8797c8c45500588ea289add8b4b886f1d9b8d3824796274e368560405161303891815260200190565b60405180910390a450505050565b600082815260016020526040812054815b818110156129b157600085815260016020526040902080546001600160a01b03861691908390811061308b5761308b613ed8565b60009182526020909120600590910201546001600160a01b0316036130b55760019250505061192c565b600101613057565b6000811180156130cf57506008548111155b6131145760405162461bcd60e51b8152602060048201526016602482015275141bdb1b08125108191bd95cc81b9bdd08195e1a5cdd60521b60448201526064016106cb565b50565b33600090815260208190526040812060010154815b818110156120e15733600090815260208190526040902060010180548591908390811061315b5761315b613ed8565b906000526020600020015403613175575060019392505050565b60010161312c565b61318883838361354d565b6131d45760405162461bcd60e51b815260206004820152601960248201527f50726564696374696f6e20646f6573206e6f742065786973740000000000000060448201526064016106cb565b505050565b336000908152602081815260408083206001018054825181850281018501909352808352849383018282801561322e57602002820191906000526020600020905b81548152602001906001019080831161321a575b5050505050905060005b8151811015613273578382828151811061325457613254613ed8565b60200260200101510361326b575060009392505050565b600101613238565b5060019392505050565b6000805b83518110156132b9578284828151811061329d5761329d613ed8565b6020026020010151036132b157905061192c565b600101613281565b5060405162461bcd60e51b8152602060048201526009602482015268139bdd08119bdd5b9960ba1b60448201526064016106cb565b600082815260056020526040812054815b8181116129b157600085815260056020526040902080548591908390811061332957613329613ed8565b9060005260206000209060050201600201540361334b5760019250505061192c565b6001016132ff565b33600090815260208181526040808320600101805482518185028101850190935280835284938301828280156133a857602002820191906000526020600020905b815481526020019060010190808311613394575b5050505050905060005b81518110156120e15760008481526004602052604090206002015482518390839081106133e1576133e1613ed8565b6020026020010151036133f8575060019392505050565b6001016133b2565b60008181526009602090815260408083208054825181850281018501909352808352849383018282801561345d57602002820191906000526020600020905b81546001600160a01b0316815260019091019060200180831161343f575b5050505050905060005b81518110156120e157336001600160a01b031682828151811061348c5761348c613ed8565b60200260200101516001600160a01b0316036134ac575060019392505050565b600101613467565b3360009081526003602090815260408083208054825181850281018501909352808352849383018282801561350857602002820191906000526020600020905b8154815260200190600101908083116134f4575b5050505050905060005b81518110156120e1578382828151811061352e5761352e613ed8565b602002602001015103613545575060019392505050565b600101613512565b600083815260056020526040812054815b81811161361b57600086815260056020526040902080548691908390811061358857613588613ed8565b9060005260206000209060050201600201540361361357600085815260066020526040812054905b8181116136065760008781526006602052604090208054879190839081106135da576135da613ed8565b906000526020600020906007020160020154036135fe576001945050505050613622565b6001016135b0565b5060009350505050613622565b60010161355e565b5060009150505b9392505050565b508054600082559060005260206000209081019061311491906136f4565b6040518060c00160405280600081526020016000815260200160008152602001600015158152602001600081526020016000600381111561368a5761368a613771565b905290565b8280548282559060005260206000209081019282156136e4579160200282015b828111156136e457825182546001600160a01b0319166001600160a01b039091161782556020909201916001909101906136af565b506136f09291506136f4565b5090565b5b808211156136f057600081556001016136f5565b6000806040838503121561371c57600080fd5b50508035926020909101359150565b6000815180845260005b8181101561375157602081850181015186830182015201613735565b506000602082860101526020601f19601f83011685010191505092915050565b634e487b7160e01b600052602160045260246000fd5b600481106137a557634e487b7160e01b600052602160045260246000fd5b9052565b87815286602082015285604082015260e0606082015260006137ce60e083018761372b565b90508460808301528360a08301526137e960c0830184613787565b98975050505050505050565b60006020828403121561380757600080fd5b5035919050565b60008083601f84011261382057600080fd5b50813567ffffffffffffffff81111561383857600080fd5b60208301915083602082850101111561385057600080fd5b9250929050565b60008060006040848603121561386c57600080fd5b83359250602084013567ffffffffffffffff81111561388a57600080fd5b6138968682870161380e565b9497909650939450505050565b80356001600160a01b03811681146138ba57600080fd5b919050565b600080604083850312156138d257600080fd5b823591506138e2602084016138a3565b90509250929050565b600060208083018184528085518083526040925060408601915060408160051b87010184880160005b8381101561398057603f19898403018552815160a0815181865261393a8287018261372b565b915050888201518986015287820151888601526060808301518187015250608080830151925061396c81870184613787565b509588019593505090860190600101613914565b509098975050505050505050565b6000806000606084860312156139a357600080fd5b505081359360208301359350604090920135919050565b602080825282518282018190526000919060409081850190868401855b82811015613a3357815180518552868101518786015285810151868601526060808201511515908601526080808201519086015260a09081015190613a1e81870183613787565b505060c09390930192908501906001016139d7565b5091979650505050505050565b60008151808452602080850194506020840160005b83811015613a7157815187529582019590820190600101613a55565b509495945050505050565b6000604082016040835280855180835260608501915060608160051b8601019250602080880160005b83811015613ad357605f19888703018552613ac186835161372b565b95509382019390820190600101613aa5565b50505050508281036020840152613aea8185613a40565b95945050505050565b600060c0820190508782528660208301528560408301528415156060830152836080830152613b2560a0830184613787565b979650505050505050565b600060208083018184528085518083526040925060408601915060408160051b87010184880160005b8381101561398057603f19898403018552815160e081518552888201518986015287820151888601526060808301518282880152613b998388018261372b565b92505050608080830151818701525060a080830151818701525060c0808301519250613bc781870184613787565b509588019593505090860190600101613b59565b6000806000806000806000806000806101008b8d031215613bfb57600080fd5b8a3567ffffffffffffffff80821115613c1357600080fd5b613c1f8e838f0161380e565b909c509a5060208d0135915080821115613c3857600080fd5b50613c458d828e0161380e565b9b9e9a9d509b60408101359a60608201359a506080820135995060a0820135985060c0820135975060e09091013595509350505050565b6000610160808352613c908184018f61372b565b90508281036020840152613ca4818e61372b565b9150508a60408301528960608301528860808301528760a08301528660c08301528560e08301528461010083015283610120830152613ce7610140830184613787565b9c9b505050505050505050505050565b6020815260006119296020830184613a40565b600080600080600060a08688031215613d2257600080fd5b8535945060208601359350604086013592506060860135915060808601358015158114613d4e57600080fd5b809150509295509295909350565b60a081526000613d6f60a083018861372b565b9050856020830152846040830152836060830152613d906080830184613787565b9695505050505050565b634e487b7160e01b600052604160045260246000fd5b600080600060608486031215613dc557600080fd5b8335925060208401359150604084013567ffffffffffffffff80821115613deb57600080fd5b818601915086601f830112613dff57600080fd5b813581811115613e1157613e11613d9a565b604051601f8201601f19908116603f01168101908382118183101715613e3957613e39613d9a565b81604052828152896020848701011115613e5257600080fd5b8260208601602083013760006020848301015280955050505050509250925092565b60008060408385031215613e8757600080fd5b613e90836138a3565b946020939093013593505050565b600181811c90821680613eb257607f821691505b602082108103613ed257634e487b7160e01b600052602260045260246000fd5b50919050565b634e487b7160e01b600052603260045260246000fd5b634e487b7160e01b600052601160045260246000fd5b600060018201613f1657613f16613eee565b5060010190565b601f8211156131d4576000816000526020600020601f850160051c81016020861015613f465750805b601f850160051c820191505b81811015613f6557828155600101613f52565b505050505050565b815167ffffffffffffffff811115613f8757613f87613d9a565b613f9b81613f958454613e9e565b84613f1d565b602080601f831160018114613fd05760008415613fb85750858301515b600019600386901b1c1916600185901b178555613f65565b600085815260208120601f198616915b82811015613fff57888601518255948401946001909101908401613fe0565b508582101561401d5787850151600019600388901b60f8161c191681555b5050505050600190811b01905550565b83815260406020820152816040820152818360608301376000818301606090810191909152601f909201601f1916010192915050565b60008151808452602080850194506020840160005b83811015613a715781516001600160a01b031687529582019590820190600101614078565b8281526040602082015260006140b66040830184614063565b949350505050565b8381526060602082015260006140d76060830185614063565b9050826040830152949350505050565b8181038181111561192c5761192c613eee565b8082018082111561192c5761192c613eee565b634e487b7160e01b600052603160045260246000fd5b8281526040602082015260006140b6604083018461372b565b818103614147575050565b6141518254613e9e565b67ffffffffffffffff81111561416957614169613d9a565b61417781613f958454613e9e565b6000601f8211600181146141ab57600083156141935750848201545b600019600385901b1c1916600184901b178455614210565b600085815260209020601f19841690600086815260209020845b838110156141e557828601548255600195860195909101906020016141c5565b50858310156142035781850154600019600388901b60f8161c191681555b50505060018360011b0184555b5050505050565b60008161422657614226613eee565b50600019019056fea26469706673582212202d4400d703b70515f2697ba4970bd40a68decba4a97aaab962fed8ab8e6bc61064736f6c63430008170033",
    "linkReferences": {}
  },
  "methodIdentifiers": {
    "addProposal(uint256,string)": "051097ef",
    "becomeDelegate(uint256)": "395e0139",
    "checkAllRights()": "ae828f3c",
    "checkRightsInGroup(uint256)": "de219672",
    "createPoll(string,string,uint256,uint256,uint256,uint256,uint256,uint256)": "a00c1f7e",
    "createPrediction(uint256,uint256,string)": "e424938c",
    "delegate(uint256,address)": "08bbb824",
    "getPollResults(uint256)": "33b4097b",
    "getPredictionBets(uint256,uint256,uint256)": "3128fcb6",
    "getPredictions(uint256,uint256)": "9bec02b1",
    "getProposals(uint256)": "2c72fdfc",
    "giveRightToVote(uint256)": "bc23bd51",
    "groupDelegates(uint256,uint256)": "ac8ec2f9",
    "hasDelegatedInGroup(uint256)": "b0333e0d",
    "hasDelegatedToDelegateInGroup(uint256,address)": "d5887489",
    "placePredictionBet(uint256,uint256,uint256,uint256,bool)": "c20572af",
    "pollCount()": "9207891d",
    "polls(uint256)": "ac2f0074",
    "predictionBets(uint256,uint256)": "44f0bb77",
    "predictions(uint256,uint256)": "025ae4e2",
    "proposals(uint256,uint256)": "c2cfee27",
    "removeDelegation(address,uint256)": "fd6c914e",
    "removeRightToVote(uint256)": "422ee52a",
    "resignAsDelegate(uint256)": "0457bea8",
    "testRequireProposalToExist(uint256,uint256)": "695971bf",
    "vote(uint256,uint256)": "b384abef"
  },
  "id": 20
}