{"abi":[{"type":"function","name":"addProposal","inputs":[{"name":"_pollId","type":"uint256","internalType":"uint256"},{"name":"_description","type":"string","internalType":"string"}],"outputs":[],"stateMutability":"nonpayable"},{"type":"function","name":"becomeDelegate","inputs":[{"name":"_groupId","type":"uint256","internalType":"uint256"}],"outputs":[],"stateMutability":"nonpayable"},{"type":"function","name":"becomeMemberOfGroup","inputs":[{"name":"_group","type":"uint256","internalType":"uint256"}],"outputs":[],"stateMutability":"payable"},{"type":"function","name":"createPoll","inputs":[{"name":"_title","type":"string","internalType":"string"},{"name":"_tag","type":"string","internalType":"string"},{"name":"_group","type":"uint256","internalType":"uint256"},{"name":"_pollStartDate","type":"uint256","internalType":"uint256"},{"name":"_proposalEndDate","type":"uint256","internalType":"uint256"},{"name":"_votingStartDate","type":"uint256","internalType":"uint256"},{"name":"_delegateEndDate","type":"uint256","internalType":"uint256"},{"name":"_endDate","type":"uint256","internalType":"uint256"}],"outputs":[],"stateMutability":"nonpayable"},{"type":"function","name":"createPrediction","inputs":[{"name":"_pollId","type":"uint256","internalType":"uint256"},{"name":"_proposalId","type":"uint256","internalType":"uint256"},{"name":"_prediction","type":"string","internalType":"string"}],"outputs":[],"stateMutability":"nonpayable"},{"type":"function","name":"delegate","inputs":[{"name":"_groupId","type":"uint256","internalType":"uint256"},{"name":"_delegateTo","type":"address","internalType":"address"}],"outputs":[],"stateMutability":"nonpayable"},{"type":"function","name":"getGroupsUserIsMemberIn","inputs":[],"outputs":[{"name":"groups","type":"uint256[]","internalType":"uint256[]"}],"stateMutability":"view"},{"type":"function","name":"getPoll","inputs":[{"name":"_pollId","type":"uint256","internalType":"uint256"}],"outputs":[{"name":"","type":"tuple","internalType":"struct PollStructs.Poll","components":[{"name":"title","type":"string","internalType":"string"},{"name":"tag","type":"string","internalType":"string"},{"name":"group","type":"uint256","internalType":"uint256"},{"name":"pollStartDate","type":"uint256","internalType":"uint256"},{"name":"proposalEndDate","type":"uint256","internalType":"uint256"},{"name":"votingStartDate","type":"uint256","internalType":"uint256"},{"name":"delegateEndDate","type":"uint256","internalType":"uint256"},{"name":"endDate","type":"uint256","internalType":"uint256"},{"name":"pollId","type":"uint256","internalType":"uint256"},{"name":"proposalCount","type":"uint256","internalType":"uint256"},{"name":"phase","type":"uint8","internalType":"enum PollStructs.PollPhase"}]}],"stateMutability":"view"},{"type":"function","name":"getPollResults","inputs":[{"name":"_pollId","type":"uint256","internalType":"uint256"}],"outputs":[{"name":"","type":"string[]","internalType":"string[]"},{"name":"","type":"uint256[]","internalType":"uint256[]"}],"stateMutability":"view"},{"type":"function","name":"getPredictionBets","inputs":[{"name":"_pollId","type":"uint256","internalType":"uint256"},{"name":"_proposalId","type":"uint256","internalType":"uint256"},{"name":"_predictionId","type":"uint256","internalType":"uint256"}],"outputs":[{"name":"","type":"tuple[]","internalType":"struct PredictionBetStructs.PredictionBet[]","components":[{"name":"pollId","type":"uint256","internalType":"uint256"},{"name":"proposalId","type":"uint256","internalType":"uint256"},{"name":"predictionId","type":"uint256","internalType":"uint256"},{"name":"bet","type":"bool","internalType":"bool"},{"name":"likelihood","type":"uint256","internalType":"uint256"},{"name":"phase","type":"uint8","internalType":"enum PollStructs.PollPhase"}]}],"stateMutability":"view"},{"type":"function","name":"getPredictions","inputs":[{"name":"_pollId","type":"uint256","internalType":"uint256"},{"name":"_proposalId","type":"uint256","internalType":"uint256"}],"outputs":[{"name":"","type":"tuple[]","internalType":"struct PredictionStructs.Prediction[]","components":[{"name":"pollId","type":"uint256","internalType":"uint256"},{"name":"proposalId","type":"uint256","internalType":"uint256"},{"name":"predictionId","type":"uint256","internalType":"uint256"},{"name":"prediction","type":"string","internalType":"string"},{"name":"phase","type":"uint8","internalType":"enum PollStructs.PollPhase"}]}],"stateMutability":"view"},{"type":"function","name":"getProposals","inputs":[{"name":"_pollId","type":"uint256","internalType":"uint256"}],"outputs":[{"name":"","type":"tuple[]","internalType":"struct ProposalStructs.Proposal[]","components":[{"name":"description","type":"string","internalType":"string"},{"name":"voteCount","type":"uint256","internalType":"uint256"},{"name":"proposalId","type":"uint256","internalType":"uint256"},{"name":"predictionCount","type":"uint256","internalType":"uint256"},{"name":"phase","type":"uint8","internalType":"enum PollStructs.PollPhase"}]}],"stateMutability":"view"},{"type":"function","name":"groupDelegates","inputs":[{"name":"","type":"uint256","internalType":"uint256"},{"name":"","type":"uint256","internalType":"uint256"}],"outputs":[{"name":"delegate","type":"address","internalType":"address"},{"name":"groupId","type":"uint256","internalType":"uint256"},{"name":"delegatedVotes","type":"uint256","internalType":"uint256"},{"name":"groupDelegateId","type":"uint256","internalType":"uint256"}],"stateMutability":"view"},{"type":"function","name":"hasDelegatedInGroup","inputs":[{"name":"_groupId","type":"uint256","internalType":"uint256"}],"outputs":[{"name":"","type":"bool","internalType":"bool"}],"stateMutability":"view"},{"type":"function","name":"hasDelegatedToDelegateInGroup","inputs":[{"name":"_groupId","type":"uint256","internalType":"uint256"},{"name":"_delegate","type":"address","internalType":"address"}],"outputs":[{"name":"","type":"bool","internalType":"bool"}],"stateMutability":"view"},{"type":"function","name":"isUserMemberOfGroup","inputs":[{"name":"_group","type":"uint256","internalType":"uint256"}],"outputs":[{"name":"hasRight","type":"bool","internalType":"bool"}],"stateMutability":"view"},{"type":"function","name":"placePredictionBet","inputs":[{"name":"_pollId","type":"uint256","internalType":"uint256"},{"name":"_proposalId","type":"uint256","internalType":"uint256"},{"name":"_predictionId","type":"uint256","internalType":"uint256"},{"name":"_likelihood","type":"uint256","internalType":"uint256"},{"name":"_bet","type":"bool","internalType":"bool"}],"outputs":[],"stateMutability":"nonpayable"},{"type":"function","name":"pollCount","inputs":[],"outputs":[{"name":"","type":"uint256","internalType":"uint256"}],"stateMutability":"view"},{"type":"function","name":"polls","inputs":[{"name":"","type":"uint256","internalType":"uint256"}],"outputs":[{"name":"title","type":"string","internalType":"string"},{"name":"tag","type":"string","internalType":"string"},{"name":"group","type":"uint256","internalType":"uint256"},{"name":"pollStartDate","type":"uint256","internalType":"uint256"},{"name":"proposalEndDate","type":"uint256","internalType":"uint256"},{"name":"votingStartDate","type":"uint256","internalType":"uint256"},{"name":"delegateEndDate","type":"uint256","internalType":"uint256"},{"name":"endDate","type":"uint256","internalType":"uint256"},{"name":"pollId","type":"uint256","internalType":"uint256"},{"name":"proposalCount","type":"uint256","internalType":"uint256"},{"name":"phase","type":"uint8","internalType":"enum PollStructs.PollPhase"}],"stateMutability":"view"},{"type":"function","name":"predictionBets","inputs":[{"name":"","type":"uint256","internalType":"uint256"},{"name":"","type":"uint256","internalType":"uint256"}],"outputs":[{"name":"pollId","type":"uint256","internalType":"uint256"},{"name":"proposalId","type":"uint256","internalType":"uint256"},{"name":"predictionId","type":"uint256","internalType":"uint256"},{"name":"bet","type":"bool","internalType":"bool"},{"name":"likelihood","type":"uint256","internalType":"uint256"},{"name":"phase","type":"uint8","internalType":"enum PollStructs.PollPhase"}],"stateMutability":"view"},{"type":"function","name":"predictions","inputs":[{"name":"","type":"uint256","internalType":"uint256"},{"name":"","type":"uint256","internalType":"uint256"}],"outputs":[{"name":"pollId","type":"uint256","internalType":"uint256"},{"name":"proposalId","type":"uint256","internalType":"uint256"},{"name":"predictionId","type":"uint256","internalType":"uint256"},{"name":"prediction","type":"string","internalType":"string"},{"name":"phase","type":"uint8","internalType":"enum PollStructs.PollPhase"}],"stateMutability":"view"},{"type":"function","name":"proposals","inputs":[{"name":"","type":"uint256","internalType":"uint256"},{"name":"","type":"uint256","internalType":"uint256"}],"outputs":[{"name":"description","type":"string","internalType":"string"},{"name":"voteCount","type":"uint256","internalType":"uint256"},{"name":"proposalId","type":"uint256","internalType":"uint256"},{"name":"predictionCount","type":"uint256","internalType":"uint256"},{"name":"phase","type":"uint8","internalType":"enum PollStructs.PollPhase"}],"stateMutability":"view"},{"type":"function","name":"removeDelegation","inputs":[{"name":"_delegate","type":"address","internalType":"address"},{"name":"_groupId","type":"uint256","internalType":"uint256"}],"outputs":[],"stateMutability":"nonpayable"},{"type":"function","name":"removeGroupMembership","inputs":[{"name":"_group","type":"uint256","internalType":"uint256"}],"outputs":[],"stateMutability":"payable"},{"type":"function","name":"resignAsDelegate","inputs":[{"name":"_groupId","type":"uint256","internalType":"uint256"}],"outputs":[],"stateMutability":"nonpayable"},{"type":"function","name":"vote","inputs":[{"name":"_pollId","type":"uint256","internalType":"uint256"},{"name":"_proposalId","type":"uint256","internalType":"uint256"}],"outputs":[],"stateMutability":"nonpayable"},{"type":"event","name":"DelegateResignation","inputs":[{"name":"delegate","type":"address","indexed":true,"internalType":"address"},{"name":"groupId","type":"uint256","indexed":true,"internalType":"uint256"}],"anonymous":false},{"type":"event","name":"NewDelegate","inputs":[{"name":"delegate","type":"address","indexed":true,"internalType":"address"},{"name":"groupId","type":"uint256","indexed":true,"internalType":"uint256"},{"name":"delegatedVotes","type":"uint256","indexed":false,"internalType":"uint256"},{"name":"delegationsFrom","type":"address[]","indexed":false,"internalType":"address[]"},{"name":"groupDelegateId","type":"uint256","indexed":false,"internalType":"uint256"}],"anonymous":false},{"type":"event","name":"NewDelegation","inputs":[{"name":"from","type":"address","indexed":true,"internalType":"address"},{"name":"to","type":"address","indexed":true,"internalType":"address"},{"name":"groupId","type":"uint256","indexed":true,"internalType":"uint256"},{"name":"delegatedVotes","type":"uint256","indexed":false,"internalType":"uint256"},{"name":"delegationsFrom","type":"address[]","indexed":false,"internalType":"address[]"}],"anonymous":false},{"type":"event","name":"PermissionGivenToVote","inputs":[{"name":"_group","type":"uint256","indexed":true,"internalType":"uint256"}],"anonymous":false},{"type":"event","name":"PollCreated","inputs":[{"name":"pollId","type":"uint256","indexed":false,"internalType":"uint256"},{"name":"title","type":"string","indexed":false,"internalType":"string"}],"anonymous":false},{"type":"event","name":"PredictionBetCreated","inputs":[{"name":"predictionId","type":"uint256","indexed":true,"internalType":"uint256"},{"name":"bet","type":"bool","indexed":false,"internalType":"bool"},{"name":"likelihood","type":"uint256","indexed":false,"internalType":"uint256"}],"anonymous":false},{"type":"event","name":"PredictionCreated","inputs":[{"name":"pollId","type":"uint256","indexed":false,"internalType":"uint256"},{"name":"proposalId","type":"uint256","indexed":false,"internalType":"uint256"},{"name":"predictionId","type":"uint256","indexed":false,"internalType":"uint256"},{"name":"prediction","type":"string","indexed":false,"internalType":"string"}],"anonymous":false},{"type":"event","name":"ProposalAdded","inputs":[{"name":"pollId","type":"uint256","indexed":true,"internalType":"uint256"},{"name":"proposalId","type":"uint256","indexed":false,"internalType":"uint256"},{"name":"description","type":"string","indexed":false,"internalType":"string"}],"anonymous":false},{"type":"event","name":"VoteSubmitted","inputs":[{"name":"pollId","type":"uint256","indexed":true,"internalType":"uint256"},{"name":"voter","type":"address","indexed":true,"internalType":"address"},{"name":"votesForProposal","type":"uint256","indexed":false,"internalType":"uint256"}],"anonymous":false}],"bytecode":{"object":"0x608060405234801561001057600080fd5b506142d4806100206000396000f3fe6080604052600436106101815760003560e01c80639bec02b1116100d1578063b28bb34c1161008a578063c2cfee2711610064578063c2cfee27146104f3578063d588748914610524578063e424938c14610544578063fd6c914e1461056457600080fd5b8063b28bb34c14610491578063b384abef146104b3578063c20572af146104d357600080fd5b80639bec02b114610390578063a00c1f7e146103bd578063ac2f0074146103dd578063ac8ec2f914610414578063af3157c01461045e578063b0333e0d1461047157600080fd5b80633128fcb61161013e57806344f0bb771161011857806344f0bb77146102f75780634b30ef34146103295780638ad0871b1461033c5780639207891d1461036c57600080fd5b80633128fcb61461027c57806333b4097b146102a9578063395e0139146102d757600080fd5b8063025ae4e2146101865780630457bea8146101c0578063051097ef146101e257806308bbb824146102025780631a8cbcaa146102225780632c72fdfc1461024f575b600080fd5b34801561019257600080fd5b506101a66101a13660046136d1565b610584565b6040516101b7959493929190613771565b60405180910390f35b3480156101cc57600080fd5b506101e06101db3660046137af565b610662565b005b3480156101ee57600080fd5b506101e06101fd366004613811565b610924565b34801561020e57600080fd5b506101e061021d366004613879565b610b10565b34801561022e57600080fd5b5061024261023d3660046137af565b610e90565b6040516101b791906138a5565b34801561025b57600080fd5b5061026f61026a3660046137af565b61105f565b6040516101b7919061395e565b34801561028857600080fd5b5061029c610297366004613a01565b6111b3565b6040516101b79190613a2d565b3480156102b557600080fd5b506102c96102c43660046137af565b611426565b6040516101b7929190613aef565b3480156102e357600080fd5b506101e06102f23660046137af565b6116a9565b34801561030357600080fd5b506103176103123660046136d1565b611848565b6040516101b796959493929190613b66565b6101e06103373660046137af565b6118a3565b34801561034857600080fd5b5061035c6103573660046137af565b611a98565b60405190151581526020016101b7565b34801561037857600080fd5b5061038260055481565b6040519081526020016101b7565b34801561039c57600080fd5b506103b06103ab3660046136d1565b611b07565b6040516101b79190613ba3565b3480156103c957600080fd5b506101e06103d8366004613c38565b611dfb565b3480156103e957600080fd5b506103fd6103f83660046137af565b611fda565b6040516101b79b9a99989796959493929190613cd9565b34801561042057600080fd5b5061043461042f3660046136d1565b612144565b604080516001600160a01b03909516855260208501939093529183015260608201526080016101b7565b6101e061046c3660046137af565b612194565b34801561047d57600080fd5b5061035c61048c3660046137af565b61224c565b34801561049d57600080fd5b506104a66122ef565b6040516101b79190613d54565b3480156104bf57600080fd5b506101e06104ce3660046136d1565b612351565b3480156104df57600080fd5b506101e06104ee366004613d67565b612688565b3480156104ff57600080fd5b5061051361050e3660046136d1565b61288e565b6040516101b7959493929190613db9565b34801561053057600080fd5b5061035c61053f366004613879565b61296d565b34801561055057600080fd5b506101e061055f366004613e03565b612a97565b34801561057057600080fd5b506101e061057f366004613ec7565b612d35565b600760205281600052604060002081815481106105a057600080fd5b9060005260206000209060050201600091509150508060000154908060010154908060020154908060030180546105d690613ef1565b80601f016020809104026020016040519081016040528092919081815260200182805461060290613ef1565b801561064f5780601f106106245761010080835404028352916020019161064f565b820191906000526020600020905b81548152906001019060200180831161063257829003601f168201915b5050506004909301549192505060ff1685565b803361066e8282613024565b6000838152600160205260408120546060915b818110156107c75760008681526001602052604090208054339190839081106106ac576106ac613f2b565b60009182526020909120600590910201546001600160a01b0316036107bf5760008681526001602052604090208054829081106106eb576106eb613f2b565b906000526020600020906005020160030180548060200260200160405190810160405280929190818152602001828054801561075057602002820191906000526020600020905b81546001600160a01b03168152600190910190602001808311610732575b5050505050925060016000878152602001908152602001600020818154811061077b5761077b613f2b565b60009182526020822060059091020180546001600160a01b03191681556001810182905560028101829055906107b460038301826135cf565b600482016000905550505b600101610681565b5060005b82518110156108ef57600360008483815181106107ea576107ea613f2b565b60200260200101516001600160a01b03166001600160a01b0316815260200190815260200160002080549050915060005b828110156108e657866003600086858151811061083a5761083a613f2b565b60200260200101516001600160a01b03166001600160a01b03168152602001908152602001600020828154811061087357610873613f2b565b9060005260206000200154036108de576003600085848151811061089957610899613f2b565b60200260200101516001600160a01b03166001600160a01b0316815260200190815260200160002081815481106108d2576108d2613f2b565b60009182526020822001555b60010161081b565b506001016107cb565b50604051859033907f4a49253305f0d63099f6b61a9d355ce9fd607a6b536918966a9b09cd46b4da8b90600090a35050505050565b61092d8361309b565b610936836130f5565b6000806000858152600460205260409020600a015460ff16600381111561095f5761095f613739565b149050806109c05760405162461bcd60e51b8152602060048201526024808201527f596f752063616e206e6f7420706c6163652070726f706f73616c207269676874604482015263206e6f7760e01b60648201526084015b60405180910390fd5b60008481526004602052604081206009018054916109dd83613f57565b90915550506000848152600460209081526040808320600901546006835292819020815160c0601f88018590049094028101840190925260a0820186815290928291908890889081908501838280828437600092018290525093855250505060208201819052604082018590526060820152608001600190528154600181018355600092835260209092208151919260050201908190610a7d9082613fc0565b5060208201518160010155604082015181600201556060820151816003015560808201518160040160006101000a81548160ff02191690836003811115610ac657610ac6613739565b02179055505050847fbb878f2a2e892d9a3562cba951f66485d18cf663715d59785bd1eafe3697a8c3828686604051610b0193929190614080565b60405180910390a25050505050565b8181610b1c8282613024565b610b2584611a98565b610b8e5760405162461bcd60e51b815260206004820152603460248201527f596f752063616e206f6e6c792064656c656761746520696e2067726f757073206044820152733cb7ba9030b93290309036b2b6b132b91037b31760611b60648201526084016109b7565b610b978461224c565b15610bf95760405162461bcd60e51b815260206004820152602c60248201527f596f75206861766520616e206163746976652064656c65676174696f6e20696e60448201526b103a3434b99033b937bab81760a11b60648201526084016109b7565b336001600160a01b03841603610c515760405162461bcd60e51b815260206004820181905260248201527f596f752063616e206e6f742064656c656761746520746f20796f757273656c6660448201526064016109b7565b33600090815260036020908152604080832080546001818101835591855283852001889055878452909152812054606090825b81811015610e3857600088815260016020526040902080546001600160a01b038916919083908110610cb857610cb8613f2b565b60009182526020909120600590910201546001600160a01b031603610e30576000888152600160205260409020805482908110610cf757610cf7613f2b565b600091825260208220600260059092020101805491610d1583613f57565b90915550506000888152600160205260409020805482908110610d3a57610d3a613f2b565b600091825260208083206003600590930201919091018054600181810183559184528284200180546001600160a01b031916331790558a8352905260409020805482908110610d8b57610d8b613f2b565b9060005260206000209060050201600201549350600160008981526020019081526020016000208181548110610dc357610dc3613f2b565b9060005260206000209060050201600301805480602002602001604051908101604052809291908181526020018280548015610e2857602002820191906000526020600020905b81546001600160a01b03168152600190910190602001808311610e0a575b505050505092505b600101610c84565b5086866001600160a01b0316336001600160a01b03167f666c49d8439089d417a99690492068a6e44b8f5ee919a4e15f72d0185e6034408686604051610e7f9291906140f0565b60405180910390a450505050505050565b610e986135ed565b6000828152600460205260409081902081516101608101909252805482908290610ec190613ef1565b80601f0160208091040260200160405190810160405280929190818152602001828054610eed90613ef1565b8015610f3a5780601f10610f0f57610100808354040283529160200191610f3a565b820191906000526020600020905b815481529060010190602001808311610f1d57829003601f168201915b50505050508152602001600182018054610f5390613ef1565b80601f0160208091040260200160405190810160405280929190818152602001828054610f7f90613ef1565b8015610fcc5780601f10610fa157610100808354040283529160200191610fcc565b820191906000526020600020905b815481529060010190602001808311610faf57829003601f168201915b50505091835250506002820154602082015260038083015460408301526004830154606083015260058301546080830152600683015460a0830152600783015460c0830152600883015460e08301526009830154610100830152600a8301546101209092019160ff169081111561104557611045613739565b600381111561105657611056613739565b90525092915050565b606061106a8261309b565b600082815260066020908152604080832080548251818502810185019093528083529193909284015b828210156111a857838290600052602060002090600502016040518060a00160405290816000820180546110c690613ef1565b80601f01602080910402602001604051908101604052809291908181526020018280546110f290613ef1565b801561113f5780601f106111145761010080835404028352916020019161113f565b820191906000526020600020905b81548152906001019060200180831161112257829003601f168201915b505050918352505060018201546020820152600282015460408201526003808301546060830152600483015460809092019160ff169081111561118457611184613739565b600381111561119557611195613739565b8152505081526020019060010190611093565b505050509050919050565b60608383836111c3838383613156565b600087815260066020526040812054905b81811161134e5760008981526006602052604090208054899190839081106111fe576111fe613f2b565b9060005260206000209060050201600201540361134657600088815260076020526040812054905b8181116113435760008a815260076020526040902080548a91908390811061125057611250613f2b565b9060005260206000209060050201600201540361133b57600089815260086020908152604080832080548251818502810185019093528083529193909284015b8282101561132c5760008481526020908190206040805160c081018252600686029092018054835260018101549383019390935260028301549082015260038083015460ff9081161515606084015260048401546080840152600584015492939260a085019291169081111561130857611308613739565b600381111561131957611319613739565b8152505081526020019060010190611290565b5050505097505050505061141c565b600101611226565b50505b6001016111d4565b50600086815260086020908152604080832080548251818502810185019093528083529193909284015b828210156114145760008481526020908190206040805160c081018252600686029092018054835260018101549383019390935260028301549082015260038083015460ff9081161515606084015260048401546080840152600584015492939260a08501929116908111156113f0576113f0613739565b600381111561140157611401613739565b8152505081526020019060010190611378565b505050509450505b5050509392505050565b6060806114328361309b565b600083815260066020908152604080832080548251818502810185019093528083529192909190849084015b8282101561157357838290600052602060002090600502016040518060a001604052908160008201805461149190613ef1565b80601f01602080910402602001604051908101604052809291908181526020018280546114bd90613ef1565b801561150a5780601f106114df5761010080835404028352916020019161150a565b820191906000526020600020905b8154815290600101906020018083116114ed57829003601f168201915b505050918352505060018201546020820152600282015460408201526003808301546060830152600483015460809092019160ff169081111561154f5761154f613739565b600381111561156057611560613739565b815250508152602001906001019061145e565b5050505090506000815167ffffffffffffffff81111561159557611595613ded565b6040519080825280602002602001820160405280156115c857816020015b60608152602001906001900390816115b35790505b5090506000825167ffffffffffffffff8111156115e7576115e7613ded565b604051908082528060200260200182016040528015611610578160200160208202803683370190505b50905060005b835181101561169d5783818151811061163157611631613f2b565b60200260200101516000015183828151811061164f5761164f613f2b565b602002602001018190525083818151811061166c5761166c613f2b565b60200260200101516020015182828151811061168a5761168a613f2b565b6020908102919091010152600101611616565b50909590945092505050565b6116b381336131bd565b156117155760405162461bcd60e51b815260206004820152602c60248201527f596f752061726520616c726561647920612064656c656761746520696e20737060448201526b06563696669632067726f75760a41b60648201526084016109b7565b600081815260026020526040812080549161172f83613f57565b90915550506040805160a081018252338152602080820184815260008385018181528551828152808501875260608601908152878352600280865287842054608088015288845260018087529784208054808a01825590855293869020875160059095020180546001600160a01b0319166001600160a01b039095169490941784559351968301969096555191810191909155925180519293849390926117dd926003850192910190613657565b50608082015181600401555050806020015181600001516001600160a01b03167fb5977a248b20510642da018e687e9ba90beb459651acf6b82b232aeab1aac86e83604001518460600151856080015160405161183c93929190614111565b60405180910390a35050565b6008602052816000526040600020818154811061186457600080fd5b60009182526020909120600690910201805460018201546002830154600384015460048501546005909501549396509194509260ff9182169290911686565b6118ac81611a98565b6119065760405162461bcd60e51b815260206004820152602560248201527f596f7520617265206e6f74206d656d626572206f662073706563696669656420604482015264067726f75760dc1b60648201526084016109b7565b3360009081526020818152604080832060010180548251818502810185019093528083526119689383018282801561195d57602002820191906000526020600020905b815481526020019060010190808311611949575b505050505083613234565b3360009081526020819052604090206001015490915081106119c15760405162461bcd60e51b81526020600482015260126024820152711a5b99195e081bdd5d081bd988189bdd5b9960721b60448201526064016109b7565b805b3360009081526020819052604090206001908101546119e2919061413a565b811015611a5c57336000908152602081905260409020600190810190611a0990839061414d565b81548110611a1957611a19613f2b565b6000918252602080832090910154338352908290526040909120600101805483908110611a4857611a48613f2b565b6000918252602090912001556001016119c3565b50336000908152602081905260409020600101805480611a7e57611a7e614160565b600190038181906000526020600020016000905590555050565b6000805b33600090815260208190526040902060010154811015611afe57336000908152602081905260409020600101805484919083908110611add57611add613f2b565b906000526020600020015403611af65750600192915050565b600101611a9c565b50600092915050565b6000828152600660205260408120546060915b818111611cae576000858152600660205260409020805485919083908110611b4457611b44613f2b565b90600052602060002090600502016002015403611ca657600084815260076020908152604080832080548251818502810185019093528083529193909284015b82821015611c9957838290600052602060002090600502016040518060a0016040529081600082015481526020016001820154815260200160028201548152602001600382018054611bd590613ef1565b80601f0160208091040260200160405190810160405280929190818152602001828054611c0190613ef1565b8015611c4e5780601f10611c2357610100808354040283529160200191611c4e565b820191906000526020600020905b815481529060010190602001808311611c3157829003601f168201915b5050509183525050600482015460209091019060ff166003811115611c7557611c75613739565b6003811115611c8657611c86613739565b8152505081526020019060010190611b84565b5050505092505050611df5565b600101611b1a565b50600083815260076020908152604080832080548251818502810185019093528083529193909284015b82821015611ded57838290600052602060002090600502016040518060a0016040529081600082015481526020016001820154815260200160028201548152602001600382018054611d2990613ef1565b80601f0160208091040260200160405190810160405280929190818152602001828054611d5590613ef1565b8015611da25780601f10611d7757610100808354040283529160200191611da2565b820191906000526020600020905b815481529060010190602001808311611d8557829003601f168201915b5050509183525050600482015460209091019060ff166003811115611dc957611dc9613739565b6003811115611dda57611dda613739565b8152505081526020019060010190611cd8565b505050509150505b92915050565b60058054906000611e0b83613f57565b9091555050604080516101806020601f8d01819004028201810190925261016081018b81526000928291908e908e9081908501838280828437600092019190915250505090825250604080516020601f8d018190048102820181019092528b815291810191908c908c90819084018382808284376000920182905250938552505050602082018a905260408201899052606082018890526080820187905260a0820186905260c0820185905260055460e083015261010082018190526101209091015261010081015181516040519293507f65d5ac2bf1bca69566bef1affdfca5bb37b9577fc0b3af4c7c4638225e67b39c92611f09929190614176565b60405180910390a1600554600090815260046020526040902081518291908190611f339082613fc0565b5060208201516001820190611f489082613fc0565b5060408201518160020155606082015181600301556080820151816004015560a0820151816005015560c0820151816006015560e082015181600701556101008201518160080155610120820151816009015561014082015181600a0160006101000a81548160ff02191690836003811115611fc657611fc6613739565b021790555050505050505050505050505050565b600460205260009081526040902080548190611ff590613ef1565b80601f016020809104026020016040519081016040528092919081815260200182805461202190613ef1565b801561206e5780601f106120435761010080835404028352916020019161206e565b820191906000526020600020905b81548152906001019060200180831161205157829003601f168201915b50505050509080600101805461208390613ef1565b80601f01602080910402602001604051908101604052809291908181526020018280546120af90613ef1565b80156120fc5780601f106120d1576101008083540402835291602001916120fc565b820191906000526020600020905b8154815290600101906020018083116120df57829003601f168201915b50505060028401546003850154600486015460058701546006880154600789015460088a015460098b0154600a909b0154999a96999598509396509194909391929160ff168b565b6001602052816000526040600020818154811061216057600080fd5b600091825260209091206005909102018054600182015460028301546004909301546001600160a01b039092169450925084565b61219d81611a98565b156121fc5760405162461bcd60e51b815260206004820152602960248201527f596f752061726520616c7265616479206d656d626572206f662073706563696660448201526806965642067726f75760bc1b60648201526084016109b7565b3360009081526020818152604080832060019081018054918201815584529183209091018390555182917f8aa97af2947aac0dc42394954c6dd127eba5cecbc5a03fae31e5cc07d6738fe591a250565b336000908152600360209081526040808320805482518185028101850190935280835284938301828280156122a057602002820191906000526020600020905b81548152602001906001019080831161228c575b5050505050905060005b81518110156122e557838282815181106122c6576122c6613f2b565b6020026020010151036122dd575060019392505050565b6001016122aa565b5060009392505050565b336000908152602081815260409182902060010180548351818402810184019094528084526060939283018282801561234757602002820191906000526020600020905b815481526020019060010190808311612333575b5050505050905090565b6000828152600460205260408120600201549061236d8461309b565b61237684611a98565b6123d15760405162461bcd60e51b815260206004820152602660248201527f5468652075736572206973206e6f742061206d656d626572206f6620706f6c6c60448201526502067726f75760d41b60648201526084016109b7565b6123da84613277565b6123e3846132fe565b156124305760405162461bcd60e51b815260206004820152601a60248201527f566f74652068617320616c7265616479206265656e206361737400000000000060448201526064016109b7565b61243a84846133b2565b61244357600080fd5b61244c82613417565b156124b25760405162461bcd60e51b815260206004820152603060248201527f596f7520686176652064656c65676174656420796f757220766f746520696e2060448201526f3a3432903837b636399033b937bab81760811b60648201526084016109b7565b6000848152600660209081526040808320858452600190925282205490915b818110156125585760008581526001602052604090208054339190839081106124fc576124fc613f2b565b60009182526020909120600590910201546001600160a01b03160361255057600085815260016020526040902080548290811061253b5761253b613f2b565b90600052602060002090600502016002015493505b6001016124d1565b5081546000805b8281101561267d578785828154811061257a5761257a613f2b565b906000526020600020906005020160020154036126755761259c86600161414d565b8582815481106125ae576125ae613f2b565b906000526020600020906005020160010160008282546125ce919061414d565b925050819055508481815481106125e7576125e7613f2b565b6000918252602080832060016005909302018201548c84526009825260408085208054948501815585529190932090910180546001600160a01b031916339081179091559051919350908a907fa5876137634fc61be6a6224d5f4a2d0926145388c51a133c03cc00f7b66e0e3c906126629086815260200190565b60405180910390a3505050505050505050565b60010161255f565b505050505050505050565b848484612696838383613156565b600085116126e65760405162461bcd60e51b815260206004820152601f60248201527f56616c7565206e6565647320746f20626520686967686572207468616e20300060448201526064016109b7565b60006002600089815260076020526040902061270360018a61413a565b8154811061271357612713613f2b565b600091825260209091206004600590920201015460ff16600381111561273b5761273b613739565b149050806127975760405162461bcd60e51b8152602060048201526024808201527f596f752063616e206e6f7420706c61636520612062657420617420746869732060448201526374696d6560e01b60648201526084016109b7565b6000878152600860209081526040808320815160c0810183528d81528084018d81529281018c81528a151560608301908152608083018d8152600360a08501818152865460018082018955978b529890992085516006909902019788559551878601559151600287015551858501805491151560ff19928316179055905160048601559451600585018054929691949093929091169190849081111561283f5761283f613739565b021790555050604080518715158152602081018990528992507fefbf97b6b2de004cd3e8b4af6b867bf332de6df57c2447d9b5c5a00abaec5d1f910160405180910390a2505050505050505050565b600660205281600052604060002081815481106128aa57600080fd5b9060005260206000209060050201600091509150508060000180546128ce90613ef1565b80601f01602080910402602001604051908101604052809291908181526020018280546128fa90613ef1565b80156129475780601f1061291c57610100808354040283529160200191612947565b820191906000526020600020905b81548152906001019060200180831161292a57829003601f168201915b505050506001830154600284015460038501546004909501549394919390925060ff1685565b600082815260016020526040812054815b81811015612a8c57600085815260016020526040902080546001600160a01b0386169190839081106129b2576129b2613f2b565b60009182526020909120600590910201546001600160a01b031603612a845760008581526001602052604090208054829081106129f1576129f1613f2b565b6000918252602082206003600590920201015492505b82811015612a82576000868152600160205260409020805433919084908110612a3257612a32613f2b565b90600052602060002090600502016003018281548110612a5457612a54613f2b565b6000918252602090912001546001600160a01b031603612a7a5760019350505050611df5565b600101612a07565b505b60010161297e565b506000949350505050565b600060016000858152600660205260409020612ab460018661413a565b81548110612ac457612ac4613f2b565b600091825260209091206004600590920201015460ff166003811115612aec57612aec613739565b14905080612b515760405162461bcd60e51b815260206004820152602c60248201527f596f752063616e206e6f742063726561746520612070726564696374696f6e2060448201526b617420746869732074696d6560a01b60648201526084016109b7565b6000848152600660205260408120612b6a60018661413a565b81548110612b7a57612b7a613f2b565b90600052602060002090600502019050612b9485856133b2565b612b9d57600080fd5b600381018054906000612baf83613f57565b9091555050600381015460008681526006602052604090208290612bd460018861413a565b81548110612be457612be4613f2b565b6000918252602090912060059091020180612bff838261418f565b50600182810154828201556002808401549083015560038084015481840155600480850154908401805460ff90921693909260ff19909216918490811115612c4957612c49613739565b021790555050506000858152600760209081526040808320815160a0810183528a81528084018a8152928101868152606082018a8152600260808401819052845460018082018755958952969097208351600590970201958655935192850192909255905193830193909355516003820190612cc59082613fc0565b50608082015160048201805460ff19166001836003811115612ce957612ce9613739565b021790555050507f6af78efafc89d3e75feff1be065bd08ff3ad271a352c26d0073e2b297e0335da86868387604051612d259493929190614262565b60405180910390a1505050505050565b612d3f818361296d565b612db15760405162461bcd60e51b815260206004820152603e60248201527f596f752068617665206e6f742064656c65676174656420746f2074686520737060448201527f656369666965642064656c656761746520696e20746869732067726f7570000060648201526084016109b7565b600081815260016020526040812054815b81811015612f9857600084815260016020526040902080546001600160a01b038716919083908110612df657612df6613f2b565b60009182526020909120600590910201546001600160a01b031603612f90576000848152600160205260409020805482908110612e3557612e35613f2b565b600091825260208220600260059092020101805491612e5383614287565b90915550506000848152600160205260409020805482908110612e7857612e78613f2b565b906000526020600020906005020160020154925060005b6000858152600160205260409020805483908110612eaf57612eaf613f2b565b906000526020600020906005020160030180549050811015612f8e576000858152600160205260409020805433919084908110612eee57612eee613f2b565b90600052602060002090600502016003018281548110612f1057612f10613f2b565b6000918252602090912001546001600160a01b031603612f86576000858152600160205260409020805483908110612f4a57612f4a613f2b565b90600052602060002090600502016003018181548110612f6c57612f6c613f2b565b600091825260209091200180546001600160a01b03191690555b600101612e8f565b505b600101612dc2565b505033600090815260036020526040812054905b8181101561301d57336000908152600360205260409020805485919083908110612fd857612fd8613f2b565b9060005260206000200154036130155733600090815260036020526040902080548290811061300957613009613f2b565b60009182526020822001555b600101612fac565b5050505050565b61302e82826131bd565b6130975760405162461bcd60e51b815260206004820152603460248201527f5468652061646472657373206973206e6f7420612064656c656761746520696e604482015273020746865207370656369666965642067726f75760641b60648201526084016109b7565b5050565b6000811180156130ad57506005548111155b6130f25760405162461bcd60e51b8152602060048201526016602482015275141bdb1b08125108191bd95cc81b9bdd08195e1a5cdd60521b60448201526064016109b7565b50565b6000818152600460208190526040909120015442106130f25760405162461bcd60e51b815260206004820152601d60248201527f5468652070726f706f73616c2070686173652068617320656e6465642e00000060448201526064016109b7565b6131618383836134b0565b6131b85760405162461bcd60e51b815260206004820152602260248201527f57726f6e6720706f6c6c2c2070726f706f73616c206f7220707265646963746960448201526137b760f11b60648201526084016109b7565b505050565b600082815260016020526040812054815b81811015612a8c57600085815260016020526040902080546001600160a01b03861691908390811061320257613202613f2b565b60009182526020909120600590910201546001600160a01b03160361322c57600192505050611df5565b6001016131ce565b6000805b8351811015613270578284828151811061325457613254613f2b565b602002602001015103613268579050611df5565b600101613238565b5092915050565b600081815260046020526040902060050154421180156132a7575060008181526004602052604090206007015442105b6130f25760405162461bcd60e51b815260206004820152602260248201527f566f74696e67206973206e6f7420616c6c6f77656420617420746869732074696044820152616d6560f01b60648201526084016109b7565b60008181526009602090815260408083208054825181850281018501909352808352849383018282801561335b57602002820191906000526020600020905b81546001600160a01b0316815260019091019060200180831161333d575b5050505050905060005b81518110156122e557336001600160a01b031682828151811061338a5761338a613f2b565b60200260200101516001600160a01b0316036133aa575060019392505050565b600101613365565b600082815260066020526040812054815b818111612a8c5760008581526006602052604090208054859190839081106133ed576133ed613f2b565b9060005260206000209060050201600201540361340f57600192505050611df5565b6001016133c3565b3360009081526003602090815260408083208054825181850281018501909352808352849383018282801561346b57602002820191906000526020600020905b815481526020019060010190808311613457575b5050505050905060005b81518110156122e5578382828151811061349157613491613f2b565b6020026020010151036134a8575060019392505050565b600101613475565b600554600090815b8181116135c1576000818152600460205260409020600801548690036135b957600086815260066020526040812054905b818110156135ac57600088815260066020526040902080548891908390811061351457613514613f2b565b906000526020600020906005020160020154036135a457600087815260076020526040812054905b8181101561359557600089815260076020526040902080548991908390811061356757613567613f2b565b9060005260206000209060050201600201540361358d57600196505050505050506135c8565b60010161353c565b506000955050505050506135c8565b6001016134e9565b50600093505050506135c8565b6001016134b8565b5060009150505b9392505050565b50805460008255906000526020600020908101906130f291906136bc565b604051806101600160405280606081526020016060815260200160008152602001600081526020016000815260200160008152602001600081526020016000815260200160008152602001600081526020016000600381111561365257613652613739565b905290565b8280548282559060005260206000209081019282156136ac579160200282015b828111156136ac57825182546001600160a01b0319166001600160a01b03909116178255602090920191600190910190613677565b506136b89291506136bc565b5090565b5b808211156136b857600081556001016136bd565b600080604083850312156136e457600080fd5b50508035926020909101359150565b6000815180845260005b81811015613719576020818501810151868301820152016136fd565b506000602082860101526020601f19601f83011685010191505092915050565b634e487b7160e01b600052602160045260246000fd5b6004811061376d57634e487b7160e01b600052602160045260246000fd5b9052565b85815284602082015283604082015260a06060820152600061379660a08301856136f3565b90506137a5608083018461374f565b9695505050505050565b6000602082840312156137c157600080fd5b5035919050565b60008083601f8401126137da57600080fd5b50813567ffffffffffffffff8111156137f257600080fd5b60208301915083602082850101111561380a57600080fd5b9250929050565b60008060006040848603121561382657600080fd5b83359250602084013567ffffffffffffffff81111561384457600080fd5b613850868287016137c8565b9497909650939450505050565b80356001600160a01b038116811461387457600080fd5b919050565b6000806040838503121561388c57600080fd5b8235915061389c6020840161385d565b90509250929050565b60208152600082516101608060208501526138c46101808501836136f3565b91506020850151601f198584030160408601526138e183826136f3565b9250506040850151606085015260608501516080850152608085015160a085015260a085015160c085015260c085015160e085015260e08501516101008181870152808701519150506101208181870152808701519150506101408181870152808701519150506139548286018261374f565b5090949350505050565b600060208083018184528085518083526040925060408601915060408160051b87010184880160005b838110156139f357603f19898403018552815160a081518186526139ad828701826136f3565b91505088820151898601528782015188860152606080830151818701525060808083015192506139df8187018461374f565b509588019593505090860190600101613987565b509098975050505050505050565b600080600060608486031215613a1657600080fd5b505081359360208301359350604090920135919050565b602080825282518282018190526000919060409081850190868401855b82811015613aa657815180518552868101518786015285810151868601526060808201511515908601526080808201519086015260a09081015190613a918187018361374f565b505060c0939093019290850190600101613a4a565b5091979650505050505050565b60008151808452602080850194506020840160005b83811015613ae457815187529582019590820190600101613ac8565b509495945050505050565b6000604082016040835280855180835260608501915060608160051b8601019250602080880160005b83811015613b4657605f19888703018552613b348683516136f3565b95509382019390820190600101613b18565b50505050508281036020840152613b5d8185613ab3565b95945050505050565b600060c0820190508782528660208301528560408301528415156060830152836080830152613b9860a083018461374f565b979650505050505050565b600060208083018184528085518083526040925060408601915060408160051b87010184880160005b838110156139f357603f19898403018552815160a081518552888201518986015287820151888601526060808301518282880152613c0c838801826136f3565b925050506080808301519250613c248187018461374f565b509588019593505090860190600101613bcc565b6000806000806000806000806000806101008b8d031215613c5857600080fd5b8a3567ffffffffffffffff80821115613c7057600080fd5b613c7c8e838f016137c8565b909c509a5060208d0135915080821115613c9557600080fd5b50613ca28d828e016137c8565b9b9e9a9d509b60408101359a60608201359a506080820135995060a0820135985060c0820135975060e09091013595509350505050565b6000610160808352613ced8184018f6136f3565b90508281036020840152613d01818e6136f3565b9150508a60408301528960608301528860808301528760a08301528660c08301528560e08301528461010083015283610120830152613d4461014083018461374f565b9c9b505050505050505050505050565b6020815260006135c86020830184613ab3565b600080600080600060a08688031215613d7f57600080fd5b8535945060208601359350604086013592506060860135915060808601358015158114613dab57600080fd5b809150509295509295909350565b60a081526000613dcc60a08301886136f3565b90508560208301528460408301528360608301526137a5608083018461374f565b634e487b7160e01b600052604160045260246000fd5b600080600060608486031215613e1857600080fd5b8335925060208401359150604084013567ffffffffffffffff80821115613e3e57600080fd5b818601915086601f830112613e5257600080fd5b813581811115613e6457613e64613ded565b604051601f8201601f19908116603f01168101908382118183101715613e8c57613e8c613ded565b81604052828152896020848701011115613ea557600080fd5b8260208601602083013760006020848301015280955050505050509250925092565b60008060408385031215613eda57600080fd5b613ee38361385d565b946020939093013593505050565b600181811c90821680613f0557607f821691505b602082108103613f2557634e487b7160e01b600052602260045260246000fd5b50919050565b634e487b7160e01b600052603260045260246000fd5b634e487b7160e01b600052601160045260246000fd5b600060018201613f6957613f69613f41565b5060010190565b601f8211156131b8576000816000526020600020601f850160051c81016020861015613f995750805b601f850160051c820191505b81811015613fb857828155600101613fa5565b505050505050565b815167ffffffffffffffff811115613fda57613fda613ded565b613fee81613fe88454613ef1565b84613f70565b602080601f831160018114614023576000841561400b5750858301515b600019600386901b1c1916600185901b178555613fb8565b600085815260208120601f198616915b8281101561405257888601518255948401946001909101908401614033565b50858210156140705787850151600019600388901b60f8161c191681555b5050505050600190811b01905550565b83815260406020820152816040820152818360608301376000818301606090810191909152601f909201601f1916010192915050565b60008151808452602080850194506020840160005b83811015613ae45781516001600160a01b0316875295820195908201906001016140cb565b82815260406020820152600061410960408301846140b6565b949350505050565b83815260606020820152600061412a60608301856140b6565b9050826040830152949350505050565b81810381811115611df557611df5613f41565b80820180821115611df557611df5613f41565b634e487b7160e01b600052603160045260246000fd5b82815260406020820152600061410960408301846136f3565b81810361419a575050565b6141a48254613ef1565b67ffffffffffffffff8111156141bc576141bc613ded565b6141ca81613fe88454613ef1565b6000601f8211600181146141fe57600083156141e65750848201545b600019600385901b1c1916600184901b17845561301d565b600085815260209020601f19841690600086815260209020845b838110156142385782860154825560019586019590910190602001614218565b50858310156140705793015460001960f8600387901b161c19169092555050600190811b01905550565b8481528360208201528260408201526080606082015260006137a560808301846136f3565b60008161429657614296613f41565b50600019019056fea26469706673582212202f0f3519ca08fa94012325d8ba6a70c820d812889c6368d600c692e14fe7fb1d64736f6c63430008170033","linkReferences":{}},"methodIdentifiers":{"addProposal(uint256,string)":"051097ef","becomeDelegate(uint256)":"395e0139","becomeMemberOfGroup(uint256)":"af3157c0","createPoll(string,string,uint256,uint256,uint256,uint256,uint256,uint256)":"a00c1f7e","createPrediction(uint256,uint256,string)":"e424938c","delegate(uint256,address)":"08bbb824","getGroupsUserIsMemberIn()":"b28bb34c","getPoll(uint256)":"1a8cbcaa","getPollResults(uint256)":"33b4097b","getPredictionBets(uint256,uint256,uint256)":"3128fcb6","getPredictions(uint256,uint256)":"9bec02b1","getProposals(uint256)":"2c72fdfc","groupDelegates(uint256,uint256)":"ac8ec2f9","hasDelegatedInGroup(uint256)":"b0333e0d","hasDelegatedToDelegateInGroup(uint256,address)":"d5887489","isUserMemberOfGroup(uint256)":"8ad0871b","placePredictionBet(uint256,uint256,uint256,uint256,bool)":"c20572af","pollCount()":"9207891d","polls(uint256)":"ac2f0074","predictionBets(uint256,uint256)":"44f0bb77","predictions(uint256,uint256)":"025ae4e2","proposals(uint256,uint256)":"c2cfee27","removeDelegation(address,uint256)":"fd6c914e","removeGroupMembership(uint256)":"4b30ef34","resignAsDelegate(uint256)":"0457bea8","vote(uint256,uint256)":"b384abef"},"id":20}