{
  "abi": [
    {
      "anonymous": false,
      "inputs": [
        {
          "indexed": true,
          "internalType": "address",
          "name": "delegate",
          "type": "address"
        },
        {
          "indexed": true,
          "internalType": "uint256",
          "name": "groupId",
          "type": "uint256"
        }
      ],
      "name": "DelegateResignation",
      "type": "event"
    },
    {
      "anonymous": false,
      "inputs": [
        {
          "indexed": true,
          "internalType": "address",
          "name": "delegate",
          "type": "address"
        },
        {
          "indexed": true,
          "internalType": "uint256",
          "name": "groupId",
          "type": "uint256"
        },
        {
          "indexed": false,
          "internalType": "uint256",
          "name": "delegatedVotes",
          "type": "uint256"
        },
        {
          "indexed": false,
          "internalType": "address[]",
          "name": "delegationsFrom",
          "type": "address[]"
        },
        {
          "indexed": false,
          "internalType": "uint256",
          "name": "groupDelegateId",
          "type": "uint256"
        }
      ],
      "name": "NewDelegate",
      "type": "event"
    },
    {
      "anonymous": false,
      "inputs": [
        {
          "indexed": true,
          "internalType": "address",
          "name": "from",
          "type": "address"
        },
        {
          "indexed": true,
          "internalType": "address",
          "name": "to",
          "type": "address"
        },
        {
          "indexed": true,
          "internalType": "uint256",
          "name": "groupId",
          "type": "uint256"
        },
        {
          "indexed": false,
          "internalType": "uint256",
          "name": "delegatedVotes",
          "type": "uint256"
        },
        {
          "indexed": false,
          "internalType": "address[]",
          "name": "delegationsFrom",
          "type": "address[]"
        }
      ],
      "name": "NewDelegation",
      "type": "event"
    },
    {
      "anonymous": false,
      "inputs": [
        {
          "indexed": true,
          "internalType": "uint256",
          "name": "_group",
          "type": "uint256"
        }
      ],
      "name": "PermissionGivenToVote",
      "type": "event"
    },
    {
      "anonymous": false,
      "inputs": [
        {
          "indexed": false,
          "internalType": "uint256",
          "name": "pollId",
          "type": "uint256"
        },
        {
          "indexed": false,
          "internalType": "string",
          "name": "title",
          "type": "string"
        }
      ],
      "name": "PollCreated",
      "type": "event"
    },
    {
      "anonymous": false,
      "inputs": [
        {
          "indexed": true,
          "internalType": "uint256",
          "name": "predictionId",
          "type": "uint256"
        },
        {
          "indexed": false,
          "internalType": "bool",
          "name": "bet",
          "type": "bool"
        },
        {
          "indexed": false,
          "internalType": "uint256",
          "name": "likelihood",
          "type": "uint256"
        }
      ],
      "name": "PredictionBetCreated",
      "type": "event"
    },
    {
      "anonymous": false,
      "inputs": [
        {
          "indexed": false,
          "internalType": "uint256",
          "name": "predictionId",
          "type": "uint256"
        },
        {
          "indexed": false,
          "internalType": "string",
          "name": "prediction",
          "type": "string"
        }
      ],
      "name": "PredictionCreated",
      "type": "event"
    },
    {
      "anonymous": false,
      "inputs": [
        {
          "indexed": true,
          "internalType": "uint256",
          "name": "pollId",
          "type": "uint256"
        },
        {
          "indexed": false,
          "internalType": "uint256",
          "name": "proposalId",
          "type": "uint256"
        },
        {
          "indexed": false,
          "internalType": "string",
          "name": "description",
          "type": "string"
        }
      ],
      "name": "ProposalAdded",
      "type": "event"
    },
    {
      "anonymous": false,
      "inputs": [
        {
          "indexed": true,
          "internalType": "uint256",
          "name": "pollId",
          "type": "uint256"
        },
        {
          "indexed": true,
          "internalType": "address",
          "name": "voter",
          "type": "address"
        },
        {
          "indexed": false,
          "internalType": "uint256",
          "name": "votesForProposal",
          "type": "uint256"
        }
      ],
      "name": "VoteSubmitted",
      "type": "event"
    },
    {
      "inputs": [
        {
          "internalType": "uint256",
          "name": "_pollId",
          "type": "uint256"
        },
        {
          "internalType": "string",
          "name": "_description",
          "type": "string"
        }
      ],
      "name": "addProposal",
      "outputs": [],
      "stateMutability": "nonpayable",
      "type": "function"
    },
    {
      "inputs": [
        {
          "internalType": "uint256",
          "name": "_groupId",
          "type": "uint256"
        },
        {
          "internalType": "address",
          "name": "_potentialDelegate",
          "type": "address"
        }
      ],
      "name": "addressIsDelegate",
      "outputs": [
        {
          "internalType": "bool",
          "name": "isDelegate",
          "type": "bool"
        }
      ],
      "stateMutability": "view",
      "type": "function"
    },
    {
      "inputs": [
        {
          "internalType": "uint256",
          "name": "_group",
          "type": "uint256"
        }
      ],
      "name": "becameMemberOfGroup",
      "outputs": [],
      "stateMutability": "payable",
      "type": "function"
    },
    {
      "inputs": [
        {
          "internalType": "uint256",
          "name": "_groupId",
          "type": "uint256"
        }
      ],
      "name": "becomeDelegate",
      "outputs": [],
      "stateMutability": "nonpayable",
      "type": "function"
    },
    {
      "inputs": [
        {
          "internalType": "string",
          "name": "_title",
          "type": "string"
        },
        {
          "internalType": "string",
          "name": "_tag",
          "type": "string"
        },
        {
          "internalType": "uint256",
          "name": "_group",
          "type": "uint256"
        },
        {
          "internalType": "uint256",
          "name": "_pollStartDate",
          "type": "uint256"
        },
        {
          "internalType": "uint256",
          "name": "_proposalEndDate",
          "type": "uint256"
        },
        {
          "internalType": "uint256",
          "name": "_votingStartDate",
          "type": "uint256"
        },
        {
          "internalType": "uint256",
          "name": "_delegateEndDate",
          "type": "uint256"
        },
        {
          "internalType": "uint256",
          "name": "_endDate",
          "type": "uint256"
        }
      ],
      "name": "createPoll",
      "outputs": [],
      "stateMutability": "nonpayable",
      "type": "function"
    },
    {
      "inputs": [
        {
          "internalType": "uint256",
          "name": "_pollId",
          "type": "uint256"
        },
        {
          "internalType": "uint256",
          "name": "_proposalId",
          "type": "uint256"
        },
        {
          "internalType": "string",
          "name": "_prediction",
          "type": "string"
        }
      ],
      "name": "createPrediction",
      "outputs": [],
      "stateMutability": "nonpayable",
      "type": "function"
    },
    {
      "inputs": [
        {
          "internalType": "uint256",
          "name": "_groupId",
          "type": "uint256"
        },
        {
          "internalType": "address",
          "name": "_delegateTo",
          "type": "address"
        }
      ],
      "name": "delegate",
      "outputs": [],
      "stateMutability": "nonpayable",
      "type": "function"
    },
    {
      "inputs": [],
      "name": "getGroupsUserIsMemberIn",
      "outputs": [
        {
          "internalType": "uint256[]",
          "name": "groups",
          "type": "uint256[]"
        }
      ],
      "stateMutability": "view",
      "type": "function"
    },
    {
      "inputs": [
        {
          "internalType": "uint256",
          "name": "_pollId",
          "type": "uint256"
        }
      ],
      "name": "getPollResults",
      "outputs": [
        {
          "internalType": "string[]",
          "name": "",
          "type": "string[]"
        },
        {
          "internalType": "uint256[]",
          "name": "",
          "type": "uint256[]"
        }
      ],
      "stateMutability": "view",
      "type": "function"
    },
    {
      "inputs": [
        {
          "internalType": "uint256",
          "name": "_pollId",
          "type": "uint256"
        },
        {
          "internalType": "uint256",
          "name": "_proposalId",
          "type": "uint256"
        },
        {
          "internalType": "uint256",
          "name": "_predictionId",
          "type": "uint256"
        }
      ],
      "name": "getPredictionBets",
      "outputs": [
        {
          "components": [
            {
              "internalType": "uint256",
              "name": "pollId",
              "type": "uint256"
            },
            {
              "internalType": "uint256",
              "name": "proposalId",
              "type": "uint256"
            },
            {
              "internalType": "uint256",
              "name": "predictionId",
              "type": "uint256"
            },
            {
              "internalType": "bool",
              "name": "bet",
              "type": "bool"
            },
            {
              "internalType": "uint256",
              "name": "likelihood",
              "type": "uint256"
            },
            {
              "internalType": "enum PollStructs.PollPhase",
              "name": "phase",
              "type": "uint8"
            }
          ],
          "internalType": "struct PredictionBetStructs.PredictionBet[]",
          "name": "",
          "type": "tuple[]"
        }
      ],
      "stateMutability": "view",
      "type": "function"
    },
    {
      "inputs": [
        {
          "internalType": "uint256",
          "name": "_pollId",
          "type": "uint256"
        },
        {
          "internalType": "uint256",
          "name": "_proposalId",
          "type": "uint256"
        }
      ],
      "name": "getPredictions",
      "outputs": [
        {
          "components": [
            {
              "internalType": "uint256",
              "name": "pollId",
              "type": "uint256"
            },
            {
              "internalType": "uint256",
              "name": "proposalId",
              "type": "uint256"
            },
            {
              "internalType": "uint256",
              "name": "predictionId",
              "type": "uint256"
            },
            {
              "internalType": "string",
              "name": "prediction",
              "type": "string"
            },
            {
              "internalType": "enum PollStructs.PollPhase",
              "name": "phase",
              "type": "uint8"
            }
          ],
          "internalType": "struct PredictionStructs.Prediction[]",
          "name": "",
          "type": "tuple[]"
        }
      ],
      "stateMutability": "view",
      "type": "function"
    },
    {
      "inputs": [
        {
          "internalType": "uint256",
          "name": "_pollId",
          "type": "uint256"
        }
      ],
      "name": "getProposals",
      "outputs": [
        {
          "components": [
            {
              "internalType": "string",
              "name": "description",
              "type": "string"
            },
            {
              "internalType": "uint256",
              "name": "voteCount",
              "type": "uint256"
            },
            {
              "internalType": "uint256",
              "name": "proposalId",
              "type": "uint256"
            },
            {
              "internalType": "uint256",
              "name": "predictionCount",
              "type": "uint256"
            },
            {
              "internalType": "enum PollStructs.PollPhase",
              "name": "phase",
              "type": "uint8"
            }
          ],
          "internalType": "struct ProposalStructs.Proposal[]",
          "name": "",
          "type": "tuple[]"
        }
      ],
      "stateMutability": "view",
      "type": "function"
    },
    {
      "inputs": [
        {
          "internalType": "uint256",
          "name": "",
          "type": "uint256"
        },
        {
          "internalType": "uint256",
          "name": "",
          "type": "uint256"
        }
      ],
      "name": "groupDelegates",
      "outputs": [
        {
          "internalType": "address",
          "name": "delegate",
          "type": "address"
        },
        {
          "internalType": "uint256",
          "name": "groupId",
          "type": "uint256"
        },
        {
          "internalType": "uint256",
          "name": "delegatedVotes",
          "type": "uint256"
        },
        {
          "internalType": "uint256",
          "name": "groupDelegateId",
          "type": "uint256"
        }
      ],
      "stateMutability": "view",
      "type": "function"
    },
    {
      "inputs": [
        {
          "internalType": "uint256",
          "name": "_groupId",
          "type": "uint256"
        }
      ],
      "name": "hasDelegatedInGroup",
      "outputs": [
        {
          "internalType": "bool",
          "name": "",
          "type": "bool"
        }
      ],
      "stateMutability": "view",
      "type": "function"
    },
    {
      "inputs": [
        {
          "internalType": "uint256",
          "name": "_groupId",
          "type": "uint256"
        },
        {
          "internalType": "address",
          "name": "_delegate",
          "type": "address"
        }
      ],
      "name": "hasDelegatedToDelegateInGroup",
      "outputs": [
        {
          "internalType": "bool",
          "name": "",
          "type": "bool"
        }
      ],
      "stateMutability": "view",
      "type": "function"
    },
    {
      "inputs": [
        {
          "internalType": "uint256",
          "name": "_group",
          "type": "uint256"
        }
      ],
      "name": "isUserMemberOfGroup",
      "outputs": [
        {
          "internalType": "bool",
          "name": "hasRight",
          "type": "bool"
        }
      ],
      "stateMutability": "view",
      "type": "function"
    },
    {
      "inputs": [
        {
          "internalType": "uint256",
          "name": "_pollId",
          "type": "uint256"
        },
        {
          "internalType": "uint256",
          "name": "_proposalId",
          "type": "uint256"
        },
        {
          "internalType": "uint256",
          "name": "_predictionId",
          "type": "uint256"
        },
        {
          "internalType": "uint256",
          "name": "_likelihood",
          "type": "uint256"
        },
        {
          "internalType": "bool",
          "name": "_bet",
          "type": "bool"
        }
      ],
      "name": "placePredictionBet",
      "outputs": [],
      "stateMutability": "nonpayable",
      "type": "function"
    },
    {
      "inputs": [],
      "name": "pollCount",
      "outputs": [
        {
          "internalType": "uint256",
          "name": "",
          "type": "uint256"
        }
      ],
      "stateMutability": "view",
      "type": "function"
    },
    {
      "inputs": [
        {
          "internalType": "uint256",
          "name": "",
          "type": "uint256"
        }
      ],
      "name": "polls",
      "outputs": [
        {
          "internalType": "string",
          "name": "title",
          "type": "string"
        },
        {
          "internalType": "string",
          "name": "tag",
          "type": "string"
        },
        {
          "internalType": "uint256",
          "name": "group",
          "type": "uint256"
        },
        {
          "internalType": "uint256",
          "name": "pollStartDate",
          "type": "uint256"
        },
        {
          "internalType": "uint256",
          "name": "proposalEndDate",
          "type": "uint256"
        },
        {
          "internalType": "uint256",
          "name": "votingStartDate",
          "type": "uint256"
        },
        {
          "internalType": "uint256",
          "name": "delegateEndDate",
          "type": "uint256"
        },
        {
          "internalType": "uint256",
          "name": "endDate",
          "type": "uint256"
        },
        {
          "internalType": "uint256",
          "name": "pollId",
          "type": "uint256"
        },
        {
          "internalType": "uint256",
          "name": "proposalCount",
          "type": "uint256"
        },
        {
          "internalType": "enum PollStructs.PollPhase",
          "name": "phase",
          "type": "uint8"
        }
      ],
      "stateMutability": "view",
      "type": "function"
    },
    {
      "inputs": [
        {
          "internalType": "uint256",
          "name": "",
          "type": "uint256"
        },
        {
          "internalType": "uint256",
          "name": "",
          "type": "uint256"
        }
      ],
      "name": "predictionBets",
      "outputs": [
        {
          "internalType": "uint256",
          "name": "pollId",
          "type": "uint256"
        },
        {
          "internalType": "uint256",
          "name": "proposalId",
          "type": "uint256"
        },
        {
          "internalType": "uint256",
          "name": "predictionId",
          "type": "uint256"
        },
        {
          "internalType": "bool",
          "name": "bet",
          "type": "bool"
        },
        {
          "internalType": "uint256",
          "name": "likelihood",
          "type": "uint256"
        },
        {
          "internalType": "enum PollStructs.PollPhase",
          "name": "phase",
          "type": "uint8"
        }
      ],
      "stateMutability": "view",
      "type": "function"
    },
    {
      "inputs": [
        {
          "internalType": "uint256",
          "name": "",
          "type": "uint256"
        },
        {
          "internalType": "uint256",
          "name": "",
          "type": "uint256"
        }
      ],
      "name": "predictions",
      "outputs": [
        {
          "internalType": "uint256",
          "name": "pollId",
          "type": "uint256"
        },
        {
          "internalType": "uint256",
          "name": "proposalId",
          "type": "uint256"
        },
        {
          "internalType": "uint256",
          "name": "predictionId",
          "type": "uint256"
        },
        {
          "internalType": "string",
          "name": "prediction",
          "type": "string"
        },
        {
          "internalType": "enum PollStructs.PollPhase",
          "name": "phase",
          "type": "uint8"
        }
      ],
      "stateMutability": "view",
      "type": "function"
    },
    {
      "inputs": [
        {
          "internalType": "uint256",
          "name": "",
          "type": "uint256"
        },
        {
          "internalType": "uint256",
          "name": "",
          "type": "uint256"
        }
      ],
      "name": "proposals",
      "outputs": [
        {
          "internalType": "string",
          "name": "description",
          "type": "string"
        },
        {
          "internalType": "uint256",
          "name": "voteCount",
          "type": "uint256"
        },
        {
          "internalType": "uint256",
          "name": "proposalId",
          "type": "uint256"
        },
        {
          "internalType": "uint256",
          "name": "predictionCount",
          "type": "uint256"
        },
        {
          "internalType": "enum PollStructs.PollPhase",
          "name": "phase",
          "type": "uint8"
        }
      ],
      "stateMutability": "view",
      "type": "function"
    },
    {
      "inputs": [
        {
          "internalType": "address",
          "name": "_delegate",
          "type": "address"
        },
        {
          "internalType": "uint256",
          "name": "_groupId",
          "type": "uint256"
        }
      ],
      "name": "removeDelegation",
      "outputs": [],
      "stateMutability": "nonpayable",
      "type": "function"
    },
    {
      "inputs": [
        {
          "internalType": "uint256",
          "name": "_group",
          "type": "uint256"
        }
      ],
      "name": "removeGroupMembership",
      "outputs": [],
      "stateMutability": "payable",
      "type": "function"
    },
    {
      "inputs": [
        {
          "internalType": "uint256",
          "name": "_groupId",
          "type": "uint256"
        }
      ],
      "name": "resignAsDelegate",
      "outputs": [],
      "stateMutability": "nonpayable",
      "type": "function"
    },
    {
      "inputs": [
        {
          "internalType": "uint256",
          "name": "_pollId",
          "type": "uint256"
        },
        {
          "internalType": "uint256",
          "name": "_proposalId",
          "type": "uint256"
        }
      ],
      "name": "vote",
      "outputs": [],
      "stateMutability": "nonpayable",
      "type": "function"
    }
  ],
  "bytecode": {
    "object": "0x608060405234801561001057600080fd5b50613eb1806100206000396000f3fe6080604052600436106101815760003560e01c80639bec02b1116100d1578063b384abef1161008a578063d588748911610064578063d588748914610504578063e424938c14610524578063f13a756f14610544578063fd6c914e1461055757600080fd5b8063b384abef14610493578063c20572af146104b3578063c2cfee27146104d357600080fd5b80639bec02b114610383578063a00c1f7e146103b0578063ac2f0074146103d0578063ac8ec2f914610407578063b0333e0d14610451578063b28bb34c1461047157600080fd5b80633128fcb61161013e57806344f0bb771161011857806344f0bb77146102fa5780634b30ef341461032c5780638ad0871b1461033f5780639207891d1461035f57600080fd5b80633128fcb61461027f57806333b4097b146102ac578063395e0139146102da57600080fd5b8063025ae4e2146101865780630457bea8146101c0578063051097ef146101e257806308bbb8241461020257806321bcf082146102225780632c72fdfc14610252575b600080fd5b34801561019257600080fd5b506101a66101a1366004613392565b610577565b6040516101b7959493929190613432565b60405180910390f35b3480156101cc57600080fd5b506101e06101db366004613470565b610655565b005b3480156101ee57600080fd5b506101e06101fd3660046134d2565b610917565b34801561020e57600080fd5b506101e061021d36600461353a565b610afc565b34801561022e57600080fd5b5061024261023d36600461353a565b610e7c565b60405190151581526020016101b7565b34801561025e57600080fd5b5061027261026d366004613470565b610f00565b6040516101b79190613566565b34801561028b57600080fd5b5061029f61029a366004613609565b611057565b6040516101b79190613635565b3480156102b857600080fd5b506102cc6102c7366004613470565b6112ca565b6040516101b79291906136f7565b3480156102e657600080fd5b506101e06102f5366004613470565b61154f565b34801561030657600080fd5b5061031a610315366004613392565b6116ee565b6040516101b79695949392919061376e565b6101e061033a366004613470565b611749565b34801561034b57600080fd5b5061024261035a366004613470565b61193e565b34801561036b57600080fd5b5061037560055481565b6040519081526020016101b7565b34801561038f57600080fd5b506103a361039e366004613392565b6119ad565b6040516101b791906137ab565b3480156103bc57600080fd5b506101e06103cb366004613840565b611ca0565b3480156103dc57600080fd5b506103f06103eb366004613470565b611e7f565b6040516101b79b9a999897969594939291906138e1565b34801561041357600080fd5b50610427610422366004613392565b611fe9565b604080516001600160a01b03909516855260208501939093529183015260608201526080016101b7565b34801561045d57600080fd5b5061024261046c366004613470565b612039565b34801561047d57600080fd5b506104866120dc565b6040516101b7919061395c565b34801561049f57600080fd5b506101e06104ae366004613392565b61213e565b3480156104bf57600080fd5b506101e06104ce36600461396f565b612470565b3480156104df57600080fd5b506104f36104ee366004613392565b612676565b6040516101b79594939291906139c1565b34801561051057600080fd5b5061024261051f36600461353a565b612755565b34801561053057600080fd5b506101e061053f366004613a0b565b612874565b6101e0610552366004613470565b612b0e565b34801561056357600080fd5b506101e0610572366004613acf565b612bc6565b6007602052816000526040600020818154811061059357600080fd5b9060005260206000209060050201600091509150508060000154908060010154908060020154908060030180546105c990613af9565b80601f01602080910402602001604051908101604052809291908181526020018280546105f590613af9565b80156106425780601f1061061757610100808354040283529160200191610642565b820191906000526020600020905b81548152906001019060200180831161062557829003601f168201915b5050506004909301549192505060ff1685565b80336106618282612eb5565b6000838152600160205260408120546060915b818110156107ba57600086815260016020526040902080543391908390811061069f5761069f613b2d565b60009182526020909120600590910201546001600160a01b0316036107b25760008681526001602052604090208054829081106106de576106de613b2d565b906000526020600020906005020160030180548060200260200160405190810160405280929190818152602001828054801561074357602002820191906000526020600020905b81546001600160a01b03168152600190910190602001808311610725575b5050505050925060016000878152602001908152602001600020818154811061076e5761076e613b2d565b60009182526020822060059091020180546001600160a01b03191681556001810182905560028101829055906107a760038301826132fa565b600482016000905550505b600101610674565b5060005b82518110156108e257600360008483815181106107dd576107dd613b2d565b60200260200101516001600160a01b03166001600160a01b0316815260200190815260200160002080549050915060005b828110156108d957866003600086858151811061082d5761082d613b2d565b60200260200101516001600160a01b03166001600160a01b03168152602001908152602001600020828154811061086657610866613b2d565b9060005260206000200154036108d1576003600085848151811061088c5761088c613b2d565b60200260200101516001600160a01b03166001600160a01b0316815260200190815260200160002081815481106108c5576108c5613b2d565b60009182526020822001555b60010161080e565b506001016107be565b50604051859033907f4a49253305f0d63099f6b61a9d355ce9fd607a6b536918966a9b09cd46b4da8b90600090a35050505050565b8261092181612f2c565b6000806000868152600460205260409020600a015460ff16600381111561094a5761094a6133fa565b149050806109ab5760405162461bcd60e51b8152602060048201526024808201527f596f752063616e206e6f7420706c6163652070726f706f73616c207269676874604482015263206e6f7760e01b60648201526084015b60405180910390fd5b60008581526004602052604081206009018054916109c883613b59565b90915550506000858152600460209081526040808320600901546006835292819020815160c0601f89018590049094028101840190925260a0820187815290928291908990899081908501838280828437600092018290525093855250505060208201819052604082018590526060820152608001600190528154600181018355600092835260209092208151919260050201908190610a689082613bc2565b5060208201518160010155604082015181600201556060820151816003015560808201518160040160006101000a81548160ff02191690836003811115610ab157610ab16133fa565b02179055505050857fbb878f2a2e892d9a3562cba951f66485d18cf663715d59785bd1eafe3697a8c3828787604051610aec93929190613c82565b60405180910390a2505050505050565b8181610b088282612eb5565b610b118461193e565b610b7a5760405162461bcd60e51b815260206004820152603460248201527f596f752063616e206f6e6c792064656c656761746520696e2067726f757073206044820152733cb7ba9030b93290309036b2b6b132b91037b31760611b60648201526084016109a2565b610b8384612039565b15610be55760405162461bcd60e51b815260206004820152602c60248201527f596f75206861766520616e206163746976652064656c65676174696f6e20696e60448201526b103a3434b99033b937bab81760a11b60648201526084016109a2565b336001600160a01b03841603610c3d5760405162461bcd60e51b815260206004820181905260248201527f596f752063616e206e6f742064656c656761746520746f20796f757273656c6660448201526064016109a2565b33600090815260036020908152604080832080546001818101835591855283852001889055878452909152812054606090825b81811015610e2457600088815260016020526040902080546001600160a01b038916919083908110610ca457610ca4613b2d565b60009182526020909120600590910201546001600160a01b031603610e1c576000888152600160205260409020805482908110610ce357610ce3613b2d565b600091825260208220600260059092020101805491610d0183613b59565b90915550506000888152600160205260409020805482908110610d2657610d26613b2d565b600091825260208083206003600590930201919091018054600181810183559184528284200180546001600160a01b031916331790558a8352905260409020805482908110610d7757610d77613b2d565b9060005260206000209060050201600201549350600160008981526020019081526020016000208181548110610daf57610daf613b2d565b9060005260206000209060050201600301805480602002602001604051908101604052809291908181526020018280548015610e1457602002820191906000526020600020905b81546001600160a01b03168152600190910190602001808311610df6575b505050505092505b600101610c70565b5086866001600160a01b0316336001600160a01b03167f666c49d8439089d417a99690492068a6e44b8f5ee919a4e15f72d0185e6034408686604051610e6b929190613cf2565b60405180910390a450505050505050565b600082815260016020526040812054815b81811015610ef357600085815260016020526040902080546001600160a01b038616919083908110610ec157610ec1613b2d565b60009182526020909120600590910201546001600160a01b031603610eeb57600192505050610efa565b600101610e8d565b5060009150505b92915050565b606081610f0c81612f2c565b600083815260066020908152604080832080548251818502810185019093528083529193909284015b8282101561104a57838290600052602060002090600502016040518060a0016040529081600082018054610f6890613af9565b80601f0160208091040260200160405190810160405280929190818152602001828054610f9490613af9565b8015610fe15780601f10610fb657610100808354040283529160200191610fe1565b820191906000526020600020905b815481529060010190602001808311610fc457829003601f168201915b505050918352505060018201546020820152600282015460408201526003808301546060830152600483015460809092019160ff1690811115611026576110266133fa565b6003811115611037576110376133fa565b8152505081526020019060010190610f35565b5050505091505b50919050565b6060838383611067838383612f86565b600087815260066020526040812054905b8181116111f25760008981526006602052604090208054899190839081106110a2576110a2613b2d565b906000526020600020906005020160020154036111ea57600088815260076020526040812054905b8181116111e75760008a815260076020526040902080548a9190839081106110f4576110f4613b2d565b906000526020600020906005020160020154036111df57600089815260086020908152604080832080548251818502810185019093528083529193909284015b828210156111d05760008481526020908190206040805160c081018252600686029092018054835260018101549383019390935260028301549082015260038083015460ff9081161515606084015260048401546080840152600584015492939260a08501929116908111156111ac576111ac6133fa565b60038111156111bd576111bd6133fa565b8152505081526020019060010190611134565b505050509750505050506112c0565b6001016110ca565b50505b600101611078565b50600086815260086020908152604080832080548251818502810185019093528083529193909284015b828210156112b85760008481526020908190206040805160c081018252600686029092018054835260018101549383019390935260028301549082015260038083015460ff9081161515606084015260048401546080840152600584015492939260a0850192911690811115611294576112946133fa565b60038111156112a5576112a56133fa565b815250508152602001906001019061121c565b505050509450505b5050509392505050565b606080826112d781612f2c565b600084815260066020908152604080832080548251818502810185019093528083529192909190849084015b8282101561141857838290600052602060002090600502016040518060a001604052908160008201805461133690613af9565b80601f016020809104026020016040519081016040528092919081815260200182805461136290613af9565b80156113af5780601f10611384576101008083540402835291602001916113af565b820191906000526020600020905b81548152906001019060200180831161139257829003601f168201915b505050918352505060018201546020820152600282015460408201526003808301546060830152600483015460809092019160ff16908111156113f4576113f46133fa565b6003811115611405576114056133fa565b8152505081526020019060010190611303565b5050505090506000815167ffffffffffffffff81111561143a5761143a6139f5565b60405190808252806020026020018201604052801561146d57816020015b60608152602001906001900390816114585790505b5090506000825167ffffffffffffffff81111561148c5761148c6139f5565b6040519080825280602002602001820160405280156114b5578160200160208202803683370190505b50905060005b8351811015611542578381815181106114d6576114d6613b2d565b6020026020010151600001518382815181106114f4576114f4613b2d565b602002602001018190525083818151811061151157611511613b2d565b60200260200101516020015182828151811061152f5761152f613b2d565b60209081029190910101526001016114bb565b5090945092505050915091565b6115598133610e7c565b156115bb5760405162461bcd60e51b815260206004820152602c60248201527f596f752061726520616c726561647920612064656c656761746520696e20737060448201526b06563696669632067726f75760a41b60648201526084016109a2565b60008181526002602052604081208054916115d583613b59565b90915550506040805160a081018252338152602080820184815260008385018181528551828152808501875260608601908152878352600280865287842054608088015288845260018087529784208054808a01825590855293869020875160059095020180546001600160a01b0319166001600160a01b03909516949094178455935196830196909655519181019190915592518051929384939092611683926003850192910190613318565b50608082015181600401555050806020015181600001516001600160a01b03167fb5977a248b20510642da018e687e9ba90beb459651acf6b82b232aeab1aac86e8360400151846060015185608001516040516116e293929190613d13565b60405180910390a35050565b6008602052816000526040600020818154811061170a57600080fd5b60009182526020909120600690910201805460018201546002830154600384015460048501546005909501549396509194509260ff9182169290911686565b6117528161193e565b6117ac5760405162461bcd60e51b815260206004820152602560248201527f596f7520617265206e6f74206d656d626572206f662073706563696669656420604482015264067726f75760dc1b60648201526084016109a2565b33600090815260208181526040808320600101805482518185028101850190935280835261180e9383018282801561180357602002820191906000526020600020905b8154815260200190600101908083116117ef575b505050505083612fe8565b3360009081526020819052604090206001015490915081106118675760405162461bcd60e51b81526020600482015260126024820152711a5b99195e081bdd5d081bd988189bdd5b9960721b60448201526064016109a2565b805b3360009081526020819052604090206001908101546118889190613d3c565b811015611902573360009081526020819052604090206001908101906118af908390613d4f565b815481106118bf576118bf613b2d565b60009182526020808320909101543383529082905260409091206001018054839081106118ee576118ee613b2d565b600091825260209091200155600101611869565b5033600090815260208190526040902060010180548061192457611924613d62565b600190038181906000526020600020016000905590555050565b6000805b336000908152602081905260409020600101548110156119a45733600090815260208190526040902060010180548491908390811061198357611983613b2d565b90600052602060002001540361199c5750600192915050565b600101611942565b50600092915050565b6000828152600660205260408120546060915b818111611b545760008581526006602052604090208054859190839081106119ea576119ea613b2d565b90600052602060002090600502016002015403611b4c57600084815260076020908152604080832080548251818502810185019093528083529193909284015b82821015611b3f57838290600052602060002090600502016040518060a0016040529081600082015481526020016001820154815260200160028201548152602001600382018054611a7b90613af9565b80601f0160208091040260200160405190810160405280929190818152602001828054611aa790613af9565b8015611af45780601f10611ac957610100808354040283529160200191611af4565b820191906000526020600020905b815481529060010190602001808311611ad757829003601f168201915b5050509183525050600482015460209091019060ff166003811115611b1b57611b1b6133fa565b6003811115611b2c57611b2c6133fa565b8152505081526020019060010190611a2a565b5050505092505050610efa565b6001016119c0565b50600083815260076020908152604080832080548251818502810185019093528083529193909284015b82821015611c9357838290600052602060002090600502016040518060a0016040529081600082015481526020016001820154815260200160028201548152602001600382018054611bcf90613af9565b80601f0160208091040260200160405190810160405280929190818152602001828054611bfb90613af9565b8015611c485780601f10611c1d57610100808354040283529160200191611c48565b820191906000526020600020905b815481529060010190602001808311611c2b57829003601f168201915b5050509183525050600482015460209091019060ff166003811115611c6f57611c6f6133fa565b6003811115611c8057611c806133fa565b8152505081526020019060010190611b7e565b5050505091505092915050565b60058054906000611cb083613b59565b9091555050604080516101806020601f8d01819004028201810190925261016081018b81526000928291908e908e9081908501838280828437600092019190915250505090825250604080516020601f8d018190048102820181019092528b815291810191908c908c90819084018382808284376000920182905250938552505050602082018a905260408201899052606082018890526080820187905260a0820186905260c0820185905260055460e083015261010082018190526101209091015261010081015181516040519293507f65d5ac2bf1bca69566bef1affdfca5bb37b9577fc0b3af4c7c4638225e67b39c92611dae929190613d78565b60405180910390a1600554600090815260046020526040902081518291908190611dd89082613bc2565b5060208201516001820190611ded9082613bc2565b5060408201518160020155606082015181600301556080820151816004015560a0820151816005015560c0820151816006015560e082015181600701556101008201518160080155610120820151816009015561014082015181600a0160006101000a81548160ff02191690836003811115611e6b57611e6b6133fa565b021790555050505050505050505050505050565b600460205260009081526040902080548190611e9a90613af9565b80601f0160208091040260200160405190810160405280929190818152602001828054611ec690613af9565b8015611f135780601f10611ee857610100808354040283529160200191611f13565b820191906000526020600020905b815481529060010190602001808311611ef657829003601f168201915b505050505090806001018054611f2890613af9565b80601f0160208091040260200160405190810160405280929190818152602001828054611f5490613af9565b8015611fa15780601f10611f7657610100808354040283529160200191611fa1565b820191906000526020600020905b815481529060010190602001808311611f8457829003601f168201915b50505060028401546003850154600486015460058701546006880154600789015460088a015460098b0154600a909b0154999a96999598509396509194909391929160ff168b565b6001602052816000526040600020818154811061200557600080fd5b600091825260209091206005909102018054600182015460028301546004909301546001600160a01b039092169450925084565b3360009081526003602090815260408083208054825181850281018501909352808352849383018282801561208d57602002820191906000526020600020905b815481526020019060010190808311612079575b5050505050905060005b81518110156120d257838282815181106120b3576120b3613b2d565b6020026020010151036120ca575060019392505050565b600101612097565b5060009392505050565b336000908152602081815260409182902060010180548351818402810184019094528084526060939283018282801561213457602002820191906000526020600020905b815481526020019060010190808311612120575b5050505050905090565b8161214881612f2c565b600083815260046020526040812060020154906121648561193e565b6121bf5760405162461bcd60e51b815260206004820152602660248201527f5468652075736572206973206e6f742061206d656d626572206f6620706f6c6c60448201526502067726f75760d41b60648201526084016109a2565b6121c88561302b565b156122155760405162461bcd60e51b815260206004820152601a60248201527f566f74652068617320616c7265616479206265656e206361737400000000000060448201526064016109a2565b61221f85856130df565b61222857600080fd5b61223182613144565b156122975760405162461bcd60e51b815260206004820152603060248201527f596f7520686176652064656c65676174656420796f757220766f746520696e2060448201526f3a3432903837b636399033b937bab81760811b60648201526084016109a2565b6000858152600660209081526040808320858452600190925282205490915b8181101561233d5760008581526001602052604090208054339190839081106122e1576122e1613b2d565b60009182526020909120600590910201546001600160a01b03160361233557600085815260016020526040902080548290811061232057612320613b2d565b90600052602060002090600502016002015493505b6001016122b6565b5081546000805b82811015612463578885828154811061235f5761235f613b2d565b9060005260206000209060050201600201540361245b57612381866001613d4f565b85828154811061239357612393613b2d565b906000526020600020906005020160010160008282546123b39190613d4f565b925050819055508481815481106123cc576123cc613b2d565b6000918252602080832060016005909302018201548d84526009825260408085208054948501815585529190932090910180546001600160a01b031916339081179091559051919350908b907fa5876137634fc61be6a6224d5f4a2d0926145388c51a133c03cc00f7b66e0e3c906124479086815260200190565b60405180910390a350505050505050505050565b600101612344565b505050505050505b505050565b84848461247e838383612f86565b600085116124ce5760405162461bcd60e51b815260206004820152601f60248201527f56616c7565206e6565647320746f20626520686967686572207468616e20300060448201526064016109a2565b6000600260008981526007602052604090206124eb60018a613d3c565b815481106124fb576124fb613b2d565b600091825260209091206004600590920201015460ff166003811115612523576125236133fa565b1490508061257f5760405162461bcd60e51b8152602060048201526024808201527f596f752063616e206e6f7420706c61636520612062657420617420746869732060448201526374696d6560e01b60648201526084016109a2565b6000878152600860209081526040808320815160c0810183528d81528084018d81529281018c81528a151560608301908152608083018d8152600360a08501818152865460018082018955978b529890992085516006909902019788559551878601559151600287015551858501805491151560ff199283161790559051600486015594516005850180549296919490939290911691908490811115612627576126276133fa565b021790555050604080518715158152602081018990528992507fefbf97b6b2de004cd3e8b4af6b867bf332de6df57c2447d9b5c5a00abaec5d1f910160405180910390a2505050505050505050565b6006602052816000526040600020818154811061269257600080fd5b9060005260206000209060050201600091509150508060000180546126b690613af9565b80601f01602080910402602001604051908101604052809291908181526020018280546126e290613af9565b801561272f5780601f106127045761010080835404028352916020019161272f565b820191906000526020600020905b81548152906001019060200180831161271257829003601f168201915b505050506001830154600284015460038501546004909501549394919390925060ff1685565b600082815260016020526040812054815b81811015610ef357600085815260016020526040902080546001600160a01b03861691908390811061279a5761279a613b2d565b60009182526020909120600590910201546001600160a01b03160361286c5760008581526001602052604090208054829081106127d9576127d9613b2d565b6000918252602082206003600590920201015492505b8281101561286a57600086815260016020526040902080543391908490811061281a5761281a613b2d565b9060005260206000209060050201600301828154811061283c5761283c613b2d565b6000918252602090912001546001600160a01b0316036128625760019350505050610efa565b6001016127ef565b505b600101612766565b600060016000858152600660205260409020612891600186613d3c565b815481106128a1576128a1613b2d565b600091825260209091206004600590920201015460ff1660038111156128c9576128c96133fa565b1490508061292e5760405162461bcd60e51b815260206004820152602c60248201527f596f752063616e206e6f742063726561746520612070726564696374696f6e2060448201526b617420746869732074696d6560a01b60648201526084016109a2565b6000848152600660205260408120612947600186613d3c565b8154811061295757612957613b2d565b9060005260206000209060050201905061297185856130df565b61297a57600080fd5b60038101805490600061298c83613b59565b90915550506003810154600086815260066020526040902082906129b1600188613d3c565b815481106129c1576129c1613b2d565b60009182526020909120600590910201806129dc8382613d91565b50600182810154828201556002808401549083015560038084015481840155600480850154908401805460ff90921693909260ff19909216918490811115612a2657612a266133fa565b021790555050506000858152600760209081526040808320815160a0810183528a81528084018a8152928101868152606082018a8152600260808401819052845460018082018755958952969097208351600590970201958655935192850192909255905193830193909355516003820190612aa29082613bc2565b50608082015160048201805460ff19166001836003811115612ac657612ac66133fa565b021790555050507f611b851c586fb53b9aae86344db19e0e0dd8f785abd9117602396d3bccb37c418185604051612afe929190613d78565b60405180910390a1505050505050565b612b178161193e565b15612b765760405162461bcd60e51b815260206004820152602960248201527f596f752061726520616c7265616479206d656d626572206f662073706563696660448201526806965642067726f75760bc1b60648201526084016109a2565b3360009081526020818152604080832060019081018054918201815584529183209091018390555182917f8aa97af2947aac0dc42394954c6dd127eba5cecbc5a03fae31e5cc07d6738fe591a250565b612bd08183612755565b612c425760405162461bcd60e51b815260206004820152603e60248201527f596f752068617665206e6f742064656c65676174656420746f2074686520737060448201527f656369666965642064656c656761746520696e20746869732067726f7570000060648201526084016109a2565b600081815260016020526040812054815b81811015612e2957600084815260016020526040902080546001600160a01b038716919083908110612c8757612c87613b2d565b60009182526020909120600590910201546001600160a01b031603612e21576000848152600160205260409020805482908110612cc657612cc6613b2d565b600091825260208220600260059092020101805491612ce483613e64565b90915550506000848152600160205260409020805482908110612d0957612d09613b2d565b906000526020600020906005020160020154925060005b6000858152600160205260409020805483908110612d4057612d40613b2d565b906000526020600020906005020160030180549050811015612e1f576000858152600160205260409020805433919084908110612d7f57612d7f613b2d565b90600052602060002090600502016003018281548110612da157612da1613b2d565b6000918252602090912001546001600160a01b031603612e17576000858152600160205260409020805483908110612ddb57612ddb613b2d565b90600052602060002090600502016003018181548110612dfd57612dfd613b2d565b600091825260209091200180546001600160a01b03191690555b600101612d20565b505b600101612c53565b505033600090815260036020526040812054905b81811015612eae57336000908152600360205260409020805485919083908110612e6957612e69613b2d565b906000526020600020015403612ea657336000908152600360205260409020805482908110612e9a57612e9a613b2d565b60009182526020822001555b600101612e3d565b5050505050565b612ebf8282610e7c565b612f285760405162461bcd60e51b815260206004820152603460248201527f5468652061646472657373206973206e6f7420612064656c656761746520696e604482015273020746865207370656369666965642067726f75760641b60648201526084016109a2565b5050565b600081118015612f3e57506005548111155b612f835760405162461bcd60e51b8152602060048201526016602482015275141bdb1b08125108191bd95cc81b9bdd08195e1a5cdd60521b60448201526064016109a2565b50565b612f918383836131dd565b61246b5760405162461bcd60e51b815260206004820152602260248201527f57726f6e6720706f6c6c2c2070726f706f73616c206f7220707265646963746960448201526137b760f11b60648201526084016109a2565b6000805b8351811015613024578284828151811061300857613008613b2d565b60200260200101510361301c579050610efa565b600101612fec565b5092915050565b60008181526009602090815260408083208054825181850281018501909352808352849383018282801561308857602002820191906000526020600020905b81546001600160a01b0316815260019091019060200180831161306a575b5050505050905060005b81518110156120d257336001600160a01b03168282815181106130b7576130b7613b2d565b60200260200101516001600160a01b0316036130d7575060019392505050565b600101613092565b600082815260066020526040812054815b818111610ef357600085815260066020526040902080548591908390811061311a5761311a613b2d565b9060005260206000209060050201600201540361313c57600192505050610efa565b6001016130f0565b3360009081526003602090815260408083208054825181850281018501909352808352849383018282801561319857602002820191906000526020600020905b815481526020019060010190808311613184575b5050505050905060005b81518110156120d257838282815181106131be576131be613b2d565b6020026020010151036131d5575060019392505050565b6001016131a2565b600554600090815b8181116132ec576000818152600460205260409020600801548690036132e457600086815260066020526040812054905b8181116132d757600088815260066020526040902080548891908390811061324057613240613b2d565b906000526020600020906005020160020154036132cf57600087815260076020526040812054905b8181116132c057600089815260076020526040902080548991908390811061329257613292613b2d565b906000526020600020906005020160020154036132b857600196505050505050506132f3565b600101613268565b506000955050505050506132f3565b600101613216565b50600093505050506132f3565b6001016131e5565b5060009150505b9392505050565b5080546000825590600052602060002090810190612f83919061337d565b82805482825590600052602060002090810192821561336d579160200282015b8281111561336d57825182546001600160a01b0319166001600160a01b03909116178255602090920191600190910190613338565b5061337992915061337d565b5090565b5b80821115613379576000815560010161337e565b600080604083850312156133a557600080fd5b50508035926020909101359150565b6000815180845260005b818110156133da576020818501810151868301820152016133be565b506000602082860101526020601f19601f83011685010191505092915050565b634e487b7160e01b600052602160045260246000fd5b6004811061342e57634e487b7160e01b600052602160045260246000fd5b9052565b85815284602082015283604082015260a06060820152600061345760a08301856133b4565b90506134666080830184613410565b9695505050505050565b60006020828403121561348257600080fd5b5035919050565b60008083601f84011261349b57600080fd5b50813567ffffffffffffffff8111156134b357600080fd5b6020830191508360208285010111156134cb57600080fd5b9250929050565b6000806000604084860312156134e757600080fd5b83359250602084013567ffffffffffffffff81111561350557600080fd5b61351186828701613489565b9497909650939450505050565b80356001600160a01b038116811461353557600080fd5b919050565b6000806040838503121561354d57600080fd5b8235915061355d6020840161351e565b90509250929050565b600060208083018184528085518083526040925060408601915060408160051b87010184880160005b838110156135fb57603f19898403018552815160a081518186526135b5828701826133b4565b91505088820151898601528782015188860152606080830151818701525060808083015192506135e781870184613410565b50958801959350509086019060010161358f565b509098975050505050505050565b60008060006060848603121561361e57600080fd5b505081359360208301359350604090920135919050565b602080825282518282018190526000919060409081850190868401855b828110156136ae57815180518552868101518786015285810151868601526060808201511515908601526080808201519086015260a0908101519061369981870183613410565b505060c0939093019290850190600101613652565b5091979650505050505050565b60008151808452602080850194506020840160005b838110156136ec578151875295820195908201906001016136d0565b509495945050505050565b6000604082016040835280855180835260608501915060608160051b8601019250602080880160005b8381101561374e57605f1988870301855261373c8683516133b4565b95509382019390820190600101613720565b5050505050828103602084015261376581856136bb565b95945050505050565b600060c08201905087825286602083015285604083015284151560608301528360808301526137a060a0830184613410565b979650505050505050565b600060208083018184528085518083526040925060408601915060408160051b87010184880160005b838110156135fb57603f19898403018552815160a081518552888201518986015287820151888601526060808301518282880152613814838801826133b4565b92505050608080830151925061382c81870184613410565b5095880195935050908601906001016137d4565b6000806000806000806000806000806101008b8d03121561386057600080fd5b8a3567ffffffffffffffff8082111561387857600080fd5b6138848e838f01613489565b909c509a5060208d013591508082111561389d57600080fd5b506138aa8d828e01613489565b9b9e9a9d509b60408101359a60608201359a506080820135995060a0820135985060c0820135975060e09091013595509350505050565b60006101608083526138f58184018f6133b4565b90508281036020840152613909818e6133b4565b9150508a60408301528960608301528860808301528760a08301528660c08301528560e0830152846101008301528361012083015261394c610140830184613410565b9c9b505050505050505050505050565b6020815260006132f360208301846136bb565b600080600080600060a0868803121561398757600080fd5b85359450602086013593506040860135925060608601359150608086013580151581146139b357600080fd5b809150509295509295909350565b60a0815260006139d460a08301886133b4565b90508560208301528460408301528360608301526134666080830184613410565b634e487b7160e01b600052604160045260246000fd5b600080600060608486031215613a2057600080fd5b8335925060208401359150604084013567ffffffffffffffff80821115613a4657600080fd5b818601915086601f830112613a5a57600080fd5b813581811115613a6c57613a6c6139f5565b604051601f8201601f19908116603f01168101908382118183101715613a9457613a946139f5565b81604052828152896020848701011115613aad57600080fd5b8260208601602083013760006020848301015280955050505050509250925092565b60008060408385031215613ae257600080fd5b613aeb8361351e565b946020939093013593505050565b600181811c90821680613b0d57607f821691505b60208210810361105157634e487b7160e01b600052602260045260246000fd5b634e487b7160e01b600052603260045260246000fd5b634e487b7160e01b600052601160045260246000fd5b600060018201613b6b57613b6b613b43565b5060010190565b601f82111561246b576000816000526020600020601f850160051c81016020861015613b9b5750805b601f850160051c820191505b81811015613bba57828155600101613ba7565b505050505050565b815167ffffffffffffffff811115613bdc57613bdc6139f5565b613bf081613bea8454613af9565b84613b72565b602080601f831160018114613c255760008415613c0d5750858301515b600019600386901b1c1916600185901b178555613bba565b600085815260208120601f198616915b82811015613c5457888601518255948401946001909101908401613c35565b5085821015613c725787850151600019600388901b60f8161c191681555b5050505050600190811b01905550565b83815260406020820152816040820152818360608301376000818301606090810191909152601f909201601f1916010192915050565b60008151808452602080850194506020840160005b838110156136ec5781516001600160a01b031687529582019590820190600101613ccd565b828152604060208201526000613d0b6040830184613cb8565b949350505050565b838152606060208201526000613d2c6060830185613cb8565b9050826040830152949350505050565b81810381811115610efa57610efa613b43565b80820180821115610efa57610efa613b43565b634e487b7160e01b600052603160045260246000fd5b828152604060208201526000613d0b60408301846133b4565b818103613d9c575050565b613da68254613af9565b67ffffffffffffffff811115613dbe57613dbe6139f5565b613dcc81613bea8454613af9565b6000601f821160018114613e005760008315613de85750848201545b600019600385901b1c1916600184901b178455612eae565b600085815260209020601f19841690600086815260209020845b83811015613e3a5782860154825560019586019590910190602001613e1a565b5085831015613c725793015460001960f8600387901b161c19169092555050600190811b01905550565b600081613e7357613e73613b43565b50600019019056fea264697066735822122091919e02e16a663b7dbe7fccdbf19eb97316988059916abdb2654197eec215c564736f6c63430008170033",
    "linkReferences": {}
  },
  "methodIdentifiers": {
    "addProposal(uint256,string)": "051097ef",
    "addressIsDelegate(uint256,address)": "21bcf082",
    "becameMemberOfGroup(uint256)": "f13a756f",
    "becomeDelegate(uint256)": "395e0139",
    "createPoll(string,string,uint256,uint256,uint256,uint256,uint256,uint256)": "a00c1f7e",
    "createPrediction(uint256,uint256,string)": "e424938c",
    "delegate(uint256,address)": "08bbb824",
    "getGroupsUserIsMemberIn()": "b28bb34c",
    "getPollResults(uint256)": "33b4097b",
    "getPredictionBets(uint256,uint256,uint256)": "3128fcb6",
    "getPredictions(uint256,uint256)": "9bec02b1",
    "getProposals(uint256)": "2c72fdfc",
    "groupDelegates(uint256,uint256)": "ac8ec2f9",
    "hasDelegatedInGroup(uint256)": "b0333e0d",
    "hasDelegatedToDelegateInGroup(uint256,address)": "d5887489",
    "isUserMemberOfGroup(uint256)": "8ad0871b",
    "placePredictionBet(uint256,uint256,uint256,uint256,bool)": "c20572af",
    "pollCount()": "9207891d",
    "polls(uint256)": "ac2f0074",
    "predictionBets(uint256,uint256)": "44f0bb77",
    "predictions(uint256,uint256)": "025ae4e2",
    "proposals(uint256,uint256)": "c2cfee27",
    "removeDelegation(address,uint256)": "fd6c914e",
    "removeGroupMembership(uint256)": "4b30ef34",
    "resignAsDelegate(uint256)": "0457bea8",
    "vote(uint256,uint256)": "b384abef"
  },
  "id": 20
}