{
  "abi": [
    {
      "anonymous": false,
      "inputs": [
        {
          "indexed": false,
          "internalType": "address",
          "name": "delegate",
          "type": "address"
        },
        {
          "indexed": false,
          "internalType": "uint256",
          "name": "groupId",
          "type": "uint256"
        }
      ],
      "name": "DelegateResignation",
      "type": "event"
    },
    {
      "anonymous": false,
      "inputs": [
        {
          "indexed": false,
          "internalType": "address",
          "name": "from",
          "type": "address"
        },
        {
          "indexed": false,
          "internalType": "address",
          "name": "by",
          "type": "address"
        },
        {
          "indexed": false,
          "internalType": "uint256",
          "name": "groupId",
          "type": "uint256"
        },
        {
          "indexed": false,
          "internalType": "uint256",
          "name": "delegatedVotes",
          "type": "uint256"
        }
      ],
      "name": "DelegationRemoved",
      "type": "event"
    },
    {
      "anonymous": false,
      "inputs": [
        {
          "indexed": false,
          "internalType": "address",
          "name": "delegate",
          "type": "address"
        },
        {
          "indexed": false,
          "internalType": "uint256",
          "name": "groupId",
          "type": "uint256"
        },
        {
          "indexed": false,
          "internalType": "uint256",
          "name": "delegatedVotes",
          "type": "uint256"
        },
        {
          "indexed": false,
          "internalType": "address[]",
          "name": "delegationsFrom",
          "type": "address[]"
        },
        {
          "indexed": false,
          "internalType": "uint256",
          "name": "groupDelegateId",
          "type": "uint256"
        }
      ],
      "name": "NewDelegate",
      "type": "event"
    },
    {
      "anonymous": false,
      "inputs": [
        {
          "indexed": false,
          "internalType": "address",
          "name": "from",
          "type": "address"
        },
        {
          "indexed": false,
          "internalType": "address",
          "name": "to",
          "type": "address"
        },
        {
          "indexed": false,
          "internalType": "uint256",
          "name": "groupId",
          "type": "uint256"
        },
        {
          "indexed": false,
          "internalType": "uint256",
          "name": "delegatedVotes",
          "type": "uint256"
        },
        {
          "indexed": false,
          "internalType": "address[]",
          "name": "delegationsFrom",
          "type": "address[]"
        }
      ],
      "name": "NewDelegation",
      "type": "event"
    },
    {
      "inputs": [
        {
          "internalType": "uint256",
          "name": "_groupId",
          "type": "uint256"
        }
      ],
      "name": "becomeDelegate",
      "outputs": [],
      "stateMutability": "nonpayable",
      "type": "function"
    },
    {
      "inputs": [],
      "name": "checkAllRights",
      "outputs": [
        {
          "internalType": "uint256[]",
          "name": "groups",
          "type": "uint256[]"
        }
      ],
      "stateMutability": "view",
      "type": "function"
    },
    {
      "inputs": [
        {
          "internalType": "uint256",
          "name": "_group",
          "type": "uint256"
        }
      ],
      "name": "checkRightsInGroup",
      "outputs": [
        {
          "internalType": "bool",
          "name": "hasRight",
          "type": "bool"
        }
      ],
      "stateMutability": "view",
      "type": "function"
    },
    {
      "inputs": [
        {
          "internalType": "uint256",
          "name": "_groupId",
          "type": "uint256"
        },
        {
          "internalType": "address",
          "name": "_delegateTo",
          "type": "address"
        }
      ],
      "name": "delegate",
      "outputs": [],
      "stateMutability": "nonpayable",
      "type": "function"
    },
    {
      "inputs": [
        {
          "internalType": "uint256",
          "name": "_group",
          "type": "uint256"
        }
      ],
      "name": "giveRightToVote",
      "outputs": [],
      "stateMutability": "payable",
      "type": "function"
    },
    {
      "inputs": [
        {
          "internalType": "uint256",
          "name": "",
          "type": "uint256"
        },
        {
          "internalType": "uint256",
          "name": "",
          "type": "uint256"
        }
      ],
      "name": "groupDelegates",
      "outputs": [
        {
          "internalType": "address",
          "name": "delegate",
          "type": "address"
        },
        {
          "internalType": "uint256",
          "name": "groupId",
          "type": "uint256"
        },
        {
          "internalType": "uint256",
          "name": "delegatedVotes",
          "type": "uint256"
        },
        {
          "internalType": "uint256",
          "name": "groupDelegateId",
          "type": "uint256"
        }
      ],
      "stateMutability": "view",
      "type": "function"
    },
    {
      "inputs": [
        {
          "internalType": "uint256",
          "name": "_groupId",
          "type": "uint256"
        }
      ],
      "name": "hasDelegatedInGroup",
      "outputs": [
        {
          "internalType": "bool",
          "name": "",
          "type": "bool"
        }
      ],
      "stateMutability": "view",
      "type": "function"
    },
    {
      "inputs": [
        {
          "internalType": "uint256",
          "name": "_groupId",
          "type": "uint256"
        },
        {
          "internalType": "address",
          "name": "_delegate",
          "type": "address"
        }
      ],
      "name": "hasDelegatedToDelegateInGroup",
      "outputs": [
        {
          "internalType": "bool",
          "name": "",
          "type": "bool"
        }
      ],
      "stateMutability": "view",
      "type": "function"
    },
    {
      "inputs": [
        {
          "internalType": "address",
          "name": "_delegate",
          "type": "address"
        },
        {
          "internalType": "uint256",
          "name": "_groupId",
          "type": "uint256"
        }
      ],
      "name": "removeDelegation",
      "outputs": [],
      "stateMutability": "nonpayable",
      "type": "function"
    },
    {
      "inputs": [
        {
          "internalType": "uint256",
          "name": "_group",
          "type": "uint256"
        }
      ],
      "name": "removeRightToVote",
      "outputs": [],
      "stateMutability": "payable",
      "type": "function"
    },
    {
      "inputs": [
        {
          "internalType": "uint256",
          "name": "_groupId",
          "type": "uint256"
        }
      ],
      "name": "resignAsDelegate",
      "outputs": [],
      "stateMutability": "nonpayable",
      "type": "function"
    }
  ],
  "bytecode": {
    "object": "0x608060405234801561001057600080fd5b5061162e806100206000396000f3fe60806040526004361061009c5760003560e01c8063ae828f3c11610064578063ae828f3c14610165578063b0333e0d14610187578063bc23bd51146101b7578063d5887489146101e8578063de21967214610208578063fd6c914e1461022857600080fd5b80630457bea8146100a157806308bbb824146100c3578063395e0139146100e3578063422ee52a14610103578063ac8ec2f914610116575b600080fd5b3480156100ad57600080fd5b506100c16100bc3660046113a6565b610248565b005b3480156100cf57600080fd5b506100c16100de3660046113db565b610505565b3480156100ef57600080fd5b506100c16100fe3660046113a6565b6108e1565b6100c16101113660046113a6565b6109fd565b34801561012257600080fd5b50610136610131366004611407565b610b8f565b604080516001600160a01b03909516855260208501939093529183015260608201526080015b60405180910390f35b34801561017157600080fd5b5061017a610bdf565b60405161015c9190611429565b34801561019357600080fd5b506101a76101a23660046113a6565b610c41565b604051901515815260200161015c565b6100c16101c53660046113a6565b336000908152602081815260408220600190810180549182018155835291200155565b3480156101f457600080fd5b506101a76102033660046113db565b610ce4565b34801561021457600080fd5b506101a76102233660046113a6565b610e10565b34801561023457600080fd5b506100c161024336600461146d565b610e7f565b606060005b6000838152600160205260409020548110156103a157600083815260016020526040902080543391908390811061028657610286611497565b60009182526020909120600590910201546001600160a01b0316036103995760008381526001602052604090208054829081106102c5576102c5611497565b906000526020600020906005020160030180548060200260200160405190810160405280929190818152602001828054801561032a57602002820191906000526020600020905b81546001600160a01b0316815260019091019060200180831161030c575b5050505050915060016000848152602001908152602001600020818154811061035557610355611497565b60009182526020822060059091020180546001600160a01b031916815560018101829055600281018290559061038e600383018261130b565b600482016000905550505b60010161024d565b5060005b81518110156104c65760005b600360008484815181106103c7576103c7611497565b60200260200101516001600160a01b03166001600160a01b03168152602001908152602001600020805490508110156104bd57836003600085858151811061041157610411611497565b60200260200101516001600160a01b03166001600160a01b03168152602001908152602001600020828154811061044a5761044a611497565b9060005260206000200154036104b5576003600084848151811061047057610470611497565b60200260200101516001600160a01b03166001600160a01b0316815260200190815260200160002081815481106104a9576104a9611497565b60009182526020822001555b6001016103b1565b506001016103a5565b5060408051338152602081018490527f4a49253305f0d63099f6b61a9d355ce9fd607a6b536918966a9b09cd46b4da8b91015b60405180910390a15050565b61050f82826111bd565b61057d5760405162461bcd60e51b815260206004820152603460248201527f5468652061646472657373206973206e6f7420612064656c656761746520696e604482015273020746865207370656369666965642067726f75760641b60648201526084015b60405180910390fd5b61058682611234565b6105ef5760405162461bcd60e51b815260206004820152603460248201527f596f752063616e206f6e6c792064656c656761746520696e2067726f757073206044820152733cb7ba9030b93290309036b2b6b132b91037b31760611b6064820152608401610574565b6105f882610c41565b1561065a5760405162461bcd60e51b815260206004820152602c60248201527f596f75206861766520616e206163746976652064656c65676174696f6e20696e60448201526b103a3434b99033b937bab81760a11b6064820152608401610574565b336001600160a01b038216036106b25760405162461bcd60e51b815260206004820181905260248201527f596f752063616e206e6f742064656c656761746520746f20796f757273656c666044820152606401610574565b33600090815260036020908152604082208054600181018255908352908220018390556060815b60008581526001602052604090205481101561089b57600085815260016020526040902080546001600160a01b03861691908390811061071b5761071b611497565b60009182526020909120600590910201546001600160a01b03160361089357600085815260016020526040902080548290811061075a5761075a611497565b600091825260208220600260059092020101805491610778836114c3565b9091555050600085815260016020526040902080548290811061079d5761079d611497565b600091825260208083206003600590930201919091018054600181810183559184528284200180546001600160a01b031916331790558783529052604090208054829081106107ee576107ee611497565b906000526020600020906005020160020154925060016000868152602001908152602001600020818154811061082657610826611497565b906000526020600020906005020160030180548060200260200160405190810160405280929190818152602001828054801561088b57602002820191906000526020600020905b81546001600160a01b0316815260019091019060200180831161086d575b505050505091505b6001016106d9565b507f666c49d8439089d417a99690492068a6e44b8f5ee919a4e15f72d0185e60344033848685856040516108d3959493929190611521565b60405180910390a150505050565b60008181526002602052604081208054916108fb836114c3565b90915550506040805160a081018252338152602080820184815260008385018181528551828152808501875260608601908152878352600280865287842054608088015288845260018087529784208054808a01825590855293869020875160059095020180546001600160a01b0319166001600160a01b039095169490941784559351968301969096555191810191909155925180519293849390926109a992600385019291019061132c565b506080918201516004909101558151602083015160408085015160608601519486015191517fb5977a248b20510642da018e687e9ba90beb459651acf6b82b232aeab1aac86e956104f99594939091611566565b336000908152602081815260408083206001018054825181850281018501909352808352610a5f93830182828015610a5457602002820191906000526020600020905b815481526020019060010190808311610a40575b50505050508361129a565b336000908152602081905260409020600101549091508110610ab85760405162461bcd60e51b81526020600482015260126024820152711a5b99195e081bdd5d081bd988189bdd5b9960721b6044820152606401610574565b805b336000908152602081905260409020600190810154610ad991906115a5565b811015610b5357336000908152602081905260409020600190810190610b009083906115b8565b81548110610b1057610b10611497565b6000918252602080832090910154338352908290526040909120600101805483908110610b3f57610b3f611497565b600091825260209091200155600101610aba565b50336000908152602081905260409020600101805480610b7557610b756115cb565b600190038181906000526020600020016000905590555050565b60016020528160005260406000208181548110610bab57600080fd5b600091825260209091206005909102018054600182015460028301546004909301546001600160a01b039092169450925084565b3360009081526020818152604091829020600101805483518184028101840190945280845260609392830182828015610c3757602002820191906000526020600020905b815481526020019060010190808311610c23575b5050505050905090565b33600090815260036020908152604080832080548251818502810185019093528083528493830182828015610c9557602002820191906000526020600020905b815481526020019060010190808311610c81575b5050505050905060005b8151811015610cda5783828281518110610cbb57610cbb611497565b602002602001015103610cd2575060019392505050565b600101610c9f565b5060009392505050565b6000805b600084815260016020526040902054811015610e0457600084815260016020526040902080546001600160a01b038516919083908110610d2a57610d2a611497565b60009182526020909120600590910201546001600160a01b031603610dfc5760005b6000858152600160205260409020805483908110610d6c57610d6c611497565b906000526020600020906005020160030180549050811015610dfa576000858152600160205260409020805433919084908110610dab57610dab611497565b90600052602060002090600502016003018281548110610dcd57610dcd611497565b6000918252602090912001546001600160a01b031603610df257600192505050610e0a565b600101610d4c565b505b600101610ce8565b50600090505b92915050565b6000805b33600090815260208190526040902060010154811015610e7657336000908152602081905260409020600101805484919083908110610e5557610e55611497565b906000526020600020015403610e6e5750600192915050565b600101610e14565b50600092915050565b610e898183610ce4565b610efb5760405162461bcd60e51b815260206004820152603e60248201527f596f752068617665206e6f742064656c65676174656420746f2074686520737060448201527f656369666965642064656c656761746520696e20746869732067726f757000006064820152608401610574565b6000805b6000838152600160205260409020548110156110e357600083815260016020526040902080546001600160a01b038616919083908110610f4157610f41611497565b60009182526020909120600590910201546001600160a01b0316036110db576000838152600160205260409020805482908110610f8057610f80611497565b600091825260208220600260059092020101805491610f9e836115e1565b90915550506000838152600160205260409020805482908110610fc357610fc3611497565b906000526020600020906005020160020154915060005b6000848152600160205260409020805483908110610ffa57610ffa611497565b9060005260206000209060050201600301805490508110156110d957600084815260016020526040902080543391908490811061103957611039611497565b9060005260206000209060050201600301828154811061105b5761105b611497565b6000918252602090912001546001600160a01b0316036110d157600084815260016020526040902080548390811061109557611095611497565b906000526020600020906005020160030181815481106110b7576110b7611497565b600091825260209091200180546001600160a01b03191690555b600101610fda565b505b600101610eff565b5060005b336000908152600360205260409020548110156111675733600090815260036020526040902080548491908390811061112257611122611497565b90600052602060002001540361115f5733600090815260036020526040902080548290811061115357611153611497565b60009182526020822001555b6001016110e7565b50604080516001600160a01b0385168152336020820152908101839052606081018290527ffe78e1dedca6af8797c8c45500588ea289add8b4b886f1d9b8d3824796274e369060800160405180910390a1505050565b6000805b600084815260016020526040902054811015610e0457600084815260016020526040902080546001600160a01b03851691908390811061120357611203611497565b60009182526020909120600590910201546001600160a01b03160361122c576001915050610e0a565b6001016111c1565b6000805b33600090815260208190526040902060010154811015610e765733600090815260208190526040902060010180548491908390811061127957611279611497565b9060005260206000200154036112925750600192915050565b600101611238565b6000805b83518110156112d657828482815181106112ba576112ba611497565b6020026020010151036112ce579050610e0a565b60010161129e565b5060405162461bcd60e51b8152602060048201526009602482015268139bdd08119bdd5b9960ba1b6044820152606401610574565b50805460008255906000526020600020908101906113299190611391565b50565b828054828255906000526020600020908101928215611381579160200282015b8281111561138157825182546001600160a01b0319166001600160a01b0390911617825560209092019160019091019061134c565b5061138d929150611391565b5090565b5b8082111561138d5760008155600101611392565b6000602082840312156113b857600080fd5b5035919050565b80356001600160a01b03811681146113d657600080fd5b919050565b600080604083850312156113ee57600080fd5b823591506113fe602084016113bf565b90509250929050565b6000806040838503121561141a57600080fd5b50508035926020909101359150565b6020808252825182820181905260009190848201906040850190845b8181101561146157835183529284019291840191600101611445565b50909695505050505050565b6000806040838503121561148057600080fd5b611489836113bf565b946020939093013593505050565b634e487b7160e01b600052603260045260246000fd5b634e487b7160e01b600052601160045260246000fd5b6000600182016114d5576114d56114ad565b5060010190565b60008151808452602080850194506020840160005b838110156115165781516001600160a01b0316875295820195908201906001016114f1565b509495945050505050565b6001600160a01b03868116825285166020820152604081018490526060810183905260a06080820181905260009061155b908301846114dc565b979650505050505050565b60018060a01b038616815284602082015283604082015260a06060820152600061159360a08301856114dc565b90508260808301529695505050505050565b81810381811115610e0a57610e0a6114ad565b80820180821115610e0a57610e0a6114ad565b634e487b7160e01b600052603160045260246000fd5b6000816115f0576115f06114ad565b50600019019056fea26469706673582212203304f4cbf25bfd734ccfb7b0932dfe1d134acf3ae759d944501af4f79f8cb80464736f6c63430008170033",
    "linkReferences": {}
  },
  "methodIdentifiers": {
    "becomeDelegate(uint256)": "395e0139",
    "checkAllRights()": "ae828f3c",
    "checkRightsInGroup(uint256)": "de219672",
    "delegate(uint256,address)": "08bbb824",
    "giveRightToVote(uint256)": "bc23bd51",
    "groupDelegates(uint256,uint256)": "ac8ec2f9",
    "hasDelegatedInGroup(uint256)": "b0333e0d",
    "hasDelegatedToDelegateInGroup(uint256,address)": "d5887489",
    "removeDelegation(address,uint256)": "fd6c914e",
    "removeRightToVote(uint256)": "422ee52a",
    "resignAsDelegate(uint256)": "0457bea8"
  },
  "id": 22
}