{
  "abi": [
    {
      "anonymous": false,
      "inputs": [
        {
          "indexed": false,
          "internalType": "address",
          "name": "delegate",
          "type": "address"
        },
        {
          "indexed": false,
          "internalType": "uint256",
          "name": "groupId",
          "type": "uint256"
        }
      ],
      "name": "DelegateResignation",
      "type": "event"
    },
    {
      "anonymous": false,
      "inputs": [
        {
          "indexed": false,
          "internalType": "address",
          "name": "from",
          "type": "address"
        },
        {
          "indexed": false,
          "internalType": "address",
          "name": "by",
          "type": "address"
        },
        {
          "indexed": false,
          "internalType": "uint256",
          "name": "groupId",
          "type": "uint256"
        },
        {
          "indexed": false,
          "internalType": "uint256",
          "name": "delegatedVotes",
          "type": "uint256"
        }
      ],
      "name": "DelegationRemoved",
      "type": "event"
    },
    {
      "anonymous": false,
      "inputs": [
        {
          "indexed": false,
          "internalType": "address",
          "name": "delegate",
          "type": "address"
        },
        {
          "indexed": false,
          "internalType": "uint256",
          "name": "groupId",
          "type": "uint256"
        },
        {
          "indexed": false,
          "internalType": "uint256",
          "name": "delegatedVotes",
          "type": "uint256"
        },
        {
          "indexed": false,
          "internalType": "address[]",
          "name": "delegationsFrom",
          "type": "address[]"
        },
        {
          "indexed": false,
          "internalType": "uint256",
          "name": "groupDelegateId",
          "type": "uint256"
        }
      ],
      "name": "NewDelegate",
      "type": "event"
    },
    {
      "anonymous": false,
      "inputs": [
        {
          "indexed": false,
          "internalType": "address",
          "name": "from",
          "type": "address"
        },
        {
          "indexed": false,
          "internalType": "address",
          "name": "to",
          "type": "address"
        },
        {
          "indexed": false,
          "internalType": "uint256",
          "name": "groupId",
          "type": "uint256"
        },
        {
          "indexed": false,
          "internalType": "uint256",
          "name": "delegatedVotes",
          "type": "uint256"
        },
        {
          "indexed": false,
          "internalType": "address[]",
          "name": "delegationsFrom",
          "type": "address[]"
        }
      ],
      "name": "NewDelegation",
      "type": "event"
    },
    {
      "inputs": [
        {
          "internalType": "uint256",
          "name": "_groupId",
          "type": "uint256"
        }
      ],
      "name": "becomeDelegate",
      "outputs": [],
      "stateMutability": "nonpayable",
      "type": "function"
    },
    {
      "inputs": [],
      "name": "checkAllRights",
      "outputs": [
        {
          "internalType": "uint256[]",
          "name": "groups",
          "type": "uint256[]"
        }
      ],
      "stateMutability": "view",
      "type": "function"
    },
    {
      "inputs": [
        {
          "internalType": "uint256",
          "name": "_group",
          "type": "uint256"
        }
      ],
      "name": "checkRightsInGroup",
      "outputs": [
        {
          "internalType": "bool",
          "name": "hasRight",
          "type": "bool"
        }
      ],
      "stateMutability": "view",
      "type": "function"
    },
    {
      "inputs": [
        {
          "internalType": "uint256",
          "name": "_groupId",
          "type": "uint256"
        },
        {
          "internalType": "address",
          "name": "_delegateTo",
          "type": "address"
        }
      ],
      "name": "delegate",
      "outputs": [],
      "stateMutability": "nonpayable",
      "type": "function"
    },
    {
      "inputs": [
        {
          "internalType": "uint256",
          "name": "_group",
          "type": "uint256"
        }
      ],
      "name": "giveRightToVote",
      "outputs": [],
      "stateMutability": "payable",
      "type": "function"
    },
    {
      "inputs": [
        {
          "internalType": "uint256",
          "name": "",
          "type": "uint256"
        },
        {
          "internalType": "uint256",
          "name": "",
          "type": "uint256"
        }
      ],
      "name": "groupDelegates",
      "outputs": [
        {
          "internalType": "address",
          "name": "delegate",
          "type": "address"
        },
        {
          "internalType": "uint256",
          "name": "groupId",
          "type": "uint256"
        },
        {
          "internalType": "uint256",
          "name": "delegatedVotes",
          "type": "uint256"
        },
        {
          "internalType": "uint256",
          "name": "groupDelegateId",
          "type": "uint256"
        }
      ],
      "stateMutability": "view",
      "type": "function"
    },
    {
      "inputs": [
        {
          "internalType": "uint256",
          "name": "_groupId",
          "type": "uint256"
        }
      ],
      "name": "hasDelegatedInGroup",
      "outputs": [
        {
          "internalType": "bool",
          "name": "",
          "type": "bool"
        }
      ],
      "stateMutability": "view",
      "type": "function"
    },
    {
      "inputs": [
        {
          "internalType": "uint256",
          "name": "_groupId",
          "type": "uint256"
        },
        {
          "internalType": "address",
          "name": "_delegate",
          "type": "address"
        }
      ],
      "name": "hasDelegatedToDelegateInGroup",
      "outputs": [
        {
          "internalType": "bool",
          "name": "",
          "type": "bool"
        }
      ],
      "stateMutability": "view",
      "type": "function"
    },
    {
      "inputs": [
        {
          "internalType": "address",
          "name": "_delegate",
          "type": "address"
        },
        {
          "internalType": "uint256",
          "name": "_groupId",
          "type": "uint256"
        }
      ],
      "name": "removeDelegation",
      "outputs": [],
      "stateMutability": "nonpayable",
      "type": "function"
    },
    {
      "inputs": [
        {
          "internalType": "uint256",
          "name": "_group",
          "type": "uint256"
        }
      ],
      "name": "removeRightToVote",
      "outputs": [],
      "stateMutability": "payable",
      "type": "function"
    },
    {
      "inputs": [
        {
          "internalType": "uint256",
          "name": "_groupId",
          "type": "uint256"
        }
      ],
      "name": "resignAsDelegate",
      "outputs": [],
      "stateMutability": "nonpayable",
      "type": "function"
    }
  ],
  "bytecode": {
    "object": "0x608060405234801561001057600080fd5b5061163d806100206000396000f3fe60806040526004361061009c5760003560e01c8063ae828f3c11610064578063ae828f3c14610165578063b0333e0d14610187578063bc23bd51146101b7578063d5887489146101e8578063de21967214610208578063fd6c914e1461022857600080fd5b80630457bea8146100a157806308bbb824146100c3578063395e0139146100e3578063422ee52a14610103578063ac8ec2f914610116575b600080fd5b3480156100ad57600080fd5b506100c16100bc3660046113b5565b610248565b005b3480156100cf57600080fd5b506100c16100de3660046113ea565b610508565b3480156100ef57600080fd5b506100c16100fe3660046113b5565b6108e3565b6100c16101113660046113b5565b610a0b565b34801561012257600080fd5b50610136610131366004611416565b610b9d565b604080516001600160a01b03909516855260208501939093529183015260608201526080015b60405180910390f35b34801561017157600080fd5b5061017a610bed565b60405161015c9190611438565b34801561019357600080fd5b506101a76101a23660046113b5565b610c4f565b604051901515815260200161015c565b6100c16101c53660046113b5565b336000908152602081815260408220600190810180549182018155835291200155565b3480156101f457600080fd5b506101a76102033660046113ea565b610cf2565b34801561021457600080fd5b506101a76102233660046113b5565b610e1e565b34801561023457600080fd5b506100c161024336600461147c565b610e8d565b6000818152600160205260408120546060915b818110156103a1576000848152600160205260409020805433919083908110610286576102866114a6565b60009182526020909120600590910201546001600160a01b0316036103995760008481526001602052604090208054829081106102c5576102c56114a6565b906000526020600020906005020160030180548060200260200160405190810160405280929190818152602001828054801561032a57602002820191906000526020600020905b81546001600160a01b0316815260019091019060200180831161030c575b50505050509250600160008581526020019081526020016000208181548110610355576103556114a6565b60009182526020822060059091020180546001600160a01b031916815560018101829055600281018290559061038e600383018261131a565b600482016000905550505b60010161025b565b5060005b82518110156104c957600360008483815181106103c4576103c46114a6565b60200260200101516001600160a01b03166001600160a01b0316815260200190815260200160002080549050915060005b828110156104c0578460036000868581518110610414576104146114a6565b60200260200101516001600160a01b03166001600160a01b03168152602001908152602001600020828154811061044d5761044d6114a6565b9060005260206000200154036104b85760036000858481518110610473576104736114a6565b60200260200101516001600160a01b03166001600160a01b0316815260200190815260200160002081815481106104ac576104ac6114a6565b60009182526020822001555b6001016103f5565b506001016103a5565b5060408051338152602081018590527f4a49253305f0d63099f6b61a9d355ce9fd607a6b536918966a9b09cd46b4da8b910160405180910390a1505050565b61051282826111cc565b6105805760405162461bcd60e51b815260206004820152603460248201527f5468652061646472657373206973206e6f7420612064656c656761746520696e604482015273020746865207370656369666965642067726f75760641b60648201526084015b60405180910390fd5b61058982611243565b6105f25760405162461bcd60e51b815260206004820152603460248201527f596f752063616e206f6e6c792064656c656761746520696e2067726f757073206044820152733cb7ba9030b93290309036b2b6b132b91037b31760611b6064820152608401610577565b6105fb82610c4f565b1561065d5760405162461bcd60e51b815260206004820152602c60248201527f596f75206861766520616e206163746976652064656c65676174696f6e20696e60448201526b103a3434b99033b937bab81760a11b6064820152608401610577565b336001600160a01b038216036106b55760405162461bcd60e51b815260206004820181905260248201527f596f752063616e206e6f742064656c656761746520746f20796f757273656c666044820152606401610577565b33600090815260036020908152604080832080546001818101835591855283852001869055858452909152812054606090825b8181101561089c57600086815260016020526040902080546001600160a01b03871691908390811061071c5761071c6114a6565b60009182526020909120600590910201546001600160a01b03160361089457600086815260016020526040902080548290811061075b5761075b6114a6565b600091825260208220600260059092020101805491610779836114d2565b9091555050600086815260016020526040902080548290811061079e5761079e6114a6565b600091825260208083206003600590930201919091018054600181810183559184528284200180546001600160a01b031916331790558883529052604090208054829081106107ef576107ef6114a6565b9060005260206000209060050201600201549350600160008781526020019081526020016000208181548110610827576108276114a6565b906000526020600020906005020160030180548060200260200160405190810160405280929190818152602001828054801561088c57602002820191906000526020600020905b81546001600160a01b0316815260019091019060200180831161086e575b505050505092505b6001016106e8565b507f666c49d8439089d417a99690492068a6e44b8f5ee919a4e15f72d0185e60344033858786866040516108d4959493929190611530565b60405180910390a15050505050565b60008181526002602052604081208054916108fd836114d2565b90915550506040805160a081018252338152602080820184815260008385018181528551828152808501875260608601908152878352600280865287842054608088015288845260018087529784208054808a01825590855293869020875160059095020180546001600160a01b0319166001600160a01b039095169490941784559351968301969096555191810191909155925180519293849390926109ab92600385019291019061133b565b506080918201516004909101558151602083015160408085015160608601519486015191517fb5977a248b20510642da018e687e9ba90beb459651acf6b82b232aeab1aac86e956109ff9594939091611575565b60405180910390a15050565b336000908152602081815260408083206001018054825181850281018501909352808352610a6d93830182828015610a6257602002820191906000526020600020905b815481526020019060010190808311610a4e575b5050505050836112a9565b336000908152602081905260409020600101549091508110610ac65760405162461bcd60e51b81526020600482015260126024820152711a5b99195e081bdd5d081bd988189bdd5b9960721b6044820152606401610577565b805b336000908152602081905260409020600190810154610ae791906115b4565b811015610b6157336000908152602081905260409020600190810190610b0e9083906115c7565b81548110610b1e57610b1e6114a6565b6000918252602080832090910154338352908290526040909120600101805483908110610b4d57610b4d6114a6565b600091825260209091200155600101610ac8565b50336000908152602081905260409020600101805480610b8357610b836115da565b600190038181906000526020600020016000905590555050565b60016020528160005260406000208181548110610bb957600080fd5b600091825260209091206005909102018054600182015460028301546004909301546001600160a01b039092169450925084565b3360009081526020818152604091829020600101805483518184028101840190945280845260609392830182828015610c4557602002820191906000526020600020905b815481526020019060010190808311610c31575b5050505050905090565b33600090815260036020908152604080832080548251818502810185019093528083528493830182828015610ca357602002820191906000526020600020905b815481526020019060010190808311610c8f575b5050505050905060005b8151811015610ce85783828281518110610cc957610cc96114a6565b602002602001015103610ce0575060019392505050565b600101610cad565b5060009392505050565b600082815260016020526040812054815b81811015610e1157600085815260016020526040902080546001600160a01b038616919083908110610d3757610d376114a6565b60009182526020909120600590910201546001600160a01b031603610e09576000858152600160205260409020805482908110610d7657610d766114a6565b6000918252602082206003600590920201015492505b82811015610e07576000868152600160205260409020805433919084908110610db757610db76114a6565b90600052602060002090600502016003018281548110610dd957610dd96114a6565b6000918252602090912001546001600160a01b031603610dff5760019350505050610e18565b600101610d8c565b505b600101610d03565b5060009150505b92915050565b6000805b33600090815260208190526040902060010154811015610e8457336000908152602081905260409020600101805484919083908110610e6357610e636114a6565b906000526020600020015403610e7c5750600192915050565b600101610e22565b50600092915050565b610e978183610cf2565b610f095760405162461bcd60e51b815260206004820152603e60248201527f596f752068617665206e6f742064656c65676174656420746f2074686520737060448201527f656369666965642064656c656761746520696e20746869732067726f757000006064820152608401610577565b600081815260016020526040812054815b818110156110f057600084815260016020526040902080546001600160a01b038716919083908110610f4e57610f4e6114a6565b60009182526020909120600590910201546001600160a01b0316036110e8576000848152600160205260409020805482908110610f8d57610f8d6114a6565b600091825260208220600260059092020101805491610fab836115f0565b90915550506000848152600160205260409020805482908110610fd057610fd06114a6565b906000526020600020906005020160020154925060005b6000858152600160205260409020805483908110611007576110076114a6565b9060005260206000209060050201600301805490508110156110e6576000858152600160205260409020805433919084908110611046576110466114a6565b90600052602060002090600502016003018281548110611068576110686114a6565b6000918252602090912001546001600160a01b0316036110de5760008581526001602052604090208054839081106110a2576110a26114a6565b906000526020600020906005020160030181815481106110c4576110c46114a6565b600091825260209091200180546001600160a01b03191690555b600101610fe7565b505b600101610f1a565b505033600090815260036020526040812054905b8181101561117557336000908152600360205260409020805485919083908110611130576111306114a6565b90600052602060002001540361116d57336000908152600360205260409020805482908110611161576111616114a6565b60009182526020822001555b600101611104565b50604080516001600160a01b0386168152336020820152908101849052606081018390527ffe78e1dedca6af8797c8c45500588ea289add8b4b886f1d9b8d3824796274e369060800160405180910390a150505050565b600082815260016020526040812054815b81811015610e1157600085815260016020526040902080546001600160a01b038616919083908110611211576112116114a6565b60009182526020909120600590910201546001600160a01b03160361123b57600192505050610e18565b6001016111dd565b33600090815260208190526040812060010154815b81811015610ce857336000908152602081905260409020600101805485919083908110611287576112876114a6565b9060005260206000200154036112a1575060019392505050565b600101611258565b6000805b83518110156112e557828482815181106112c9576112c96114a6565b6020026020010151036112dd579050610e18565b6001016112ad565b5060405162461bcd60e51b8152602060048201526009602482015268139bdd08119bdd5b9960ba1b6044820152606401610577565b508054600082559060005260206000209081019061133891906113a0565b50565b828054828255906000526020600020908101928215611390579160200282015b8281111561139057825182546001600160a01b0319166001600160a01b0390911617825560209092019160019091019061135b565b5061139c9291506113a0565b5090565b5b8082111561139c57600081556001016113a1565b6000602082840312156113c757600080fd5b5035919050565b80356001600160a01b03811681146113e557600080fd5b919050565b600080604083850312156113fd57600080fd5b8235915061140d602084016113ce565b90509250929050565b6000806040838503121561142957600080fd5b50508035926020909101359150565b6020808252825182820181905260009190848201906040850190845b8181101561147057835183529284019291840191600101611454565b50909695505050505050565b6000806040838503121561148f57600080fd5b611498836113ce565b946020939093013593505050565b634e487b7160e01b600052603260045260246000fd5b634e487b7160e01b600052601160045260246000fd5b6000600182016114e4576114e46114bc565b5060010190565b60008151808452602080850194506020840160005b838110156115255781516001600160a01b031687529582019590820190600101611500565b509495945050505050565b6001600160a01b03868116825285166020820152604081018490526060810183905260a06080820181905260009061156a908301846114eb565b979650505050505050565b60018060a01b038616815284602082015283604082015260a0606082015260006115a260a08301856114eb565b90508260808301529695505050505050565b81810381811115610e1857610e186114bc565b80820180821115610e1857610e186114bc565b634e487b7160e01b600052603160045260246000fd5b6000816115ff576115ff6114bc565b50600019019056fea264697066735822122057d94b23ac1075032caa0d7f2f5dd83b9851a4595938fcd7313f830edf18005664736f6c63430008170033",
    "linkReferences": {}
  },
  "methodIdentifiers": {
    "becomeDelegate(uint256)": "395e0139",
    "checkAllRights()": "ae828f3c",
    "checkRightsInGroup(uint256)": "de219672",
    "delegate(uint256,address)": "08bbb824",
    "giveRightToVote(uint256)": "bc23bd51",
    "groupDelegates(uint256,uint256)": "ac8ec2f9",
    "hasDelegatedInGroup(uint256)": "b0333e0d",
    "hasDelegatedToDelegateInGroup(uint256,address)": "d5887489",
    "removeDelegation(address,uint256)": "fd6c914e",
    "removeRightToVote(uint256)": "422ee52a",
    "resignAsDelegate(uint256)": "0457bea8"
  },
  "id": 21
}