{
  "abi": [
    {
      "anonymous": false,
      "inputs": [
        {
          "indexed": true,
          "internalType": "address",
          "name": "delegate",
          "type": "address"
        },
        {
          "indexed": true,
          "internalType": "uint256",
          "name": "groupId",
          "type": "uint256"
        }
      ],
      "name": "DelegateResignation",
      "type": "event"
    },
    {
      "anonymous": false,
      "inputs": [
        {
          "indexed": true,
          "internalType": "address",
          "name": "delegate",
          "type": "address"
        },
        {
          "indexed": true,
          "internalType": "uint256",
          "name": "groupId",
          "type": "uint256"
        },
        {
          "indexed": false,
          "internalType": "uint256",
          "name": "delegatedVotes",
          "type": "uint256"
        },
        {
          "indexed": false,
          "internalType": "address[]",
          "name": "delegationsFrom",
          "type": "address[]"
        },
        {
          "indexed": false,
          "internalType": "uint256",
          "name": "groupDelegateId",
          "type": "uint256"
        }
      ],
      "name": "NewDelegate",
      "type": "event"
    },
    {
      "anonymous": false,
      "inputs": [
        {
          "indexed": true,
          "internalType": "address",
          "name": "from",
          "type": "address"
        },
        {
          "indexed": true,
          "internalType": "address",
          "name": "to",
          "type": "address"
        },
        {
          "indexed": true,
          "internalType": "uint256",
          "name": "groupId",
          "type": "uint256"
        },
        {
          "indexed": false,
          "internalType": "uint256",
          "name": "delegatedVotes",
          "type": "uint256"
        },
        {
          "indexed": false,
          "internalType": "address[]",
          "name": "delegationsFrom",
          "type": "address[]"
        }
      ],
      "name": "NewDelegation",
      "type": "event"
    },
    {
      "anonymous": false,
      "inputs": [
        {
          "indexed": true,
          "internalType": "uint256",
          "name": "_group",
          "type": "uint256"
        }
      ],
      "name": "PermissionGivenToVote",
      "type": "event"
    },
    {
      "inputs": [
        {
          "internalType": "uint256",
          "name": "_groupId",
          "type": "uint256"
        },
        {
          "internalType": "address",
          "name": "_potentialDelegate",
          "type": "address"
        }
      ],
      "name": "addressIsDelegate",
      "outputs": [
        {
          "internalType": "bool",
          "name": "isDelegate",
          "type": "bool"
        }
      ],
      "stateMutability": "view",
      "type": "function"
    },
    {
      "inputs": [
        {
          "internalType": "uint256",
          "name": "_group",
          "type": "uint256"
        }
      ],
      "name": "becameMemberOfGroup",
      "outputs": [],
      "stateMutability": "payable",
      "type": "function"
    },
    {
      "inputs": [
        {
          "internalType": "uint256",
          "name": "_groupId",
          "type": "uint256"
        }
      ],
      "name": "becomeDelegate",
      "outputs": [],
      "stateMutability": "nonpayable",
      "type": "function"
    },
    {
      "inputs": [
        {
          "internalType": "uint256",
          "name": "_groupId",
          "type": "uint256"
        },
        {
          "internalType": "address",
          "name": "_delegateTo",
          "type": "address"
        }
      ],
      "name": "delegate",
      "outputs": [],
      "stateMutability": "nonpayable",
      "type": "function"
    },
    {
      "inputs": [],
      "name": "getGroupsUserIsMemberIn",
      "outputs": [
        {
          "internalType": "uint256[]",
          "name": "groups",
          "type": "uint256[]"
        }
      ],
      "stateMutability": "view",
      "type": "function"
    },
    {
      "inputs": [
        {
          "internalType": "uint256",
          "name": "",
          "type": "uint256"
        },
        {
          "internalType": "uint256",
          "name": "",
          "type": "uint256"
        }
      ],
      "name": "groupDelegates",
      "outputs": [
        {
          "internalType": "address",
          "name": "delegate",
          "type": "address"
        },
        {
          "internalType": "uint256",
          "name": "groupId",
          "type": "uint256"
        },
        {
          "internalType": "uint256",
          "name": "delegatedVotes",
          "type": "uint256"
        },
        {
          "internalType": "uint256",
          "name": "groupDelegateId",
          "type": "uint256"
        }
      ],
      "stateMutability": "view",
      "type": "function"
    },
    {
      "inputs": [
        {
          "internalType": "uint256",
          "name": "_groupId",
          "type": "uint256"
        }
      ],
      "name": "hasDelegatedInGroup",
      "outputs": [
        {
          "internalType": "bool",
          "name": "",
          "type": "bool"
        }
      ],
      "stateMutability": "view",
      "type": "function"
    },
    {
      "inputs": [
        {
          "internalType": "uint256",
          "name": "_groupId",
          "type": "uint256"
        },
        {
          "internalType": "address",
          "name": "_delegate",
          "type": "address"
        }
      ],
      "name": "hasDelegatedToDelegateInGroup",
      "outputs": [
        {
          "internalType": "bool",
          "name": "",
          "type": "bool"
        }
      ],
      "stateMutability": "view",
      "type": "function"
    },
    {
      "inputs": [
        {
          "internalType": "uint256",
          "name": "_group",
          "type": "uint256"
        }
      ],
      "name": "isUserMemberOfGroup",
      "outputs": [
        {
          "internalType": "bool",
          "name": "hasRight",
          "type": "bool"
        }
      ],
      "stateMutability": "view",
      "type": "function"
    },
    {
      "inputs": [
        {
          "internalType": "address",
          "name": "_delegate",
          "type": "address"
        },
        {
          "internalType": "uint256",
          "name": "_groupId",
          "type": "uint256"
        }
      ],
      "name": "removeDelegation",
      "outputs": [],
      "stateMutability": "nonpayable",
      "type": "function"
    },
    {
      "inputs": [
        {
          "internalType": "uint256",
          "name": "_group",
          "type": "uint256"
        }
      ],
      "name": "removeGroupMembership",
      "outputs": [],
      "stateMutability": "payable",
      "type": "function"
    },
    {
      "inputs": [
        {
          "internalType": "uint256",
          "name": "_groupId",
          "type": "uint256"
        }
      ],
      "name": "resignAsDelegate",
      "outputs": [],
      "stateMutability": "nonpayable",
      "type": "function"
    }
  ],
  "bytecode": {
    "object": "0x608060405234801561001057600080fd5b506116e1806100206000396000f3fe6080604052600436106100a75760003560e01c8063ac8ec2f911610064578063ac8ec2f914610176578063b0333e0d146101c0578063b28bb34c146101e0578063d588748914610202578063f13a756f14610222578063fd6c914e1461023557600080fd5b80630457bea8146100ac57806308bbb824146100ce57806321bcf082146100ee578063395e0139146101235780634b30ef34146101435780638ad0871b14610156575b600080fd5b3480156100b857600080fd5b506100cc6100c7366004611493565b610255565b005b3480156100da57600080fd5b506100cc6100e93660046114c8565b610517565b3480156100fa57600080fd5b5061010e6101093660046114c8565b61089c565b60405190151581526020015b60405180910390f35b34801561012f57600080fd5b506100cc61013e366004611493565b610920565b6100cc610151366004611493565b610abf565b34801561016257600080fd5b5061010e610171366004611493565b610cb4565b34801561018257600080fd5b506101966101913660046114f4565b610d23565b604080516001600160a01b039095168552602085019390935291830152606082015260800161011a565b3480156101cc57600080fd5b5061010e6101db366004611493565b610d73565b3480156101ec57600080fd5b506101f5610e16565b60405161011a9190611516565b34801561020e57600080fd5b5061010e61021d3660046114c8565b610e78565b6100cc610230366004611493565b610f97565b34801561024157600080fd5b506100cc61025036600461155a565b61104f565b8033610261828261133e565b6000838152600160205260408120546060915b818110156103ba57600086815260016020526040902080543391908390811061029f5761029f611584565b60009182526020909120600590910201546001600160a01b0316036103b25760008681526001602052604090208054829081106102de576102de611584565b906000526020600020906005020160030180548060200260200160405190810160405280929190818152602001828054801561034357602002820191906000526020600020905b81546001600160a01b03168152600190910190602001808311610325575b5050505050925060016000878152602001908152602001600020818154811061036e5761036e611584565b60009182526020822060059091020180546001600160a01b03191681556001810182905560028101829055906103a760038301826113f8565b600482016000905550505b600101610274565b5060005b82518110156104e257600360008483815181106103dd576103dd611584565b60200260200101516001600160a01b03166001600160a01b0316815260200190815260200160002080549050915060005b828110156104d957866003600086858151811061042d5761042d611584565b60200260200101516001600160a01b03166001600160a01b03168152602001908152602001600020828154811061046657610466611584565b9060005260206000200154036104d1576003600085848151811061048c5761048c611584565b60200260200101516001600160a01b03166001600160a01b0316815260200190815260200160002081815481106104c5576104c5611584565b60009182526020822001555b60010161040e565b506001016103be565b50604051859033907f4a49253305f0d63099f6b61a9d355ce9fd607a6b536918966a9b09cd46b4da8b90600090a35050505050565b8181610523828261133e565b61052c84610cb4565b61059a5760405162461bcd60e51b815260206004820152603460248201527f596f752063616e206f6e6c792064656c656761746520696e2067726f757073206044820152733cb7ba9030b93290309036b2b6b132b91037b31760611b60648201526084015b60405180910390fd5b6105a384610d73565b156106055760405162461bcd60e51b815260206004820152602c60248201527f596f75206861766520616e206163746976652064656c65676174696f6e20696e60448201526b103a3434b99033b937bab81760a11b6064820152608401610591565b336001600160a01b0384160361065d5760405162461bcd60e51b815260206004820181905260248201527f596f752063616e206e6f742064656c656761746520746f20796f757273656c666044820152606401610591565b33600090815260036020908152604080832080546001818101835591855283852001889055878452909152812054606090825b8181101561084457600088815260016020526040902080546001600160a01b0389169190839081106106c4576106c4611584565b60009182526020909120600590910201546001600160a01b03160361083c57600088815260016020526040902080548290811061070357610703611584565b600091825260208220600260059092020101805491610721836115b0565b9091555050600088815260016020526040902080548290811061074657610746611584565b600091825260208083206003600590930201919091018054600181810183559184528284200180546001600160a01b031916331790558a835290526040902080548290811061079757610797611584565b90600052602060002090600502016002015493506001600089815260200190815260200160002081815481106107cf576107cf611584565b906000526020600020906005020160030180548060200260200160405190810160405280929190818152602001828054801561083457602002820191906000526020600020905b81546001600160a01b03168152600190910190602001808311610816575b505050505092505b600101610690565b5086866001600160a01b0316336001600160a01b03167f666c49d8439089d417a99690492068a6e44b8f5ee919a4e15f72d0185e603440868660405161088b92919061160e565b60405180910390a450505050505050565b600082815260016020526040812054815b8181101561091357600085815260016020526040902080546001600160a01b0386169190839081106108e1576108e1611584565b60009182526020909120600590910201546001600160a01b03160361090b5760019250505061091a565b6001016108ad565b5060009150505b92915050565b61092a813361089c565b1561098c5760405162461bcd60e51b815260206004820152602c60248201527f596f752061726520616c726561647920612064656c656761746520696e20737060448201526b06563696669632067726f75760a41b6064820152608401610591565b60008181526002602052604081208054916109a6836115b0565b90915550506040805160a081018252338152602080820184815260008385018181528551828152808501875260608601908152878352600280865287842054608088015288845260018087529784208054808a01825590855293869020875160059095020180546001600160a01b0319166001600160a01b03909516949094178455935196830196909655519181019190915592518051929384939092610a54926003850192910190611419565b50608082015181600401555050806020015181600001516001600160a01b03167fb5977a248b20510642da018e687e9ba90beb459651acf6b82b232aeab1aac86e836040015184606001518560800151604051610ab39392919061162f565b60405180910390a35050565b610ac881610cb4565b610b225760405162461bcd60e51b815260206004820152602560248201527f596f7520617265206e6f74206d656d626572206f662073706563696669656420604482015264067726f75760dc1b6064820152608401610591565b336000908152602081815260408083206001018054825181850281018501909352808352610b8493830182828015610b7957602002820191906000526020600020905b815481526020019060010190808311610b65575b5050505050836113b5565b336000908152602081905260409020600101549091508110610bdd5760405162461bcd60e51b81526020600482015260126024820152711a5b99195e081bdd5d081bd988189bdd5b9960721b6044820152606401610591565b805b336000908152602081905260409020600190810154610bfe9190611658565b811015610c7857336000908152602081905260409020600190810190610c2590839061166b565b81548110610c3557610c35611584565b6000918252602080832090910154338352908290526040909120600101805483908110610c6457610c64611584565b600091825260209091200155600101610bdf565b50336000908152602081905260409020600101805480610c9a57610c9a61167e565b600190038181906000526020600020016000905590555050565b6000805b33600090815260208190526040902060010154811015610d1a57336000908152602081905260409020600101805484919083908110610cf957610cf9611584565b906000526020600020015403610d125750600192915050565b600101610cb8565b50600092915050565b60016020528160005260406000208181548110610d3f57600080fd5b600091825260209091206005909102018054600182015460028301546004909301546001600160a01b039092169450925084565b33600090815260036020908152604080832080548251818502810185019093528083528493830182828015610dc757602002820191906000526020600020905b815481526020019060010190808311610db3575b5050505050905060005b8151811015610e0c5783828281518110610ded57610ded611584565b602002602001015103610e04575060019392505050565b600101610dd1565b5060009392505050565b3360009081526020818152604091829020600101805483518184028101840190945280845260609392830182828015610e6e57602002820191906000526020600020905b815481526020019060010190808311610e5a575b5050505050905090565b600082815260016020526040812054815b8181101561091357600085815260016020526040902080546001600160a01b038616919083908110610ebd57610ebd611584565b60009182526020909120600590910201546001600160a01b031603610f8f576000858152600160205260409020805482908110610efc57610efc611584565b6000918252602082206003600590920201015492505b82811015610f8d576000868152600160205260409020805433919084908110610f3d57610f3d611584565b90600052602060002090600502016003018281548110610f5f57610f5f611584565b6000918252602090912001546001600160a01b031603610f85576001935050505061091a565b600101610f12565b505b600101610e89565b610fa081610cb4565b15610fff5760405162461bcd60e51b815260206004820152602960248201527f596f752061726520616c7265616479206d656d626572206f662073706563696660448201526806965642067726f75760bc1b6064820152608401610591565b3360009081526020818152604080832060019081018054918201815584529183209091018390555182917f8aa97af2947aac0dc42394954c6dd127eba5cecbc5a03fae31e5cc07d6738fe591a250565b6110598183610e78565b6110cb5760405162461bcd60e51b815260206004820152603e60248201527f596f752068617665206e6f742064656c65676174656420746f2074686520737060448201527f656369666965642064656c656761746520696e20746869732067726f757000006064820152608401610591565b600081815260016020526040812054815b818110156112b257600084815260016020526040902080546001600160a01b03871691908390811061111057611110611584565b60009182526020909120600590910201546001600160a01b0316036112aa57600084815260016020526040902080548290811061114f5761114f611584565b60009182526020822060026005909202010180549161116d83611694565b9091555050600084815260016020526040902080548290811061119257611192611584565b906000526020600020906005020160020154925060005b60008581526001602052604090208054839081106111c9576111c9611584565b9060005260206000209060050201600301805490508110156112a857600085815260016020526040902080543391908490811061120857611208611584565b9060005260206000209060050201600301828154811061122a5761122a611584565b6000918252602090912001546001600160a01b0316036112a057600085815260016020526040902080548390811061126457611264611584565b9060005260206000209060050201600301818154811061128657611286611584565b600091825260209091200180546001600160a01b03191690555b6001016111a9565b505b6001016110dc565b505033600090815260036020526040812054905b81811015611337573360009081526003602052604090208054859190839081106112f2576112f2611584565b90600052602060002001540361132f5733600090815260036020526040902080548290811061132357611323611584565b60009182526020822001555b6001016112c6565b5050505050565b611348828261089c565b6113b15760405162461bcd60e51b815260206004820152603460248201527f5468652061646472657373206973206e6f7420612064656c656761746520696e604482015273020746865207370656369666965642067726f75760641b6064820152608401610591565b5050565b6000805b83518110156113f157828482815181106113d5576113d5611584565b6020026020010151036113e957905061091a565b6001016113b9565b5092915050565b5080546000825590600052602060002090810190611416919061147e565b50565b82805482825590600052602060002090810192821561146e579160200282015b8281111561146e57825182546001600160a01b0319166001600160a01b03909116178255602090920191600190910190611439565b5061147a92915061147e565b5090565b5b8082111561147a576000815560010161147f565b6000602082840312156114a557600080fd5b5035919050565b80356001600160a01b03811681146114c357600080fd5b919050565b600080604083850312156114db57600080fd5b823591506114eb602084016114ac565b90509250929050565b6000806040838503121561150757600080fd5b50508035926020909101359150565b6020808252825182820181905260009190848201906040850190845b8181101561154e57835183529284019291840191600101611532565b50909695505050505050565b6000806040838503121561156d57600080fd5b611576836114ac565b946020939093013593505050565b634e487b7160e01b600052603260045260246000fd5b634e487b7160e01b600052601160045260246000fd5b6000600182016115c2576115c261159a565b5060010190565b60008151808452602080850194506020840160005b838110156116035781516001600160a01b0316875295820195908201906001016115de565b509495945050505050565b82815260406020820152600061162760408301846115c9565b949350505050565b83815260606020820152600061164860608301856115c9565b9050826040830152949350505050565b8181038181111561091a5761091a61159a565b8082018082111561091a5761091a61159a565b634e487b7160e01b600052603160045260246000fd5b6000816116a3576116a361159a565b50600019019056fea2646970667358221220a71dcafe55c175dcf45226307291819553f9b55f30702bdb595742ac0c86d09364736f6c63430008170033",
    "linkReferences": {}
  },
  "methodIdentifiers": {
    "addressIsDelegate(uint256,address)": "21bcf082",
    "becameMemberOfGroup(uint256)": "f13a756f",
    "becomeDelegate(uint256)": "395e0139",
    "delegate(uint256,address)": "08bbb824",
    "getGroupsUserIsMemberIn()": "b28bb34c",
    "groupDelegates(uint256,uint256)": "ac8ec2f9",
    "hasDelegatedInGroup(uint256)": "b0333e0d",
    "hasDelegatedToDelegateInGroup(uint256,address)": "d5887489",
    "isUserMemberOfGroup(uint256)": "8ad0871b",
    "removeDelegation(address,uint256)": "fd6c914e",
    "removeGroupMembership(uint256)": "4b30ef34",
    "resignAsDelegate(uint256)": "0457bea8"
  },
  "id": 18
}