{"abi":[{"type":"function","name":"addressIsDelegate","inputs":[{"name":"_groupId","type":"uint256","internalType":"uint256"},{"name":"_potentialDelegate","type":"address","internalType":"address"}],"outputs":[{"name":"isDelegate","type":"bool","internalType":"bool"}],"stateMutability":"view"},{"type":"function","name":"becomeDelegate","inputs":[{"name":"_groupId","type":"uint256","internalType":"uint256"}],"outputs":[],"stateMutability":"nonpayable"},{"type":"function","name":"checkAllRights","inputs":[],"outputs":[{"name":"groups","type":"uint256[]","internalType":"uint256[]"}],"stateMutability":"view"},{"type":"function","name":"checkRightsInGroup","inputs":[{"name":"_group","type":"uint256","internalType":"uint256"}],"outputs":[{"name":"hasRight","type":"bool","internalType":"bool"}],"stateMutability":"view"},{"type":"function","name":"delegate","inputs":[{"name":"_groupId","type":"uint256","internalType":"uint256"},{"name":"_delegateTo","type":"address","internalType":"address"}],"outputs":[],"stateMutability":"nonpayable"},{"type":"function","name":"giveRightToVote","inputs":[{"name":"_group","type":"uint256","internalType":"uint256"}],"outputs":[],"stateMutability":"payable"},{"type":"function","name":"groupDelegates","inputs":[{"name":"","type":"uint256","internalType":"uint256"},{"name":"","type":"uint256","internalType":"uint256"}],"outputs":[{"name":"delegate","type":"address","internalType":"address"},{"name":"groupId","type":"uint256","internalType":"uint256"},{"name":"delegatedVotes","type":"uint256","internalType":"uint256"},{"name":"groupDelegateId","type":"uint256","internalType":"uint256"}],"stateMutability":"view"},{"type":"function","name":"hasDelegatedInGroup","inputs":[{"name":"_groupId","type":"uint256","internalType":"uint256"}],"outputs":[{"name":"","type":"bool","internalType":"bool"}],"stateMutability":"view"},{"type":"function","name":"hasDelegatedToDelegateInGroup","inputs":[{"name":"_groupId","type":"uint256","internalType":"uint256"},{"name":"_delegate","type":"address","internalType":"address"}],"outputs":[{"name":"","type":"bool","internalType":"bool"}],"stateMutability":"view"},{"type":"function","name":"removeDelegation","inputs":[{"name":"_delegate","type":"address","internalType":"address"},{"name":"_groupId","type":"uint256","internalType":"uint256"}],"outputs":[],"stateMutability":"nonpayable"},{"type":"function","name":"removeRightToVote","inputs":[{"name":"_group","type":"uint256","internalType":"uint256"}],"outputs":[],"stateMutability":"payable"},{"type":"function","name":"resignAsDelegate","inputs":[{"name":"_groupId","type":"uint256","internalType":"uint256"}],"outputs":[],"stateMutability":"nonpayable"},{"type":"event","name":"DelegateResignation","inputs":[{"name":"delegate","type":"address","indexed":true,"internalType":"address"},{"name":"groupId","type":"uint256","indexed":true,"internalType":"uint256"}],"anonymous":false},{"type":"event","name":"DelegationRemoved","inputs":[{"name":"from","type":"address","indexed":true,"internalType":"address"},{"name":"by","type":"address","indexed":true,"internalType":"address"},{"name":"groupId","type":"uint256","indexed":true,"internalType":"uint256"},{"name":"delegatedVotes","type":"uint256","indexed":false,"internalType":"uint256"}],"anonymous":false},{"type":"event","name":"NewDelegate","inputs":[{"name":"delegate","type":"address","indexed":true,"internalType":"address"},{"name":"groupId","type":"uint256","indexed":true,"internalType":"uint256"},{"name":"delegatedVotes","type":"uint256","indexed":false,"internalType":"uint256"},{"name":"delegationsFrom","type":"address[]","indexed":false,"internalType":"address[]"},{"name":"groupDelegateId","type":"uint256","indexed":false,"internalType":"uint256"}],"anonymous":false},{"type":"event","name":"NewDelegation","inputs":[{"name":"from","type":"address","indexed":true,"internalType":"address"},{"name":"to","type":"address","indexed":true,"internalType":"address"},{"name":"groupId","type":"uint256","indexed":true,"internalType":"uint256"},{"name":"delegatedVotes","type":"uint256","indexed":false,"internalType":"uint256"},{"name":"delegationsFrom","type":"address[]","indexed":false,"internalType":"address[]"}],"anonymous":false},{"type":"event","name":"PermissionGivenToVote","inputs":[{"name":"_group","type":"uint256","indexed":true,"internalType":"uint256"}],"anonymous":false},{"type":"event","name":"PermissionToVoteRemoved","inputs":[{"name":"_group","type":"uint256","indexed":true,"internalType":"uint256"}],"anonymous":false}],"bytecode":{"object":"0x608060405234801561001057600080fd5b506118da806100206000396000f3fe6080604052600436106100a75760003560e01c8063ae828f3c11610064578063ae828f3c146101a0578063b0333e0d146101c2578063bc23bd51146101e2578063d5887489146101f5578063de21967214610215578063fd6c914e1461023557600080fd5b80630457bea8146100ac57806308bbb824146100ce57806321bcf082146100ee578063395e013914610123578063422ee52a14610143578063ac8ec2f914610156575b600080fd5b3480156100b857600080fd5b506100cc6100c736600461168c565b610255565b005b3480156100da57600080fd5b506100cc6100e93660046116c1565b610576565b3480156100fa57600080fd5b5061010e6101093660046116c1565b61095b565b60405190151581526020015b60405180910390f35b34801561012f57600080fd5b506100cc61013e36600461168c565b6109df565b6100cc61015136600461168c565b610b7e565b34801561016257600080fd5b506101766101713660046116ed565b610da5565b604080516001600160a01b039095168552602085019390935291830152606082015260800161011a565b3480156101ac57600080fd5b506101b5610df5565b60405161011a919061170f565b3480156101ce57600080fd5b5061010e6101dd36600461168c565b610e57565b6100cc6101f036600461168c565b610efa565b34801561020157600080fd5b5061010e6102103660046116c1565b610fab565b34801561022157600080fd5b5061010e61023036600461168c565b6110ca565b34801561024157600080fd5b506100cc610250366004611753565b611139565b6060610261823361095b565b6102c45760405162461bcd60e51b815260206004820152602960248201527f596f7520617265206e6f7420612064656c656761746520696e2072657175657360448201526807465642067726f75760bc1b60648201526084015b60405180910390fd5b600082815260016020526040812054905b8181101561041b5760008481526001602052604090208054339190839081106103005761030061177d565b60009182526020909120600590910201546001600160a01b03160361041357600084815260016020526040902080548290811061033f5761033f61177d565b90600052602060002090600502016003018054806020026020016040519081016040528092919081815260200182805480156103a457602002820191906000526020600020905b81546001600160a01b03168152600190910190602001808311610386575b505050505092506001600085815260200190815260200160002081815481106103cf576103cf61177d565b60009182526020822060059091020180546001600160a01b031916815560018101829055600281018290559061040860038301826115f1565b600482016000905550505b6001016102d5565b5060005b8251811015610543576003600084838151811061043e5761043e61177d565b60200260200101516001600160a01b03166001600160a01b0316815260200190815260200160002080549050915060005b8281101561053a57846003600086858151811061048e5761048e61177d565b60200260200101516001600160a01b03166001600160a01b0316815260200190815260200160002082815481106104c7576104c761177d565b90600052602060002001540361053257600360008584815181106104ed576104ed61177d565b60200260200101516001600160a01b03166001600160a01b0316815260200190815260200160002081815481106105265761052661177d565b60009182526020822001555b60010161046f565b5060010161041f565b50604051839033907f4a49253305f0d63099f6b61a9d355ce9fd607a6b536918966a9b09cd46b4da8b90600090a3505050565b610580828261095b565b6105e95760405162461bcd60e51b815260206004820152603460248201527f5468652061646472657373206973206e6f7420612064656c656761746520696e604482015273020746865207370656369666965642067726f75760641b60648201526084016102bb565b6105f282611476565b61065b5760405162461bcd60e51b815260206004820152603460248201527f596f752063616e206f6e6c792064656c656761746520696e2067726f757073206044820152733cb7ba9030b93290309036b2b6b132b91037b31760611b60648201526084016102bb565b61066482610e57565b156106c65760405162461bcd60e51b815260206004820152602c60248201527f596f75206861766520616e206163746976652064656c65676174696f6e20696e60448201526b103a3434b99033b937bab81760a11b60648201526084016102bb565b336001600160a01b0382160361071e5760405162461bcd60e51b815260206004820181905260248201527f596f752063616e206e6f742064656c656761746520746f20796f757273656c6660448201526064016102bb565b33600090815260036020908152604080832080546001818101835591855283852001869055858452909152812054606090825b8181101561090557600086815260016020526040902080546001600160a01b0387169190839081106107855761078561177d565b60009182526020909120600590910201546001600160a01b0316036108fd5760008681526001602052604090208054829081106107c4576107c461177d565b6000918252602082206002600590920201018054916107e2836117a9565b909155505060008681526001602052604090208054829081106108075761080761177d565b600091825260208083206003600590930201919091018054600181810183559184528284200180546001600160a01b031916331790558883529052604090208054829081106108585761085861177d565b90600052602060002090600502016002015493506001600087815260200190815260200160002081815481106108905761089061177d565b90600052602060002090600502016003018054806020026020016040519081016040528092919081815260200182805480156108f557602002820191906000526020600020905b81546001600160a01b031681526001909101906020018083116108d7575b505050505092505b600101610751565b5084846001600160a01b0316336001600160a01b03167f666c49d8439089d417a99690492068a6e44b8f5ee919a4e15f72d0185e603440868660405161094c929190611807565b60405180910390a45050505050565b600082815260016020526040812054815b818110156109d257600085815260016020526040902080546001600160a01b0386169190839081106109a0576109a061177d565b60009182526020909120600590910201546001600160a01b0316036109ca576001925050506109d9565b60010161096c565b5060009150505b92915050565b6109e9813361095b565b15610a4b5760405162461bcd60e51b815260206004820152602c60248201527f596f752061726520616c726561647920612064656c656761746520696e20737060448201526b06563696669632067726f75760a41b60648201526084016102bb565b6000818152600260205260408120805491610a65836117a9565b90915550506040805160a081018252338152602080820184815260008385018181528551828152808501875260608601908152878352600280865287842054608088015288845260018087529784208054808a01825590855293869020875160059095020180546001600160a01b0319166001600160a01b03909516949094178455935196830196909655519181019190915592518051929384939092610b13926003850192910190611612565b50608082015181600401555050806020015181600001516001600160a01b03167fb5977a248b20510642da018e687e9ba90beb459651acf6b82b232aeab1aac86e836040015184606001518560800151604051610b7293929190611828565b60405180910390a35050565b610b87816114dc565b15610be65760405162461bcd60e51b815260206004820152602960248201527f43616e27742066696e642067726f757020796f752061726520747279696e6720604482015268746f2072656d6f766560b81b60648201526084016102bb565b336000908152602081815260408083206001018054825181850281018501909352808352610c4893830182828015610c3d57602002820191906000526020600020905b815481526020019060010190808311610c29575b505050505083611580565b336000908152602081905260409020600101549091508110610ca15760405162461bcd60e51b81526020600482015260126024820152711a5b99195e081bdd5d081bd988189bdd5b9960721b60448201526064016102bb565b805b336000908152602081905260409020600190810154610cc29190611851565b811015610d3c57336000908152602081905260409020600190810190610ce9908390611864565b81548110610cf957610cf961177d565b6000918252602080832090910154338352908290526040909120600101805483908110610d2857610d2861177d565b600091825260209091200155600101610ca3565b50336000908152602081905260409020600101805480610d5e57610d5e611877565b60019003818190600052602060002001600090559055817f90da14bd9eb8fde3e05a9aafa41174e865f627f0d3fea95c160853f866913cd760405160405180910390a25050565b60016020528160005260406000208181548110610dc157600080fd5b600091825260209091206005909102018054600182015460028301546004909301546001600160a01b039092169450925084565b3360009081526020818152604091829020600101805483518184028101840190945280845260609392830182828015610e4d57602002820191906000526020600020905b815481526020019060010190808311610e39575b5050505050905090565b33600090815260036020908152604080832080548251818502810185019093528083528493830182828015610eab57602002820191906000526020600020905b815481526020019060010190808311610e97575b5050505050905060005b8151811015610ef05783828281518110610ed157610ed161177d565b602002602001015103610ee8575060019392505050565b600101610eb5565b5060009392505050565b610f03816114dc565b610f5b5760405162461bcd60e51b8152602060048201526024808201527f5065726d697373696f6e20697320616c726561647920676976656e20696e20676044820152630726f75760e41b60648201526084016102bb565b3360009081526020818152604080832060019081018054918201815584529183209091018390555182917f8aa97af2947aac0dc42394954c6dd127eba5cecbc5a03fae31e5cc07d6738fe591a250565b600082815260016020526040812054815b818110156109d257600085815260016020526040902080546001600160a01b038616919083908110610ff057610ff061177d565b60009182526020909120600590910201546001600160a01b0316036110c257600085815260016020526040902080548290811061102f5761102f61177d565b6000918252602082206003600590920201015492505b828110156110c05760008681526001602052604090208054339190849081106110705761107061177d565b906000526020600020906005020160030182815481106110925761109261177d565b6000918252602090912001546001600160a01b0316036110b857600193505050506109d9565b600101611045565b505b600101610fbc565b6000805b336000908152602081905260409020600101548110156111305733600090815260208190526040902060010180548491908390811061110f5761110f61177d565b9060005260206000200154036111285750600192915050565b6001016110ce565b50600092915050565b6111438183610fab565b6111b55760405162461bcd60e51b815260206004820152603e60248201527f596f752068617665206e6f742064656c65676174656420746f2074686520737060448201527f656369666965642064656c656761746520696e20746869732067726f7570000060648201526084016102bb565b600081815260016020526040812054815b8181101561139c57600084815260016020526040902080546001600160a01b0387169190839081106111fa576111fa61177d565b60009182526020909120600590910201546001600160a01b0316036113945760008481526001602052604090208054829081106112395761123961177d565b6000918252602082206002600590920201018054916112578361188d565b9091555050600084815260016020526040902080548290811061127c5761127c61177d565b906000526020600020906005020160020154925060005b60008581526001602052604090208054839081106112b3576112b361177d565b9060005260206000209060050201600301805490508110156113925760008581526001602052604090208054339190849081106112f2576112f261177d565b906000526020600020906005020160030182815481106113145761131461177d565b6000918252602090912001546001600160a01b03160361138a57600085815260016020526040902080548390811061134e5761134e61177d565b906000526020600020906005020160030181815481106113705761137061177d565b600091825260209091200180546001600160a01b03191690555b600101611293565b505b6001016111c6565b505033600090815260036020526040812054905b81811015611421573360009081526003602052604090208054859190839081106113dc576113dc61177d565b9060005260206000200154036114195733600090815260036020526040902080548290811061140d5761140d61177d565b60009182526020822001555b6001016113b0565b5082336001600160a01b0316856001600160a01b03167ffe78e1dedca6af8797c8c45500588ea289add8b4b886f1d9b8d3824796274e368560405161146891815260200190565b60405180910390a450505050565b33600090815260208190526040812060010154815b81811015610ef0573360009081526020819052604090206001018054859190839081106114ba576114ba61177d565b9060005260206000200154036114d4575060019392505050565b60010161148b565b336000908152602081815260408083206001018054825181850281018501909352808352849383018282801561153157602002820191906000526020600020905b81548152602001906001019080831161151d575b5050505050905060005b815181101561157657838282815181106115575761155761177d565b60200260200101510361156e575060009392505050565b60010161153b565b5060019392505050565b6000805b83518110156115bc57828482815181106115a0576115a061177d565b6020026020010151036115b45790506109d9565b600101611584565b5060405162461bcd60e51b8152602060048201526009602482015268139bdd08119bdd5b9960ba1b60448201526064016102bb565b508054600082559060005260206000209081019061160f9190611677565b50565b828054828255906000526020600020908101928215611667579160200282015b8281111561166757825182546001600160a01b0319166001600160a01b03909116178255602090920191600190910190611632565b50611673929150611677565b5090565b5b808211156116735760008155600101611678565b60006020828403121561169e57600080fd5b5035919050565b80356001600160a01b03811681146116bc57600080fd5b919050565b600080604083850312156116d457600080fd5b823591506116e4602084016116a5565b90509250929050565b6000806040838503121561170057600080fd5b50508035926020909101359150565b6020808252825182820181905260009190848201906040850190845b818110156117475783518352928401929184019160010161172b565b50909695505050505050565b6000806040838503121561176657600080fd5b61176f836116a5565b946020939093013593505050565b634e487b7160e01b600052603260045260246000fd5b634e487b7160e01b600052601160045260246000fd5b6000600182016117bb576117bb611793565b5060010190565b60008151808452602080850194506020840160005b838110156117fc5781516001600160a01b0316875295820195908201906001016117d7565b509495945050505050565b82815260406020820152600061182060408301846117c2565b949350505050565b83815260606020820152600061184160608301856117c2565b9050826040830152949350505050565b818103818111156109d9576109d9611793565b808201808211156109d9576109d9611793565b634e487b7160e01b600052603160045260246000fd5b60008161189c5761189c611793565b50600019019056fea2646970667358221220213e8781b9b2311df76a40870dc85959c8069275e1439937387e8493bc1c1b4364736f6c63430008170033","linkReferences":{}},"methodIdentifiers":{"addressIsDelegate(uint256,address)":"21bcf082","becomeDelegate(uint256)":"395e0139","checkAllRights()":"ae828f3c","checkRightsInGroup(uint256)":"de219672","delegate(uint256,address)":"08bbb824","giveRightToVote(uint256)":"bc23bd51","groupDelegates(uint256,uint256)":"ac8ec2f9","hasDelegatedInGroup(uint256)":"b0333e0d","hasDelegatedToDelegateInGroup(uint256,address)":"d5887489","removeDelegation(address,uint256)":"fd6c914e","removeRightToVote(uint256)":"422ee52a","resignAsDelegate(uint256)":"0457bea8"},"id":18}